Component: ARM Compiler 5.06 update 7 (build 960) Tool: armlink [4d3601]

==============================================================================

Section Cross References

    startup_stm32f411xe.o(RESET) refers to startup_stm32f411xe.o(STACK) for __initial_sp
    startup_stm32f411xe.o(RESET) refers to startup_stm32f411xe.o(.text) for Reset_Handler
    startup_stm32f411xe.o(RESET) refers to stm32f4xx_it.o(i.NMI_Handler) for NMI_Handler
    startup_stm32f411xe.o(RESET) refers to stm32f4xx_it.o(i.HardFault_Handler) for HardFault_Handler
    startup_stm32f411xe.o(RESET) refers to stm32f4xx_it.o(i.MemManage_Handler) for MemManage_Handler
    startup_stm32f411xe.o(RESET) refers to stm32f4xx_it.o(i.BusFault_Handler) for BusFault_Handler
    startup_stm32f411xe.o(RESET) refers to stm32f4xx_it.o(i.UsageFault_Handler) for UsageFault_Handler
    startup_stm32f411xe.o(RESET) refers to stm32f4xx_it.o(i.SVC_Handler) for SVC_Handler
    startup_stm32f411xe.o(RESET) refers to stm32f4xx_it.o(i.DebugMon_Handler) for DebugMon_Handler
    startup_stm32f411xe.o(RESET) refers to stm32f4xx_it.o(i.PendSV_Handler) for PendSV_Handler
    startup_stm32f411xe.o(RESET) refers to stm32f4xx_it.o(i.SysTick_Handler) for SysTick_Handler
    startup_stm32f411xe.o(RESET) refers to stm32f4xx_it.o(i.TIM1_UP_TIM10_IRQHandler) for TIM1_UP_TIM10_IRQHandler
    startup_stm32f411xe.o(.text) refers to system_stm32f4xx.o(i.SystemInit) for SystemInit
    startup_stm32f411xe.o(.text) refers to entry.o(.ARM.Collect$$$$00000000) for __main
    main.o(i.HAL_TIM_PeriodElapsedCallback) refers to stm32f4xx_hal.o(i.HAL_IncTick) for HAL_IncTick
    main.o(i.SystemClock_Config) refers to memseta.o(.text) for __aeabi_memclr4
    main.o(i.SystemClock_Config) refers to stm32f4xx_hal_rcc.o(i.HAL_RCC_OscConfig) for HAL_RCC_OscConfig
    main.o(i.SystemClock_Config) refers to stm32f4xx_hal_rcc.o(i.HAL_RCC_ClockConfig) for HAL_RCC_ClockConfig
==============================================================================

Removing Unused input sections from the image.

    Removing main.o(.rev16_text), (4 bytes).
    Removing main.o(.revsh_text), (4 bytes).
    Removing main.o(.rrx_text), (6 bytes).
    Removing gpio.o(.rev16_text), (4 bytes).
    Removing gpio.o(.revsh_text), (4 bytes).
    Removing gpio.o(.rrx_text), (6 bytes).
    Removing i2c.o(.rev16_text), (4 bytes).
    Removing i2c.o(.revsh_text), (4 bytes).
    Removing i2c.o(.rrx_text), (6 bytes).
    Removing i2c.o(i.HAL_I2C_MspDeInit), (88 bytes).
    Removing usart.o(.rev16_text), (4 bytes).
    Removing usart.o(.revsh_text), (4 bytes).
    Removing usart.o(.rrx_text), (6 bytes).
    Removing usart.o(i.HAL_UART_MspDeInit), (44 bytes).
    Removing stm32f4xx_it.o(.rev16_text), (4 bytes).
    Removing stm32f4xx_it.o(.revsh_text), (4 bytes).
    Removing stm32f4xx_it.o(.rrx_text), (6 bytes).
    Removing stm32f4xx_it.o(i.Delay_us), (24 bytes).
==============================================================================

Image Symbol Table

    Local Symbols

    Symbol Name                              Value     Ov Type        Size  Object(Section)

    ../Core/Src/gpio.c                       0x00000000   Number         0  gpio.o ABSOLUTE
    ../Core/Src/i2c.c                        0x00000000   Number         0  i2c.o ABSOLUTE
    ../Core/Src/main.c                       0x00000000   Number         0  main.o ABSOLUTE
    ../Core/Src/stm32f4xx_hal_msp.c          0x00000000   Number         0  stm32f4xx_hal_msp.o ABSOLUTE
    ../Core/Src/stm32f4xx_hal_timebase_tim.c 0x00000000   Number         0  stm32f4xx_hal_timebase_tim.o ABSOLUTE
    ../Core/Src/stm32f4xx_it.c               0x00000000   Number         0  stm32f4xx_it.o ABSOLUTE
    ../Core/Src/system_stm32f4xx.c           0x00000000   Number         0  system_stm32f4xx.o ABSOLUTE
    ../Core/Src/usart.c                      0x00000000   Number         0  usart.o ABSOLUTE
    ../Drivers/STM32F4xx_HAL_Driver/Src/stm32f4xx_hal.c 0x00000000   Number         0  stm32f4xx_hal.o ABSOLUTE
    ../Drivers/STM32F4xx_HAL_Driver/Src/stm32f4xx_hal_cortex.c 0x00000000   Number         0  stm32f4xx_hal_cortex.o ABSOLUTE
    ../Drivers/STM32F4xx_HAL_Driver/Src/stm32f4xx_hal_dma.c 0x00000000   Number         0  stm32f4xx_hal_dma.o ABSOLUTE
    ../Drivers/STM32F4xx_HAL_Driver/Src/stm32f4xx_hal_dma_ex.c 0x00000000   Number         0  stm32f4xx_hal_dma_ex.o ABSOLUTE
    ../Drivers/STM32F4xx_HAL_Driver/Src/stm32f4xx_hal_exti.c 0x00000000   Number         0  stm32f4xx_hal_exti.o ABSOLUTE
    ../Drivers/STM32F4xx_HAL_Driver/Src/stm32f4xx_hal_flash.c 0x00000000   Number         0  stm32f4xx_hal_flash.o ABSOLUTE
    ../Drivers/STM32F4xx_HAL_Driver/Src/stm32f4xx_hal_flash_ex.c 0x00000000   Number         0  stm32f4xx_hal_flash_ex.o ABSOLUTE
    ../Drivers/STM32F4xx_HAL_Driver/Src/stm32f4xx_hal_flash_ramfunc.c 0x00000000   Number         0  stm32f4xx_hal_flash_ramfunc.o ABSOLUTE
    ../Drivers/STM32F4xx_HAL_Driver/Src/stm32f4xx_hal_gpio.c 0x00000000   Number         0  stm32f4xx_hal_gpio.o ABSOLUTE
    ../Drivers/STM32F4xx_HAL_Driver/Src/stm32f4xx_hal_i2c.c 0x00000000   Number         0  stm32f4xx_hal_i2c.o ABSOLUTE
    ../Drivers/STM32F4xx_HAL_Driver/Src/stm32f4xx_hal_i2c_ex.c 0x00000000   Number         0  stm32f4xx_hal_i2c_ex.o ABSOLUTE
    ../Drivers/STM32F4xx_HAL_Driver/Src/stm32f4xx_hal_pcd.c 0x00000000   Number         0  stm32f4xx_hal_pcd.o ABSOLUTE
    ../Drivers/STM32F4xx_HAL_Driver/Src/stm32f4xx_hal_pcd_ex.c 0x00000000   Number         0  stm32f4xx_hal_pcd_ex.o ABSOLUTE
    ../Drivers/STM32F4xx_HAL_Driver/Src/stm32f4xx_hal_pwr.c 0x00000000   Number         0  stm32f4xx_hal_pwr.o ABSOLUTE
    ../Drivers/STM32F4xx_HAL_Driver/Src/stm32f4xx_hal_pwr_ex.c 0x00000000   Number         0  stm32f4xx_hal_pwr_ex.o ABSOLUTE
    ../Drivers/STM32F4xx_HAL_Driver/Src/stm32f4xx_hal_rcc.c 0x00000000   Number         0  stm32f4xx_hal_rcc.o ABSOLUTE
    ../Drivers/STM32F4xx_HAL_Driver/Src/stm32f4xx_hal_rcc_ex.c 0x00000000   Number         0  stm32f4xx_hal_rcc_ex.o ABSOLUTE
    ../Drivers/STM32F4xx_HAL_Driver/Src/stm32f4xx_hal_tim.c 0x00000000   Number         0  stm32f4xx_hal_tim.o ABSOLUTE
    ../Drivers/STM32F4xx_HAL_Driver/Src/stm32f4xx_hal_tim_ex.c 0x00000000   Number         0  stm32f4xx_hal_tim_ex.o ABSOLUTE
    ../Drivers/STM32F4xx_HAL_Driver/Src/stm32f4xx_hal_uart.c 0x00000000   Number         0  stm32f4xx_hal_uart.o ABSOLUTE
    ../Drivers/STM32F4xx_HAL_Driver/Src/stm32f4xx_ll_usb.c 0x00000000   Number         0  stm32f4xx_ll_usb.o ABSOLUTE
    ../clib/../cmprslib/zerorunl2.c          0x00000000   Number         0  __dczerorl2.o ABSOLUTE
    ../clib/microlib/division.c              0x00000000   Number         0  uidiv.o ABSOLUTE
    ../clib/microlib/division.c              0x00000000   Number         0  uldiv.o ABSOLUTE
    ../clib/microlib/errno.c                 0x00000000   Number         0  errno.o ABSOLUTE
    ../clib/microlib/init/entry.s            0x00000000   Number         0  entry2.o ABSOLUTE
    ../clib/microlib/init/entry.s            0x00000000   Number         0  entry9b.o ABSOLUTE
    ../clib/microlib/init/entry.s            0x00000000   Number         0  entry5.o ABSOLUTE
    ../clib/microlib/init/entry.s            0x00000000   Number         0  entry10b.o ABSOLUTE
    ../clib/microlib/init/entry.s            0x00000000   Number         0  entry11a.o ABSOLUTE
    ../clib/microlib/init/entry.s            0x00000000   Number         0  entry7a.o ABSOLUTE
    ../clib/microlib/init/entry.s            0x00000000   Number         0  entry12a.o ABSOLUTE
    ../clib/microlib/init/entry.s            0x00000000   Number         0  entry11b.o ABSOLUTE
    ../clib/microlib/init/entry.s            0x00000000   Number         0  entry9a.o ABSOLUTE
    ../clib/microlib/init/entry.s            0x00000000   Number         0  entry7b.o ABSOLUTE
    ../clib/microlib/init/entry.s            0x00000000   Number         0  entry8a.o ABSOLUTE
    ../clib/microlib/init/entry.s            0x00000000   Number         0  entry12b.o ABSOLUTE
    ../clib/microlib/init/entry.s            0x00000000   Number         0  entry10a.o ABSOLUTE
    ../clib/microlib/init/entry.s            0x00000000   Number         0  entry8b.o ABSOLUTE
    ../clib/microlib/init/entry.s            0x00000000   Number         0  entry.o ABSOLUTE
    ../clib/microlib/longlong.c              0x00000000   Number         0  llushr.o ABSOLUTE
    ../clib/microlib/longlong.c              0x00000000   Number         0  llshl.o ABSOLUTE
    ../clib/microlib/longlong.c              0x00000000   Number         0  llsshr.o ABSOLUTE
    ../clib/microlib/malloc/malloc.c         0x00000000   Number         0  malloca.o ABSOLUTE
    ../clib/microlib/malloc/malloc.c         0x00000000   Number         0  mallocra.o ABSOLUTE
    ../clib/microlib/malloc/malloc.c         0x00000000   Number         0  malloc.o ABSOLUTE
    ../clib/microlib/malloc/malloc.c         0x00000000   Number         0  mallocr.o ABSOLUTE
    ../clib/microlib/malloc/mvars.c          0x00000000   Number         0  mvars.o ABSOLUTE
    ../clib/microlib/printf/printf.c         0x00000000   Number         0  printf5.o ABSOLUTE
    ../clib/microlib/printf/printf.c         0x00000000   Number         0  printf6.o ABSOLUTE
    ../clib/microlib/printf/printf.c         0x00000000   Number         0  printf7.o ABSOLUTE
    ../clib/microlib/printf/printf.c         0x00000000   Number         0  printf8.o ABSOLUTE
    ../clib/microlib/printf/printf.c         0x00000000   Number         0  printfb.o ABSOLUTE
    ../clib/microlib/printf/printf.c         0x00000000   Number         0  printfa.o ABSOLUTE
    ../clib/microlib/printf/printf.c         0x00000000   Number         0  printf2.o ABSOLUTE
    ../clib/microlib/printf/printf.c         0x00000000   Number         0  printf1.o ABSOLUTE
    ../clib/microlib/printf/printf.c         0x00000000   Number         0  printf0.o ABSOLUTE
    ../clib/microlib/printf/printf.c         0x00000000   Number         0  printf3.o ABSOLUTE
    ../clib/microlib/printf/printf.c         0x00000000   Number         0  printf4.o ABSOLUTE
    ../clib/microlib/printf/stubs.s          0x00000000   Number         0  stubs.o ABSOLUTE
    ../clib/microlib/stdio/streams.c         0x00000000   Number         0  stdout.o ABSOLUTE
    ../clib/microlib/string/memcpy.c         0x00000000   Number         0  memcpya.o ABSOLUTE
    ../clib/microlib/string/memcpy.c         0x00000000   Number         0  memcpyb.o ABSOLUTE
    ../clib/microlib/string/memset.c         0x00000000   Number         0  memseta.o ABSOLUTE
    ../clib/microlib/stubs.s                 0x00000000   Number         0  iusefp.o ABSOLUTE
    ../fplib/microlib/d2f.c                  0x00000000   Number         0  d2f.o ABSOLUTE
    ../fplib/microlib/f2d.c                  0x00000000   Number         0  f2d.o ABSOLUTE
    ../fplib/microlib/fpadd.c                0x00000000   Number         0  dadd.o ABSOLUTE
    ../fplib/microlib/fpdiv.c                0x00000000   Number         0  ddiv.o ABSOLUTE
    ../fplib/microlib/fpepilogue.c           0x00000000   Number         0  fepilogue.o ABSOLUTE
    ../fplib/microlib/fpepilogue.c           0x00000000   Number         0  depilogue.o ABSOLUTE
    ../fplib/microlib/fpfix.c                0x00000000   Number         0  dfixul.o ABSOLUTE
    ../fplib/microlib/fpflt.c                0x00000000   Number         0  dflti.o ABSOLUTE
    ../fplib/microlib/fpmul.c                0x00000000   Number         0  dmul.o ABSOLUTE
    ../fplib/microlib/fpneg.c                0x00000000   Number         0  dneg.o ABSOLUTE
    ../fplib/microlib/fpscalb.c              0x00000000   Number         0  dscalb.o ABSOLUTE
    ../fplib/microlib/fpsqrt.c               0x00000000   Number         0  dsqrt.o ABSOLUTE
    ../mathlib/dunder.c                      0x00000000   Number         0  dunder.o ABSOLUTE
    ../mathlib/fabs.c                        0x00000000   Number         0  fabs.o ABSOLUTE
    ../mathlib/fpclassify.c                  0x00000000   Number         0  fpclassify.o ABSOLUTE
    ../mathlib/poly.c                        0x00000000   Number         0  poly.o ABSOLUTE
    ../mathlib/pow.c                         0x00000000   Number         0  pow_x.o ABSOLUTE
    ../mathlib/pow.c                         0x00000000   Number         0  pow.o ABSOLUTE
    ../mathlib/qnan.c                        0x00000000   Number         0  qnan.o ABSOLUTE
    ../mathlib/sqrt.c                        0x00000000   Number         0  sqrt.o ABSOLUTE
    ../mathlib/sqrt.c                        0x00000000   Number         0  sqrt_x.o ABSOLUTE
    ..\Core\Src\gpio.c                       0x00000000   Number         0  gpio.o ABSOLUTE
    ..\Core\Src\i2c.c                        0x00000000   Number         0  i2c.o ABSOLUTE
    ..\Core\Src\main.c                       0x00000000   Number         0  main.o ABSOLUTE
    ..\Core\Src\stm32f4xx_hal_msp.c          0x00000000   Number         0  stm32f4xx_hal_msp.o ABSOLUTE
    ..\Core\Src\stm32f4xx_hal_timebase_tim.c 0x00000000   Number         0  stm32f4xx_hal_timebase_tim.o ABSOLUTE
    ..\Core\Src\stm32f4xx_it.c               0x00000000   Number         0  stm32f4xx_it.o ABSOLUTE
    ..\Core\Src\system_stm32f4xx.c           0x00000000   Number         0  system_stm32f4xx.o ABSOLUTE
    ..\Core\Src\usart.c                      0x00000000   Number         0  usart.o ABSOLUTE
    ..\Drivers\STM32F4xx_HAL_Driver\Src\stm32f4xx_hal.c 0x00000000   Number         0  stm32f4xx_hal.o ABSOLUTE
    ..\Drivers\STM32F4xx_HAL_Driver\Src\stm32f4xx_hal_cortex.c 0x00000000   Number         0  stm32f4xx_hal_cortex.o ABSOLUTE
    ..\Drivers\STM32F4xx_HAL_Driver\Src\stm32f4xx_hal_dma.c 0x00000000   Number         0  stm32f4xx_hal_dma.o ABSOLUTE
    ..\Drivers\STM32F4xx_HAL_Driver\Src\stm32f4xx_hal_dma_ex.c 0x00000000   Number         0  stm32f4xx_hal_dma_ex.o ABSOLUTE
    ..\Drivers\STM32F4xx_HAL_Driver\Src\stm32f4xx_hal_exti.c 0x00000000   Number         0  stm32f4xx_hal_exti.o ABSOLUTE
    ..\Drivers\STM32F4xx_HAL_Driver\Src\stm32f4xx_hal_flash.c 0x00000000   Number         0  stm32f4xx_hal_flash.o ABSOLUTE
    ..\Drivers\STM32F4xx_HAL_Driver\Src\stm32f4xx_hal_flash_ex.c 0x00000000   Number         0  stm32f4xx_hal_flash_ex.o ABSOLUTE
    ..\Drivers\STM32F4xx_HAL_Driver\Src\stm32f4xx_hal_flash_ramfunc.c 0x00000000   Number         0  stm32f4xx_hal_flash_ramfunc.o ABSOLUTE
    ..\Drivers\STM32F4xx_HAL_Driver\Src\stm32f4xx_hal_gpio.c 0x00000000   Number         0  stm32f4xx_hal_gpio.o ABSOLUTE
    ..\Drivers\STM32F4xx_HAL_Driver\Src\stm32f4xx_hal_i2c.c 0x00000000   Number         0  stm32f4xx_hal_i2c.o ABSOLUTE
    ..\Drivers\STM32F4xx_HAL_Driver\Src\stm32f4xx_hal_i2c_ex.c 0x00000000   Number         0  stm32f4xx_hal_i2c_ex.o ABSOLUTE
    ..\Drivers\STM32F4xx_HAL_Driver\Src\stm32f4xx_hal_pcd.c 0x00000000   Number         0  stm32f4xx_hal_pcd.o ABSOLUTE
    ..\Drivers\STM32F4xx_HAL_Driver\Src\stm32f4xx_hal_pcd_ex.c 0x00000000   Number         0  stm32f4xx_hal_pcd_ex.o ABSOLUTE
    ..\Drivers\STM32F4xx_HAL_Driver\Src\stm32f4xx_hal_pwr.c 0x00000000   Number         0  stm32f4xx_hal_pwr.o ABSOLUTE
    ..\Drivers\STM32F4xx_HAL_Driver\Src\stm32f4xx_hal_pwr_ex.c 0x00000000   Number         0  stm32f4xx_hal_pwr_ex.o ABSOLUTE
    ..\Drivers\STM32F4xx_HAL_Driver\Src\stm32f4xx_hal_rcc.c 0x00000000   Number         0  stm32f4xx_hal_rcc.o ABSOLUTE
    ..\Drivers\STM32F4xx_HAL_Driver\Src\stm32f4xx_hal_rcc_ex.c 0x00000000   Number         0  stm32f4xx_hal_rcc_ex.o ABSOLUTE
    ..\Drivers\STM32F4xx_HAL_Driver\Src\stm32f4xx_hal_tim.c 0x00000000   Number         0  stm32f4xx_hal_tim.o ABSOLUTE
    ..\Drivers\STM32F4xx_HAL_Driver\Src\stm32f4xx_hal_tim_ex.c 0x00000000   Number         0  stm32f4xx_hal_tim_ex.o ABSOLUTE
    ..\Drivers\STM32F4xx_HAL_Driver\Src\stm32f4xx_hal_uart.c 0x00000000   Number         0  stm32f4xx_hal_uart.o ABSOLUTE
    ..\Drivers\STM32F4xx_HAL_Driver\Src\stm32f4xx_ll_usb.c 0x00000000   Number         0  stm32f4xx_ll_usb.o ABSOLUTE
    ..\PCA9548A\pca9548.c                    0x00000000   Number         0  pca9548.o ABSOLUTE
    ..\Quaternion\quaternion.c               0x00000000   Number         0  quaternion.o ABSOLUTE
    ..\\PCA9548A\\pca9548.c                  0x00000000   Number         0  pca9548.o ABSOLUTE
    ..\\mpu6050\\mpu6050.c                   0x00000000   Number         0  mpu6050.o ABSOLUTE
    ..\mpu6050\mpu6050.c                     0x00000000   Number         0  mpu6050.o ABSOLUTE
    cdcmple.s                                0x00000000   Number         0  cdcmple.o ABSOLUTE
    cdrcmple.s                               0x00000000   Number         0  cdrcmple.o ABSOLUTE
    dc.s                                     0x00000000   Number         0  dc.o ABSOLUTE
    handlers.s                               0x00000000   Number         0  handlers.o ABSOLUTE
    init.s                                   0x00000000   Number         0  init.o ABSOLUTE
    startup_stm32f411xe.s                    0x00000000   Number         0  startup_stm32f411xe.o ABSOLUTE
    RESET                                    0x08000000   Section      408  startup_stm32f411xe.o(RESET)
    .ARM.Collect$$$$00000000                 0x08000198   Section        0  entry.o(.ARM.Collect$$$$00000000)
    .ARM.Collect$$$$00000001                 0x08000198   Section        4  entry2.o(.ARM.Collect$$$$00000001)
    .ARM.Collect$$$$00000004                 0x0800019c   Section        4  entry5.o(.ARM.Collect$$$$00000004)
    .ARM.Collect$$$$00000008                 0x080001a0   Section        0  entry7b.o(.ARM.Collect$$$$00000008)
    .ARM.Collect$$$$0000000A                 0x080001a0   Section        0  entry8b.o(.ARM.Collect$$$$0000000A)
    .ARM.Collect$$$$0000000B                 0x080001a0   Section        8  entry9a.o(.ARM.Collect$$$$0000000B)
    .ARM.Collect$$$$0000000E                 0x080001a8   Section        4  entry12b.o(.ARM.Collect$$$$0000000E)
    .ARM.Collect$$$$0000000F                 0x080001ac   Section        0  entry10a.o(.ARM.Collect$$$$0000000F)
    .ARM.Collect$$$$00000011                 0x080001ac   Section        0  entry11a.o(.ARM.Collect$$$$00000011)
    .ARM.Collect$$$$00002712                 0x080001ac   Section        4  entry2.o(.ARM.Collect$$$$00002712)
    __lit__00000000                          0x080001ac   Data           4  entry2.o(.ARM.Collect$$$$00002712)
    .text                                    0x080001b0   Section       36  startup_stm32f411xe.o(.text)
    $v0                                      0x080001b0   Number         0  startup_stm32f411xe.o(.text)
    .text                                    0x080001d4   Section        0  uldiv.o(.text)
    .text                                    0x08000236   Section        0  memseta.o(.text)
    .text                                    0x0800025a   Section        0  dmul.o(.text)
    .text                                    0x0800033e   Section        0  f2d.o(.text)
    .text                                    0x08000364   Section        0  d2f.o(.text)
    .text                                    0x0800039c   Section        0  uidiv.o(.text)
    .text                                    0x080003c8   Section        0  llshl.o(.text)
    .text                                    0x080003e6   Section        0  llushr.o(.text)
    .text                                    0x08000406   Section        0  iusefp.o(.text)
    .text                                    0x08000406   Section        0  fepilogue.o(.text)
    .text                                    0x08000474   Section        0  depilogue.o(.text)
    .text                                    0x0800052e   Section        0  dadd.o(.text)
    .text                                    0x0800067c   Section        0  ddiv.o(.text)
    .text                                    0x0800075a   Section        0  dscalb.o(.text)
    .text                                    0x08000788   Section        0  dsqrt.o(.text)
    .text                                    0x0800082a   Section        0  dflti.o(.text)
    .text                                    0x0800084c   Section        0  dfixul.o(.text)
    .text                                    0x0800087c   Section       48  cdrcmple.o(.text)
    .text                                    0x080008ac   Section       36  init.o(.text)
    .text                                    0x080008d0   Section        0  llsshr.o(.text)
    .text                                    0x080008f4   Section        0  __dczerorl2.o(.text)
    i.BusFault_Handler                       0x0800094a   Section        0  stm32f4xx_it.o(i.BusFault_Handler)
    i.DebugMon_Handler                       0x0800094c   Section        0  stm32f4xx_it.o(i.DebugMon_Handler)
    i.Delay_ms                               0x08000950   Section        0  stm32f4xx_it.o(i.Delay_ms)
    i.EMCP                                   0x08000972   Section        0  quaternion.o(i.EMCP)
    i.Error_Handler                          0x08000a9c   Section        0  main.o(i.Error_Handler)
    i.HAL_GPIO_Init                          0x08000aa0   Section        0  stm32f4xx_hal_gpio.o(i.HAL_GPIO_Init)
    i.HAL_GPIO_TogglePin                     0x08000c80   Section        0  stm32f4xx_hal_gpio.o(i.HAL_GPIO_TogglePin)
    i.HAL_GPIO_WritePin                      0x08000c90   Section        0  stm32f4xx_hal_gpio.o(i.HAL_GPIO_WritePin)
    i.HAL_GetTick                            0x08000c9c   Section        0  stm32f4xx_hal.o(i.HAL_GetTick)
    i.HAL_I2C_Init                           0x08000ca8   Section        0  stm32f4xx_hal_i2c.o(i.HAL_I2C_Init)
    i.HAL_I2C_Master_Transmit                0x08000e30   Section        0  stm32f4xx_hal_i2c.o(i.HAL_I2C_Master_Transmit)
    i.HAL_I2C_Mem_Read                       0x08000f5c   Section        0  stm32f4xx_hal_i2c.o(i.HAL_I2C_Mem_Read)
    i.HAL_I2C_Mem_Write                      0x08001154   Section        0  stm32f4xx_hal_i2c.o(i.HAL_I2C_Mem_Write)
    i.HAL_I2C_MspInit                        0x08001284   Section        0  i2c.o(i.HAL_I2C_MspInit)
    i.HAL_IncTick                            0x0800134c   Section        0  stm32f4xx_hal.o(i.HAL_IncTick)
    i.HAL_Init                               0x0800135c   Section        0  stm32f4xx_hal.o(i.HAL_Init)
    i.HAL_InitTick                           0x08001390   Section        0  stm32f4xx_hal_timebase_tim.o(i.HAL_InitTick)
    i.HAL_MspInit                            0x0800141c   Section        0  stm32f4xx_hal_msp.o(i.HAL_MspInit)
    i.HAL_NVIC_EnableIRQ                     0x0800144c   Section        0  stm32f4xx_hal_cortex.o(i.HAL_NVIC_EnableIRQ)
    i.HAL_NVIC_SetPriority                   0x08001468   Section        0  stm32f4xx_hal_cortex.o(i.HAL_NVIC_SetPriority)
    i.HAL_NVIC_SetPriorityGrouping           0x080014a8   Section        0  stm32f4xx_hal_cortex.o(i.HAL_NVIC_SetPriorityGrouping)
    i.HAL_RCC_ClockConfig                    0x080014cc   Section        0  stm32f4xx_hal_rcc.o(i.HAL_RCC_ClockConfig)
    i.HAL_RCC_GetClockConfig                 0x08001600   Section        0  stm32f4xx_hal_rcc.o(i.HAL_RCC_GetClockConfig)
    i.HAL_RCC_GetPCLK1Freq                   0x08001640   Section        0  stm32f4xx_hal_rcc.o(i.HAL_RCC_GetPCLK1Freq)
    i.HAL_RCC_GetPCLK2Freq                   0x08001660   Section        0  stm32f4xx_hal_rcc.o(i.HAL_RCC_GetPCLK2Freq)
    i.HAL_RCC_GetSysClockFreq                0x08001680   Section        0  stm32f4xx_hal_rcc.o(i.HAL_RCC_GetSysClockFreq)
    i.HAL_RCC_OscConfig                      0x080016e4   Section        0  stm32f4xx_hal_rcc.o(i.HAL_RCC_OscConfig)
    i.HAL_SYSTICK_Config                     0x08001a50   Section        0  stm32f4xx_hal_cortex.o(i.HAL_SYSTICK_Config)
    i.HAL_TIMEx_BreakCallback                0x08001a78   Section        0  stm32f4xx_hal_tim_ex.o(i.HAL_TIMEx_BreakCallback)
    i.HAL_TIMEx_CommutCallback               0x08001a7a   Section        0  stm32f4xx_hal_tim_ex.o(i.HAL_TIMEx_CommutCallback)
    i.HAL_TIM_Base_Init                      0x08001a7c   Section        0  stm32f4xx_hal_tim.o(i.HAL_TIM_Base_Init)
    i.HAL_TIM_Base_MspInit                   0x08001ad6   Section        0  stm32f4xx_hal_tim.o(i.HAL_TIM_Base_MspInit)
    i.HAL_TIM_Base_Start_IT                  0x08001ad8   Section        0  stm32f4xx_hal_tim.o(i.HAL_TIM_Base_Start_IT)
    i.HAL_TIM_IC_CaptureCallback             0x08001b44   Section        0  stm32f4xx_hal_tim.o(i.HAL_TIM_IC_CaptureCallback)
    i.HAL_TIM_IRQHandler                     0x08001b46   Section        0  stm32f4xx_hal_tim.o(i.HAL_TIM_IRQHandler)
    i.HAL_TIM_OC_DelayElapsedCallback        0x08001cac   Section        0  stm32f4xx_hal_tim.o(i.HAL_TIM_OC_DelayElapsedCallback)
    i.HAL_TIM_PWM_PulseFinishedCallback      0x08001cae   Section        0  stm32f4xx_hal_tim.o(i.HAL_TIM_PWM_PulseFinishedCallback)
    i.HAL_TIM_PeriodElapsedCallback          0x08001cb0   Section        0  main.o(i.HAL_TIM_PeriodElapsedCallback)
    i.HAL_TIM_TriggerCallback                0x08001cc4   Section        0  stm32f4xx_hal_tim.o(i.HAL_TIM_TriggerCallback)
    i.HAL_UART_Init                          0x08001cc6   Section        0  stm32f4xx_hal_uart.o(i.HAL_UART_Init)
    i.HAL_UART_MspInit                       0x08001d28   Section        0  usart.o(i.HAL_UART_MspInit)
    i.HAL_UART_Transmit                      0x08001d94   Section        0  stm32f4xx_hal_uart.o(i.HAL_UART_Transmit)
    i.HardFault_Handler                      0x08001e46   Section        0  stm32f4xx_it.o(i.HardFault_Handler)
    i.I2C_IsAcknowledgeFailed                0x08001e48   Section        0  stm32f4xx_hal_i2c.o(i.I2C_IsAcknowledgeFailed)
    I2C_IsAcknowledgeFailed                  0x08001e49   Thumb Code    46  stm32f4xx_hal_i2c.o(i.I2C_IsAcknowledgeFailed)
    i.I2C_MasterRequestWrite                 0x08001e78   Section        0  stm32f4xx_hal_i2c.o(i.I2C_MasterRequestWrite)
    I2C_MasterRequestWrite                   0x08001e79   Thumb Code   150  stm32f4xx_hal_i2c.o(i.I2C_MasterRequestWrite)
    i.I2C_RequestMemoryRead                  0x08001f14   Section        0  stm32f4xx_hal_i2c.o(i.I2C_RequestMemoryRead)
    I2C_RequestMemoryRead                    0x08001f15   Thumb Code   246  stm32f4xx_hal_i2c.o(i.I2C_RequestMemoryRead)
    i.I2C_RequestMemoryWrite                 0x08002010   Section        0  stm32f4xx_hal_i2c.o(i.I2C_RequestMemoryWrite)
    I2C_RequestMemoryWrite                   0x08002011   Thumb Code   162  stm32f4xx_hal_i2c.o(i.I2C_RequestMemoryWrite)
    i.I2C_WaitOnBTFFlagUntilTimeout          0x080020b8   Section        0  stm32f4xx_hal_i2c.o(i.I2C_WaitOnBTFFlagUntilTimeout)
    I2C_WaitOnBTFFlagUntilTimeout            0x080020b9   Thumb Code    76  stm32f4xx_hal_i2c.o(i.I2C_WaitOnBTFFlagUntilTimeout)
    i.I2C_WaitOnFlagUntilTimeout             0x08002104   Section        0  stm32f4xx_hal_i2c.o(i.I2C_WaitOnFlagUntilTimeout)
    I2C_WaitOnFlagUntilTimeout               0x08002105   Thumb Code   104  stm32f4xx_hal_i2c.o(i.I2C_WaitOnFlagUntilTimeout)
    i.I2C_WaitOnMasterAddressFlagUntilTimeout 0x0800216c   Section        0  stm32f4xx_hal_i2c.o(i.I2C_WaitOnMasterAddressFlagUntilTimeout)
    I2C_WaitOnMasterAddressFlagUntilTimeout  0x0800216d   Thumb Code   150  stm32f4xx_hal_i2c.o(i.I2C_WaitOnMasterAddressFlagUntilTimeout)
    i.I2C_WaitOnRXNEFlagUntilTimeout         0x08002202   Section        0  stm32f4xx_hal_i2c.o(i.I2C_WaitOnRXNEFlagUntilTimeout)
    I2C_WaitOnRXNEFlagUntilTimeout           0x08002203   Thumb Code   102  stm32f4xx_hal_i2c.o(i.I2C_WaitOnRXNEFlagUntilTimeout)
    i.I2C_WaitOnTXEFlagUntilTimeout          0x08002268   Section        0  stm32f4xx_hal_i2c.o(i.I2C_WaitOnTXEFlagUntilTimeout)
    I2C_WaitOnTXEFlagUntilTimeout            0x08002269   Thumb Code    76  stm32f4xx_hal_i2c.o(i.I2C_WaitOnTXEFlagUntilTimeout)
    i.MPU6050SelfTest                        0x080022b4   Section        0  mpu6050.o(i.MPU6050SelfTest)
    i.MPU6050_Init                           0x08002528   Section        0  mpu6050.o(i.MPU6050_Init)
    i.MX_GPIO_Init                           0x0800256c   Section        0  gpio.o(i.MX_GPIO_Init)
    i.MX_I2C1_Init                           0x080025ec   Section        0  i2c.o(i.MX_I2C1_Init)
    i.MX_I2C2_Init                           0x0800262c   Section        0  i2c.o(i.MX_I2C2_Init)
    i.MX_USART1_UART_Init                    0x0800266c   Section        0  usart.o(i.MX_USART1_UART_Init)
    i.MahonyAHRSupdateIMU                    0x080026a4   Section        0  mpu6050.o(i.MahonyAHRSupdateIMU)
    i.MemManage_Handler                      0x08002938   Section        0  stm32f4xx_it.o(i.MemManage_Handler)
    i.NMI_Handler                            0x0800293a   Section        0  stm32f4xx_it.o(i.NMI_Handler)
    i.PendSV_Handler                         0x0800293c   Section        0  stm32f4xx_it.o(i.PendSV_Handler)
    i.SVC_Handler                            0x0800293e   Section        0  stm32f4xx_it.o(i.SVC_Handler)
    i.SysTick_Handler                        0x08002940   Section        0  stm32f4xx_it.o(i.SysTick_Handler)
    i.SystemClock_Config                     0x08002950   Section        0  main.o(i.SystemClock_Config)
    i.SystemInit                             0x080029e0   Section        0  system_stm32f4xx.o(i.SystemInit)
    i.TIM1_UP_TIM10_IRQHandler               0x080029f0   Section        0  stm32f4xx_it.o(i.TIM1_UP_TIM10_IRQHandler)
    i.TIM_Base_SetConfig                     0x080029fc   Section        0  stm32f4xx_hal_tim.o(i.TIM_Base_SetConfig)
    i.UART_SetConfig                         0x08002a94   Section        0  stm32f4xx_hal_uart.o(i.UART_SetConfig)
    UART_SetConfig                           0x08002a95   Thumb Code   258  stm32f4xx_hal_uart.o(i.UART_SetConfig)
    i.UART_WaitOnFlagUntilTimeout            0x08002ba0   Section        0  stm32f4xx_hal_uart.o(i.UART_WaitOnFlagUntilTimeout)
    UART_WaitOnFlagUntilTimeout              0x08002ba1   Thumb Code   120  stm32f4xx_hal_uart.o(i.UART_WaitOnFlagUntilTimeout)
    i.UsageFault_Handler                     0x08002c18   Section        0  stm32f4xx_it.o(i.UsageFault_Handler)
    i._Abs                                   0x08002c1a   Section        0  quaternion.o(i._Abs)
    i._Get                                   0x08002c2a   Section        0  quaternion.o(i._Get)
    i._Ik2J                                  0x08002c36   Section        0  quaternion.o(i._Ik2J)
    i._MatIk2J                               0x08002c62   Section        0  quaternion.o(i._MatIk2J)
    i._MatSwap                               0x08002ca8   Section        0  quaternion.o(i._MatSwap)
    i._Swap                                  0x08002d02   Section        0  quaternion.o(i._Swap)
    i._VecIk2J                               0x08002d26   Section        0  quaternion.o(i._VecIk2J)
    i._VecSwap                               0x08002d44   Section        0  quaternion.o(i._VecSwap)
    i.__0printf                              0x08002d60   Section        0  printfa.o(i.__0printf)
    i.__ARM_fpclassify                       0x08002d80   Section        0  fpclassify.o(i.__ARM_fpclassify)
    i.__NVIC_SetPriority                     0x08002db0   Section        0  stm32f4xx_hal_cortex.o(i.__NVIC_SetPriority)
    __NVIC_SetPriority                       0x08002db1   Thumb Code    32  stm32f4xx_hal_cortex.o(i.__NVIC_SetPriority)
    i.__hardfp_pow                           0x08002dd0   Section        0  pow.o(i.__hardfp_pow)
    i.__hardfp_sqrt                          0x08003a20   Section        0  sqrt.o(i.__hardfp_sqrt)
    i.__kernel_poly                          0x08003a9a   Section        0  poly.o(i.__kernel_poly)
    i.__mathlib_dbl_divzero                  0x08003b98   Section        0  dunder.o(i.__mathlib_dbl_divzero)
    i.__mathlib_dbl_infnan2                  0x08003bc8   Section        0  dunder.o(i.__mathlib_dbl_infnan2)
    i.__mathlib_dbl_invalid                  0x08003be0   Section        0  dunder.o(i.__mathlib_dbl_invalid)
    i.__mathlib_dbl_overflow                 0x08003c00   Section        0  dunder.o(i.__mathlib_dbl_overflow)
    i.__mathlib_dbl_underflow                0x08003c20   Section        0  dunder.o(i.__mathlib_dbl_underflow)
    i.__scatterload_copy                     0x08003c40   Section       14  handlers.o(i.__scatterload_copy)
    i.__scatterload_null                     0x08003c4e   Section        2  handlers.o(i.__scatterload_null)
    i.__scatterload_zeroinit                 0x08003c50   Section       14  handlers.o(i.__scatterload_zeroinit)
    i.__set_errno                            0x08003c60   Section        0  errno.o(i.__set_errno)
    i._fp_digits                             0x08003c6c   Section        0  printfa.o(i._fp_digits)
    _fp_digits                               0x08003c6d   Thumb Code   366  printfa.o(i._fp_digits)
    i._printf_core                           0x08003df0   Section        0  printfa.o(i._printf_core)
    _printf_core                             0x08003df1   Thumb Code  1704  printfa.o(i._printf_core)
    i._printf_post_padding                   0x080044a4   Section        0  printfa.o(i._printf_post_padding)
    _printf_post_padding                     0x080044a5   Thumb Code    36  printfa.o(i._printf_post_padding)
    i._printf_pre_padding                    0x080044c8   Section        0  printfa.o(i._printf_pre_padding)
    _printf_pre_padding                      0x080044c9   Thumb Code    46  printfa.o(i._printf_pre_padding)
    i.correct_quaternion                     0x080044f8   Section        0  mpu6050.o(i.correct_quaternion)
    i.cycleCounterInit                       0x08004594   Section        0  stm32f4xx_it.o(i.cycleCounterInit)
    i.fabs                                   0x080045bc   Section        0  fabs.o(i.fabs)
    i.fputc                                  0x080045d4   Section        0  usart.o(i.fputc)
    i.init_quaternion                        0x080045ec   Section        0  mpu6050.o(i.init_quaternion)
    i.main                                   0x08004638   Section        0  main.o(i.main)
    i.malloc                                 0x0800483c   Section        0  malloc.o(i.malloc)
    i.micros                                 0x080048a8   Section        0  stm32f4xx_it.o(i.micros)
    i.mpu6050_GetData                        0x080048e0   Section        0  mpu6050.o(i.mpu6050_GetData)
    i.mpu6050_updateQuaternion               0x08004938   Section        0  mpu6050.o(i.mpu6050_updateQuaternion)
    i.quaternion_inverseTransformation       0x080049f4   Section        0  quaternion.o(i.quaternion_inverseTransformation)
    i.quaternion_multiply                    0x08004ad4   Section        0  quaternion.o(i.quaternion_multiply)
    i.readByte                               0x08004b2e   Section        0  mpu6050.o(i.readByte)
    i.readBytes                              0x08004b4a   Section        0  mpu6050.o(i.readBytes)
    i.selectPort                             0x08004b60   Section        0  pca9548.o(i.selectPort)
    i.sensor_init                            0x08004bb0   Section        0  mpu6050.o(i.sensor_init)
    i.sensor_update                          0x08004c34   Section        0  mpu6050.o(i.sensor_update)
    i.sqrt                                   0x08004c94   Section        0  sqrt.o(i.sqrt)
    i.writeByte                              0x08004d02   Section        0  mpu6050.o(i.writeByte)
    .constdata                               0x08004d1c   Section       16  system_stm32f4xx.o(.constdata)
    .constdata                               0x08004d2c   Section        8  system_stm32f4xx.o(.constdata)
    .constdata                               0x08004d34   Section       16  quaternion.o(.constdata)
    .constdata                               0x08004d48   Section      136  pow.o(.constdata)
    bp                                       0x08004d48   Data          16  pow.o(.constdata)
    dp_h                                     0x08004d58   Data          16  pow.o(.constdata)
    dp_l                                     0x08004d68   Data          16  pow.o(.constdata)
    L                                        0x08004d78   Data          48  pow.o(.constdata)
    P                                        0x08004da8   Data          40  pow.o(.constdata)
    .constdata                               0x08004dd0   Section        8  qnan.o(.constdata)
    .data                                    0x20000000   Section        8  stm32f4xx_it.o(.data)
    usTicks                                  0x20000000   Data           4  stm32f4xx_it.o(.data)
    .data                                    0x20000008   Section       12  stm32f4xx_hal.o(.data)
    .data                                    0x20000014   Section        4  system_stm32f4xx.o(.data)
    .data                                    0x20000018   Section       24  mpu6050.o(.data)
    .data                                    0x20000030   Section       24  mpu6050.o(.data)
    .data                                    0x20000048   Section       24  mpu6050.o(.data)
    .data                                    0x20000060   Section       24  mpu6050.o(.data)
    .data                                    0x20000078   Section       24  mpu6050.o(.data)
    .data                                    0x20000090   Section       24  mpu6050.o(.data)
    .data                                    0x200000a8   Section       24  mpu6050.o(.data)
    .data                                    0x200000c0   Section       24  mpu6050.o(.data)
    .data                                    0x200000d8   Section       24  mpu6050.o(.data)
    .data                                    0x200000f0   Section       24  mpu6050.o(.data)
    .data                                    0x20000108   Section       72  mpu6050.o(.data)
    .data                                    0x20000150   Section        4  stdout.o(.data)
    .data                                    0x20000154   Section        4  mvars.o(.data)
    .data                                    0x20000158   Section        4  mvars.o(.data)
    .data                                    0x2000015c   Section        4  errno.o(.data)
    _errno                                   0x2000015c   Data           4  errno.o(.data)
    .bss                                     0x20000160   Section      168  i2c.o(.bss)
    .bss                                     0x20000208   Section       68  usart.o(.bss)
    .bss                                     0x2000024c   Section       72  stm32f4xx_hal_timebase_tim.o(.bss)
    .bss                                     0x20000294   Section       88  mpu6050.o(.bss)
    .bss                                     0x200002ec   Section       88  mpu6050.o(.bss)
    .bss                                     0x20000344   Section       88  mpu6050.o(.bss)
    .bss                                     0x2000039c   Section       88  mpu6050.o(.bss)
    .bss                                     0x200003f4   Section       88  mpu6050.o(.bss)
    .bss                                     0x2000044c   Section       88  mpu6050.o(.bss)
    .bss                                     0x200004a4   Section       88  mpu6050.o(.bss)
    .bss                                     0x200004fc   Section       88  mpu6050.o(.bss)
    .bss                                     0x20000554   Section       88  mpu6050.o(.bss)
    .bss                                     0x200005ac   Section       88  mpu6050.o(.bss)
    .bss                                     0x20000604   Section       24  mpu6050.o(.bss)
    HEAP                                     0x20000620   Section     2048  startup_stm32f411xe.o(HEAP)
    STACK                                    0x20000e20   Section     2048  startup_stm32f411xe.o(STACK)

    Global Symbols

    Symbol Name                              Value     Ov Type        Size  Object(Section)

    BuildAttributes$$THM_ISAv4$E$P$D$K$B$S$7EM$VFPi3$EXTD16$VFPS$VFMA$PE$A:L22UL41UL21$X:L11$S22US41US21$IEEE1$IW$USESV6$~STKCKD$USESV7$~SHL$OTIME$ROPI$IEEEX$EBA8$MICROLIB$REQ8$PRES8$EABIv2 0x00000000   Number         0  anon$$obj.o ABSOLUTE
    __ARM_use_no_argv                        0x00000000   Number         0  main.o ABSOLUTE
    _printf_a                                0x00000000   Number         0  stubs.o ABSOLUTE
    _printf_c                                0x00000000   Number         0  stubs.o ABSOLUTE
    _printf_charcount                        0x00000000   Number         0  stubs.o ABSOLUTE
    _printf_d                                0x00000000   Number         0  stubs.o ABSOLUTE
    _printf_e                                0x00000000   Number         0  stubs.o ABSOLUTE
    _printf_f                                0x00000000   Number         0  stubs.o ABSOLUTE
    _printf_flags                            0x00000000   Number         0  stubs.o ABSOLUTE
    _printf_fp_dec                           0x00000000   Number         0  stubs.o ABSOLUTE
    _printf_fp_hex                           0x00000000   Number         0  stubs.o ABSOLUTE
    _printf_g                                0x00000000   Number         0  stubs.o ABSOLUTE
    _printf_i                                0x00000000   Number         0  stubs.o ABSOLUTE
    _printf_int_dec                          0x00000000   Number         0  stubs.o ABSOLUTE
    _printf_l                                0x00000000   Number         0  stubs.o ABSOLUTE
    _printf_lc                               0x00000000   Number         0  stubs.o ABSOLUTE
    _printf_ll                               0x00000000   Number         0  stubs.o ABSOLUTE
    _printf_lld                              0x00000000   Number         0  stubs.o ABSOLUTE
    _printf_lli                              0x00000000   Number         0  stubs.o ABSOLUTE
    _printf_llo                              0x00000000   Number         0  stubs.o ABSOLUTE
    _printf_llu                              0x00000000   Number         0  stubs.o ABSOLUTE
    _printf_llx                              0x00000000   Number         0  stubs.o ABSOLUTE
    _printf_longlong_dec                     0x00000000   Number         0  stubs.o ABSOLUTE
    _printf_longlong_hex                     0x00000000   Number         0  stubs.o ABSOLUTE
    _printf_longlong_oct                     0x00000000   Number         0  stubs.o ABSOLUTE
    _printf_ls                               0x00000000   Number         0  stubs.o ABSOLUTE
    _printf_mbtowc                           0x00000000   Number         0  stubs.o ABSOLUTE
    _printf_n                                0x00000000   Number         0  stubs.o ABSOLUTE
    _printf_o                                0x00000000   Number         0  stubs.o ABSOLUTE
    _printf_p                                0x00000000   Number         0  stubs.o ABSOLUTE
    _printf_percent                          0x00000000   Number         0  stubs.o ABSOLUTE
    _printf_pre_padding                      0x00000000   Number         0  stubs.o ABSOLUTE
    _printf_return_value                     0x00000000   Number         0  stubs.o ABSOLUTE
    _printf_s                                0x00000000   Number         0  stubs.o ABSOLUTE
    _printf_sizespec                         0x00000000   Number         0  stubs.o ABSOLUTE
    _printf_str                              0x00000000   Number         0  stubs.o ABSOLUTE
    _printf_truncate_signed                  0x00000000   Number         0  stubs.o ABSOLUTE
    _printf_truncate_unsigned                0x00000000   Number         0  stubs.o ABSOLUTE
    _printf_u                                0x00000000   Number         0  stubs.o ABSOLUTE
    _printf_wc                               0x00000000   Number         0  stubs.o ABSOLUTE
    _printf_wctomb                           0x00000000   Number         0  stubs.o ABSOLUTE
    _printf_widthprec                        0x00000000   Number         0  stubs.o ABSOLUTE
    _printf_x                                0x00000000   Number         0  stubs.o ABSOLUTE
    __arm_fini_                               - Undefined Weak Reference
    __cpp_initialize__aeabi_                  - Undefined Weak Reference
    __cxa_finalize                            - Undefined Weak Reference
    _clock_init                               - Undefined Weak Reference
    _microlib_exit                            - Undefined Weak Reference
    __Vectors_Size                           0x00000198   Number         0  startup_stm32f411xe.o ABSOLUTE
    __Vectors                                0x08000000   Data           4  startup_stm32f411xe.o(RESET)
    __Vectors_End                            0x08000198   Data           0  startup_stm32f411xe.o(RESET)
    __main                                   0x08000199   Thumb Code     0  entry.o(.ARM.Collect$$$$00000000)
    _main_stk                                0x08000199   Thumb Code     0  entry2.o(.ARM.Collect$$$$00000001)
    _main_scatterload                        0x0800019d   Thumb Code     0  entry5.o(.ARM.Collect$$$$00000004)
    __main_after_scatterload                 0x080001a1   Thumb Code     0  entry5.o(.ARM.Collect$$$$00000004)
    _main_clock                              0x080001a1   Thumb Code     0  entry7b.o(.ARM.Collect$$$$00000008)
    _main_cpp_init                           0x080001a1   Thumb Code     0  entry8b.o(.ARM.Collect$$$$0000000A)
    _main_init                               0x080001a1   Thumb Code     0  entry9a.o(.ARM.Collect$$$$0000000B)
    __rt_lib_shutdown_fini                   0x080001a9   Thumb Code     0  entry12b.o(.ARM.Collect$$$$0000000E)
    __rt_final_cpp                           0x080001ad   Thumb Code     0  entry10a.o(.ARM.Collect$$$$0000000F)
    __rt_final_exit                          0x080001ad   Thumb Code     0  entry11a.o(.ARM.Collect$$$$00000011)
    Reset_Handler                            0x080001b1   Thumb Code     8  startup_stm32f411xe.o(.text)
    ADC_IRQHandler                           0x080001cb   Thumb Code     0  startup_stm32f411xe.o(.text)
    DMA1_Stream0_IRQHandler                  0x080001cb   Thumb Code     0  startup_stm32f411xe.o(.text)
    DMA1_Stream1_IRQHandler                  0x080001cb   Thumb Code     0  startup_stm32f411xe.o(.text)
    DMA1_Stream2_IRQHandler                  0x080001cb   Thumb Code     0  startup_stm32f411xe.o(.text)
    DMA1_Stream3_IRQHandler                  0x080001cb   Thumb Code     0  startup_stm32f411xe.o(.text)
    DMA1_Stream4_IRQHandler                  0x080001cb   Thumb Code     0  startup_stm32f411xe.o(.text)
    DMA1_Stream5_IRQHandler                  0x080001cb   Thumb Code     0  startup_stm32f411xe.o(.text)
    DMA1_Stream6_IRQHandler                  0x080001cb   Thumb Code     0  startup_stm32f411xe.o(.text)
    DMA1_Stream7_IRQHandler                  0x080001cb   Thumb Code     0  startup_stm32f411xe.o(.text)
    DMA2_Stream0_IRQHandler                  0x080001cb   Thumb Code     0  startup_stm32f411xe.o(.text)
    DMA2_Stream1_IRQHandler                  0x080001cb   Thumb Code     0  startup_stm32f411xe.o(.text)
    DMA2_Stream2_IRQHandler                  0x080001cb   Thumb Code     0  startup_stm32f411xe.o(.text)
    DMA2_Stream3_IRQHandler                  0x080001cb   Thumb Code     0  startup_stm32f411xe.o(.text)
    DMA2_Stream4_IRQHandler                  0x080001cb   Thumb Code     0  startup_stm32f411xe.o(.text)
    DMA2_Stream5_IRQHandler                  0x080001cb   Thumb Code     0  startup_stm32f411xe.o(.text)
    DMA2_Stream6_IRQHandler                  0x080001cb   Thumb Code     0  startup_stm32f411xe.o(.text)
    DMA2_Stream7_IRQHandler                  0x080001cb   Thumb Code     0  startup_stm32f411xe.o(.text)
    EXTI0_IRQHandler                         0x080001cb   Thumb Code     0  startup_stm32f411xe.o(.text)
    EXTI15_10_IRQHandler                     0x080001cb   Thumb Code     0  startup_stm32f411xe.o(.text)
    EXTI1_IRQHandler                         0x080001cb   Thumb Code     0  startup_stm32f411xe.o(.text)
    EXTI2_IRQHandler                         0x080001cb   Thumb Code     0  startup_stm32f411xe.o(.text)
    EXTI3_IRQHandler                         0x080001cb   Thumb Code     0  startup_stm32f411xe.o(.text)
    EXTI4_IRQHandler                         0x080001cb   Thumb Code     0  startup_stm32f411xe.o(.text)
    EXTI9_5_IRQHandler                       0x080001cb   Thumb Code     0  startup_stm32f411xe.o(.text)
    FLASH_IRQHandler                         0x080001cb   Thumb Code     0  startup_stm32f411xe.o(.text)
    FPU_IRQHandler                           0x080001cb   Thumb Code     0  startup_stm32f411xe.o(.text)
    I2C1_ER_IRQHandler                       0x080001cb   Thumb Code     0  startup_stm32f411xe.o(.text)
    I2C1_EV_IRQHandler                       0x080001cb   Thumb Code     0  startup_stm32f411xe.o(.text)
    I2C2_ER_IRQHandler                       0x080001cb   Thumb Code     0  startup_stm32f411xe.o(.text)
    I2C2_EV_IRQHandler                       0x080001cb   Thumb Code     0  startup_stm32f411xe.o(.text)
    I2C3_ER_IRQHandler                       0x080001cb   Thumb Code     0  startup_stm32f411xe.o(.text)
    I2C3_EV_IRQHandler                       0x080001cb   Thumb Code     0  startup_stm32f411xe.o(.text)
    OTG_FS_IRQHandler                        0x080001cb   Thumb Code     0  startup_stm32f411xe.o(.text)
    OTG_FS_WKUP_IRQHandler                   0x080001cb   Thumb Code     0  startup_stm32f411xe.o(.text)
    PVD_IRQHandler                           0x080001cb   Thumb Code     0  startup_stm32f411xe.o(.text)
    RCC_IRQHandler                           0x080001cb   Thumb Code     0  startup_stm32f411xe.o(.text)
    RTC_Alarm_IRQHandler                     0x080001cb   Thumb Code     0  startup_stm32f411xe.o(.text)
    RTC_WKUP_IRQHandler                      0x080001cb   Thumb Code     0  startup_stm32f411xe.o(.text)
    SDIO_IRQHandler                          0x080001cb   Thumb Code     0  startup_stm32f411xe.o(.text)
    SPI1_IRQHandler                          0x080001cb   Thumb Code     0  startup_stm32f411xe.o(.text)
    SPI2_IRQHandler                          0x080001cb   Thumb Code     0  startup_stm32f411xe.o(.text)
    SPI3_IRQHandler                          0x080001cb   Thumb Code     0  startup_stm32f411xe.o(.text)
    SPI4_IRQHandler                          0x080001cb   Thumb Code     0  startup_stm32f411xe.o(.text)
    SPI5_IRQHandler                          0x080001cb   Thumb Code     0  startup_stm32f411xe.o(.text)
    TAMP_STAMP_IRQHandler                    0x080001cb   Thumb Code     0  startup_stm32f411xe.o(.text)
    TIM1_BRK_TIM9_IRQHandler                 0x080001cb   Thumb Code     0  startup_stm32f411xe.o(.text)
    TIM1_CC_IRQHandler                       0x080001cb   Thumb Code     0  startup_stm32f411xe.o(.text)
    TIM1_TRG_COM_TIM11_IRQHandler            0x080001cb   Thumb Code     0  startup_stm32f411xe.o(.text)
    TIM2_IRQHandler                          0x080001cb   Thumb Code     0  startup_stm32f411xe.o(.text)
    TIM3_IRQHandler                          0x080001cb   Thumb Code     0  startup_stm32f411xe.o(.text)
    TIM4_IRQHandler                          0x080001cb   Thumb Code     0  startup_stm32f411xe.o(.text)
    TIM5_IRQHandler                          0x080001cb   Thumb Code     0  startup_stm32f411xe.o(.text)
    USART1_IRQHandler                        0x080001cb   Thumb Code     0  startup_stm32f411xe.o(.text)
    USART2_IRQHandler                        0x080001cb   Thumb Code     0  startup_stm32f411xe.o(.text)
    USART6_IRQHandler                        0x080001cb   Thumb Code     0  startup_stm32f411xe.o(.text)
    WWDG_IRQHandler                          0x080001cb   Thumb Code     0  startup_stm32f411xe.o(.text)
    __aeabi_uldivmod                         0x080001d5   Thumb Code    98  uldiv.o(.text)
    __aeabi_memset                           0x08000237   Thumb Code    14  memseta.o(.text)
    __aeabi_memset4                          0x08000237   Thumb Code     0  memseta.o(.text)
    __aeabi_memset8                          0x08000237   Thumb Code     0  memseta.o(.text)
    __aeabi_memclr                           0x08000245   Thumb Code     4  memseta.o(.text)
    __aeabi_memclr4                          0x08000245   Thumb Code     0  memseta.o(.text)
    __aeabi_memclr8                          0x08000245   Thumb Code     0  memseta.o(.text)
    _memset$wrapper                          0x08000249   Thumb Code    18  memseta.o(.text)
    __aeabi_dmul                             0x0800025b   Thumb Code   228  dmul.o(.text)
    __aeabi_f2d                              0x0800033f   Thumb Code    38  f2d.o(.text)
    __aeabi_d2f                              0x08000365   Thumb Code    56  d2f.o(.text)
    __aeabi_uidiv                            0x0800039d   Thumb Code     0  uidiv.o(.text)
    __aeabi_uidivmod                         0x0800039d   Thumb Code    44  uidiv.o(.text)
    __aeabi_llsl                             0x080003c9   Thumb Code    30  llshl.o(.text)
    _ll_shift_l                              0x080003c9   Thumb Code     0  llshl.o(.text)
    __aeabi_llsr                             0x080003e7   Thumb Code    32  llushr.o(.text)
    _ll_ushift_r                             0x080003e7   Thumb Code     0  llushr.o(.text)
    __I$use$fp                               0x08000407   Thumb Code     0  iusefp.o(.text)
    _float_round                             0x08000407   Thumb Code    18  fepilogue.o(.text)
    _float_epilogue                          0x08000419   Thumb Code    92  fepilogue.o(.text)
    _double_round                            0x08000475   Thumb Code    30  depilogue.o(.text)
    _double_epilogue                         0x08000493   Thumb Code   156  depilogue.o(.text)
    __aeabi_dadd                             0x0800052f   Thumb Code   322  dadd.o(.text)
    __aeabi_dsub                             0x08000671   Thumb Code     6  dadd.o(.text)
    __aeabi_drsub                            0x08000677   Thumb Code     6  dadd.o(.text)
    __aeabi_ddiv                             0x0800067d   Thumb Code   222  ddiv.o(.text)
    __ARM_scalbn                             0x0800075b   Thumb Code    46  dscalb.o(.text)
    scalbn                                   0x0800075b   Thumb Code     0  dscalb.o(.text)
    _dsqrt                                   0x08000789   Thumb Code   162  dsqrt.o(.text)
    __aeabi_i2d                              0x0800082b   Thumb Code    34  dflti.o(.text)
    __aeabi_d2ulz                            0x0800084d   Thumb Code    48  dfixul.o(.text)
    __aeabi_cdrcmple                         0x0800087d   Thumb Code    48  cdrcmple.o(.text)
    __scatterload                            0x080008ad   Thumb Code    28  init.o(.text)
    __scatterload_rt2                        0x080008ad   Thumb Code     0  init.o(.text)
    __aeabi_lasr                             0x080008d1   Thumb Code    36  llsshr.o(.text)
    _ll_sshift_r                             0x080008d1   Thumb Code     0  llsshr.o(.text)
    __decompress                             0x080008f5   Thumb Code     0  __dczerorl2.o(.text)
    __decompress1                            0x080008f5   Thumb Code    86  __dczerorl2.o(.text)
    BusFault_Handler                         0x0800094b   Thumb Code     2  stm32f4xx_it.o(i.BusFault_Handler)
    DebugMon_Handler                         0x0800094d   Thumb Code     2  stm32f4xx_it.o(i.DebugMon_Handler)
    Delay_ms                                 0x08000951   Thumb Code    34  stm32f4xx_it.o(i.Delay_ms)
    EMCP                                     0x08000973   Thumb Code   298  quaternion.o(i.EMCP)
    Error_Handler                            0x08000a9d   Thumb Code     4  main.o(i.Error_Handler)
    HAL_GPIO_Init                            0x08000aa1   Thumb Code   446  stm32f4xx_hal_gpio.o(i.HAL_GPIO_Init)
    HAL_GPIO_TogglePin                       0x08000c81   Thumb Code    16  stm32f4xx_hal_gpio.o(i.HAL_GPIO_TogglePin)
    HAL_GPIO_WritePin                        0x08000c91   Thumb Code    10  stm32f4xx_hal_gpio.o(i.HAL_GPIO_WritePin)
    HAL_GetTick                              0x08000c9d   Thumb Code     6  stm32f4xx_hal.o(i.HAL_GetTick)
    HAL_I2C_Init                             0x08000ca9   Thumb Code   376  stm32f4xx_hal_i2c.o(i.HAL_I2C_Init)
    HAL_I2C_Master_Transmit                  0x08000e31   Thumb Code   290  stm32f4xx_hal_i2c.o(i.HAL_I2C_Master_Transmit)
    HAL_I2C_Mem_Read                         0x08000f5d   Thumb Code   490  stm32f4xx_hal_i2c.o(i.HAL_I2C_Mem_Read)
    HAL_I2C_Mem_Write                        0x08001155   Thumb Code   294  stm32f4xx_hal_i2c.o(i.HAL_I2C_Mem_Write)
    HAL_I2C_MspInit                          0x08001285   Thumb Code   182  i2c.o(i.HAL_I2C_MspInit)
    HAL_IncTick                              0x0800134d   Thumb Code    12  stm32f4xx_hal.o(i.HAL_IncTick)
    HAL_Init                                 0x0800135d   Thumb Code    48  stm32f4xx_hal.o(i.HAL_Init)
    HAL_InitTick                             0x08001391   Thumb Code   118  stm32f4xx_hal_timebase_tim.o(i.HAL_InitTick)
    HAL_MspInit                              0x0800141d   Thumb Code    42  stm32f4xx_hal_msp.o(i.HAL_MspInit)
    HAL_NVIC_EnableIRQ                       0x0800144d   Thumb Code    26  stm32f4xx_hal_cortex.o(i.HAL_NVIC_EnableIRQ)
    HAL_NVIC_SetPriority                     0x08001469   Thumb Code    60  stm32f4xx_hal_cortex.o(i.HAL_NVIC_SetPriority)
    HAL_NVIC_SetPriorityGrouping             0x080014a9   Thumb Code    26  stm32f4xx_hal_cortex.o(i.HAL_NVIC_SetPriorityGrouping)
    HAL_RCC_ClockConfig                      0x080014cd   Thumb Code   288  stm32f4xx_hal_rcc.o(i.HAL_RCC_ClockConfig)
    HAL_RCC_GetClockConfig                   0x08001601   Thumb Code    54  stm32f4xx_hal_rcc.o(i.HAL_RCC_GetClockConfig)
    HAL_RCC_GetPCLK1Freq                     0x08001641   Thumb Code    20  stm32f4xx_hal_rcc.o(i.HAL_RCC_GetPCLK1Freq)
    HAL_RCC_GetPCLK2Freq                     0x08001661   Thumb Code    20  stm32f4xx_hal_rcc.o(i.HAL_RCC_GetPCLK2Freq)
    HAL_RCC_GetSysClockFreq                  0x08001681   Thumb Code    88  stm32f4xx_hal_rcc.o(i.HAL_RCC_GetSysClockFreq)
    HAL_RCC_OscConfig                        0x080016e5   Thumb Code   856  stm32f4xx_hal_rcc.o(i.HAL_RCC_OscConfig)
    HAL_SYSTICK_Config                       0x08001a51   Thumb Code    40  stm32f4xx_hal_cortex.o(i.HAL_SYSTICK_Config)
    HAL_TIMEx_BreakCallback                  0x08001a79   Thumb Code     2  stm32f4xx_hal_tim_ex.o(i.HAL_TIMEx_BreakCallback)
    HAL_TIMEx_CommutCallback                 0x08001a7b   Thumb Code     2  stm32f4xx_hal_tim_ex.o(i.HAL_TIMEx_CommutCallback)
    HAL_TIM_Base_Init                        0x08001a7d   Thumb Code    90  stm32f4xx_hal_tim.o(i.HAL_TIM_Base_Init)
    HAL_TIM_Base_MspInit                     0x08001ad7   Thumb Code     2  stm32f4xx_hal_tim.o(i.HAL_TIM_Base_MspInit)
    HAL_TIM_Base_Start_IT                    0x08001ad9   Thumb Code    88  stm32f4xx_hal_tim.o(i.HAL_TIM_Base_Start_IT)
    HAL_TIM_IC_CaptureCallback               0x08001b45   Thumb Code     2  stm32f4xx_hal_tim.o(i.HAL_TIM_IC_CaptureCallback)
    HAL_TIM_IRQHandler                       0x08001b47   Thumb Code   358  stm32f4xx_hal_tim.o(i.HAL_TIM_IRQHandler)
    HAL_TIM_OC_DelayElapsedCallback          0x08001cad   Thumb Code     2  stm32f4xx_hal_tim.o(i.HAL_TIM_OC_DelayElapsedCallback)
    HAL_TIM_PWM_PulseFinishedCallback        0x08001caf   Thumb Code     2  stm32f4xx_hal_tim.o(i.HAL_TIM_PWM_PulseFinishedCallback)
    HAL_TIM_PeriodElapsedCallback            0x08001cb1   Thumb Code    14  main.o(i.HAL_TIM_PeriodElapsedCallback)
    HAL_TIM_TriggerCallback                  0x08001cc5   Thumb Code     2  stm32f4xx_hal_tim.o(i.HAL_TIM_TriggerCallback)
    HAL_UART_Init                            0x08001cc7   Thumb Code    98  stm32f4xx_hal_uart.o(i.HAL_UART_Init)
    HAL_UART_MspInit                         0x08001d29   Thumb Code    94  usart.o(i.HAL_UART_MspInit)
    HAL_UART_Transmit                        0x08001d95   Thumb Code   178  stm32f4xx_hal_uart.o(i.HAL_UART_Transmit)
    HardFault_Handler                        0x08001e47   Thumb Code     2  stm32f4xx_it.o(i.HardFault_Handler)
    MPU6050SelfTest                          0x080022b5   Thumb Code   584  mpu6050.o(i.MPU6050SelfTest)
    MPU6050_Init                             0x08002529   Thumb Code    68  mpu6050.o(i.MPU6050_Init)
    MX_GPIO_Init                             0x0800256d   Thumb Code   118  gpio.o(i.MX_GPIO_Init)
    MX_I2C1_Init                             0x080025ed   Thumb Code    50  i2c.o(i.MX_I2C1_Init)
    MX_I2C2_Init                             0x0800262d   Thumb Code    50  i2c.o(i.MX_I2C2_Init)
    MX_USART1_UART_Init                      0x0800266d   Thumb Code    48  usart.o(i.MX_USART1_UART_Init)
    MahonyAHRSupdateIMU                      0x080026a5   Thumb Code   650  mpu6050.o(i.MahonyAHRSupdateIMU)
    MemManage_Handler                        0x08002939   Thumb Code     2  stm32f4xx_it.o(i.MemManage_Handler)
    NMI_Handler                              0x0800293b   Thumb Code     2  stm32f4xx_it.o(i.NMI_Handler)
    PendSV_Handler                           0x0800293d   Thumb Code     2  stm32f4xx_it.o(i.PendSV_Handler)
    SVC_Handler                              0x0800293f   Thumb Code     2  stm32f4xx_it.o(i.SVC_Handler)
    SysTick_Handler                          0x08002941   Thumb Code    10  stm32f4xx_it.o(i.SysTick_Handler)
    SystemClock_Config                       0x08002951   Thumb Code   136  main.o(i.SystemClock_Config)
    SystemInit                               0x080029e1   Thumb Code    12  system_stm32f4xx.o(i.SystemInit)
    TIM1_UP_TIM10_IRQHandler                 0x080029f1   Thumb Code     6  stm32f4xx_it.o(i.TIM1_UP_TIM10_IRQHandler)
    TIM_Base_SetConfig                       0x080029fd   Thumb Code   122  stm32f4xx_hal_tim.o(i.TIM_Base_SetConfig)
    UsageFault_Handler                       0x08002c19   Thumb Code     2  stm32f4xx_it.o(i.UsageFault_Handler)
    _Abs                                     0x08002c1b   Thumb Code    16  quaternion.o(i._Abs)
    _Get                                     0x08002c2b   Thumb Code    12  quaternion.o(i._Get)
    _Ik2J                                    0x08002c37   Thumb Code    44  quaternion.o(i._Ik2J)
    _MatIk2J                                 0x08002c63   Thumb Code    70  quaternion.o(i._MatIk2J)
    _MatSwap                                 0x08002ca9   Thumb Code    90  quaternion.o(i._MatSwap)
    _Swap                                    0x08002d03   Thumb Code    36  quaternion.o(i._Swap)
    _VecIk2J                                 0x08002d27   Thumb Code    30  quaternion.o(i._VecIk2J)
    _VecSwap                                 0x08002d45   Thumb Code    26  quaternion.o(i._VecSwap)
    __0printf                                0x08002d61   Thumb Code    22  printfa.o(i.__0printf)
    __1printf                                0x08002d61   Thumb Code     0  printfa.o(i.__0printf)
    __2printf                                0x08002d61   Thumb Code     0  printfa.o(i.__0printf)
    __c89printf                              0x08002d61   Thumb Code     0  printfa.o(i.__0printf)
    printf                                   0x08002d61   Thumb Code     0  printfa.o(i.__0printf)
    __ARM_fpclassify                         0x08002d81   Thumb Code    48  fpclassify.o(i.__ARM_fpclassify)
    __hardfp_pow                             0x08002dd1   Thumb Code  3072  pow.o(i.__hardfp_pow)
    __hardfp_sqrt                            0x08003a21   Thumb Code   122  sqrt.o(i.__hardfp_sqrt)
    __kernel_poly                            0x08003a9b   Thumb Code   248  poly.o(i.__kernel_poly)
    __mathlib_dbl_divzero                    0x08003b99   Thumb Code    28  dunder.o(i.__mathlib_dbl_divzero)
    __mathlib_dbl_infnan2                    0x08003bc9   Thumb Code    20  dunder.o(i.__mathlib_dbl_infnan2)
    __mathlib_dbl_invalid                    0x08003be1   Thumb Code    24  dunder.o(i.__mathlib_dbl_invalid)
    __mathlib_dbl_overflow                   0x08003c01   Thumb Code    24  dunder.o(i.__mathlib_dbl_overflow)
    __mathlib_dbl_underflow                  0x08003c21   Thumb Code    24  dunder.o(i.__mathlib_dbl_underflow)
    __scatterload_copy                       0x08003c41   Thumb Code    14  handlers.o(i.__scatterload_copy)
    __scatterload_null                       0x08003c4f   Thumb Code     2  handlers.o(i.__scatterload_null)
    __scatterload_zeroinit                   0x08003c51   Thumb Code    14  handlers.o(i.__scatterload_zeroinit)
    __set_errno                              0x08003c61   Thumb Code     6  errno.o(i.__set_errno)
    correct_quaternion                       0x080044f9   Thumb Code   128  mpu6050.o(i.correct_quaternion)
    cycleCounterInit                         0x08004595   Thumb Code    32  stm32f4xx_it.o(i.cycleCounterInit)
    fabs                                     0x080045bd   Thumb Code    24  fabs.o(i.fabs)
    fputc                                    0x080045d5   Thumb Code    20  usart.o(i.fputc)
    init_quaternion                          0x080045ed   Thumb Code    76  mpu6050.o(i.init_quaternion)
    main                                     0x08004639   Thumb Code   414  main.o(i.main)
    malloc                                   0x0800483d   Thumb Code    92  malloc.o(i.malloc)
    micros                                   0x080048a9   Thumb Code    50  stm32f4xx_it.o(i.micros)
    mpu6050_GetData                          0x080048e1   Thumb Code    82  mpu6050.o(i.mpu6050_GetData)
    mpu6050_updateQuaternion                 0x08004939   Thumb Code   172  mpu6050.o(i.mpu6050_updateQuaternion)
    quaternion_inverseTransformation         0x080049f5   Thumb Code   220  quaternion.o(i.quaternion_inverseTransformation)
    quaternion_multiply                      0x08004ad5   Thumb Code    90  quaternion.o(i.quaternion_multiply)
    readByte                                 0x08004b2f   Thumb Code    28  mpu6050.o(i.readByte)
    readBytes                                0x08004b4b   Thumb Code    22  mpu6050.o(i.readBytes)
    selectPort                               0x08004b61   Thumb Code    78  pca9548.o(i.selectPort)
    sensor_init                              0x08004bb1   Thumb Code   122  mpu6050.o(i.sensor_init)
    sensor_update                            0x08004c35   Thumb Code    88  mpu6050.o(i.sensor_update)
    sqrt                                     0x08004c95   Thumb Code   110  sqrt.o(i.sqrt)
    writeByte                                0x08004d03   Thumb Code    26  mpu6050.o(i.writeByte)
    AHBPrescTable                            0x08004d1c   Data          16  system_stm32f4xx.o(.constdata)
    APBPrescTable                            0x08004d2c   Data           8  system_stm32f4xx.o(.constdata)
    __mathlib_zero                           0x08004dd0   Data           8  qnan.o(.constdata)
    Region$$Table$$Base                      0x08004dd8   Number         0  anon$$obj.o(Region$$Table)
    Region$$Table$$Limit                     0x08004df8   Number         0  anon$$obj.o(Region$$Table)
    sysTickUptime                            0x20000004   Data           4  stm32f4xx_it.o(.data)
    uwTickFreq                               0x20000008   Data           1  stm32f4xx_hal.o(.data)
    uwTickPrio                               0x2000000c   Data           4  stm32f4xx_hal.o(.data)
    uwTick                                   0x20000010   Data           4  stm32f4xx_hal.o(.data)
    SystemCoreClock                          0x20000014   Data           4  system_stm32f4xx.o(.data)
    offsetAcGyA                              0x20000018   Data          24  mpu6050.o(.data)
    offsetAcGyB                              0x20000030   Data          24  mpu6050.o(.data)
    offsetAcGyC                              0x20000048   Data          24  mpu6050.o(.data)
    offsetAcGyD                              0x20000060   Data          24  mpu6050.o(.data)
    offsetAcGyE                              0x20000078   Data          24  mpu6050.o(.data)
    offsetAcGyF                              0x20000090   Data          24  mpu6050.o(.data)
    offsetAcGyG                              0x200000a8   Data          24  mpu6050.o(.data)
    offsetAcGyH                              0x200000c0   Data          24  mpu6050.o(.data)
    offsetAcGyI                              0x200000d8   Data          24  mpu6050.o(.data)
    offsetAcGyJ                              0x200000f0   Data          24  mpu6050.o(.data)
    printFlag                                0x20000108   Data           1  mpu6050.o(.data)
    AcX                                      0x2000010a   Data           2  mpu6050.o(.data)
    AcY                                      0x2000010c   Data           2  mpu6050.o(.data)
    AcZ                                      0x2000010e   Data           2  mpu6050.o(.data)
    Tmp                                      0x20000110   Data           2  mpu6050.o(.data)
    GyX                                      0x20000112   Data           2  mpu6050.o(.data)
    GyY                                      0x20000114   Data           2  mpu6050.o(.data)
    GyZ                                      0x20000116   Data           2  mpu6050.o(.data)
    twoKp                                    0x20000118   Data           4  mpu6050.o(.data)
    twoKi                                    0x2000011c   Data           4  mpu6050.o(.data)
    integralFBx                              0x20000120   Data           4  mpu6050.o(.data)
    integralFBy                              0x20000124   Data           4  mpu6050.o(.data)
    integralFBz                              0x20000128   Data           4  mpu6050.o(.data)
    sampleFreq                               0x2000012c   Data           4  mpu6050.o(.data)
    lastUpdate                               0x20000130   Data           4  mpu6050.o(.data)
    Now                                      0x20000134   Data           4  mpu6050.o(.data)
    axg                                      0x20000138   Data           4  mpu6050.o(.data)
    ayg                                      0x2000013c   Data           4  mpu6050.o(.data)
    azg                                      0x20000140   Data           4  mpu6050.o(.data)
    gxrs                                     0x20000144   Data           4  mpu6050.o(.data)
    gyrs                                     0x20000148   Data           4  mpu6050.o(.data)
    gzrs                                     0x2000014c   Data           4  mpu6050.o(.data)
    __stdout                                 0x20000150   Data           4  stdout.o(.data)
    __microlib_freelist                      0x20000154   Data           4  mvars.o(.data)
    __microlib_freelist_initialised          0x20000158   Data           4  mvars.o(.data)
    hi2c1                                    0x20000160   Data          84  i2c.o(.bss)
    hi2c2                                    0x200001b4   Data          84  i2c.o(.bss)
    huart1                                   0x20000208   Data          68  usart.o(.bss)
    htim1                                    0x2000024c   Data          72  stm32f4xx_hal_timebase_tim.o(.bss)
    armR                                     0x20000294   Data          88  mpu6050.o(.bss)
    armL                                     0x200002ec   Data          88  mpu6050.o(.bss)
    forearmR                                 0x20000344   Data          88  mpu6050.o(.bss)
    forearmL                                 0x2000039c   Data          88  mpu6050.o(.bss)
    legR                                     0x200003f4   Data          88  mpu6050.o(.bss)
    legL                                     0x2000044c   Data          88  mpu6050.o(.bss)
    upperlegR                                0x200004a4   Data          88  mpu6050.o(.bss)
    upperlegL                                0x200004fc   Data          88  mpu6050.o(.bss)
    head                                     0x20000554   Data          88  mpu6050.o(.bss)
    trunk                                    0x200005ac   Data          88  mpu6050.o(.bss)
    SelfTest                                 0x20000604   Data          24  mpu6050.o(.bss)
    __heap_base                              0x20000620   Data           0  startup_stm32f411xe.o(HEAP)
    __heap_limit                             0x20000e20   Data           0  startup_stm32f411xe.o(HEAP)
    __initial_sp                             0x20001620   Data           0  startup_stm32f411xe.o(STACK)



==============================================================================

Memory Map of the image

  Image Entry point : 0x08000199

  Load Region LR_IROM1 (Base: 0x08000000, Size: 0x00004f58, Max: 0x00080000, ABSOLUTE, COMPRESSED[0x00004eb0])

    Execution Region ER_IROM1 (Exec base: 0x08000000, Load base: 0x08000000, Size: 0x00004df8, Max: 0x00080000, ABSOLUTE)

    Exec Addr    Load Addr    Size         Type   Attr      Idx    E Section Name        Object

    0x08000000   0x08000000   0x00000198   Data   RO            3    RESET               startup_stm32f411xe.o
    0x08000198   0x08000198   0x00000000   Code   RO         3945  * .ARM.Collect$$$$00000000  mc_w.l(entry.o)
    0x08000198   0x08000198   0x00000004   Code   RO         4272    .ARM.Collect$$$$00000001  mc_w.l(entry2.o)
    0x0800019c   0x0800019c   0x00000004   Code   RO         4275    .ARM.Collect$$$$00000004  mc_w.l(entry5.o)
    0x080001a0   0x080001a0   0x00000000   Code   RO         4277    .ARM.Collect$$$$00000008  mc_w.l(entry7b.o)
    0x080001a0   0x080001a0   0x00000000   Code   RO         4279    .ARM.Collect$$$$0000000A  mc_w.l(entry8b.o)
    0x080001a0   0x080001a0   0x00000008   Code   RO         4280    .ARM.Collect$$$$0000000B  mc_w.l(entry9a.o)
    0x080001a8   0x080001a8   0x00000004   Code   RO         4287    .ARM.Collect$$$$0000000E  mc_w.l(entry12b.o)
    0x080001ac   0x080001ac   0x00000000   Code   RO         4282    .ARM.Collect$$$$0000000F  mc_w.l(entry10a.o)
    0x080001ac   0x080001ac   0x00000000   Code   RO         4284    .ARM.Collect$$$$00000011  mc_w.l(entry11a.o)
    0x080001ac   0x080001ac   0x00000004   Code   RO         4273    .ARM.Collect$$$$00002712  mc_w.l(entry2.o)
    0x080001b0   0x080001b0   0x00000024   Code   RO            4    .text               startup_stm32f411xe.o
    0x080001d4   0x080001d4   0x00000062   Code   RO         3948    .text               mc_w.l(uldiv.o)
    0x08000236   0x08000236   0x00000024   Code   RO         3950    .text               mc_w.l(memseta.o)
    0x0800025a   0x0800025a   0x000000e4   Code   RO         4241    .text               mf_w.l(dmul.o)
    0x0800033e   0x0800033e   0x00000026   Code   RO         4243    .text               mf_w.l(f2d.o)
    0x08000364   0x08000364   0x00000038   Code   RO         4245    .text               mf_w.l(d2f.o)
    0x0800039c   0x0800039c   0x0000002c   Code   RO         4289    .text               mc_w.l(uidiv.o)
    0x080003c8   0x080003c8   0x0000001e   Code   RO         4291    .text               mc_w.l(llshl.o)
    0x080003e6   0x080003e6   0x00000020   Code   RO         4293    .text               mc_w.l(llushr.o)
    0x08000406   0x08000406   0x00000000   Code   RO         4308    .text               mc_w.l(iusefp.o)
    0x08000406   0x08000406   0x0000006e   Code   RO         4309    .text               mf_w.l(fepilogue.o)
    0x08000474   0x08000474   0x000000ba   Code   RO         4311    .text               mf_w.l(depilogue.o)
    0x0800052e   0x0800052e   0x0000014e   Code   RO         4313    .text               mf_w.l(dadd.o)
    0x0800067c   0x0800067c   0x000000de   Code   RO         4315    .text               mf_w.l(ddiv.o)
    0x0800075a   0x0800075a   0x0000002e   Code   RO         4319    .text               mf_w.l(dscalb.o)
    0x08000788   0x08000788   0x000000a2   Code   RO         4321    .text               mf_w.l(dsqrt.o)
    0x0800082a   0x0800082a   0x00000022   Code   RO         4323    .text               mf_w.l(dflti.o)
    0x0800084c   0x0800084c   0x00000030   Code   RO         4325    .text               mf_w.l(dfixul.o)
    0x0800087c   0x0800087c   0x00000030   Code   RO         4329    .text               mf_w.l(cdrcmple.o)
    0x080008ac   0x080008ac   0x00000024   Code   RO         4331    .text               mc_w.l(init.o)
    0x080008d0   0x080008d0   0x00000024   Code   RO         4333    .text               mc_w.l(llsshr.o)
    0x080008f4   0x080008f4   0x00000056   Code   RO         4343    .text               mc_w.l(__dczerorl2.o)
    0x0800094a   0x0800094a   0x00000002   Code   RO          402    i.BusFault_Handler  stm32f4xx_it.o
    0x0800094c   0x0800094c   0x00000002   Code   RO          403    i.DebugMon_Handler  stm32f4xx_it.o
    0x0800094e   0x0800094e   0x00000002   PAD
    0x08000950   0x08000950   0x00000022   Code   RO          404    i.Delay_ms          stm32f4xx_it.o
    0x08000972   0x08000972   0x0000012a   Code   RO         3841    i.EMCP              quaternion.o
    0x08000a9c   0x08000a9c   0x00000004   Code   RO           13    i.Error_Handler     main.o
    0x08000aa0   0x08000aa0   0x000001e0   Code   RO         1505    i.HAL_GPIO_Init     stm32f4xx_hal_gpio.o
    0x08000c80   0x08000c80   0x00000010   Code   RO         1508    i.HAL_GPIO_TogglePin  stm32f4xx_hal_gpio.o
    0x08000c90   0x08000c90   0x0000000a   Code   RO         1509    i.HAL_GPIO_WritePin  stm32f4xx_hal_gpio.o
    0x08000c9a   0x08000c9a   0x00000002   PAD
    0x08000c9c   0x08000c9c   0x0000000c   Code   RO         2061    i.HAL_GetTick       stm32f4xx_hal.o
    0x08000ca8   0x08000ca8   0x00000188   Code   RO          645    i.HAL_I2C_Init      stm32f4xx_hal_i2c.o
    0x08000e30   0x08000e30   0x0000012c   Code   RO          658    i.HAL_I2C_Master_Transmit  stm32f4xx_hal_i2c.o
    0x08000f5c   0x08000f5c   0x000001f8   Code   RO          663    i.HAL_I2C_Mem_Read  stm32f4xx_hal_i2c.o
    0x08001154   0x08001154   0x00000130   Code   RO          666    i.HAL_I2C_Mem_Write  stm32f4xx_hal_i2c.o
    0x08001284   0x08001284   0x000000c8   Code   RO          307    i.HAL_I2C_MspInit   i2c.o
    0x0800134c   0x0800134c   0x00000010   Code   RO         2067    i.HAL_IncTick       stm32f4xx_hal.o
    0x0800135c   0x0800135c   0x00000034   Code   RO         2068    i.HAL_Init          stm32f4xx_hal.o
    0x08001390   0x08001390   0x0000008c   Code   RO          541    i.HAL_InitTick      stm32f4xx_hal_timebase_tim.o
    0x0800141c   0x0800141c   0x00000030   Code   RO          517    i.HAL_MspInit       stm32f4xx_hal_msp.o
    0x0800144c   0x0800144c   0x0000001a   Code   RO         1918    i.HAL_NVIC_EnableIRQ  stm32f4xx_hal_cortex.o
    0x08001466   0x08001466   0x00000002   PAD
    0x08001468   0x08001468   0x00000040   Code   RO         1924    i.HAL_NVIC_SetPriority  stm32f4xx_hal_cortex.o
    0x080014a8   0x080014a8   0x00000024   Code   RO         1925    i.HAL_NVIC_SetPriorityGrouping  stm32f4xx_hal_cortex.o
    0x080014cc   0x080014cc   0x00000134   Code   RO         1097    i.HAL_RCC_ClockConfig  stm32f4xx_hal_rcc.o
    0x08001600   0x08001600   0x00000040   Code   RO         1101    i.HAL_RCC_GetClockConfig  stm32f4xx_hal_rcc.o
    0x08001640   0x08001640   0x00000020   Code   RO         1104    i.HAL_RCC_GetPCLK1Freq  stm32f4xx_hal_rcc.o
    0x08001660   0x08001660   0x00000020   Code   RO         1105    i.HAL_RCC_GetPCLK2Freq  stm32f4xx_hal_rcc.o
    0x08001680   0x08001680   0x00000064   Code   RO         1106    i.HAL_RCC_GetSysClockFreq  stm32f4xx_hal_rcc.o
    0x080016e4   0x080016e4   0x0000036c   Code   RO         1109    i.HAL_RCC_OscConfig  stm32f4xx_hal_rcc.o
    0x08001a50   0x08001a50   0x00000028   Code   RO         1929    i.HAL_SYSTICK_Config  stm32f4xx_hal_cortex.o
    0x08001a78   0x08001a78   0x00000002   Code   RO         3012    i.HAL_TIMEx_BreakCallback  stm32f4xx_hal_tim_ex.o
    0x08001a7a   0x08001a7a   0x00000002   Code   RO         3013    i.HAL_TIMEx_CommutCallback  stm32f4xx_hal_tim_ex.o
    0x08001a7c   0x08001a7c   0x0000005a   Code   RO         2308    i.HAL_TIM_Base_Init  stm32f4xx_hal_tim.o
    0x08001ad6   0x08001ad6   0x00000002   Code   RO         2310    i.HAL_TIM_Base_MspInit  stm32f4xx_hal_tim.o
    0x08001ad8   0x08001ad8   0x0000006c   Code   RO         2313    i.HAL_TIM_Base_Start_IT  stm32f4xx_hal_tim.o
    0x08001b44   0x08001b44   0x00000002   Code   RO         2342    i.HAL_TIM_IC_CaptureCallback  stm32f4xx_hal_tim.o
    0x08001b46   0x08001b46   0x00000166   Code   RO         2356    i.HAL_TIM_IRQHandler  stm32f4xx_hal_tim.o
    0x08001cac   0x08001cac   0x00000002   Code   RO         2359    i.HAL_TIM_OC_DelayElapsedCallback  stm32f4xx_hal_tim.o
    0x08001cae   0x08001cae   0x00000002   Code   RO         2386    i.HAL_TIM_PWM_PulseFinishedCallback  stm32f4xx_hal_tim.o
    0x08001cb0   0x08001cb0   0x00000014   Code   RO           14    i.HAL_TIM_PeriodElapsedCallback  main.o
    0x08001cc4   0x08001cc4   0x00000002   Code   RO         2399    i.HAL_TIM_TriggerCallback  stm32f4xx_hal_tim.o
    0x08001cc6   0x08001cc6   0x00000062   Code   RO         3308    i.HAL_UART_Init     stm32f4xx_hal_uart.o
    0x08001d28   0x08001d28   0x0000006c   Code   RO          355    i.HAL_UART_MspInit  usart.o
    0x08001d94   0x08001d94   0x000000b2   Code   RO         3316    i.HAL_UART_Transmit  stm32f4xx_hal_uart.o
    0x08001e46   0x08001e46   0x00000002   Code   RO          406    i.HardFault_Handler  stm32f4xx_it.o
    0x08001e48   0x08001e48   0x0000002e   Code   RO          687    i.I2C_IsAcknowledgeFailed  stm32f4xx_hal_i2c.o
    0x08001e76   0x08001e76   0x00000002   PAD
    0x08001e78   0x08001e78   0x0000009c   Code   RO          691    i.I2C_MasterRequestWrite  stm32f4xx_hal_i2c.o
    0x08001f14   0x08001f14   0x000000fc   Code   RO          697    i.I2C_RequestMemoryRead  stm32f4xx_hal_i2c.o
    0x08002010   0x08002010   0x000000a8   Code   RO          698    i.I2C_RequestMemoryWrite  stm32f4xx_hal_i2c.o
    0x080020b8   0x080020b8   0x0000004c   Code   RO          702    i.I2C_WaitOnBTFFlagUntilTimeout  stm32f4xx_hal_i2c.o
    0x08002104   0x08002104   0x00000068   Code   RO          703    i.I2C_WaitOnFlagUntilTimeout  stm32f4xx_hal_i2c.o
    0x0800216c   0x0800216c   0x00000096   Code   RO          704    i.I2C_WaitOnMasterAddressFlagUntilTimeout  stm32f4xx_hal_i2c.o
    0x08002202   0x08002202   0x00000066   Code   RO          705    i.I2C_WaitOnRXNEFlagUntilTimeout  stm32f4xx_hal_i2c.o
    0x08002268   0x08002268   0x0000004c   Code   RO          706    i.I2C_WaitOnTXEFlagUntilTimeout  stm32f4xx_hal_i2c.o
    0x080022b4   0x080022b4   0x00000274   Code   RO         3674    i.MPU6050SelfTest   mpu6050.o
    0x08002528   0x08002528   0x00000044   Code   RO         3675    i.MPU6050_Init      mpu6050.o
    0x0800256c   0x0800256c   0x00000080   Code   RO          183    i.MX_GPIO_Init      gpio.o
    0x080025ec   0x080025ec   0x00000040   Code   RO          308    i.MX_I2C1_Init      i2c.o
    0x0800262c   0x0800262c   0x00000040   Code   RO          309    i.MX_I2C2_Init      i2c.o
    0x0800266c   0x0800266c   0x00000038   Code   RO          356    i.MX_USART1_UART_Init  usart.o
    0x080026a4   0x080026a4   0x00000294   Code   RO         3676    i.MahonyAHRSupdateIMU  mpu6050.o
    0x08002938   0x08002938   0x00000002   Code   RO          407    i.MemManage_Handler  stm32f4xx_it.o
    0x0800293a   0x0800293a   0x00000002   Code   RO          408    i.NMI_Handler       stm32f4xx_it.o
    0x0800293c   0x0800293c   0x00000002   Code   RO          409    i.PendSV_Handler    stm32f4xx_it.o
    0x0800293e   0x0800293e   0x00000002   Code   RO          410    i.SVC_Handler       stm32f4xx_it.o
    0x08002940   0x08002940   0x00000010   Code   RO          411    i.SysTick_Handler   stm32f4xx_it.o
    0x08002950   0x08002950   0x00000090   Code   RO           15    i.SystemClock_Config  main.o
    0x080029e0   0x080029e0   0x00000010   Code   RO         3637    i.SystemInit        system_stm32f4xx.o
    0x080029f0   0x080029f0   0x0000000c   Code   RO          412    i.TIM1_UP_TIM10_IRQHandler  stm32f4xx_it.o
    0x080029fc   0x080029fc   0x00000098   Code   RO         2401    i.TIM_Base_SetConfig  stm32f4xx_hal_tim.o
    0x08002a94   0x08002a94   0x0000010c   Code   RO         3334    i.UART_SetConfig    stm32f4xx_hal_uart.o
    0x08002ba0   0x08002ba0   0x00000078   Code   RO         3337    i.UART_WaitOnFlagUntilTimeout  stm32f4xx_hal_uart.o
    0x08002c18   0x08002c18   0x00000002   Code   RO          413    i.UsageFault_Handler  stm32f4xx_it.o
    0x08002c1a   0x08002c1a   0x00000010   Code   RO         3842    i._Abs              quaternion.o
    0x08002c2a   0x08002c2a   0x0000000c   Code   RO         3843    i._Get              quaternion.o
    0x08002c36   0x08002c36   0x0000002c   Code   RO         3844    i._Ik2J             quaternion.o
    0x08002c62   0x08002c62   0x00000046   Code   RO         3845    i._MatIk2J          quaternion.o
    0x08002ca8   0x08002ca8   0x0000005a   Code   RO         3846    i._MatSwap          quaternion.o
    0x08002d02   0x08002d02   0x00000024   Code   RO         3847    i._Swap             quaternion.o
    0x08002d26   0x08002d26   0x0000001e   Code   RO         3848    i._VecIk2J          quaternion.o
    0x08002d44   0x08002d44   0x0000001a   Code   RO         3849    i._VecSwap          quaternion.o
    0x08002d5e   0x08002d5e   0x00000002   PAD
    0x08002d60   0x08002d60   0x00000020   Code   RO         4185    i.__0printf         mc_w.l(printfa.o)
    0x08002d80   0x08002d80   0x00000030   Code   RO         4267    i.__ARM_fpclassify  m_wm.l(fpclassify.o)
    0x08002db0   0x08002db0   0x00000020   Code   RO         1931    i.__NVIC_SetPriority  stm32f4xx_hal_cortex.o
    0x08002dd0   0x08002dd0   0x00000c50   Code   RO         3919    i.__hardfp_pow      m_wm.l(pow.o)
    0x08003a20   0x08003a20   0x0000007a   Code   RO         3933    i.__hardfp_sqrt     m_wm.l(sqrt.o)
    0x08003a9a   0x08003a9a   0x000000f8   Code   RO         4269    i.__kernel_poly     m_wm.l(poly.o)
    0x08003b92   0x08003b92   0x00000006   PAD
    0x08003b98   0x08003b98   0x00000030   Code   RO         4247    i.__mathlib_dbl_divzero  m_wm.l(dunder.o)
    0x08003bc8   0x08003bc8   0x00000014   Code   RO         4249    i.__mathlib_dbl_infnan2  m_wm.l(dunder.o)
    0x08003bdc   0x08003bdc   0x00000004   PAD
    0x08003be0   0x08003be0   0x00000020   Code   RO         4250    i.__mathlib_dbl_invalid  m_wm.l(dunder.o)
    0x08003c00   0x08003c00   0x00000020   Code   RO         4251    i.__mathlib_dbl_overflow  m_wm.l(dunder.o)
    0x08003c20   0x08003c20   0x00000020   Code   RO         4253    i.__mathlib_dbl_underflow  m_wm.l(dunder.o)
    0x08003c40   0x08003c40   0x0000000e   Code   RO         4337    i.__scatterload_copy  mc_w.l(handlers.o)
    0x08003c4e   0x08003c4e   0x00000002   Code   RO         4338    i.__scatterload_null  mc_w.l(handlers.o)
    0x08003c50   0x08003c50   0x0000000e   Code   RO         4339    i.__scatterload_zeroinit  mc_w.l(handlers.o)
    0x08003c5e   0x08003c5e   0x00000002   PAD
    0x08003c60   0x08003c60   0x0000000c   Code   RO         4303    i.__set_errno       mc_w.l(errno.o)
    0x08003c6c   0x08003c6c   0x00000184   Code   RO         4192    i._fp_digits        mc_w.l(printfa.o)
    0x08003df0   0x08003df0   0x000006b4   Code   RO         4193    i._printf_core      mc_w.l(printfa.o)
    0x080044a4   0x080044a4   0x00000024   Code   RO         4194    i._printf_post_padding  mc_w.l(printfa.o)
    0x080044c8   0x080044c8   0x0000002e   Code   RO         4195    i._printf_pre_padding  mc_w.l(printfa.o)
    0x080044f6   0x080044f6   0x00000002   PAD
    0x080044f8   0x080044f8   0x0000009c   Code   RO         3678    i.correct_quaternion  mpu6050.o
    0x08004594   0x08004594   0x00000028   Code   RO          414    i.cycleCounterInit  stm32f4xx_it.o
    0x080045bc   0x080045bc   0x00000018   Code   RO         4263    i.fabs              m_wm.l(fabs.o)
    0x080045d4   0x080045d4   0x00000018   Code   RO          357    i.fputc             usart.o
    0x080045ec   0x080045ec   0x0000004c   Code   RO         3679    i.init_quaternion   mpu6050.o
    0x08004638   0x08004638   0x00000204   Code   RO           16    i.main              main.o
    0x0800483c   0x0800483c   0x0000006c   Code   RO         4214    i.malloc            mc_w.l(malloc.o)
    0x080048a8   0x080048a8   0x00000038   Code   RO          415    i.micros            stm32f4xx_it.o
    0x080048e0   0x080048e0   0x00000058   Code   RO         3680    i.mpu6050_GetData   mpu6050.o
    0x08004938   0x08004938   0x000000bc   Code   RO         3681    i.mpu6050_updateQuaternion  mpu6050.o
    0x080049f4   0x080049f4   0x000000e0   Code   RO         3850    i.quaternion_inverseTransformation  quaternion.o
    0x08004ad4   0x08004ad4   0x0000005a   Code   RO         3851    i.quaternion_multiply  quaternion.o
    0x08004b2e   0x08004b2e   0x0000001c   Code   RO         3682    i.readByte          mpu6050.o
    0x08004b4a   0x08004b4a   0x00000016   Code   RO         3683    i.readBytes         mpu6050.o
    0x08004b60   0x08004b60   0x0000004e   Code   RO         3817    i.selectPort        pca9548.o
    0x08004bae   0x08004bae   0x00000002   PAD
    0x08004bb0   0x08004bb0   0x00000084   Code   RO         3685    i.sensor_init       mpu6050.o
    0x08004c34   0x08004c34   0x00000060   Code   RO         3686    i.sensor_update     mpu6050.o
    0x08004c94   0x08004c94   0x0000006e   Code   RO         3935    i.sqrt              m_wm.l(sqrt.o)
    0x08004d02   0x08004d02   0x0000001a   Code   RO         3687    i.writeByte         mpu6050.o
    0x08004d1c   0x08004d1c   0x00000010   Data   RO         3638    .constdata          system_stm32f4xx.o
    0x08004d2c   0x08004d2c   0x00000008   Data   RO         3639    .constdata          system_stm32f4xx.o
    0x08004d34   0x08004d34   0x00000010   Data   RO         3852    .constdata          quaternion.o
    0x08004d44   0x08004d44   0x00000004   PAD
    0x08004d48   0x08004d48   0x00000088   Data   RO         3922    .constdata          m_wm.l(pow.o)
    0x08004dd0   0x08004dd0   0x00000008   Data   RO         4271    .constdata          m_wm.l(qnan.o)
    0x08004dd8   0x08004dd8   0x00000020   Data   RO         4335    Region$$Table       anon$$obj.o


    Execution Region RW_IRAM1 (Exec base: 0x20000000, Load base: 0x08004df8, Size: 0x00001620, Max: 0x00020000, ABSOLUTE, COMPRESSED[0x000000b8])

    Exec Addr    Load Addr    Size         Type   Attr      Idx    E Section Name        Object

    0x20000000   COMPRESSED   0x00000008   Data   RW          417    .data               stm32f4xx_it.o
    0x20000008   COMPRESSED   0x0000000c   Data   RW         2075    .data               stm32f4xx_hal.o
    0x20000014   COMPRESSED   0x00000004   Data   RW         3640    .data               system_stm32f4xx.o
    0x20000018   COMPRESSED   0x00000018   Data   RW         3700    .data               mpu6050.o
    0x20000030   COMPRESSED   0x00000018   Data   RW         3701    .data               mpu6050.o
    0x20000048   COMPRESSED   0x00000018   Data   RW         3702    .data               mpu6050.o
    0x20000060   COMPRESSED   0x00000018   Data   RW         3703    .data               mpu6050.o
    0x20000078   COMPRESSED   0x00000018   Data   RW         3704    .data               mpu6050.o
    0x20000090   COMPRESSED   0x00000018   Data   RW         3705    .data               mpu6050.o
    0x200000a8   COMPRESSED   0x00000018   Data   RW         3706    .data               mpu6050.o
    0x200000c0   COMPRESSED   0x00000018   Data   RW         3707    .data               mpu6050.o
    0x200000d8   COMPRESSED   0x00000018   Data   RW         3708    .data               mpu6050.o
    0x200000f0   COMPRESSED   0x00000018   Data   RW         3709    .data               mpu6050.o
    0x20000108   COMPRESSED   0x00000048   Data   RW         3710    .data               mpu6050.o
    0x20000150   COMPRESSED   0x00000004   Data   RW         4288    .data               mc_w.l(stdout.o)
    0x20000154   COMPRESSED   0x00000004   Data   RW         4299    .data               mc_w.l(mvars.o)
    0x20000158   COMPRESSED   0x00000004   Data   RW         4300    .data               mc_w.l(mvars.o)
    0x2000015c   COMPRESSED   0x00000004   Data   RW         4304    .data               mc_w.l(errno.o)
    0x20000160        -       0x000000a8   Zero   RW          310    .bss                i2c.o
    0x20000208        -       0x00000044   Zero   RW          358    .bss                usart.o
    0x2000024c        -       0x00000048   Zero   RW          544    .bss                stm32f4xx_hal_timebase_tim.o
    0x20000294        -       0x00000058   Zero   RW         3688    .bss                mpu6050.o
    0x200002ec        -       0x00000058   Zero   RW         3689    .bss                mpu6050.o
    0x20000344        -       0x00000058   Zero   RW         3690    .bss                mpu6050.o
    0x2000039c        -       0x00000058   Zero   RW         3691    .bss                mpu6050.o
    0x200003f4        -       0x00000058   Zero   RW         3692    .bss                mpu6050.o
    0x2000044c        -       0x00000058   Zero   RW         3693    .bss                mpu6050.o
    0x200004a4        -       0x00000058   Zero   RW         3694    .bss                mpu6050.o
    0x200004fc        -       0x00000058   Zero   RW         3695    .bss                mpu6050.o
    0x20000554        -       0x00000058   Zero   RW         3696    .bss                mpu6050.o
    0x200005ac        -       0x00000058   Zero   RW         3697    .bss                mpu6050.o
    0x20000604        -       0x00000018   Zero   RW         3698    .bss                mpu6050.o
    0x2000061c   COMPRESSED   0x00000004   PAD
    0x20000620        -       0x00000800   Zero   RW            2    HEAP                startup_stm32f411xe.o
    0x20000e20        -       0x00000800   Zero   RW            1    STACK               startup_stm32f411xe.o


==============================================================================

Image component sizes


      Code (inc. data)   RO Data    RW Data    ZI Data      Debug   Object Name

       128         10          0          0          0     423799   gpio.o
       328         46          0          0        168       2458   i2c.o
       684        116          0          0          0     420606   main.o
      2168        122          0        312        904      22930   mpu6050.o
        78          8          0          0          0        969   pca9548.o
       936          4         16          0          0       9112   quaternion.o
        36          8        408          0       4096        852   startup_stm32f411xe.o
        80         14          0         12          0       8030   stm32f4xx_hal.o
       198         14          0          0          0      34031   stm32f4xx_hal_cortex.o
       506         34          0          0          0       2877   stm32f4xx_hal_gpio.o
      2630         68          0          0          0      15208   stm32f4xx_hal_i2c.o
        48          6          0          0          0        886   stm32f4xx_hal_msp.o
      1412         86          0          0          0       6001   stm32f4xx_hal_rcc.o
       718         50          0          0          0       7472   stm32f4xx_hal_tim.o
         4          0          0          0          0       1645   stm32f4xx_hal_tim_ex.o
       140         22          0          0         72       1467   stm32f4xx_hal_timebase_tim.o
       664         10          0          0          0       4276   stm32f4xx_hal_uart.o
       174         26          0          8          0       7256   stm32f4xx_it.o
        16          4         24          4          0       1175   system_stm32f4xx.o
       188         26          0          0         68       2518   usart.o

    ----------------------------------------------------------------------
     11148        674        484        336       5312     973568   Object Totals
         0          0         32          0          0          0   (incl. Generated)
        12          0          4          0          4          0   (incl. Padding)

    ----------------------------------------------------------------------

      Code (inc. data)   RO Data    RW Data    ZI Data      Debug   Library Member Name

       164         44          0          0          0        620   dunder.o
        24          0          0          0          0        124   fabs.o
        48          0          0          0          0        124   fpclassify.o
       248          0          0          0          0        152   poly.o
      3152        296        136          0          0        352   pow.o
         0          0          8          0          0          0   qnan.o
       232          0          0          0          0        296   sqrt.o
        86          0          0          0          0          0   __dczerorl2.o
         0          0          0          0          0          0   entry.o
         0          0          0          0          0          0   entry10a.o
         0          0          0          0          0          0   entry11a.o
         4          0          0          0          0          0   entry12b.o
         8          4          0          0          0          0   entry2.o
         4          0          0          0          0          0   entry5.o
         0          0          0          0          0          0   entry7b.o
         0          0          0          0          0          0   entry8b.o
         8          4          0          0          0          0   entry9a.o
        12          6          0          4          0         68   errno.o
        30          0          0          0          0          0   handlers.o
        36          8          0          0          0         68   init.o
         0          0          0          0          0          0   iusefp.o
        30          0          0          0          0         68   llshl.o
        36          0          0          0          0         68   llsshr.o
        32          0          0          0          0         68   llushr.o
       108         16          0          0          0         84   malloc.o
        36          0          0          0          0        108   memseta.o
         0          0          0          8          0          0   mvars.o
      2218         90          0          0          0        464   printfa.o
         0          0          0          4          0          0   stdout.o
        44          0          0          0          0         80   uidiv.o
        98          0          0          0          0         92   uldiv.o
        48          0          0          0          0         68   cdrcmple.o
        56          0          0          0          0         88   d2f.o
       334          0          0          0          0        148   dadd.o
       222          0          0          0          0        100   ddiv.o
       186          0          0          0          0        176   depilogue.o
        48          0          0          0          0         68   dfixul.o
        34          0          0          0          0         76   dflti.o
       228          0          0          0          0         96   dmul.o
        46          0          0          0          0         80   dscalb.o
       162          0          0          0          0        100   dsqrt.o
        38          0          0          0          0         68   f2d.o
       110          0          0          0          0        168   fepilogue.o

    ----------------------------------------------------------------------
      8184        468        144         16          0       4072   Library Totals
        14          0          0          0          0          0   (incl. Padding)

    ----------------------------------------------------------------------

      Code (inc. data)   RO Data    RW Data    ZI Data      Debug   Library Name

      3868        340        144          0          0       1668   m_wm.l
      2790        128          0         16          0       1168   mc_w.l
      1512          0          0          0          0       1236   mf_w.l

    ----------------------------------------------------------------------
      8184        468        144         16          0       4072   Library Totals

    ----------------------------------------------------------------------

==============================================================================


      Code (inc. data)   RO Data    RW Data    ZI Data      Debug   

     19332       1142        628        352       5312     967328   Grand Totals
     19332       1142        628        184       5312     967328   ELF Image Totals (compressed)
     19332       1142        628        184          0          0   ROM Totals

==============================================================================

    Total RO  Size (Code + RO Data)                19960 (  19.49kB)
    Total RW  Size (RW Data + ZI Data)              5664 (   5.53kB)
    Total ROM Size (Code + RO Data + RW Data)      20144 (  19.67kB)

==============================================================================

