:020000040800F2
:1000000020160020B10100083B290008471E000807
:10001000392900084B090008192C000800000000CD
:100020000000000000000000000000003F29000860
:100030004D090008000000003D2900084129000882
:10004000CB010008CB010008CB010008CB01000860
:10005000CB010008CB010008CB010008CB01000850
:10006000CB010008CB010008CB010008CB01000840
:10007000CB010008CB010008CB010008CB01000830
:10008000CB010008CB010008CB01000800000000F4
:10009000000000000000000000000000CB0100088C
:1000A000CB010008F1290008CB010008CB010008B2
:1000B000CB010008CB010008CB010008CB010008F0
:1000C000CB010008CB010008CB010008CB010008E0
:1000D000CB010008CB010008CB01000800000000A4
:1000E000CB010008CB010008CB0100080000000094
:1000F000000000000000000000000000CB0100082C
:1001000000000000CB010008CB010008CB01000873
:1001100000000000000000000000000000000000DF
:10012000CB010008CB010008CB010008CB0100087F
:10013000CB010008000000000000000000000000EB
:10014000000000000000000000000000CB010008DB
:10015000CB010008CB010008CB010008CB0100084F
:10016000CB010008CB0100080000000000000000E7
:10017000000000000000000000000000000000007F
:1001800000000000CB01000800000000000000009B
:10019000CB010008CB010008DFF810D000F086FB8F
:1001A0000048004739460008AFF3008020160020C1
:1001B0000648804706480047FEE7FEE7FEE7FEE701
:1001C000FEE7FEE7FEE7FEE7FEE7FEE7E1290008BF
:1001D000990100082DE9F05F0546002092469B46F4
:1001E00088460646814640241BE02846414647464D
:1001F000224600F0F8F853465A46C01A914110D3EF
:1002000011461846224600F0DFF82D1A67EB010868
:100210004F4622460120002100F0D6F817EB0009D6
:100220004E41201EA4F10104DFDC484631462A4637
:100230004346BDE8F09FD2B201E000F8012B491E11
:10024000FBD270470022F6E710B513460A46044673
:100250001946FFF7F0FF204610BD2DE9FE4F81EA59
:10026000030404F0004421F0004100944FF0000B1F
:1002700023F0004350EA01045ED052EA03045BD04D
:10028000C3F30A54C1F30A552C44A4F2F334019485
:10029000A0FB0254C1F3130141F48011C3F3130313
:1002A00043F4801301FB024400FB034E840A970AC7
:1002B00044EA815447EA8357A4FB076802958D0AF4
:1002C00005FB07854FEA932C04FB0C542705029D80
:1002D0004FEA065847EA1637B5EB08056EEB070CF0
:1002E000870E920E47EA811742EA8312A7FB0201AA
:1002F000B6EB0B0164EB00042B0D43EA0C335E18E4
:1003000044EB1C50DA465146E7FB0201C5F31304E7
:100310004FEA0B3343EA14534FEA0432019C43EA99
:100320000603A4F10C040294009CCDE900B400F093
:10033000B0F803B0BDE8F08F00200146F9E700F007
:10034000004230F000400AD0C10D01F56071C0F3E9
:10035000160042EA0151C2084007114370470020CD
:100360000146704701F0004330B421F0004150EAEB
:10037000010206D00A0DA2F56072C1F31301002A32
:1003800002DC30BC00207047440F44EAC104C100C5
:10039000E01830BC00EBC25000F035B830B50B4669
:1003A000014600202022012409E021FA02F59D42A5
:1003B00005D303FA02F5491B04FA02F52844151E79
:1003C000A2F10102F1DC30BD202A04DB203A00FA60
:1003D00002F1002070479140C2F1200320FA03F39C
:1003E000194390407047202A04DB203A21FA02F09A
:1003F0000021704721FA02F3D040C2F1200291405F
:100400000843194670470029A8BF7047401C49009F
:1004100008BF20F00100704710B4B0FA80FC00FA69
:100420000CF050EA010404BF10BC704749B1CCF194
:10043000200421FA04F411FA0CF118BF0121214320
:100440000843A3EB0C01CB1D4FEA00614FEA1020DB
:1004500042BF002010BC704700EBC350104400297D
:10046000A4BF10BC7047401C490008BF20F0010029
:1004700010BC704710B5141E73F1000408DA401C5C
:1004800041F1000192185B411A4301D120F00100B3
:1004900010BD2DE9F04D92469B4611B1B1FA81F2A3
:1004A00002E0B0FA80F220329046FFF78DFF04465A
:1004B0000F4640EA0A0041EA0B0153465A460843F8
:1004C00013D0114653EA010019D0C8F1400250463A
:1004D000FFF789FF05460E46504659464246FFF74C
:1004E00073FF084305D0012004E020463946BDE8EB
:1004F000F08D0020054346EAE0762C4337430A9806
:100500006305E40AA0EB08000022FD0A44EA475410
:100510000A3002D500200146E9E7010510196941BA
:10052000DDE9084500196941BDE8F04DA2E72DE974
:10053000FE4F804681EA0300C00F0C46009021F078
:10054000004123F00045B8EB0200A94105D2404626
:10055000214690461C460B46024623F000401043BD
:1005600047D0270DC7F30A00C3F30A510290401A7F
:10057000019040286BDAC3F3130040F4801B00980D
:10058000924620B10023D2EB030A63EB0B0B0198D8
:100590005946C0F140025046FFF716FF06460D4689
:1005A00050465946019A00F093F910EB080061415A
:1005B000002487EA115284EAE7731A4340D0009A74
:1005C00062B3019A012A4FEA075215DC001B61EB66
:1005D00002014FF0004202EA0752CDE90042001C3E
:1005E00041F5801132462B46FFF753FF03B0BDE8BB
:1005F000F08F40462146F9E7001B61EB0201001C29
:1006000041F5801300185B412018A2F5001747EB55
:10061000030140EAD570B6196D4111E06D084FEA4B
:10062000360645EAC0754FEA0752001B61EB02012E
:10063000001C41F5801149084FEA30000019514172
:1006400032462B4603B0BDE8F04FFFF713BF0098CA
:10065000012240000023D0EB020263EBE07300981C
:1006600021464FEAE074B8EB000061EB0401E9E7D2
:1006700083F000435BE781F0004158E72DE9F04D3E
:1006800081EA030404F0004B21F0004514464FF0CA
:10069000000A23F0004150EA050220D054EA01028A
:1006A0001DD0C5F30A570246C5F31303C1F3130067
:1006B000C1F30A5640F4801543F48013A7EB0608F3
:1006C000101BD64608F2FD3873EB050002D308F183
:1006D000010801E092185B41B8F1000F03DA002035
:1006E0000146BDE8F08D00204FF480110646844697
:1006F0000EE0171B73EB050705D3121B63EB050315
:1007000006434CEA010C49084FEA300092185B415D
:1007100050EA0107EDD152EA030012D082EA040048
:1007200083EA0501084305D0101BAB4106D2012224
:10073000002306E000224FF0004302E06FF00102C8
:1007400053101AEB06004CEB085110EB0A0041EB7A
:100750000B01BDE8F04DFFF78DBE70B521F00043F1
:1007600003430CD0C1F30A550024D5EB040564EB18
:100770000403D617AD1AB34102DB0020014670BD59
:10078000201841EB025170BD2DE9F04D00231A46AF
:100790001B1A8A4103DB00200146BDE8F08DC1F33E
:1007A0000A52C1F3130141F480154FF0000BD10739
:1007B00002D100186D41521E0027044640F2FF117D
:1007C000384601EB620A3E468046024600204FF45E
:1007D0008011FFF708FEC2197141BB1846EB0100FA
:1007E000B4EB030C75EB000C04D3E41A65EB0005C5
:1007F00017460E46241908F101006D418046342841
:10080000E3DDF91946EB0600091BA84103D24FF0BE
:10081000FF32134601E0002213461BEB070046EBB4
:100820000A51BDE8F04DFFF725BE0EB5C10F80EAB5
:10083000E0700844CA07002140F233438DE80E00FF
:100840000A460B46FFF725FE03B000BDC1F30A526E
:10085000C1F3130140F2FF3341F480119A4202DAEE
:1008600000200146704740F233439A42A2F23342DD
:1008700002DC5242FFF7B7BDFFF7A6BD30B5041E3C
:1008800071F1000404DB4FF00044404264EB0101CD
:10089000141E73F1000405DB1C464FF00043524266
:1008A00063EB0403994208BF904230BD064C074DEC
:1008B00006E0E06840F0010394E807009847103430
:1008C000AC42F6D3FFF76CFCD84D0008F84D000899
:1008D000202A06DBCB17203A41FA02F043EAE07304
:1008E00006E041FA02F3D040C2F1200291400843F1
:1008F0001946704770B58C1810F8015B15F00703A6
:1009000001D110F8013B2A1106D110F8012B03E0A8
:1009100010F8016B01F8016B5B1EF9D12B0705D4B0
:100920000023521E0DD401F8013BFAE710F8013BF9
:10093000CB1A921C03E013F8015B01F8015B521E15
:10094000F9D5A142D8D3002070BDFEE77047000062
:1009500030B5054603F0A8FF044605EB4500C0EBA3
:10096000C51500BF03F0A0FF001BB0EBC50FF9D306
:1009700030BD2DE9F84F15460E4682460024A2F1FF
:10098000010857E0A146671C1AE03946504602F0BC
:100990004CF990ED000A02F040F9F0EE400A2B46C7
:1009A00022464946504602F040F990ED000A02F016
:1009B00034F9F4EEC00AF1EE10FA00DDB9467F1CFE
:1009C000AF422B462246E0DB1146504602F02DF99D
:1009D00090ED000AB5EEC00AF1EE10FA02D1002047
:1009E000BDE8F88F23464A4631465046009502F04E
:1009F00088F9671C1BE02B4622463946504602F018
:100A000014F990ED000A22462B461146504602F09A
:100A10000CF9D0ED000A3B46224680EE201A314602
:100A200050460095B1EE410A02F005F97F1CAF4235
:100A3000E1DB641C4445A5DBA80003F0FFFE814612
:100A40006C1E29D422462B461146504602F0EDF882
:100A500090ED000A06EB840009EB8408D0ED000A53
:100A6000671E80EE801A88ED001A13D42B462246AA
:100A70003946504602F0D9F8D0ED000A06EB87005F
:100A800098ED001A90ED000A7F1E01EE600A80EDDD
:100A9000000AEBD5641ED5D54846A1E772B6FEE73D
:100AA0002DE9F84FDFF8B8A10022012403254FF00B
:100AB0000F090AF1040BAAF1040E00BF0B6804FA37
:100AC00002F63340B34273D10F7907F00307012FC9
:100AD00001D0022F16D187684FEA420805FA08FCB8
:100AE00027EA0C07D1F80CC00CFA08FC4CEA070CFA
:100AF000C0F808C04768B7430E79C6F300169640A1
:100B00003E4346600E79F643B6070DD0C7685600DF
:100B100005FA06FC27EA0C07D1F808C00CFA06FC17
:100B20004CEA070CC0F80CC00E7906F00306022E42
:100B300010D1D60800EB8608D8F8206057074FEA96
:100B4000D76C09FA0CF7BE430F6907FA0CF7374365
:100B5000C8F8207006684FEA420C05FA0CF7BE434D
:100B60000F7907F0030707FA0CF7374307604E6861
:100B700016F4403F6DD03B4E376847F480473760EE
:100B8000366822F0030706F480460096364E07EBDF
:100B9000060CDCF8086897073F0F09FA07F826EA01
:100BA0000806DFF8C880404503D14FF000081EE07A
:100BB0004FE0DFF8BC80404502D14FF0010816E05D
:100BC000DFF8B080404502D14FF002080FE0DFF8B7
:100BD000A880404502D14FF0030808E0DFF89C8070
:100BE000404502D14FF0040801E04FF0070808FA31
:100BF00007F848EA0608CCF80888DAF80060574693
:100C0000D1F804C09E435FEACC2C00D51E433E6061
:100C1000DBF800605F46D1F804C09E435FEA8C2C8D
:100C200000D51E433E60DEF800607746D1F804C070
:100C30009E435FEA8C3C00D51E433E60084F083F50
:100C40003E68D1F804C09E435FEACC3C00D51E4309
:100C50003E60521C102AFFF431AFBDE8F88F00004F
:100C6000083C01404438024000300140000002408E
:100C70000004024000080240000C02400010024044
:100C8000426921EA02030A4043EA02418161704756
:100C90000AB1816170470904FBE7000001488068E0
:100CA000704700000800002070B5040025D094F8BB
:100CB0003D00002520B984F83C50204600F0E2FABF
:100CC000242084F83D002068016821F001010160C2
:100CD0002068016841F4004101602068016821F446
:100CE0000041016000F0ACFC4D4A6168914201D8BE
:100CF0004C4900E04C49884201D2012070BD4B496B
:100D00002368B0FBF1F15E6826F03F060E435E609B
:100D10006368934206D94FF4967359434FF47A733C
:100D2000B1FBF3F12368491C1E6A26F03F063143EC
:100D300019626168914210D84900401EB0FBF1F27F
:100D4000521CC2F30B02042A01D2042022E0B0FBA1
:100D5000F1F0401CC0F30B001CE0A268F2B301EB01
:100D6000C10303EB0116431EB3FBF6F35B1C43F414
:100D700080431B0549D092B301EBC10202EB011184
:100D8000401EB0FBF1F0401CC0F30B0040F480406B
:100D900040F400402168CA694CF6FF739A4310433F
:100DA000C861D4E9071001432068026822F0C0023C
:100DB00011430160D4E9030101432068826848F2CD
:100DC000FF339A4311438160D4E905010843216848
:100DD000CA6822F0FF021043C86001E00EE016E08E
:100DE0002068016841F0010101602564202084F839
:100DF0003D00256384F83E50002070BD01EB4106A4
:100E0000431EB3FBF6F35B1CB3E70120C2E701EB23
:100E10004101401EB0FBF1F0401CC0F30B00B7E7EE
:100E2000A086010080841E0000093D0040420F00A2
:100E30002DE9F84F1F4690468A460446DDF8289073
:100E4000FFF72CFF054694F83D0020287FD1192399
:100E5000012240492046009501F054F9002876D13E
:100E600094F83C00012872D0012084F83C002068EE
:100E70000168C90703D1016841F0010101602068E0
:100E8000016821F400610160212084F83D001020F8
:100E900084F83E0000262664C4F824806785608DAF
:100EA00020852D48E0622B464A465146204600F0F8
:100EB000E3FF90B9206841698069009036E02A46D6
:100EC0004946204601F0D0F950B1206C042804D1E5
:100ED0002068016841F4007101600120BDE8F88FCD
:100EE000606A216800780861606A401C6062618DF8
:100EF000491E6185218D491E89B221852268536969
:100F0000DB435B070BD451B100781061606A401C71
:100F10006062608D401E6085208D401E20852A46BF
:100F20004946204601F0C8F80028CED1208D00287F
:100F3000C5D154F83D0B016841F4007101602020D7
:100F400004F81E09E67766770020C7E7FFE702206E
:100F5000C4E70000020010000000FFFF2DE9FF4F72
:100F600083B09A46DDE9119793460446DDF8408048
:100F7000FFF794FE054694F83D00202870D1192310
:100F8000012271492046009501F0BCF80028F5D1F6
:100F900094F83C00012863D0012084F83C002068CC
:100FA0000168C90703D1016841F0010101602068AF
:100FB000016821F400610160222084F83D00402096
:100FC00084F83E0000262664C4F82480A4F82A9001
:100FD000608D20855D48E062CDE9007553465A4634
:100FE0002046049900F096FF00287CD1208DD0B1D6
:100FF000012821D00228206824D04169806900900E
:10100000208D032869D801282BD0514902283B465E
:101010004FF00002009559D08846204601F072F842
:10102000002860D13CE02068416981690091016835
:1010300041F40071016077E02068016821F480616B
:101040000160F0E7016821F48061016020680168B7
:1010500041F400610160206841698069009063E0AB
:101060006FE02A463946204601F0CBF898BB20684D
:101070000069616A08704EE02068016841F40071FF
:10108000016020680069616A0870606A401C6062E3
:10109000218D491E2185618D491E6185216838E0B9
:1010A0002068016821F48061016020680069616A3C
:1010B0000870606A401C6062208D401E2085608D33
:1010C000401E60853B46002241460095204601F0C7
:1010D00019F800B9D0E706E0FFE72A46394620466E
:1010E00001F08FF818B1012007B0BDE8F08F20683B
:1010F0000069616A0870606A401C6062218D491E47
:101100002185618D491E618521684A69D243520754
:101110000AD409690170606A401C6062208D401E1B
:101120002085608D401E6085208D00287FF468AF8B
:10113000202084F83D0084F83E6084F83C60002064
:10114000D2E70220D0E70000020010000000FFFFFD
:10115000040001002DE9FF4F83B09A46DDE91197A5
:1011600093460446DDF84080FFF798FD054694F865
:101170003D0020287FD119230122404920460095B7
:1011800000F0C0FF002876D194F83C00012872D00E
:10119000012084F83C0020680168C90703D1016878
:1011A00041F0010101602068016821F400610160E3
:1011B000212084F83D00402084F83E00002626646B
:1011C000C4F82480A4F82A90608D20852C48E06221
:1011D000CDE9007553465A462046049900F018FFA1
:1011E00070B930E02A463946204601F03DF858B142
:1011F000206C042804D12068016841F4007101606A
:10120000012007B0BDE8F08F606A216800780861AE
:10121000606A401C6062218D491E89B22185628D01
:10122000521E628522685369DB435B070BD469B1A8
:1012300000781061606A401C6062208D401E20852D
:10124000608D401E6085208D0028CBD12A4639460E
:10125000204600F031FF0028CAD154F83D0B016848
:1012600041F400710160202004F81E09E6776677DA
:101270000020C6E7FFE70220C3E7000002001000DD
:101280000000FFFF2DE9F04186B0044614216846B6
:10129000FEF7D8FF23682A4CDFF8A0C000252849B4
:1012A00012260327042227481034634518D10B68FF
:1012B00043F002030B600968029501F002010591F9
:1012C000C021CDE90016CDE903726946FFF7E8FBBE
:1012D000206840F400102060206800F4001028E02E
:1012E000DFF864C0634525D10B6843F002030B604F
:1012F0000968029501F0020105914FF48061CDE982
:101300000016CDE9037269468046FFF7C9FB082045
:10131000CDE9000602950920CDE9037069464046F3
:10132000FFF7BEFB206840F480002060206800F4D6
:101330008000059006B0BDE8F08100000054004038
:1013400030380240000402400058004002488168E2
:101350000278114481607047080000200B4810B5E6
:10136000016841F400710160016841F4806101602D
:10137000016841F480710160032000F095F80F20AE
:1013800000F006F800F04AF8002010BD003C0240D2
:1013900030B505461C4887B00024016841F00101C2
:1013A0000160006806A900F00100009001A800F0AB
:1013B00027F900F055F91549154AB0FBF1F1154828
:1013C000491E026040F2E732C0E90324C0E901147B
:1013D000846100F053FB040012D10E4800F07CFB46
:1013E00004000DD1192000F031F8102D07D2002291
:1013F0002946192000F038F80748056000E001246C
:1014000007B0204630BD00004438024040420F0083
:10141000000001404C0200200C0000200A4808B5E2
:10142000016841F480410160006800F48040009050
:101430000548001F016841F080510160006800F01C
:101440008050009008BD000044380240002809DBAD
:1014500000F01F02012191404009800000F1E020CE
:10146000C0F8001170470000F0B40E4B1B680C462A
:10147000C3F30223C3F10705042D00D90425191D68
:10148000072901D2002300E0DB1E012606FA05F140
:10149000491E214099409E40761E16403143F0BCC3
:1014A00001F086BC0CED00E0064900F00702086878
:1014B0004FF6FF03184040EA0220034A1043086039
:1014C000704700000CED00E00000FA052DE9F04740
:1014D0000E46050065D0DFF81481D8F80000F7B299
:1014E00000F00700B04207D288F80070D8F800007A
:1014F00000F00700B04254D128683D4C810712D556
:10150000400703D5206840F4E050206028780007A9
:1015100003D5206840F4604020602068A96820F06E
:10152000F000084320602878C0072DD03049686853
:101530000839012812D0022813D0032811D00968D5
:10154000890700292DDA216821F003010143216078
:10155000FFF7A4FB814641F2883A0EE0096889034F
:10156000EFE709688901ECE7FFF798FBA0EB0901B9
:10157000514502D90320BDE8F0872068696800F072
:101580000C00B0EB810FEFD1D8F80010404601F00D
:101590000701B14207D90770006800F00700B042A8
:1015A00001D00120E7E72878400705D52068E968E1
:1015B00020F4E050084320602878000706D5206812
:1015C000296920F4604040EAC100206000F058F82A
:1015D0002168084AC1F30311515CC84006490860FC
:1015E00006480068FFF7D4FE0020C4E7003C024034
:1015F000083802401C4D0008140000200C00002098
:101600000F2202600C4A136803F00303436013685F
:1016100003F0F0038360136803F4E053C3601268BF
:101620004FF4E05303EAD20202610448006800F07C
:10163000070008607047000008380240003C024084
:101640000448054900680968044AC1F38221515CD5
:10165000C840704714000020083802402C4D000894
:101660000448054900680968044AC1F34231515CE5
:10167000C840704714000020083802402C4D000874
:10168000154810B5006810F00C02144813D0144926
:10169000042A0FD0082A0ED10F4C241F2268236879
:1016A00002F03F025B0207D52068C0F38810A0FB60
:1016B000010106E0084610BD2168C1F38811A1FBB5
:1016C00000010023FEF786FD2168C1F30141491C9A
:1016D0004900B0FBF1F010BD083802400024F400CE
:1016E00040787D012DE9F84F04006ED02078DFF8B6
:1016F0004C93C007A9F104054AD009F10400016820
:10170000C1F38101012908D00068C0F381000228DB
:101710000AD1D9F80000400206D52868800337D5E1
:1017200060680028E1D033E06068B0F5803F10D0F9
:10173000B0F5A02F286810D020F4803028602868E9
:1017400020F4802028606068A8B1FFF7A7FA064659
:101750000DE0286840F48030F4E740F480202860F1
:10176000F7E700BFFFF79AFA801B642873D8286850
:101770008003F7D50CE0FFF791FA064605E000BFBD
:10178000FFF78CFA801B6428F0D828688003F7D410
:101790002078DFF8AC8280074FF0000A3ED5A748DA
:1017A000001D016811F00C0F08D00068C0F3810023
:1017B00002280BD1D9F80000400207D4286880071E
:1017C00016D5E068012800D112E033E1E068B8B135
:1017D0000120C8F80000FFF761FA064605E000BFE7
:1017E000FFF75CFA801B0228C0D828688007F7D56D
:1017F0002868216920F0F80040EAC10028600DE067
:10180000C8F800A0FFF74AFA064604E0FFF746FAD8
:10181000801B02281FD828688007F7D4207800078B
:1018200022D5864F87486169703771B10121016007
:10183000FFF734FA064604E0FFF730FA801B02286F
:1018400009D838688007F7D50EE0C0F800A0FFF788
:1018500025FA064605E082E0FFF720FA801B022801
:101860007DD838688007F7D42078400768D5DFF83E
:10187000CCB100270BF13C0BDBF80000C0000BD40F
:10188000DBF8001041F08051CBF80010DBF80000CD
:10189000012700F0805000906B4E3068C00510D4D6
:1018A000306840F480703060FFF7F8F9009005E090
:1018B000FFF7F4F90099401A022850D83068C005A3
:1018C000F6D55E4EA0686C3601280FD0052830682A
:1018D00010D020F001003060306820F0040030604B
:1018E000A068B8B1FFF7DAF900900FE0306840F077
:1018F0000100F4E740F004003060F7E7FFF7CEF9AD
:101900000099411A41F28830814266D830688007D8
:10191000F4D50EE0FFF7C2F9009007E0FFF7BEF93B
:101920000099411A41F28830814256D830688007C8
:10193000F4D42FB1DBF8001021F08051CBF8001067
:10194000A069C8B33D49091D0968C1F38101022995
:101950004AD00228504607D0C8F8600000E03CE0BA
:10196000FFF79CF904463BE04746C8F86000FFF7E4
:1019700095F9064605E000BFFFF790F9801B0228A5
:101980002BD828688001F7D4D4E907010843A16A5D
:101990002E4A490802EB0141626A41EA821108437A
:1019A00094F82C1040EA0161C9F800100120386653
:1019B000FFF774F9044606E03EE000BFFFF76EF95A
:1019C000001B022809D828688001F7D534E000BF41
:1019D000FFF764F9001B022802D90320BDE8F88F45
:1019E00028688001F4D427E00128F7D0D9F8000056
:1019F000E26900F4800191421CD1226A00F03F01AB
:101A0000914217D147F6C071626A0140B1EB821F63
:101A100010D1A26A4FF0FF3300F4403103EB5202C1
:101A2000B1EB024F06D194F82C1000F07060B0EBCF
:101A3000016F01D00120D1E70020CFE70438024038
:101A400000004742800E4742007000400000FFFF48
:101A500010B5401EB0F1807F01D3012010BD4FF0C2
:101A6000E02460610F21601701F0A2F90020A0615D
:101A700007202061002010BD7047704710B504009A
:101A800003D094F83D0010B107E0012010BD002004
:101A900084F83C00204600F01EF8022084F83D0047
:101AA000211D206800F0AAFF012084F8460084F878
:101AB0003E0084F83F0084F8400084F8410084F838
:101AC000420084F8430084F8440084F8450084F818
:101AD0003D00002010BD704790F83D10012901D055
:101AE00001207047022180F83D100168CA6842F069
:101AF0000102CA6000680E4988420ED0B0F1804FE2
:101B00000BD00C49884208D00B49884205D00B49BC
:101B1000884202D00A49884204D1816801F0070155
:101B2000062903D0016841F00101016000207047DF
:101B3000000001400004004000080040000C00408C
:101B400000400140704770B50446006801694FF0DD
:101B50000005C943890715D4C168C943890711D451
:101B6000E91E0161012020772068806980072046F6
:101B700002D0FFF7E7FF04E000F098F8204600F0FD
:101B800096F8257720680169C943490717D4C168C9
:101B9000C943490713D46FF0040101610220207783
:101BA0002068806910F4407F204602D0FFF7CAFF0A
:101BB00004E000F07BF8204600F079F825772068F3
:101BC0000169C943090716D4C168C943090712D47A
:101BD0006FF008010161042020772068C069800748
:101BE000204602D0FFF7AEFF04E000F05FF8204689
:101BF00000F05DF8257720680169C943C90617D44C
:101C0000C168C943C90613D46FF0100101610820EF
:101C100020772068C06910F4407F204602D0FFF78B
:101C200091FF04E000F042F8204600F040F82577EC
:101C300020680169C943C90708D1C168C943C907F8
:101C400004D1891E0161204600F032F82068016944
:101C5000C943090609D4C168C943090605D46FF010
:101C6000800101612046FFF707FF20680169C94331
:101C7000490609D4C168C943490605D46FF040013B
:101C80000161204600F01EF820680169C9438906F9
:101C90000BD4C168C943890607D46FF020010161E4
:101CA0002046BDE87040FFF7E8BE70BD7047704742
:101CB00000680349884201D1FFF748BB7047000024
:101CC00000000140704770B5040004D094F83D0056
:101CD000002510B106E0012070BD84F83C5020467C
:101CE00000F022F8242084F83D002068C16821F427
:101CF0000051C160204600F0CDFE2068016921F44A
:101D0000904101612068416921F02A014161206808
:101D1000C16841F40051C1602564202084F83D0071
:101D200084F83E00002070BD10B586B00446142132
:101D30006846FEF787FA14492068884221D1134883
:101D40000021026842F010020260006800F01000FA
:101D500005900E481438026842F0010202600068E3
:101D600000F0010005904FF4C06000900220CDE922
:101D70000101032003900720049069460448FEF700
:101D80008FFE06B010BD0000001001404438024034
:101D9000000002402DE9F843044690F83D001F463C
:101DA00016460D4620284CD1C5B1BEB194F83C0072
:101DB000012846D0012084F83C004FF00008C4F808
:101DC0004080212084F83D00FEF768FFA68481460C
:101DD000E684A068B0F5805F03D004E00120BDE890
:101DE000F883206928B12E465FF0000584F83C8016
:101DF0000EE00026FAE78021204600F0D1FEA0B9CF
:101E0000AEB116F8010B21684860E08C401EE084FA
:101E1000E08C4B464FF0000200970028EBD14FF0CA
:101E20004001204600F0BCFE30B10320D7E735F872
:101E3000020BC0F30800E6E7202084F83D000020F4
:101E4000CDE70220CBE7FEE701684A69D24352059D
:101E50000FD46FF480624A61002140F8301F2022C5
:101E600042738173026942F004020261017301202E
:101E70007047002070470000F8B50446C06A1E464F
:101E80000D461746082807D0012805D010F5803FD9
:101E900002D0206B122804D12068016841F48071BF
:101EA0000160134600224FF001112046009600F019
:101EB00029F940B120680068C00502D54FF40070D0
:101EC00020640320F8BD2069B0F5804F0ED00620B5
:101ED000216800EAD51040F0F000086133463A4628
:101EE0000B49204600F042F978B902E005F0FE0007
:101EF00000E0E8B221680861054933463A46891F87
:101F0000204600F033F90028DCD00120F8BD0000A5
:101F1000080001002DE9F84F0446006889460B9D32
:101F200001689846174641F48061016020680168A5
:101F300041F48071016000954FF0011B0022594669
:101F400020460A9B00F0DEF84FF4007A40B120688A
:101F50000068C00501D5C4F840A00320BDE8F88F93
:101F6000216809F0FE0008612B46284920460A9A9C
:101F700000F0FCF8F0BB20684169806900902A46B7
:101F800020460A9900F070F940B1206C04283AD13B
:101F90002068016841F40071016034E0FEB2B8F1DC
:101FA000010F09D02168380A08612A4620460A999B
:101FB00000F05AF90028E8D1206806612A46204638
:101FC0000A9900F051F90028DFD12068016841F436
:101FD0008071016000950022594620460A9B00F05E
:101FE00091F80028B3D1216809F0FF0040F001000A
:101FF000086100E007E02B46044920460A9A00F0F9
:10200000B5F80028AAD00120A8E7000002000100CE
:102010002DE9F843044600680D46DDE9089701689C
:102020009846164641F4807101604B4600224FF0FD
:1020300001112046009700F065F848B1206800685B
:10204000C00502D54FF4007020640320BDE8F8837A
:10205000216805F0FE0008613B464A4615492046C6
:1020600000F084F888B920684169806900903A4698
:102070004946204600F0F8F848B1206C042804D105
:102080002068016841F4007101600120DEE7F5B2CB
:10209000B8F1010F09D02168300A08613A46494673
:1020A000204600F0E1F80028E7D120680561002013
:1020B000CCE700000200010070B516460D4604464C
:1020C0000DE02046FFF7C0FE08B1012070BD681C7E
:1020D00005D0FEF7E3FD801BA84207D835B1206884
:1020E0004069C0434007ECD4002070BD002044F894
:1020F000300F20216173A073216941F0200121611B
:102100002073E2E72DE9F0471E4690460D4604464F
:10211000C1F30747DDF8209008E0701C06D0FEF7F9
:10212000BDFDA0EB0900B0420FD876B12068012FA9
:1021300018D0806925EA00000004000C14D00021AA
:102140004145EAD00020BDE8F087002044F8300F78
:1021500020216173A073216941F020012161207366
:102160000120F0E74069E5E70121E9E72DE9F047C3
:102170009A4691460E46044600254FF02008C1F3CA
:10218000074725E020684069C043400514D4206813
:10219000016841F40071016021686FF4806048615A
:1021A000256384F83D8084F83E50206C40F00400A4
:1021B000206484F83C501FE0B9F1FF3F08D0FEF7DF
:1021C0006DFDA0EB0A0149450CD8B9F1000F09D00B
:1021D0002068012F13D0806926EA00000004000C5B
:1021E0000BD0CFE744F8305F84F80D80A5732069E9
:1021F00040F02000206125730120BDE8F087406990
:10220000EAE72DE9F041002590460E4604462027D6
:1022100017E04069C043C0060CD454F8301B6FF07F
:102220001000486144F810596777A577206A20624A
:10223000257717E0FEF732FDA0EB0800B04208D882
:102240003EB120684169C9434906E2D40020BDE897
:10225000F08144F8305F6773A573206940F0200077
:10226000206125730120F2E770B516460D4604463D
:102270000DE02046FFF7E8FD08B1012070BD681CA5
:1022800005D0FEF70BFD801BA84207D835B12068AA
:102290004069C0430006ECD4002070BD002044F823
:1022A000300F20216173A073216941F02001216169
:1022B0002073E2E72DE9F04389462DED068B0446B5
:1022C0008FB0F02300681C22D02102F01AFDE02319
:1022D0001B22D021206802F014FDFA20FEF738FB03
:1022E0000D22D021206802F022FC07460E22D021C8
:1022F000206802F01CFC06460F22D021206802F064
:1023000016FC05461022D021206802F010FCC0F314
:10231000011141EAD70100EE101AB7EE008AF3EE80
:102320000E8AB8EE400AC0F3810242EAD60200F0FB
:10233000030070EE480A40EAD5048DF800108DF8CD
:10234000012080EEA80A06F01F068DF8024007F073
:102350001F078DF8046005F01F0590468DF8037087
:102360008DF8055010EE100AFDF7E9FF41EC110B56
:102370009FED62ABB0EE4A0AF0EE6A0A00F028FD6B
:102380009FED609B51EC100B53EC192BFDF765FF93
:10239000FDF7E8FF00EE108A0590B8EE400A30EE37
:1023A000480A80EE281A11EE100AFDF7C8FF41EC2A
:1023B000110BB0EE4A0AF0EE6A0A00F009FD53EC88
:1023C000192B51EC100BFDF748FFFDF7CBFF00EE8A
:1023D000104A0690B8EE400A30EE480A80EE281AFD
:1023E00011EE100AFDF7ABFF41EC110BB0EE4A0AFB
:1023F000F0EE6A0A00F0ECFC53EC192B51EC100BD8
:10240000FDF72BFFFDF7AEFF00EE107A0790B8EE58
:10241000400A30EE480A10EE100AFDF790FF9FEDDB
:102420003BAB41EC110BB0EE4A0AF0EE6A0A00F049
:10243000CFFC9FED389B51EC100B53EC192BFDF7A3
:102440000CFFFDF78FFF01EE106A0890B8EE410A0D
:1024500030EE481A11EE100AFDF771FF41EC110B36
:10246000B0EE4A0AF0EE6A0A00F0B2FC9FED2B1BB8
:1024700051EC100B53EC112BFDF7EFFEFDF772FF43
:1024800001EE105A0990B8EE410A30EE481A11EEEA
:10249000100AFDF754FF41EC110BB0EE4A0AF0EEC2
:1024A0006A0A00F095FC53EC192B51EC100BFDF768
:1024B000D4FEFDF757FF0A909FED1A0A00206A46E6
:1024C00005A9135C00EE903A01EB8003B8EE601AA8
:1024D000D3ED000A09EB8003401C31EE601A062898
:1024E00021EE001AC1EE201A71EE800AC3ED000A37
:1024F000E7DB0FB0BDEC068BBDE8F083000000A069
:10250000A5A50540000000608FC295400000008036
:102510006ABCF03F000000000096A94000000000E7
:102520000096A9C00000C84210B504460068002308
:102530006B22D02102F0E5FB01236B22D021206821
:1025400002F0DFFB18231B22D021206802F0D9FB08
:1025500010231C22D021206802F0D3FB2068002326
:102560001A22BDE81040D02102F0CBBB70B586B076
:1025700014216846FDF766FE1A480024016841F000
:1025800004010160016801F004010591016841F056
:1025900080010160016801F080010591016841F04E
:1025A00002010160016801F002010591016841F03A
:1025B0000101016000680C4E00F001004FF400556D
:1025C0000590002229463046FEF762FB0120009567
:1025D000CDE90104694630460394FEF761FA06B07E
:1025E00070BD000030380240000802400D4810B5B0
:1025F0000B4901600C49416000214FF48042816029
:10260000C0E9031241618161C1610162FEF74CFBC7
:10261000002803D0BDE81040FEF740BA10BD00000E
:102620000054004060010020801A06000D4810B5DB
:102630000B4901600C49416000214FF480428160E8
:10264000C0E9031241618161C1610162FEF72CFBA7
:10265000002803D0BDE81040FEF720BA10BD0000EE
:1026600000580040B4010020801A06000C4810B544
:102670000A4901604FF461414160002181600C22F0
:10268000C160C0E904128161C161FFF71CFB002831
:1026900003D0BDE81040FEF701BA10BD00100140A4
:1026A0000802002070B5A24D04462DED088BF0EE17
:1026B00061BAB0EE628AF5EEC0BAF0EE42AAB0EEB0
:1026C000419AF0EE609AF0EE408AB6EE00AAB7EEBC
:1026D00000BAF1EE10FA09D1F5EEC0AAF1EE10FA47
:1026E00004D1B5EEC08AF1EE10FA7DD02BEEAB0A24
:1026F0000AEEAA0A08EE080A10EE100AFDF71FFEFD
:1027000041EC100B01F08CF951EC100BFDF72AFE97
:1027100000EE100A94ED151AD4ED141A8BEE802AEF
:1027200094ED153ACAEE802AC8EE000A94ED130A19
:10273000B0EE4A8A20EE011A94ED120A00EE611AF8
:1027400094ED120AD4ED131A60EE211A94ED140AD6
:1027500040EE031A94ED120A94ED123A10EE038A39
:1027600094ED150A94ED153A00EE038A22EE880ADC
:1027700000EEE10A62EE211A60EE810A42EEC11A11
:1027800042EE480A95ED051AB5EEC01AF1EE10FAC0
:1027900030DD95ED092A8BEE021A95ED052A62EEE1
:1027A000002A95ED062A02EE812A85ED062A95ED8E
:1027B000052A62EE202A95ED072A02EE812A85ED90
:1027C000072A95ED052A62EE212A95ED082A02EEE8
:1027D000812A85ED082A95ED061A78EE818A95ED15
:1027E000071A79EE819A00E018E095ED081A39EEA3
:1027F000019A07E09FED4F1A85ED061A85ED071A3D
:1028000085ED081A95ED041A41EE008A95ED040A4B
:1028100040EE209A95ED040A00EE219A95ED090A02
:10282000D4ED132A94ED142ACBEE000AD4ED153A18
:10283000D4ED121A20EE8A1A21EE280A61EE290A36
:1028400021EE091A22EEC03A02EE603A03EEC13AD6
:10285000D4ED123A33EE233A84ED123A21EE803A67
:10286000D4ED153A02EE013A03EEE03AD4ED133A14
:1028700033EE233A84ED133A21EEA03AD4ED153A23
:1028800002EEC13A21EE811A02EEA01A03EE803A5E
:10289000D4ED143A02EE401A33EE233A84ED143AA2
:1028A00094ED150A31EE000A84ED150A94ED120A32
:1028B000D4ED120A94ED131A20EE200AD4ED130A77
:1028C00000EE810AD4ED140A94ED141A00EE810A88
:1028D000D4ED150A94ED151A00EE810A10EE100AD7
:1028E000FDF72DFD41EC100B01F09AF851EC100BA7
:1028F000FDF738FD00EE100AD4ED120A80EE801AC2
:1029000084ED121AD4ED130A80EE801A84ED131AA6
:10291000D4ED140A80EE801A84ED141AD4ED150A51
:1029200080EE801A84ED151ABDEC088B70BD000096
:102930000801002000000000FEE7FEE77047704736
:1029400002484168491C41607047000000000020B7
:1029500030B593B030216846FDF774FC14210CA803
:10296000FDF770FC1C480025016841F080510160B2
:10297000006800F0805011901848016841F440410F
:1029800001600068022400F4404011900120009092
:10299000000401908001CDE9064018200890C02075
:1029A000CDE9090404200B906846FEF79BFE08B1B0
:1029B00072B6FEE70CA90F2081E831004FF4805079
:1029C000CDE90F0503210CA8FEF780FD002801D0FA
:1029D00072B6FEE713B030BD4038024000700040D0
:1029E0000248016841F470010160704788ED00E021
:1029F0000148FFF7A8B800004C020020F0B50268BB
:102A00001D4B1E4C9F031E4D1E4E984207D0B842D0
:102A100005D0A04203D0A84201D0B04204D122F098
:102A2000700C4A6842EA0C02984210D0B8420ED0AC
:102A3000A0420CD0A8420AD0B04208D0124CA0420A
:102A400005D0124CA04202D0114CA04203D122F476
:102A50004074CA6822434C6922F08002224302601B
:102A60008A68C2620A688262984201D10969016378
:102A700001214161F0BD0000000001400004004060
:102A800000080040000C00400040014000440140AC
:102A90000048014070B5044600680169E26821F40D
:102AA0004051114301612169A068E26908436169ED
:102AB000114308432168CA6849F20C639A430243F0
:102AC000CA6020684169A26921F4407111434161E3
:102AD00031492068884202D03049884202D1FEF74D
:102AE000BFFD01E0FEF7ACFDE2690023192164257A
:102AF0003226B2F5004F626828D0A0FB0101930F87
:102B00009200FDF767FB0146B0FBF5F06FF018028D
:102B1000504301EB800006EB0010B0FBF5F000F035
:102B2000F002B1FBF5F002EB0012B1FBF5F06FF033
:102B30001803584301EB800006EB0010B0FBF5F0E2
:102B400000F00F0021681044886070BDA0FB0101F7
:102B500092185B41FDF73EFB0146B0FBF5F0020128
:102B6000B1FBF5F06FF01803584301EB800006EB62
:102B7000C000B0FBF5F000F0F80002EB4002B1FB42
:102B8000F5F0584301EB800006EBC000B0FBF5F018
:102B900000F00700D6E700000010014000140140DB
:102BA0002DE9F041984617460E460446069D27E05B
:102BB000681C25D02DB1FEF771F8A0EB0800A842E3
:102BC0001ED920680C3050E8001F21F4D07140E875
:102BD0000012002AF5D12068143050E8001F21F0BF
:102BE000010140E80012002AF5D1202084F83D00C0
:102BF00084F83E00002084F83C000320BDE8F0810A
:102C00002068006836EA000004D00020B842CFD027
:102C10000020F3E70120F9E7FEE7B5EEC00AF1EE88
:102C200010FA01D2B1EE400A7047594300EB81001F
:102C300000EB82007047F0B51D461646059C0F4616
:102C4000F0EE401A23462A46314600F00AF82346A1
:102C50002A4631463846BDE8F040B0EE610A00F041
:102C600062B82DE9F0411D4616460F468046002405
:102C700016E02B46224639464046FFF7D6FFD0EDF8
:102C8000000A2B46224660EE800A31464046FFF796
:102C9000CCFF90ED001A641C71EE200AC0ED000A12
:102CA000AC42E6DBBDE8F0812DE9F0431E4601FBB6
:102CB00006F591460F468046002400EB85051CE092
:102CC00005EB8400334690ED000A22464946404613
:102CD000FFF7ABFFD0ED000A3346224639464046A7
:102CE000FFF7A3FFC0ED000A33462246494640469F
:102CF000FFF79BFF80ED000A641CB442E0DBBDE8F7
:102D0000F083F0B51D461646059C0F4623462A461D
:102D10003146FFF7C9FF23462A4631463846BDE80B
:102D2000F04000F00FB800EB810100EB8200D1ED24
:102D3000000A20EE800AD0ED000A30EE800A80ED15
:102D4000000A704700EB810100EB820091ED000A60
:102D5000D0ED000AC1ED000A80ED000A70470000C6
:102D60000FB4054B10B503A9044A029801F040F8CE
:102D700010BC5DF814FB0000D54500085001002090
:102D800003B401984100009850EAC12018BF042004
:102D90004A0D18BF40F0010040F2FF72B2EB515FE4
:102DA00008BF40F00200012808BF052002B07047AC
:102DB0000907090E002804DB00F1E02080F8001468
:102DC000704700F00F0000F1E02080F8141D7047FC
:102DD0002DE9F04D2DED040B2DED0E8B96B0DDE9B8
:102DE0002550279CDDF890A025F0004624F00048EF
:102DF000BAF1000F14BF0121002101EB4502FC498B
:102E000053184A1093422AD3002814BF01230023E9
:102E100003EB44030B44F7498B4220D358EA0001EB
:102E20009FEDF59B76D0DFF8D8B35D4503D1BAF1BD
:102E3000000F05D188E0BAF1000F08BF002100D0D3
:102E4000012101EB450111F5001F08D8002814BF2E
:102E50000121002101EB440111F5001F0BD99DED6B
:102E6000261B9DED240B16B0BDEC0E8B04B0BDE807
:102E7000F04D00F0A9BE0027002DBCBFE1498845F8
:102E800021DAE1498845A8BF02271CDAC3451ADCCC
:102E9000DE4901EB2851142908DDC1F1340220FA82
:102EA00002F101FA02F282420DD108E058B9C1F1F3
:102EB000140228FA02F101FA02F2424503D101F0AC
:102EC0000101C1F1020756EA0A0124D1002C22DADD
:102ED000002D18BF022F01D0012F0AD0022000F0D0
:102EE000BFFE16B0BDEC0E8B04B0BDE8F04D00F097
:102EF00053BE022000F0B4FE00F04EFE51EC100B69
:102F000081F0004141EC100B16B0BDEC0E8B04B00B
:102F1000BDE8F08D18E09FEDBEAB9FEDBF8B0028A4
:102F200071D1B848804522D105F1804010F580105C
:102F300008BFBAF1000F07D0B3450ADC002CA8BFC8
:102F40009DED260BE0DA0DE0B0EE490AF0EE690ADD
:102F5000DAE7002C06DA9DED260B51EC100B81F020
:102F600000416FE0AE48784490ED000BCCE7D845C7
:102F70004DD1002C48DA2EB186423AD1BAF1000F79
:102F800042D126E0BAF1000F13D0022000F068FE13
:102F900000F036FE8DED020B9DED240B8DED000B48
:102FA00010EE900A039961F31E0003909DED020B51
:102FB000AAE78DED02AB9DED240B1AEE901A10EEF0
:102FC000900A8DED000B61F31E0003909DED020B46
:102FD0009AE78DED028B9DED240B18EE901A10EE02
:102FE000900A8DED000B61F31E0003909DED020B26
:102FF0008AE709DA9DED240B51EC190B53EC102BE9
:10300000FDF73CFB1EE020E09DED240B7CE78642B3
:103010001BDAB4F1804F0DD0A4F10050B0F1FF5095
:1030200013D1002D11DB9DED240B51EC100B01F0A1
:1030300031FE07E09DED240B53EC102B51EC100BEF
:1030400000F0C2BC41EC100B5EE79DED240B51EC8F
:10305000100B01F0B3FABAF1000FCDE90E0142D125
:103060009FED710B46B3A6F1E040B0F17F600CD04C
:103070005E4538D1002D00DAA7B3022F0CBF012026
:103080004FF0FF30FDF7D1FBDCE7002D01DD002C18
:103090000DDA002D01DD002C1FDB002D16DA002CCF
:1030A00014DB012F08BF9FED620B3FF42DAFB0EE94
:1030B0004A0AF0EE6A0A27E7022F18BF002D0CD04B
:1030C000012F0AD1002DFFF61FAF06E0002DB8BF7B
:1030D000002C08DA012F3FF417AFB0EE480AF0EEEB
:1030E000680A11E71BE0012000EBE57050EA0701D8
:1030F00015D0791EB0EE498AF0EE698A084308BF00
:103100009FED4D8B4E480025804570DD4D494E4862
:10311000884514DDB0420DDB002C19DB2FE00120C7
:1031200000F09EFD16B0BDEC0E8B04B0BDE8F04D76
:1031300000F056BDB34502DC002C09DC1FE08642DE
:1031400002DA002C1BDA03E05E452BDD002C16DDD5
:10315000022000F085FD00F053FD8DED020B53ECD5
:103160001A2B51EC180BFDF778F8CDE90001039903
:10317000019861F31E0003909DED020BC4E602204E
:1031800000F06EFD00F04CFD10EE901A18EE900A63
:103190008DED020B8DED008B61F31E0003909DED14
:1031A000020BB1E69DED0E0B53EC192B51EC100BFD
:1031B000FDF75EFA9FED260BCDE9080153EC102BCD
:1031C0009DED080B51EC100BFDF747F89FED221B0E
:1031D00053EC112BFDF74FFA9DED081B53EC112B0F
:1031E000FDF73BF89FED1E1B53EC112B3CE08CE0F0
:1031F000FFFF1F00FFFF0F00000000000000F03F76
:103200000000F03F0000F07F0000404301FCFFFFA2
:10321000000000000000F07F00000000000000003F
:10322000661E00000000000000000000000000809A
:10323000000000000000F0FF000000000000F0BFF0
:103240000000E0410000F043FFFFEF3F00000000FE
:10325000000000000000D03F555555555555D53F4D
:10326000000000000000E03FFDF705FA9DED080BAF
:1032700041EC1A0B53EC102B51EC100BFCF7EDFF4B
:1032800053EC1A2BFCF7E9FF41EC1A0B9FEDFE0BF8
:1032900053EC102B9DED080B51EC100BFCF7DDFFF0
:1032A00041EC1B0B9FEDFA0B51EC1A0B53EC102B5E
:1032B000FCF7D3FF41EC1A0B9FEDF70B53EC102BEF
:1032C0009DED080B51EC100BFCF7C7FF53EC1A2BCC
:1032D000FDF7CEF941EC1A0B51EC1B0B53EC1A2BFA
:1032E000FDF725F90690CDE906519DED060B53EC4F
:1032F0001B2B51EC100BFDF7BBF953EC1A2BFDF710
:10330000BAF941EC100B00F0A1B90020B6F5801F0E
:103310000EDA9FEDE30B53EC102B9DED0E0B51ECF1
:10332000100BFCF79AFFCDE90E016FF034000E464A
:1033300000EB2650A0F2FF37C6F31300DA4940F045
:103340007F6646F040568842D8BF002408DDD74942
:103350008142C8BF012403DC0024A6F580167F1C2F
:10336000D348784400EBC4000F9690ED00CB9DED60
:103370000E0B53EC1C2B51EC100BFDF779F99DED66
:103380000E0B41EC1B0B53EC1C2B51EC100BFDF7FF
:10339000CEF841EC100B51EC190B53EC102BFDF750
:1033A0006DF941EC1D0B51EC1B0B53EC1D2BFCF785
:1033B00054FF41EC1A0BBF488DED10AB78441095CB
:1033C00090ED000B4FF0005040EA660000EB8440A7
:1033D0008DED080B00F5002009909DED080B53ECD6
:1033E0001C2B51EC100BFDF743F99DED0E1B53EC1C
:1033F000112BFDF740F941EC100B53EC102B9DED18
:10340000100B51EC100BFCF728FF9DED080B41EC65
:103410001C0B53EC102B9DED100B51EC100BFCF71B
:103420001CFF53EC1B2BFDF726F953EC1C2BFDF76F
:103430001FF953EC1D2BFCF710FF41EC1C0B53EC58
:103440001A2B51EC1A0BFCF708FF41EC1B0B9A48A6
:103450000621B0EE4B0AF0EE6B0A784400F01DFB3B
:10346000B0EE401AF0EE601AB0EE41DAF0EE61DA3A
:1034700053EC1B2B51EC1B0BFCF7EFFE53EC1D2BFD
:10348000FCF7EBFE9DED100B41EC1B0B53EC1A2BE4
:1034900051EC100BFDF74BF853EC1C2BFCF7DDFE49
:1034A00053EC1B2BFDF743F89DED100B41EC1B0B70
:1034B00053EC102B51EC100BFCF7CFFE41EC1D0B25
:1034C0009FED7FEB53EC1E2BFDF731F853EC1B2BDC
:1034D000FDF72DF80890CDE908519DED080B53EC50
:1034E0001E2B51EC100BFDF7C3F853EC1D2BFDF711
:1034F000BFF853EC1B2BFDF7BEF89DED080B41EC1C
:103500001D0B53EC102B9DED100B51EC100BFCF729
:10351000A4FE41EC1B0B53EC1A2B51EC1D0BFCF7DA
:103520009CFE9DED080B41EC1A0B53EC102B51EC5B
:103530001C0BFCF792FE53EC1A2BFCF7F8FF41EC46
:103540001A0B51EC1B0B53EC1A2BFCF7F0FF0C90F1
:10355000CDE90C519DED0C0B53EC1B2B51EC100BDA
:10356000FDF786F853EC1A2BFDF785F841EC1B0BA1
:103570009FED550B53EC102B9DED0C0B51EC100BEC
:10358000FCF76BFE41EC1A0B9FED510B51EC1B0B42
:1035900053EC102BFCF761FE41EC1B0B9FED4E0B27
:1035A00053EC102B9DED0C0B51EC100BFCF755FE62
:1035B00053EC1B2BFCF7BBFF41EC100B4848784445
:1035C00000EBC40090ED001B51EC100B53EC112BE1
:1035D000FCF7ADFF41EC1B0B3846FDF726F9CDE9B2
:1035E000080153EC1B2B51EC1A0BFCF7A0FF41EC2C
:1035F000100B3C48784400EBC40090ED00CB51EC3C
:10360000100B53EC1C2BFCF792FF9DED081B53ECA9
:10361000112BFCF78CFF0690CDE906519DED080BB0
:1036200053EC102B9DED060B51EC100BFDF720F821
:1036300053EC1C2BFDF71CF853EC1A2BFDF718F874
:1036400053EC1B2BFDF717F841EC100B9DED261BDF
:1036500053EC102B8DED001B00959DED260B51ECCE
:10366000100BFCF7FAFD9DED000B41EC1A0B53EC2F
:10367000102B9DED260B51EC100BFCF7F9FF9DED87
:10368000061B53EC112B2FE0000000604715F73F9D
:10369000FE822B654715F73F44DF5DF80BAE543EC5
:1036A00000000000000040438E9803007AB60B0033
:1036B000E2190000101A00001A19000000000000B2
:1036C0000000000000000840000000E009C7EE3FD5
:1036D000FD033ADC09C7EE3FF5015B14E02F3EBE67
:1036E000A617000060170000FCF7B7FD53EC1A2B7B
:1036F000FCF71DFF9DED060B41EC1A0B53EC102B54
:103700009DED000B51EC100BFCF7A7FDCDE90C0172
:103710009DED0C0B51EC1A0B53EC102BFCF707FF33
:10372000CDE902010C46AA498C422FDB611A0843FD
:1037300018D19DED0C0B53EC102B9DED020B51ECB1
:10374000100BFCF795FF41EC1B0B9FEDA30B51EC0D
:103750001A0B53EC102BFCF7EAFE53EC1B2BFDF776
:103760008DF82DD2022000F07BFA00F049FA10EE1D
:10377000901A18EE900A8DED020B8DED008B61F31F
:103780001E0003909DED020BFFF7BEBB944A24F090
:103790000041914214D39349214408437FF4EFAC94
:1037A0009DED0C0B53EC102B9DED020B51EC100B0F
:1037B000FCF75EFF53EC1A2BFDF760F87FF6DFACE9
:1037C00024F000408849894A002601EB20518242BA
:1037D0002BDA481C4FF4801121FA00F02044844A6F
:1037E000C0F30A517A44A1F2FF3192ED000B814AF5
:1037F0008DED080BCA4020EA0202C0F3130040F42A
:103800008010C1F1140120FA01F60992002CB8BF12
:1038100076429DED080B53EC102B9DED0C0B51ECFB
:10382000100BFCF725FFCDE90C019DED0C0B51ECC5
:103830001A0B53EC102BFCF77AFE9FED6F0B0890E0
:10384000CDE9085153EC102B9DED080B51EC100BFA
:10385000FCF703FD41EC1B0B9FED690B53EC102BA8
:103860009DED080B51EC100BFCF7F7FC9DED0C0BDC
:1038700041EC1C0B53EC102B9DED080B51EC100B85
:10388000FCF7F6FE53EC1A2BFCF7F5FE9FED5E1BE2
:1038900053EC112BFCF7E1FC53EC1C2BFCF747FE1F
:1038A00041EC1A0B51EC1B0B53EC1A2BFCF73FFEAF
:1038B000CDE902019DED020B53EC1B2B51EC100BDB
:1038C000FCF7D6FE53EC1A2BFCF7D5FE9DED020B50
:1038D00041EC1A0B53EC102B51EC100BFCF7BDFC18
:1038E000CDE908014A489DED080B0521784400F018
:1038F000D4F89DED081B51EC100B53EC112BFCF789
:10390000ACFC9DED021B53EC112BFCF7B4FECDE992
:1039100006019DED020B53EC1A2B51EC100BFCF73A
:103920009CFC53EC1A2BFCF702FE9FED3B0B41EC89
:103930001A0B53EC102B9DED060B51EC100BFCF702
:1039400097FE9DED060B41EC1B0B53EC102B9DEDF0
:10395000020B51EC100BFCF780FC53EC1B2BFCF71B
:103960008DFE53EC1A2BFCF783FE9DED021B53ECEE
:10397000112BFCF77DFE53EC192BFCF77CFECDE9F7
:10398000020101EB065001150029C8BF039015DCA8
:103990009DED020B324651EC100BFCF7DEFEFFF7FB
:1039A000EFF9042808BF00F03BF932469DED020B09
:1039B00051EC100BFCF7D1FECDE902019DED020B9D
:1039C00051EC180B53EC102BFCF747FCFFF73ABBFC
:1039D0000000904000000000FE822B654715973CD8
:1039E00000CC904000346F3F01FCFFFF0000E03F3F
:1039F000E8150000FFFF0F0000000000432EE63F27
:103A0000396CA80C615C20BEEF39FAFE422EE63F0D
:103A1000B81400000000000000000000000000409A
:103A200000B52DED048BB0EE409AF0EE609A83B0B5
:103A300051EC190BFCF7A8FE41EC180B18EE100A1C
:103A400018EE901A8DED008B002818BF0120084356
:103A500020F00040C0F17F6000F1E040C00F14D0C2
:103A600019EE101A19EE900A8DED009B002918BF6F
:103A70000121084320F00040C0F17F6000F1E040E8
:103A8000C00F04BF012000F0EBF8B0EE480A03B00D
:103A9000F0EE680ABDEC048B00BD70B504462DED58
:103AA000028B4D1E00EBC500B0EE408AF0EE608A3E
:103AB00090ED000B35F0060017D053EC182B51ECAD
:103AC000100BFCF7CAFB41EC100B6D1E04EBC5009C
:103AD00090ED001B51EC100B53EC112BFCF727FD64
:103AE00041EC100B35F00600E7D1022D36D0042D45
:103AF0001CD0062D1CBFBDEC028B70BD53EC182BE7
:103B000051EC100BFCF7A9FB94ED0A1B53EC112BA5
:103B1000FCF70DFD53EC182BFCF79FFB94ED081BF5
:103B200053EC112BFCF703FD41EC100B53EC182B5D
:103B300051EC100BFCF791FB94ED061B53EC112B91
:103B4000FCF7F5FC53EC182BFCF787FB94ED040B0A
:103B500053EC102BFCF7EBFC41EC100B53EC182B47
:103B600051EC100BFCF779FB94ED021B53EC112B7D
:103B7000FCF7DDFC53EC182BFCF76FFB94ED001BFE
:103B800053EC112BFCF7D3FCBDEC028B41EC100B7A
:103B900070BD0000000000009FED070B10B553EC56
:103BA000102B9FED070B51EC100BFCF767FD41EC60
:103BB000100B10BD0000000000000000000000001D
:103BC000000000000000F03F10B553EC112B51EC49
:103BD000100BFCF7ACFC41EC100B10BD000000001A
:103BE0009FED050B10B553EC102B51EC100BFCF7AF
:103BF00045FD41EC100B10BD00000000000000006E
:103C00009FED050B10B553EC102B51EC100BFCF78E
:103C100024FB41EC100B10BD000000000000007000
:103C20009FED050B10B553EC102B51EC100BFCF76E
:103C300014FB41EC100B10BD000000000000001050
:103C400002E008C8121F08C1002AFAD17047704765
:103C5000002001E001C1121F002AFBD170470000C3
:103C600001490860704700005C0100202DE9FF5FFA
:103C700082B00021DDE90430020DDDF840B00343DD
:103C800018D044F61050A2F2FF3242431514119896
:103C900001281FD0A5EB0B00401C5FEA000A4FF083
:103CA00000064E4FDFF83891B046504615D5CAF1A0
:103CB000000413E0119801244AA3012801D16FEAFE
:103CC0000B010298119AC0E90031C0E9024206B026
:103CD000BDE8F09FCBF10000DFE704460021404A39
:103CE000491842EB0450CDE9001012E0E00707D07C
:103CF00032463B4640464946FCF7AFFA8046894685
:103D000032463B4610461946FCF7A7FA06460F46D0
:103D10006410002CEAD1DDE90401DDE90023BAF1E9
:103D2000000F06DAFCF799FA42464B46FCF795FA83
:103D300005E0FCF7A3FC42464B46FCF79FFC04461B
:103D40000E460022284BFCF799FD03D84FF0FF30B8
:103D5000014607E00022254B20463146FCF7E7FBF1
:103D6000FCF774FD102409E0002C0ADB0A22002372
:103D7000FCF730FA039B30321A55641E50EA0102F8
:103D8000F2D1641C039AC4F111031444119A012A5C
:103D900003D0012208430DD10AE0084304D00020DB
:103DA0004FF0110B119072E7A3EB0B056D1E0DE0A8
:103DB0005B4504DD4FF0000205F1010504E003DA84
:103DC0004FF00002A5F10105002AECD002981199EC
:103DD000C0E90231C0E9004579E700000000144065
:103DE0000000F03F300000000000F0430000E03F22
:103DF0002DE9FF4F95B09A46884606460025EEE12C
:103E0000252877D100242746F94A0121039400E0B0
:103E1000044316F8013F203B01FA03F01042F7D1AA
:103E200030782A2811D06FF02F033078A0F13002BB
:103E3000092A16D8039A44F0020402EB820203EB2B
:103E400042021044761C0390EFE758F8042B0392CB
:103E5000002A03DA504244F40054039044F0020470
:103E6000761C30782E2816D116F8010F44F0040481
:103E70002A280DD06FF02F023078A0F13003092BE3
:103E800009D807EB870302EB4303C718761CF3E757
:103E900058F8047B761C30786C280FD006DC4C2850
:103EA00017D068280DD06A2814D104E0742810D0E7
:103EB0007A280FD10DE044F400140AE044F4801491
:103EC00001E044F440147278824202D104F5801477
:103ED000761C761C307866280BD013DC582877D0F7
:103EE00009DC002875D04528F6D04628F4D04728AC
:103EF0001AD193E118E0632835D0642879D0652879
:103F000012D18BE1702873D008DC6728F1D06928C2
:103F10006FD06E280DD06F2806D1ACE073282CD05E
:103F2000752874D0782853D05246179990476D1C45
:103F300054E1C4F30250022809D003280DD0D8F868
:103F4000001004280DD00D6008F1040846E1D8F8EF
:103F50000010EA17C1E90052F6E7D8F800100D800A
:103F6000F2E70D70F0E718F8041B8DF80010002040
:103F70008DF80100EB46012003E058F804BB4FF038
:103F8000FF3061074FF0000102D40DE009F101019B
:103F90008946B9420FDA8145F8DB1BF80910002980
:103FA000F4D108E009F1010189468142FADB1BF8EE
:103FB00009100029F6D103985346A0EB09072146C2
:103FC0003846179A00F080FA284400EB090507E00C
:103FD00044E008E10DE01BF8010B524617999047A9
:103FE000B9F10109F7D2534621463846179AF2E053
:103FF00039E00A21C4F302524FF0000B0091022A6B
:1040000006D058F8040BC117032A09D00AE023E0B0
:1040100008F1070020F00702F2E80201904605E0EF
:1040200000B2C117042A01D140B2C117002906DA33
:104030000A460021404261EB02012D2202E02205E6
:1040400004D52B228DF80420012203E0E20701D0E1
:104050002022F7E7914657E00A2100E010214FF0B7
:10406000000B00910BE010214FF0000B44F0040412
:104070000827009103E008204FF0000B0090C4F3E4
:104080000252022A05D058F8040B0021032A08D056
:1040900008E008F1070020F00702F2E8020190466C
:1040A00003E080B2042A00D1C0B24FF00009220719
:1040B0002AD53278702A07D0DDF800C08CF0100CB9
:1040C0005CEA0B0C05D00EE040228DF804200122A2
:1040D00008E050EA010306D030238DF804308DF853
:1040E000052002229146009B83F0080353EA0B034C
:1040F0000AD150EA010201D1620705D530228DF8BC
:1041000004204FF001097F1E3278582A04D039A2CA
:104110000C920CAA02920BE03BA2F9E75B46009AD4
:10412000FCF758F80C9B9B5C029A521E029213708B
:1041300050EA0102F2D1029804A9081A00F1200BFA
:10414000600702D524F4803400E001275F4502DDDA
:10415000A7EB0B0000E0002000EB0B0100900398A0
:104160004944401A0390E00306D453462146179A67
:10417000039800F0A9F90544002706E001A852467B
:10418000C05D179990476D1C7F1C4F45F6DBE0031F
:104190000CD553462146179A039800F095F905442B
:1041A00004E030205246179990476D1C0099481E34
:1041B00000900029F5DC08E0029802995246007848
:1041C000491C0291179990476D1CBBF10001ABF19E
:1041D000010BF1DC5BE100F065F90544761C3078F9
:1041E00000287FF40DAE19B02846BDE8F08F00001E
:1041F00009280100303132333435363738396162BD
:104200006364656600000000303132333435363780
:10421000383941424344454600000000600700D45D
:10422000062708F1070020F00700F0E80223804687
:1042300003F0004C5FEA0C0001D097A009E02005D4
:1042400001D596A005E0E00701D095A001E0AFF20E
:104250004C001390307823F0004365280CD006DC26
:10426000452809D046281DD047287FD13BE0662845
:1042700018D067287AD136E00021112F01DB1120F8
:1042800000E0781CCDE9000104A90CA8FFF7EEFCC2
:10429000DDE90D010C9A4FF0000B07F101091092B6
:1042A00000914EE04FF000400097CDE9011004A9C5
:1042B0000CA8FFF7DBFCDDE90D020C9B0F994FF01A
:1042C000000B91461093009211B9791C00EB010983
:1042D000B7EB090003D4C0F1FF3B07F10109A9EBDB
:1042E0000700019042E0012F00DA01270021112F81
:1042F00001DD112000E03846CDE9000104A90CA839
:10430000FFF7B4FCDDE90D010C9A00914FF0000BB2
:10431000B946109221070FD4009A4A4503DA914614
:1043200001E0A9F10109B9F1010F05DD109AA9F128
:104330000101515C3029F4D0B84202DA10F1040FC7
:1043400003DA0121CDE9011010E0002803DC8344E9
:10435000A9EB000102E0411C494500DD8946A0EBC4
:104360000B00401C01904FF000400290200705D444
:104370000198484502DB4FF0FF30019000208DF896
:104380004B0002980DF14B07B0F1004F25D00220F1
:104390000C902B200D90029800280CDA40420290DD
:1043A0002D200D9007E00A210298FBF7F7FF30312E
:1043B000029007F8011D0C99481E0C900029F2DCB0
:1043C00002980028EFD1791E0D980870307800F01F
:1043D000200040F0450007F8020D11A8C01BC01DC9
:1043E00002901398007800B1012000EB09010198B8
:1043F00001EBE071029801440398401A401E0390BB
:10440000E00306D453462146179A039800F05CF85F
:1044100005441398007818B15246179990476D1CBF
:10442000E00323D553462146179A039800F04CF831
:1044300005441BE0BBF1000F07DB0098584504DD85
:104440001098179910F80B0001E017993020524688
:10445000904701980BF1010B401E05F101050190F9
:1044600004D12E205246179990476D1CB9F10001D6
:10447000A9F10109DEDC05E017F8010B5246179996
:1044800090476D1C0299481E02900029F4DC5346A7
:104490002146179A03989EE62D0000002B0000008D
:1044A000200000002DE9F041044600251E46174675
:1044B000880404D405E039462020B0476D1C641EF2
:1044C000F9D52846BDE8F0812DE9F04104460025E4
:1044D0001E469046C80301D5302700E020278804F7
:1044E00004D505E041463846B0476D1C641EF9D539
:1044F0002846BDE8F08100002DE9F0432DED048B46
:1045000087B090ED120AD0ED130A90ED141AD0ED99
:10451000151A083090EC042A00F0DCFA1648B0EEC8
:10452000408AF0EE608A0078B0EE419A01281ED1F0
:1045300011EE900AFBF703FF8046894619EE100A38
:10454000FBF7FDFE06460F4618EE900AFBF7F7FE56
:1045500004460D4618EE100AFBF7F1FE8DE8F00355
:1045600041EC100B05A053EC102BFEF7F9FB07B044
:10457000BDEC048BBDE8F08308010020252E3366D6
:104580002C252E33662C252E33662C252E33663BA8
:104590000000000010B5FDF773F80649064AB0FBAD
:1045A000F1F111604FF47A71B0FBF1F0BDE8104009
:1045B000FDF74EBA40420F000000002082B0CDE966
:1045C000000121F0004001909DED000B02B051EC84
:1045D000100B704713B54FF6FF730122694602486E
:1045E000FDF7D8FB00981CBD080200201FB590ED18
:1045F000120A04468DED000A90ED130A8DED010AB2
:1046000090ED140A8DED020A90ED150A68468DEDC5
:10461000030A00F0EFF99DED000A84ED020A9DED1A
:10462000010A84ED030A9DED020A84ED040A9DED62
:10463000030A84ED050A1FBDFCF790FEFEF788F91A
:10464000FFF7A8FFFDF792FFFDF7D0FFFDF7EEFFA4
:10465000FEF70CF840F6B830FCF77AF9DFF878810D
:104660004FF40056314644464046FCF709FB5B4B8D
:1046700001225B495B4800F09BFA5B4B00225849E2
:104680005A4800F095FA5A4B06225549594800F00D
:104690008FFA594B07225249584800F089FA584B73
:1046A00003224F49574800F083FA574B02225749DB
:1046B000574800F07DFA574B03225449564800F002
:1046C00077FA564B04225149554800F071FA554B80
:1046D00005224E49544800F06BFA544B02224049DF
:1046E000534800F065FA31462046FCF7C9FADFF876
:1046F00044914FF0000A4FF47A774D4689F800A0B4
:104700000024384800F096FA384800F093FA394807
:1047100000F090FA394800F08DFA3A4800F08AFA31
:104720003B4800F087FA3C4800F084FA3C4800F02F
:1047300081FA3D4800F07EFA3D4800F07BFA641CA7
:10474000BC42DEDB2748FFF751FF2848FFF74EFF4A
:104750002848FFF74BFF2948FFF748FF2948FFF794
:1047600045FF2B48FFF742FF2B48FFF73FFF2C4840
:10477000FFF73CFF2C48FFF739FF2D48FFF736FFC6
:1047800001242C704546174800F054FA174800F0F1
:1047900051FA184800F04EFA184800F04BFA194840
:1047A00000F048FA1A4800F045FA1B4800F042FAB7
:1047B0001B4800F03FFA1C4800F03CFA1C4800F08F
:1047C00039FA1DA0FEF7CCFA31462846FCF758FA14
:1047D000002CD8D191E7000000080240180000200A
:1047E000B401002094020020300000204403002087
:1047F000F0000020EC020020600000209C0300205C
:1048000078000020AC05002090000020600100200E
:10481000A4040020A8000020F4030020C000002011
:10482000FC040020D80000204C0400204800002098
:1048300054050020080100200D0A0000F0B50B30DF
:10484000154D20F007010024144A0FE003688B4245
:104850000BD38B4205D95E1A43184768C3E900673A
:1048600000E04368136002C004E0021D10680028E5
:10487000ECD12046002802D1286808B10020F0BD04
:10488000064A07481060074A121A22F00702C0E9D8
:10489000002401202860D7E758010020540100209F
:1048A00024060020200E002010B50C484FF0E02315
:1048B00041689A694468A142FAD1006800EB40035C
:1048C000C3EBC013C2EBC302B2FBF0F001EB410239
:1048D000C2EBC11100EBC10010BD000000000020C0
:1048E00000B585B001A9009100680E233B22D021BC
:1048F00000F02BF9BDF8040041BA0E484180BDF824
:10490000061049BA8180BDF8081049BAC180BDF8C7
:104910000A1049BA0181BDF80C1049BA4181BDF8AD
:104920000E1049BA8181BDF8101049BAC18105B095
:1049300000BD0000080100202A49026BB1F90230D5
:104940009A1A00EE102AF8EEC00A9FED270A60EED0
:10495000800AC1ED0C0AB1F90430426B9A1A00EEDC
:10496000902AF8EEE00A60EE800AC1ED0D0AB1F976
:104970000630826B9A1A00EE902AF8EEE00A20EEDA
:10498000800A81ED0E0AB1F90A30C26B9A1A00EE64
:10499000102AF8EEC00A9FED150A80EE801ADFEDAE
:1049A000140A21EE201A81ED0F1AB1F90C30026CB5
:1049B0009A1A01EE102AF8EEC11A81EE801A21EE41
:1049C000201A81ED101A406CB1F90E20101A01EE78
:1049D000100AB8EEC11AC1EE001A21EEA00A81ED4C
:1049E000110A704708010020000080396F128341CE
:1049F00034FA8E3C10B594B090ED000A04468DED6B
:104A0000000A90ED010A324B0DF1400CB1EE400A64
:104A10008DED010A90ED020AB1EE400A8DED020A19
:104A200090ED030AB1EE400A8DED030A90ED010A04
:104A30008DED040A90ED000A8DED050A94ED030A50
:104A4000B1EE400A8DED060A94ED020A8DED070ADB
:104A500094ED020A8DED080A94ED030A8DED090A22
:104A600094ED000A8DED0A0A94ED010AB1EE400AB8
:104A70008DED0B0A94ED030A8DED0C0A94ED020AFC
:104A8000B1EE400A8DED0D0A94ED010A8DED0E0A8E
:104A900094ED000A8DED0F0A0FCB8CE80F00042275
:104AA00010A96846FBF765FF00280FD090ED000ABB
:104AB00084ED000A90ED010A84ED010A90ED020AEE
:104AC00084ED020A90ED030A84ED030A14B010BDD0
:104AD000344D000820EE024AF0EE605A60EE224AA1
:104AE000B0EE416A05EEE24A20EE035A45EE824AF4
:104AF00005EEE35A06EE434A46EE234A06EE025A14
:104B000001EEE34A60EE233A41EEC34A45EE833AB2
:104B100001EEA25AB0EE440AF0EE640A46EE623AA2
:104B2000B0EE451A41EE823AF0EE631A70477FB557
:104B30004FF0FF35012403AB8DE838002346FCF726
:104B40000DFA9DF80C0004B070BD3EB54FF0FF3576
:104B5000069CCDE9004302950123FCF7FFF93EBD19
:104B60001CB508290AD2DFE801F0040616181A1C41
:104B70001E20012100E002218DF804104FF6FF7184
:104B80000091012301AAE021FCF752F9002801D08D
:104B90004FF0FF301CBD0421EEE70821ECE71021A7
:104BA000EAE72021E8E74021E6E78021E4E700008A
:104BB00070B501600271F7EE000A9FED1C0AC0EDAE
:104BC000120A80ED130A80ED140A80ED150A80EDBB
:104BD000090A80ED0A0A80ED0B0A80ED060A80EDD5
:104BE000070A80ED080AC0ED020A044680ED030AB8
:104BF00084ED040A0D4684ED050A002003EB8001D4
:104C000004EB8006401CC968C0B2F1630328F5D3E9
:104C100011462846FFF7A4FF05492046FDF74AFB49
:104C20002046BDE87040FDF77FBC0000000000009A
:104C30000406002010B5044601790068FFF790FFD4
:104C40002046FFF74DFE2046FFF776FEFFF72CFECD
:104C50000E49DFED0F0AC8628A6A821A00EE102A36
:104C6000B8EE400A80EE801A81ED091A886201F1DF
:104C70003C00303190EC030A2046D1EC031AFDF7DA
:104C800011FD2046BDE81040FFF736BC08010020AA
:104C90000050C34700B52DED048B83B041EC190BD8
:104CA000FBF772FD41EC180B18EE100A18EE901A83
:104CB0008DED008B002818BF0120084320F0004034
:104CC000C0F17F6000F1E040C00F14D019EE101A5F
:104CD00019EE900A8DED009B002918BF01210843B1
:104CE00020F00040C0F17F6000F1E040C00F04BF41
:104CF0000120FEF7B5FF51EC180B03B0BDEC048B9F
:104D000000BD3FB583B04FF0FF35012406AB8DE801
:104D100038002346FCF71EFA07B030BD0000000043
:104D2000000000000102030406070809000000005B
:104D3000010203040000803F0000000000000000AA
:104D40000000000000000000000000000000F03F34
:104D5000000000000000F83F00000000000000001C
:104D60000000004003B8E23F000000000000000027
:104D700006D0CF43EBFD4C3E033333333333E33FB5
:104D8000FFAB6FDBB66DDB3F4D268F515555D53FE1
:104D900001411DA96074D13F65DBC9934A86CD3FAF
:104DA000EF4E454A287ECA3F3E5555555555C53F9D
:104DB00093BDBE166CC166BF2CDE25AF6A56113F8F
:104DC000F16BD2C541BDBBBED0A4BE726937663E91
:104DD0000000000000000000F84D00080000002066
:104DE00060010000F4080008B04E000860010020D7
:104DF000C0140000503C000881320182101324F4DA
:104E00001A3A111008C7FFFFFF2D32081AE20832C4
:104E10003832041AA20C1AA00414D533081AC40894
:104E20001AD4041AEE04100CECFEFFFFA6FCFFFFE0
:104E3000972F0832281AE614320932BB1ED1FDFF23
:104E4000FF2E4829281AFB041ADB041A44142924CB
:104E50004B133118292C320E1A1B181A137C1A43C3
:104E6000602968321332161A75141A19101A5B3039
:104E70001ADE0832191AF6081A77781AF3041ACAD1
:104E800018328932171AEC181AD73019071BFFDAB3
:104E9000781AE90832291ADC081AC02C1AA4081456
:104EA000683008190B2AFFF85AE808E10344803FEC
:040000050800019955
:00000001FF
