Component: ARM Compiler 5.06 update 5 (build 528) Tool: armlink [4d35e2]

==============================================================================

Section Cross References

    startup_stm32f103xb.o(RESET) refers to startup_stm32f103xb.o(STACK) for __initial_sp
    startup_stm32f103xb.o(RESET) refers to startup_stm32f103xb.o(.text) for Reset_Handler
    startup_stm32f103xb.o(RESET) refers to stm32f1xx_it.o(i.NMI_Handler) for NMI_Handler
    startup_stm32f103xb.o(RESET) refers to stm32f1xx_it.o(i.HardFault_Handler) for HardFault_Handler
    startup_stm32f103xb.o(RESET) refers to stm32f1xx_it.o(i.MemManage_Handler) for MemManage_Handler
    startup_stm32f103xb.o(RESET) refers to stm32f1xx_it.o(i.BusFault_Handler) for BusFault_Handler
    startup_stm32f103xb.o(RESET) refers to stm32f1xx_it.o(i.UsageFault_Handler) for UsageFault_Handler
    startup_stm32f103xb.o(RESET) refers to stm32f1xx_it.o(i.SVC_Handler) for SVC_Handler
    startup_stm32f103xb.o(RESET) refers to stm32f1xx_it.o(i.DebugMon_Handler) for DebugMon_Handler
    startup_stm32f103xb.o(RESET) refers to stm32f1xx_it.o(i.PendSV_Handler) for PendSV_Handler
    startup_stm32f103xb.o(RESET) refers to stm32f1xx_it.o(i.SysTick_Handler) for SysTick_Handler
    startup_stm32f103xb.o(RESET) refers to stm32f1xx_it.o(i.DMA1_Channel4_IRQHandler) for DMA1_Channel4_IRQHandler
    startup_stm32f103xb.o(RESET) refers to stm32f1xx_it.o(i.USART1_IRQHandler) for USART1_IRQHandler
    startup_stm32f103xb.o(.text) refers to system_stm32f1xx.o(i.SystemInit) for SystemInit
    startup_stm32f103xb.o(.text) refers to entry.o(.ARM.Collect$$$$00000000) for __main
    main.o(i.SystemClock_Config) refers to memseta.o(.text) for __aeabi_memclr4
    main.o(i.SystemClock_Config) refers to stm32f1xx_hal_rcc.o(i.HAL_RCC_OscConfig) for HAL_RCC_OscConfig
    main.o(i.SystemClock_Config) refers to stm32f1xx_hal_rcc.o(i.HAL_RCC_ClockConfig) for HAL_RCC_ClockConfig
==============================================================================

Removing Unused input sections from the image.

    Removing startup_stm32f103xb.o(HEAP), (512 bytes).
    Removing main.o(.rev16_text), (4 bytes).
    Removing main.o(.revsh_text), (4 bytes).
    Removing main.o(.rrx_text), (6 bytes).
    Removing gpio.o(.rev16_text), (4 bytes).
    Removing gpio.o(.revsh_text), (4 bytes).
    Removing gpio.o(.rrx_text), (6 bytes).
    Removing dma.o(.rev16_text), (4 bytes).
    Removing dma.o(.revsh_text), (4 bytes).
    Removing dma.o(.rrx_text), (6 bytes).
    Removing i2c.o(.rev16_text), (4 bytes).
    Removing i2c.o(.revsh_text), (4 bytes).
    Removing i2c.o(.rrx_text), (6 bytes).
    Removing i2c.o(i.HAL_I2C_MspDeInit), (56 bytes).
    Removing usart.o(.rev16_text), (4 bytes).
    Removing usart.o(.revsh_text), (4 bytes).
    Removing usart.o(.rrx_text), (6 bytes).
    Removing usart.o(i.HAL_UART_MspDeInit), (64 bytes).
==============================================================================

Image Symbol Table

    Local Symbols

    Symbol Name                              Value     Ov Type        Size  Object(Section)

    ../Core/Src/dma.c                        0x00000000   Number         0  dma.o ABSOLUTE
    ../Core/Src/gpio.c                       0x00000000   Number         0  gpio.o ABSOLUTE
    ../Core/Src/i2c.c                        0x00000000   Number         0  i2c.o ABSOLUTE
    ../Core/Src/main.c                       0x00000000   Number         0  main.o ABSOLUTE
    ../Core/Src/stm32f1xx_hal_msp.c          0x00000000   Number         0  stm32f1xx_hal_msp.o ABSOLUTE
    ../Core/Src/stm32f1xx_it.c               0x00000000   Number         0  stm32f1xx_it.o ABSOLUTE
    ../Core/Src/system_stm32f1xx.c           0x00000000   Number         0  system_stm32f1xx.o ABSOLUTE
    ../Core/Src/usart.c                      0x00000000   Number         0  usart.o ABSOLUTE
    ../Drivers/STM32F1xx_HAL_Driver/Src/stm32f1xx_hal.c 0x00000000   Number         0  stm32f1xx_hal.o ABSOLUTE
    ../Drivers/STM32F1xx_HAL_Driver/Src/stm32f1xx_hal_cortex.c 0x00000000   Number         0  stm32f1xx_hal_cortex.o ABSOLUTE
    ../Drivers/STM32F1xx_HAL_Driver/Src/stm32f1xx_hal_dma.c 0x00000000   Number         0  stm32f1xx_hal_dma.o ABSOLUTE
    ../Drivers/STM32F1xx_HAL_Driver/Src/stm32f1xx_hal_exti.c 0x00000000   Number         0  stm32f1xx_hal_exti.o ABSOLUTE
    ../Drivers/STM32F1xx_HAL_Driver/Src/stm32f1xx_hal_flash.c 0x00000000   Number         0  stm32f1xx_hal_flash.o ABSOLUTE
    ../Drivers/STM32F1xx_HAL_Driver/Src/stm32f1xx_hal_flash_ex.c 0x00000000   Number         0  stm32f1xx_hal_flash_ex.o ABSOLUTE
    ../Drivers/STM32F1xx_HAL_Driver/Src/stm32f1xx_hal_gpio.c 0x00000000   Number         0  stm32f1xx_hal_gpio.o ABSOLUTE
    ../Drivers/STM32F1xx_HAL_Driver/Src/stm32f1xx_hal_gpio_ex.c 0x00000000   Number         0  stm32f1xx_hal_gpio_ex.o ABSOLUTE
    ../Drivers/STM32F1xx_HAL_Driver/Src/stm32f1xx_hal_i2c.c 0x00000000   Number         0  stm32f1xx_hal_i2c.o ABSOLUTE
    ../Drivers/STM32F1xx_HAL_Driver/Src/stm32f1xx_hal_pwr.c 0x00000000   Number         0  stm32f1xx_hal_pwr.o ABSOLUTE
    ../Drivers/STM32F1xx_HAL_Driver/Src/stm32f1xx_hal_rcc.c 0x00000000   Number         0  stm32f1xx_hal_rcc.o ABSOLUTE
    ../Drivers/STM32F1xx_HAL_Driver/Src/stm32f1xx_hal_rcc_ex.c 0x00000000   Number         0  stm32f1xx_hal_rcc_ex.o ABSOLUTE
    ../Drivers/STM32F1xx_HAL_Driver/Src/stm32f1xx_hal_tim.c 0x00000000   Number         0  stm32f1xx_hal_tim.o ABSOLUTE
    ../Drivers/STM32F1xx_HAL_Driver/Src/stm32f1xx_hal_tim_ex.c 0x00000000   Number         0  stm32f1xx_hal_tim_ex.o ABSOLUTE
    ../Drivers/STM32F1xx_HAL_Driver/Src/stm32f1xx_hal_uart.c 0x00000000   Number         0  stm32f1xx_hal_uart.o ABSOLUTE
    ../clib/microlib/division.c              0x00000000   Number         0  ldiv.o ABSOLUTE
    ../clib/microlib/division.c              0x00000000   Number         0  uldiv.o ABSOLUTE
    ../clib/microlib/division.c              0x00000000   Number         0  uidiv.o ABSOLUTE
    ../clib/microlib/errno.c                 0x00000000   Number         0  errno.o ABSOLUTE
    ../clib/microlib/init/entry.s            0x00000000   Number         0  entry9a.o ABSOLUTE
    ../clib/microlib/init/entry.s            0x00000000   Number         0  entry.o ABSOLUTE
    ../clib/microlib/init/entry.s            0x00000000   Number         0  entry7a.o ABSOLUTE
    ../clib/microlib/init/entry.s            0x00000000   Number         0  entry9b.o ABSOLUTE
    ../clib/microlib/init/entry.s            0x00000000   Number         0  entry10a.o ABSOLUTE
    ../clib/microlib/init/entry.s            0x00000000   Number         0  entry8a.o ABSOLUTE
    ../clib/microlib/init/entry.s            0x00000000   Number         0  entry10b.o ABSOLUTE
    ../clib/microlib/init/entry.s            0x00000000   Number         0  entry8b.o ABSOLUTE
    ../clib/microlib/init/entry.s            0x00000000   Number         0  entry11a.o ABSOLUTE
    ../clib/microlib/init/entry.s            0x00000000   Number         0  entry7b.o ABSOLUTE
    ../clib/microlib/init/entry.s            0x00000000   Number         0  entry2.o ABSOLUTE
    ../clib/microlib/init/entry.s            0x00000000   Number         0  entry11b.o ABSOLUTE
    ../clib/microlib/init/entry.s            0x00000000   Number         0  entry5.o ABSOLUTE
    ../clib/microlib/longlong.c              0x00000000   Number         0  llushr.o ABSOLUTE
    ../clib/microlib/longlong.c              0x00000000   Number         0  llshl.o ABSOLUTE
    ../clib/microlib/longlong.c              0x00000000   Number         0  llsshr.o ABSOLUTE
    ../clib/microlib/printf/printf.c         0x00000000   Number         0  printf4.o ABSOLUTE
    ../clib/microlib/printf/printf.c         0x00000000   Number         0  printfb.o ABSOLUTE
    ../clib/microlib/printf/printf.c         0x00000000   Number         0  printf3.o ABSOLUTE
    ../clib/microlib/printf/printf.c         0x00000000   Number         0  printf2.o ABSOLUTE
    ../clib/microlib/printf/printf.c         0x00000000   Number         0  printf1.o ABSOLUTE
    ../clib/microlib/printf/printf.c         0x00000000   Number         0  printf0.o ABSOLUTE
    ../clib/microlib/printf/printf.c         0x00000000   Number         0  printfa.o ABSOLUTE
    ../clib/microlib/printf/printf.c         0x00000000   Number         0  printf8.o ABSOLUTE
    ../clib/microlib/printf/printf.c         0x00000000   Number         0  printf7.o ABSOLUTE
    ../clib/microlib/printf/printf.c         0x00000000   Number         0  printf6.o ABSOLUTE
    ../clib/microlib/printf/printf.c         0x00000000   Number         0  printf5.o ABSOLUTE
    ../clib/microlib/printf/stubs.s          0x00000000   Number         0  stubs.o ABSOLUTE
    ../clib/microlib/stdio/streams.c         0x00000000   Number         0  stdout.o ABSOLUTE
    ../clib/microlib/string/memcmp.c         0x00000000   Number         0  memcmp.o ABSOLUTE
    ../clib/microlib/string/memset.c         0x00000000   Number         0  memseta.o ABSOLUTE
    ../clib/microlib/stubs.s                 0x00000000   Number         0  iusefp.o ABSOLUTE
    ../fplib/microlib/d2f.c                  0x00000000   Number         0  d2f.o ABSOLUTE
    ../fplib/microlib/f2d.c                  0x00000000   Number         0  f2d.o ABSOLUTE
    ../fplib/microlib/fpadd.c                0x00000000   Number         0  fadd.o ABSOLUTE
    ../fplib/microlib/fpadd.c                0x00000000   Number         0  dadd.o ABSOLUTE
    ../fplib/microlib/fpdiv.c                0x00000000   Number         0  ddiv.o ABSOLUTE
    ../fplib/microlib/fpdiv.c                0x00000000   Number         0  fdiv.o ABSOLUTE
    ../fplib/microlib/fpepilogue.c           0x00000000   Number         0  depilogue.o ABSOLUTE
    ../fplib/microlib/fpepilogue.c           0x00000000   Number         0  fepilogue.o ABSOLUTE
    ../fplib/microlib/fpfix.c                0x00000000   Number         0  ffixi.o ABSOLUTE
    ../fplib/microlib/fpfix.c                0x00000000   Number         0  ffixui.o ABSOLUTE
    ../fplib/microlib/fpfix.c                0x00000000   Number         0  dfixul.o ABSOLUTE
    ../fplib/microlib/fpflt.c                0x00000000   Number         0  ffltui.o ABSOLUTE
    ../fplib/microlib/fpflt.c                0x00000000   Number         0  fflti.o ABSOLUTE
    ../fplib/microlib/fpflt.c                0x00000000   Number         0  dflti.o ABSOLUTE
    ../fplib/microlib/fpmul.c                0x00000000   Number         0  dmul.o ABSOLUTE
    ../fplib/microlib/fpmul.c                0x00000000   Number         0  fmul.o ABSOLUTE
    ../fplib/microlib/fpscalb.c              0x00000000   Number         0  dscalb.o ABSOLUTE
    ../fplib/microlib/fpscalb.c              0x00000000   Number         0  fscalb.o ABSOLUTE
    ../fplib/microlib/fpsqrt.c               0x00000000   Number         0  dsqrt.o ABSOLUTE
    ../mathlib/asin.c                        0x00000000   Number         0  asin_x.o ABSOLUTE
    ../mathlib/asin.c                        0x00000000   Number         0  asin.o ABSOLUTE
    ../mathlib/atan.c                        0x00000000   Number         0  atan_x.o ABSOLUTE
    ../mathlib/atan.c                        0x00000000   Number         0  atan.o ABSOLUTE
    ../mathlib/atan2.c                       0x00000000   Number         0  atan2_x.o ABSOLUTE
    ../mathlib/atan2.c                       0x00000000   Number         0  atan2.o ABSOLUTE
    ../mathlib/dunder.c                      0x00000000   Number         0  dunder.o ABSOLUTE
    ../mathlib/fpclassify.c                  0x00000000   Number         0  fpclassify.o ABSOLUTE
    ../mathlib/poly.c                        0x00000000   Number         0  poly.o ABSOLUTE
    ../mathlib/qnan.c                        0x00000000   Number         0  qnan.o ABSOLUTE
    ../mathlib/sqrt.c                        0x00000000   Number         0  sqrt.o ABSOLUTE
    ../mathlib/sqrt.c                        0x00000000   Number         0  sqrt_x.o ABSOLUTE
    ..\Core\Src\dma.c                        0x00000000   Number         0  dma.o ABSOLUTE
    ..\Core\Src\gpio.c                       0x00000000   Number         0  gpio.o ABSOLUTE
    ..\Core\Src\i2c.c                        0x00000000   Number         0  i2c.o ABSOLUTE
    ..\Core\Src\main.c                       0x00000000   Number         0  main.o ABSOLUTE
    ..\Core\Src\stm32f1xx_hal_msp.c          0x00000000   Number         0  stm32f1xx_hal_msp.o ABSOLUTE
    ..\Core\Src\stm32f1xx_it.c               0x00000000   Number         0  stm32f1xx_it.o ABSOLUTE
    ..\Core\Src\system_stm32f1xx.c           0x00000000   Number         0  system_stm32f1xx.o ABSOLUTE
    ..\Core\Src\usart.c                      0x00000000   Number         0  usart.o ABSOLUTE
    ..\Drivers\STM32F1xx_HAL_Driver\Src\stm32f1xx_hal.c 0x00000000   Number         0  stm32f1xx_hal.o ABSOLUTE
    ..\Drivers\STM32F1xx_HAL_Driver\Src\stm32f1xx_hal_cortex.c 0x00000000   Number         0  stm32f1xx_hal_cortex.o ABSOLUTE
    ..\Drivers\STM32F1xx_HAL_Driver\Src\stm32f1xx_hal_dma.c 0x00000000   Number         0  stm32f1xx_hal_dma.o ABSOLUTE
    ..\Drivers\STM32F1xx_HAL_Driver\Src\stm32f1xx_hal_exti.c 0x00000000   Number         0  stm32f1xx_hal_exti.o ABSOLUTE
    ..\Drivers\STM32F1xx_HAL_Driver\Src\stm32f1xx_hal_flash.c 0x00000000   Number         0  stm32f1xx_hal_flash.o ABSOLUTE
    ..\Drivers\STM32F1xx_HAL_Driver\Src\stm32f1xx_hal_flash_ex.c 0x00000000   Number         0  stm32f1xx_hal_flash_ex.o ABSOLUTE
    ..\Drivers\STM32F1xx_HAL_Driver\Src\stm32f1xx_hal_gpio.c 0x00000000   Number         0  stm32f1xx_hal_gpio.o ABSOLUTE
    ..\Drivers\STM32F1xx_HAL_Driver\Src\stm32f1xx_hal_gpio_ex.c 0x00000000   Number         0  stm32f1xx_hal_gpio_ex.o ABSOLUTE
    ..\Drivers\STM32F1xx_HAL_Driver\Src\stm32f1xx_hal_i2c.c 0x00000000   Number         0  stm32f1xx_hal_i2c.o ABSOLUTE
    ..\Drivers\STM32F1xx_HAL_Driver\Src\stm32f1xx_hal_pwr.c 0x00000000   Number         0  stm32f1xx_hal_pwr.o ABSOLUTE
    ..\Drivers\STM32F1xx_HAL_Driver\Src\stm32f1xx_hal_rcc.c 0x00000000   Number         0  stm32f1xx_hal_rcc.o ABSOLUTE
    ..\Drivers\STM32F1xx_HAL_Driver\Src\stm32f1xx_hal_rcc_ex.c 0x00000000   Number         0  stm32f1xx_hal_rcc_ex.o ABSOLUTE
    ..\Drivers\STM32F1xx_HAL_Driver\Src\stm32f1xx_hal_tim.c 0x00000000   Number         0  stm32f1xx_hal_tim.o ABSOLUTE
    ..\Drivers\STM32F1xx_HAL_Driver\Src\stm32f1xx_hal_tim_ex.c 0x00000000   Number         0  stm32f1xx_hal_tim_ex.o ABSOLUTE
    ..\Drivers\STM32F1xx_HAL_Driver\Src\stm32f1xx_hal_uart.c 0x00000000   Number         0  stm32f1xx_hal_uart.o ABSOLUTE
    ..\MPU6050\eMPL\inv_mpu.c                0x00000000   Number         0  inv_mpu.o ABSOLUTE
    ..\MPU6050\eMPL\inv_mpu_dmp_motion_driver.c 0x00000000   Number         0  inv_mpu_dmp_motion_driver.o ABSOLUTE
    ..\MPU6050\mpu6050.c                     0x00000000   Number         0  mpu6050.o ABSOLUTE
    ..\PCA9548A\pca9548.c                    0x00000000   Number         0  pca9548.o ABSOLUTE
    ..\\MPU6050\\eMPL\\inv_mpu.c             0x00000000   Number         0  inv_mpu.o ABSOLUTE
    ..\\MPU6050\\eMPL\\inv_mpu_dmp_motion_driver.c 0x00000000   Number         0  inv_mpu_dmp_motion_driver.o ABSOLUTE
    ..\\MPU6050\\mpu6050.c                   0x00000000   Number         0  mpu6050.o ABSOLUTE
    ..\\PCA9548A\\pca9548.c                  0x00000000   Number         0  pca9548.o ABSOLUTE
    cdcmple.s                                0x00000000   Number         0  cdcmple.o ABSOLUTE
    cdrcmple.s                               0x00000000   Number         0  cdrcmple.o ABSOLUTE
    dc.s                                     0x00000000   Number         0  dc.o ABSOLUTE
    handlers.s                               0x00000000   Number         0  handlers.o ABSOLUTE
    init.s                                   0x00000000   Number         0  init.o ABSOLUTE
    startup_stm32f103xb.s                    0x00000000   Number         0  startup_stm32f103xb.o ABSOLUTE
    RESET                                    0x08000000   Section      236  startup_stm32f103xb.o(RESET)
    .ARM.Collect$$$$00000000                 0x080000ec   Section        0  entry.o(.ARM.Collect$$$$00000000)
    .ARM.Collect$$$$00000001                 0x080000ec   Section        4  entry2.o(.ARM.Collect$$$$00000001)
    .ARM.Collect$$$$00000004                 0x080000f0   Section        4  entry5.o(.ARM.Collect$$$$00000004)
    .ARM.Collect$$$$00000008                 0x080000f4   Section        0  entry7b.o(.ARM.Collect$$$$00000008)
    .ARM.Collect$$$$0000000A                 0x080000f4   Section        0  entry8b.o(.ARM.Collect$$$$0000000A)
    .ARM.Collect$$$$0000000B                 0x080000f4   Section        8  entry9a.o(.ARM.Collect$$$$0000000B)
    .ARM.Collect$$$$0000000D                 0x080000fc   Section        0  entry10a.o(.ARM.Collect$$$$0000000D)
    .ARM.Collect$$$$0000000F                 0x080000fc   Section        0  entry11a.o(.ARM.Collect$$$$0000000F)
    .ARM.Collect$$$$00002712                 0x080000fc   Section        4  entry2.o(.ARM.Collect$$$$00002712)
    __lit__00000000                          0x080000fc   Data           4  entry2.o(.ARM.Collect$$$$00002712)
    .text                                    0x08000100   Section       36  startup_stm32f103xb.o(.text)
    .text                                    0x08000124   Section        0  ldiv.o(.text)
    .text                                    0x08000186   Section        0  llushr.o(.text)
    .text                                    0x080001a6   Section        0  memseta.o(.text)
    .text                                    0x080001ca   Section        0  memcmp.o(.text)
    .text                                    0x080001e4   Section        0  fadd.o(.text)
    .text                                    0x08000294   Section        0  fmul.o(.text)
    .text                                    0x080002f8   Section        0  fdiv.o(.text)
    .text                                    0x08000374   Section        0  fscalb.o(.text)
    .text                                    0x0800038c   Section        0  dadd.o(.text)
    .text                                    0x080004da   Section        0  dmul.o(.text)
    .text                                    0x080005be   Section        0  ddiv.o(.text)
    .text                                    0x0800069c   Section        0  fflti.o(.text)
    .text                                    0x080006ae   Section        0  ffltui.o(.text)
    .text                                    0x080006b8   Section        0  ffixi.o(.text)
    .text                                    0x080006ea   Section        0  ffixui.o(.text)
    .text                                    0x08000712   Section        0  f2d.o(.text)
    .text                                    0x08000738   Section        0  d2f.o(.text)
    .text                                    0x08000770   Section        0  uidiv.o(.text)
    .text                                    0x0800079c   Section        0  uldiv.o(.text)
    .text                                    0x080007fe   Section        0  llshl.o(.text)
    .text                                    0x0800081c   Section        0  llsshr.o(.text)
    .text                                    0x08000840   Section        0  fepilogue.o(.text)
    .text                                    0x08000840   Section        0  iusefp.o(.text)
    .text                                    0x080008ae   Section        0  depilogue.o(.text)
    .text                                    0x08000968   Section        0  dscalb.o(.text)
    .text                                    0x08000996   Section        0  dfixul.o(.text)
    .text                                    0x080009c8   Section       48  cdrcmple.o(.text)
    .text                                    0x080009f8   Section       36  init.o(.text)
    .text                                    0x08000a1c   Section        0  dsqrt.o(.text)
    i.BusFault_Handler                       0x08000abe   Section        0  stm32f1xx_it.o(i.BusFault_Handler)
    i.DMA1_Channel4_IRQHandler               0x08000ac0   Section        0  stm32f1xx_it.o(i.DMA1_Channel4_IRQHandler)
    i.DMA_SetConfig                          0x08000acc   Section        0  stm32f1xx_hal_dma.o(i.DMA_SetConfig)
    DMA_SetConfig                            0x08000acd   Thumb Code    42  stm32f1xx_hal_dma.o(i.DMA_SetConfig)
    i.DMP_Read_Len                           0x08000af8   Section        0  mpu6050.o(i.DMP_Read_Len)
    i.DMP_Write_Len                          0x08000b24   Section        0  mpu6050.o(i.DMP_Write_Len)
    i.DebugMon_Handler                       0x08000b50   Section        0  stm32f1xx_it.o(i.DebugMon_Handler)
    i.Error_Handler                          0x08000b52   Section        0  main.o(i.Error_Handler)
    i.HAL_DMA_Abort                          0x08000b56   Section        0  stm32f1xx_hal_dma.o(i.HAL_DMA_Abort)
    i.HAL_DMA_Abort_IT                       0x08000b9c   Section        0  stm32f1xx_hal_dma.o(i.HAL_DMA_Abort_IT)
    i.HAL_DMA_IRQHandler                     0x08000c34   Section        0  stm32f1xx_hal_dma.o(i.HAL_DMA_IRQHandler)
    i.HAL_DMA_Init                           0x08000d88   Section        0  stm32f1xx_hal_dma.o(i.HAL_DMA_Init)
    i.HAL_DMA_Start_IT                       0x08000de4   Section        0  stm32f1xx_hal_dma.o(i.HAL_DMA_Start_IT)
    i.HAL_Delay                              0x08000e54   Section        0  stm32f1xx_hal.o(i.HAL_Delay)
    i.HAL_GPIO_Init                          0x08000e78   Section        0  stm32f1xx_hal_gpio.o(i.HAL_GPIO_Init)
    i.HAL_GetTick                            0x08001058   Section        0  stm32f1xx_hal.o(i.HAL_GetTick)
    i.HAL_I2C_Init                           0x08001064   Section        0  stm32f1xx_hal_i2c.o(i.HAL_I2C_Init)
    i.HAL_I2C_Master_Transmit                0x080011ec   Section        0  stm32f1xx_hal_i2c.o(i.HAL_I2C_Master_Transmit)
    i.HAL_I2C_Mem_Read                       0x08001318   Section        0  stm32f1xx_hal_i2c.o(i.HAL_I2C_Mem_Read)
    i.HAL_I2C_Mem_Write                      0x08001568   Section        0  stm32f1xx_hal_i2c.o(i.HAL_I2C_Mem_Write)
    i.HAL_I2C_MspInit                        0x08001698   Section        0  i2c.o(i.HAL_I2C_MspInit)
    i.HAL_IncTick                            0x080016f4   Section        0  stm32f1xx_hal.o(i.HAL_IncTick)
    i.HAL_Init                               0x08001704   Section        0  stm32f1xx_hal.o(i.HAL_Init)
    i.HAL_InitTick                           0x08001728   Section        0  stm32f1xx_hal.o(i.HAL_InitTick)
    i.HAL_MspInit                            0x08001768   Section        0  stm32f1xx_hal_msp.o(i.HAL_MspInit)
    i.HAL_NVIC_EnableIRQ                     0x080017a4   Section        0  stm32f1xx_hal_cortex.o(i.HAL_NVIC_EnableIRQ)
    i.HAL_NVIC_SetPriority                   0x080017c0   Section        0  stm32f1xx_hal_cortex.o(i.HAL_NVIC_SetPriority)
    i.HAL_NVIC_SetPriorityGrouping           0x08001800   Section        0  stm32f1xx_hal_cortex.o(i.HAL_NVIC_SetPriorityGrouping)
    i.HAL_RCC_ClockConfig                    0x08001824   Section        0  stm32f1xx_hal_rcc.o(i.HAL_RCC_ClockConfig)
    i.HAL_RCC_GetPCLK1Freq                   0x08001950   Section        0  stm32f1xx_hal_rcc.o(i.HAL_RCC_GetPCLK1Freq)
    i.HAL_RCC_GetPCLK2Freq                   0x08001970   Section        0  stm32f1xx_hal_rcc.o(i.HAL_RCC_GetPCLK2Freq)
    i.HAL_RCC_GetSysClockFreq                0x08001990   Section        0  stm32f1xx_hal_rcc.o(i.HAL_RCC_GetSysClockFreq)
    i.HAL_RCC_OscConfig                      0x080019dc   Section        0  stm32f1xx_hal_rcc.o(i.HAL_RCC_OscConfig)
    i.HAL_SYSTICK_Config                     0x08001cfc   Section        0  stm32f1xx_hal_cortex.o(i.HAL_SYSTICK_Config)
    i.HAL_UARTEx_RxEventCallback             0x08001d24   Section        0  stm32f1xx_hal_uart.o(i.HAL_UARTEx_RxEventCallback)
    i.HAL_UART_ErrorCallback                 0x08001d26   Section        0  stm32f1xx_hal_uart.o(i.HAL_UART_ErrorCallback)
    i.HAL_UART_IRQHandler                    0x08001d28   Section        0  stm32f1xx_hal_uart.o(i.HAL_UART_IRQHandler)
    i.HAL_UART_Init                          0x08001f94   Section        0  stm32f1xx_hal_uart.o(i.HAL_UART_Init)
    i.HAL_UART_MspInit                       0x08001ff8   Section        0  usart.o(i.HAL_UART_MspInit)
    i.HAL_UART_RxCpltCallback                0x080020ac   Section        0  stm32f1xx_hal_uart.o(i.HAL_UART_RxCpltCallback)
    i.HAL_UART_Transmit                      0x080020ae   Section        0  stm32f1xx_hal_uart.o(i.HAL_UART_Transmit)
    i.HAL_UART_Transmit_DMA                  0x08002148   Section        0  stm32f1xx_hal_uart.o(i.HAL_UART_Transmit_DMA)
    i.HAL_UART_TxCpltCallback                0x080021c0   Section        0  stm32f1xx_hal_uart.o(i.HAL_UART_TxCpltCallback)
    i.HAL_UART_TxHalfCpltCallback            0x080021c2   Section        0  stm32f1xx_hal_uart.o(i.HAL_UART_TxHalfCpltCallback)
    i.HardFault_Handler                      0x080021c4   Section        0  stm32f1xx_it.o(i.HardFault_Handler)
    i.I2C_IsAcknowledgeFailed                0x080021c6   Section        0  stm32f1xx_hal_i2c.o(i.I2C_IsAcknowledgeFailed)
    I2C_IsAcknowledgeFailed                  0x080021c7   Thumb Code    46  stm32f1xx_hal_i2c.o(i.I2C_IsAcknowledgeFailed)
    i.I2C_MasterRequestWrite                 0x080021f4   Section        0  stm32f1xx_hal_i2c.o(i.I2C_MasterRequestWrite)
    I2C_MasterRequestWrite                   0x080021f5   Thumb Code   150  stm32f1xx_hal_i2c.o(i.I2C_MasterRequestWrite)
    i.I2C_RequestMemoryRead                  0x08002290   Section        0  stm32f1xx_hal_i2c.o(i.I2C_RequestMemoryRead)
    I2C_RequestMemoryRead                    0x08002291   Thumb Code   246  stm32f1xx_hal_i2c.o(i.I2C_RequestMemoryRead)
    i.I2C_RequestMemoryWrite                 0x0800238c   Section        0  stm32f1xx_hal_i2c.o(i.I2C_RequestMemoryWrite)
    I2C_RequestMemoryWrite                   0x0800238d   Thumb Code   162  stm32f1xx_hal_i2c.o(i.I2C_RequestMemoryWrite)
    i.I2C_WaitOnBTFFlagUntilTimeout          0x08002434   Section        0  stm32f1xx_hal_i2c.o(i.I2C_WaitOnBTFFlagUntilTimeout)
    I2C_WaitOnBTFFlagUntilTimeout            0x08002435   Thumb Code    86  stm32f1xx_hal_i2c.o(i.I2C_WaitOnBTFFlagUntilTimeout)
    i.I2C_WaitOnFlagUntilTimeout             0x0800248c   Section        0  stm32f1xx_hal_i2c.o(i.I2C_WaitOnFlagUntilTimeout)
    I2C_WaitOnFlagUntilTimeout               0x0800248d   Thumb Code   144  stm32f1xx_hal_i2c.o(i.I2C_WaitOnFlagUntilTimeout)
    i.I2C_WaitOnMasterAddressFlagUntilTimeout 0x0800251c   Section        0  stm32f1xx_hal_i2c.o(i.I2C_WaitOnMasterAddressFlagUntilTimeout)
    I2C_WaitOnMasterAddressFlagUntilTimeout  0x0800251d   Thumb Code   188  stm32f1xx_hal_i2c.o(i.I2C_WaitOnMasterAddressFlagUntilTimeout)
    i.I2C_WaitOnRXNEFlagUntilTimeout         0x080025d8   Section        0  stm32f1xx_hal_i2c.o(i.I2C_WaitOnRXNEFlagUntilTimeout)
    I2C_WaitOnRXNEFlagUntilTimeout           0x080025d9   Thumb Code   112  stm32f1xx_hal_i2c.o(i.I2C_WaitOnRXNEFlagUntilTimeout)
    i.I2C_WaitOnTXEFlagUntilTimeout          0x08002648   Section        0  stm32f1xx_hal_i2c.o(i.I2C_WaitOnTXEFlagUntilTimeout)
    I2C_WaitOnTXEFlagUntilTimeout            0x08002649   Thumb Code    86  stm32f1xx_hal_i2c.o(i.I2C_WaitOnTXEFlagUntilTimeout)
    i.MPU_Init                               0x0800269e   Section        0  mpu6050.o(i.MPU_Init)
    i.MPU_Read_Byte                          0x08002710   Section        0  mpu6050.o(i.MPU_Read_Byte)
    i.MPU_Set_Accel_Fsr                      0x08002748   Section        0  mpu6050.o(i.MPU_Set_Accel_Fsr)
    i.MPU_Set_Gyro_Fsr                       0x08002752   Section        0  mpu6050.o(i.MPU_Set_Gyro_Fsr)
    i.MPU_Set_LPF                            0x0800275c   Section        0  mpu6050.o(i.MPU_Set_LPF)
    i.MPU_Set_Rate                           0x0800278c   Section        0  mpu6050.o(i.MPU_Set_Rate)
    i.MPU_Write_Byte                         0x080027bc   Section        0  mpu6050.o(i.MPU_Write_Byte)
    i.MX_DMA_Init                            0x080027f0   Section        0  dma.o(i.MX_DMA_Init)
    i.MX_GPIO_Init                           0x0800281c   Section        0  gpio.o(i.MX_GPIO_Init)
    i.MX_I2C1_Init                           0x08002868   Section        0  i2c.o(i.MX_I2C1_Init)
    i.MX_USART1_UART_Init                    0x080028a8   Section        0  usart.o(i.MX_USART1_UART_Init)
    i.MemManage_Handler                      0x080028e0   Section        0  stm32f1xx_it.o(i.MemManage_Handler)
    i.NMI_Handler                            0x080028e2   Section        0  stm32f1xx_it.o(i.NMI_Handler)
    i.PendSV_Handler                         0x080028e4   Section        0  stm32f1xx_it.o(i.PendSV_Handler)
    i.SVC_Handler                            0x080028e6   Section        0  stm32f1xx_it.o(i.SVC_Handler)
    i.SysTick_Handler                        0x080028e8   Section        0  stm32f1xx_it.o(i.SysTick_Handler)
    i.SystemClock_Config                     0x080028ec   Section        0  main.o(i.SystemClock_Config)
    i.SystemInit                             0x0800294a   Section        0  system_stm32f1xx.o(i.SystemInit)
    i.UART_DMAAbortOnError                   0x0800294c   Section        0  stm32f1xx_hal_uart.o(i.UART_DMAAbortOnError)
    UART_DMAAbortOnError                     0x0800294d   Thumb Code    16  stm32f1xx_hal_uart.o(i.UART_DMAAbortOnError)
    i.UART_DMAError                          0x0800295c   Section        0  stm32f1xx_hal_uart.o(i.UART_DMAError)
    UART_DMAError                            0x0800295d   Thumb Code    74  stm32f1xx_hal_uart.o(i.UART_DMAError)
    i.UART_DMATransmitCplt                   0x080029a6   Section        0  stm32f1xx_hal_uart.o(i.UART_DMATransmitCplt)
    UART_DMATransmitCplt                     0x080029a7   Thumb Code    66  stm32f1xx_hal_uart.o(i.UART_DMATransmitCplt)
    i.UART_DMATxHalfCplt                     0x080029e8   Section        0  stm32f1xx_hal_uart.o(i.UART_DMATxHalfCplt)
    UART_DMATxHalfCplt                       0x080029e9   Thumb Code    10  stm32f1xx_hal_uart.o(i.UART_DMATxHalfCplt)
    i.UART_EndRxTransfer                     0x080029f2   Section        0  stm32f1xx_hal_uart.o(i.UART_EndRxTransfer)
    UART_EndRxTransfer                       0x080029f3   Thumb Code    78  stm32f1xx_hal_uart.o(i.UART_EndRxTransfer)
    i.UART_EndTxTransfer                     0x08002a40   Section        0  stm32f1xx_hal_uart.o(i.UART_EndTxTransfer)
    UART_EndTxTransfer                       0x08002a41   Thumb Code    28  stm32f1xx_hal_uart.o(i.UART_EndTxTransfer)
    i.UART_Receive_IT                        0x08002a5c   Section        0  stm32f1xx_hal_uart.o(i.UART_Receive_IT)
    UART_Receive_IT                          0x08002a5d   Thumb Code   194  stm32f1xx_hal_uart.o(i.UART_Receive_IT)
    i.UART_SetConfig                         0x08002b20   Section        0  stm32f1xx_hal_uart.o(i.UART_SetConfig)
    UART_SetConfig                           0x08002b21   Thumb Code   178  stm32f1xx_hal_uart.o(i.UART_SetConfig)
    i.UART_WaitOnFlagUntilTimeout            0x08002bd8   Section        0  stm32f1xx_hal_uart.o(i.UART_WaitOnFlagUntilTimeout)
    UART_WaitOnFlagUntilTimeout              0x08002bd9   Thumb Code   120  stm32f1xx_hal_uart.o(i.UART_WaitOnFlagUntilTimeout)
    i.USART1_IRQHandler                      0x08002c50   Section        0  stm32f1xx_it.o(i.USART1_IRQHandler)
    i.UsageFault_Handler                     0x08002c5c   Section        0  stm32f1xx_it.o(i.UsageFault_Handler)
    i.__0printf                              0x08002c60   Section        0  printfa.o(i.__0printf)
    i.__0snprintf                            0x08002c80   Section        0  printfa.o(i.__0snprintf)
    i.__ARM_fpclassify                       0x08002cb0   Section        0  fpclassify.o(i.__ARM_fpclassify)
    i.__NVIC_SetPriority                     0x08002cd8   Section        0  stm32f1xx_hal_cortex.o(i.__NVIC_SetPriority)
    __NVIC_SetPriority                       0x08002cd9   Thumb Code    32  stm32f1xx_hal_cortex.o(i.__NVIC_SetPriority)
    i.__kernel_poly                          0x08002cf8   Section        0  poly.o(i.__kernel_poly)
    i.__mathlib_dbl_infnan                   0x08002da2   Section        0  dunder.o(i.__mathlib_dbl_infnan)
    i.__mathlib_dbl_infnan2                  0x08002da8   Section        0  dunder.o(i.__mathlib_dbl_infnan2)
    i.__mathlib_dbl_invalid                  0x08002dac   Section        0  dunder.o(i.__mathlib_dbl_invalid)
    i.__mathlib_dbl_underflow                0x08002db8   Section        0  dunder.o(i.__mathlib_dbl_underflow)
    i.__scatterload_copy                     0x08002dc8   Section       14  handlers.o(i.__scatterload_copy)
    i.__scatterload_null                     0x08002dd6   Section        2  handlers.o(i.__scatterload_null)
    i.__scatterload_zeroinit                 0x08002dd8   Section       14  handlers.o(i.__scatterload_zeroinit)
    i.__set_errno                            0x08002de8   Section        0  errno.o(i.__set_errno)
    i._fp_digits                             0x08002df4   Section        0  printfa.o(i._fp_digits)
    _fp_digits                               0x08002df5   Thumb Code   366  printfa.o(i._fp_digits)
    i._printf_core                           0x08002f78   Section        0  printfa.o(i._printf_core)
    _printf_core                             0x08002f79   Thumb Code  1744  printfa.o(i._printf_core)
    i._printf_post_padding                   0x08003654   Section        0  printfa.o(i._printf_post_padding)
    _printf_post_padding                     0x08003655   Thumb Code    36  printfa.o(i._printf_post_padding)
    i._printf_pre_padding                    0x08003678   Section        0  printfa.o(i._printf_pre_padding)
    _printf_pre_padding                      0x08003679   Thumb Code    46  printfa.o(i._printf_pre_padding)
    i._snputc                                0x080036a6   Section        0  printfa.o(i._snputc)
    _snputc                                  0x080036a7   Thumb Code    22  printfa.o(i._snputc)
    i.accel_self_test                        0x080036bc   Section        0  inv_mpu.o(i.accel_self_test)
    accel_self_test                          0x080036bd   Thumb Code   114  inv_mpu.o(i.accel_self_test)
    i.asin                                   0x0800373c   Section        0  asin.o(i.asin)
    i.atan                                   0x080039ac   Section        0  atan.o(i.atan)
    i.atan2                                  0x08003bcc   Section        0  atan2.o(i.atan2)
    i.dmp_enable_6x_lp_quat                  0x08003d4c   Section        0  inv_mpu_dmp_motion_driver.o(i.dmp_enable_6x_lp_quat)
    i.dmp_enable_feature                     0x08003d88   Section        0  inv_mpu_dmp_motion_driver.o(i.dmp_enable_feature)
    i.dmp_enable_gyro_cal                    0x08003f60   Section        0  inv_mpu_dmp_motion_driver.o(i.dmp_enable_gyro_cal)
    i.dmp_enable_lp_quat                     0x08003f9c   Section        0  inv_mpu_dmp_motion_driver.o(i.dmp_enable_lp_quat)
    i.dmp_load_motion_driver_firmware        0x08003fd8   Section        0  inv_mpu_dmp_motion_driver.o(i.dmp_load_motion_driver_firmware)
    i.dmp_read_fifo                          0x08003fec   Section        0  inv_mpu_dmp_motion_driver.o(i.dmp_read_fifo)
    i.dmp_set_accel_bias                     0x08004130   Section        0  inv_mpu_dmp_motion_driver.o(i.dmp_set_accel_bias)
    i.dmp_set_fifo_rate                      0x08004208   Section        0  inv_mpu_dmp_motion_driver.o(i.dmp_set_fifo_rate)
    i.dmp_set_gyro_bias                      0x0800426c   Section        0  inv_mpu_dmp_motion_driver.o(i.dmp_set_gyro_bias)
    i.dmp_set_orientation                    0x08004338   Section        0  inv_mpu_dmp_motion_driver.o(i.dmp_set_orientation)
    i.dmp_set_shake_reject_thresh            0x08004444   Section        0  inv_mpu_dmp_motion_driver.o(i.dmp_set_shake_reject_thresh)
    i.dmp_set_shake_reject_time              0x08004474   Section        0  inv_mpu_dmp_motion_driver.o(i.dmp_set_shake_reject_time)
    i.dmp_set_shake_reject_timeout           0x08004494   Section        0  inv_mpu_dmp_motion_driver.o(i.dmp_set_shake_reject_timeout)
    i.dmp_set_tap_axes                       0x080044b4   Section        0  inv_mpu_dmp_motion_driver.o(i.dmp_set_tap_axes)
    i.dmp_set_tap_count                      0x080044f4   Section        0  inv_mpu_dmp_motion_driver.o(i.dmp_set_tap_count)
    i.dmp_set_tap_thresh                     0x08004518   Section        0  inv_mpu_dmp_motion_driver.o(i.dmp_set_tap_thresh)
    i.dmp_set_tap_time                       0x08004640   Section        0  inv_mpu_dmp_motion_driver.o(i.dmp_set_tap_time)
    i.dmp_set_tap_time_multi                 0x08004660   Section        0  inv_mpu_dmp_motion_driver.o(i.dmp_set_tap_time_multi)
    i.fputc                                  0x08004680   Section        0  usart.o(i.fputc)
    i.get_accel_prod_shift                   0x08004698   Section        0  inv_mpu.o(i.get_accel_prod_shift)
    get_accel_prod_shift                     0x08004699   Thumb Code   158  inv_mpu.o(i.get_accel_prod_shift)
    i.get_st_biases                          0x08004744   Section        0  inv_mpu.o(i.get_st_biases)
    get_st_biases                            0x08004745   Thumb Code   784  inv_mpu.o(i.get_st_biases)
    i.gyro_self_test                         0x08004a58   Section        0  inv_mpu.o(i.gyro_self_test)
    gyro_self_test                           0x08004a59   Thumb Code   190  inv_mpu.o(i.gyro_self_test)
    i.inv_orientation_matrix_to_scalar       0x08004b2c   Section        0  inv_mpu.o(i.inv_orientation_matrix_to_scalar)
    i.inv_row_2_scale                        0x08004b4e   Section        0  inv_mpu.o(i.inv_row_2_scale)
    i.main                                   0x08004b98   Section        0  main.o(i.main)
    i.mget_ms                                0x08004c0c   Section        0  inv_mpu.o(i.mget_ms)
    i.mpu_configure_fifo                     0x08004c10   Section        0  inv_mpu.o(i.mpu_configure_fifo)
    i.mpu_dmp_get_data                       0x08004c64   Section        0  inv_mpu.o(i.mpu_dmp_get_data)
    i.mpu_dmp_init                           0x08004e00   Section        0  inv_mpu.o(i.mpu_dmp_init)
    i.mpu_get_accel_fsr                      0x08004ea0   Section        0  inv_mpu.o(i.mpu_get_accel_fsr)
    i.mpu_get_accel_sens                     0x08004edc   Section        0  inv_mpu.o(i.mpu_get_accel_sens)
    i.mpu_get_gyro_fsr                       0x08004f20   Section        0  inv_mpu.o(i.mpu_get_gyro_fsr)
    i.mpu_get_gyro_sens                      0x08004f54   Section        0  inv_mpu.o(i.mpu_get_gyro_sens)
    i.mpu_get_lpf                            0x08004f94   Section        0  inv_mpu.o(i.mpu_get_lpf)
    i.mpu_get_sample_rate                    0x08004fcc   Section        0  inv_mpu.o(i.mpu_get_sample_rate)
    i.mpu_init                               0x08004fe8   Section        0  inv_mpu.o(i.mpu_init)
    i.mpu_load_firmware                      0x08005170   Section        0  inv_mpu.o(i.mpu_load_firmware)
    i.mpu_lp_accel_mode                      0x08005210   Section        0  inv_mpu.o(i.mpu_lp_accel_mode)
    i.mpu_read_fifo_stream                   0x080052c8   Section        0  inv_mpu.o(i.mpu_read_fifo_stream)
    i.mpu_read_mem                           0x08005358   Section        0  inv_mpu.o(i.mpu_read_mem)
    i.mpu_reset_fifo                         0x080053ac   Section        0  inv_mpu.o(i.mpu_reset_fifo)
    i.mpu_run_self_test                      0x0800550c   Section        0  inv_mpu.o(i.mpu_run_self_test)
    i.mpu_set_accel_fsr                      0x080055fc   Section        0  inv_mpu.o(i.mpu_set_accel_fsr)
    i.mpu_set_bypass                         0x08005664   Section        0  inv_mpu.o(i.mpu_set_bypass)
    i.mpu_set_dmp_state                      0x08005740   Section        0  inv_mpu.o(i.mpu_set_dmp_state)
    i.mpu_set_gyro_fsr                       0x080057b8   Section        0  inv_mpu.o(i.mpu_set_gyro_fsr)
    i.mpu_set_int_latched                    0x08005824   Section        0  inv_mpu.o(i.mpu_set_int_latched)
    i.mpu_set_lpf                            0x08005888   Section        0  inv_mpu.o(i.mpu_set_lpf)
    i.mpu_set_sample_rate                    0x080058f4   Section        0  inv_mpu.o(i.mpu_set_sample_rate)
    i.mpu_set_sensors                        0x08005974   Section        0  inv_mpu.o(i.mpu_set_sensors)
    i.mpu_write_mem                          0x08005a2c   Section        0  inv_mpu.o(i.mpu_write_mem)
    i.run_self_test                          0x08005a80   Section        0  inv_mpu.o(i.run_self_test)
    i.selectPort                             0x08005b00   Section        0  pca9548.o(i.selectPort)
    i.sentData_Uart                          0x08005b28   Section        0  main.o(i.sentData_Uart)
    i.set_int_enable                         0x08005bc4   Section        0  inv_mpu.o(i.set_int_enable)
    set_int_enable                           0x08005bc5   Thumb Code    84  inv_mpu.o(i.set_int_enable)
    i.sqrt                                   0x08005c1c   Section        0  sqrt.o(i.sqrt)
    .constdata                               0x08005c68   Section       18  stm32f1xx_hal_rcc.o(.constdata)
    aPredivFactorTable                       0x08005c68   Data           2  stm32f1xx_hal_rcc.o(.constdata)
    aPLLMULFactorTable                       0x08005c6a   Data          16  stm32f1xx_hal_rcc.o(.constdata)
    .constdata                               0x08005c7a   Section       16  system_stm32f1xx.o(.constdata)
    .constdata                               0x08005c8a   Section        8  system_stm32f1xx.o(.constdata)
    .constdata                               0x08005c92   Section       27  inv_mpu.o(.constdata)
    .constdata                               0x08005cae   Section       12  inv_mpu.o(.constdata)
    .constdata                               0x08005cbc   Section       40  inv_mpu.o(.constdata)
    .constdata                               0x08005ce4   Section     3062  inv_mpu_dmp_motion_driver.o(.constdata)
    dmp_memory                               0x08005ce4   Data        3062  inv_mpu_dmp_motion_driver.o(.constdata)
    .constdata                               0x080068e0   Section       80  asin.o(.constdata)
    pS                                       0x080068e0   Data          48  asin.o(.constdata)
    qS                                       0x08006910   Data          32  asin.o(.constdata)
    .constdata                               0x08006930   Section      152  atan.o(.constdata)
    atanhi                                   0x08006930   Data          32  atan.o(.constdata)
    atanlo                                   0x08006950   Data          32  atan.o(.constdata)
    aTodd                                    0x08006970   Data          40  atan.o(.constdata)
    aTeven                                   0x08006998   Data          48  atan.o(.constdata)
    .constdata                               0x080069c8   Section        8  qnan.o(.constdata)
    .conststring                             0x080069d0   Section       77  inv_mpu.o(.conststring)
    .data                                    0x20000000   Section       12  main.o(.data)
    .data                                    0x2000000c   Section       12  stm32f1xx_hal.o(.data)
    .data                                    0x20000018   Section        4  system_stm32f1xx.o(.data)
    .data                                    0x2000001c   Section       53  inv_mpu.o(.data)
    st                                       0x2000001c   Data          44  inv_mpu.o(.data)
    gyro_orientation                         0x20000048   Data           9  inv_mpu.o(.data)
    .data                                    0x20000054   Section        4  stdout.o(.data)
    .data                                    0x20000058   Section        4  errno.o(.data)
    _errno                                   0x20000058   Data           4  errno.o(.data)
    .bss                                     0x2000005c   Section       50  main.o(.bss)
    .bss                                     0x20000090   Section       84  i2c.o(.bss)
    .bss                                     0x200000e4   Section      140  usart.o(.bss)
    .bss                                     0x20000170   Section       16  inv_mpu_dmp_motion_driver.o(.bss)
    dmp                                      0x20000170   Data          16  inv_mpu_dmp_motion_driver.o(.bss)
    STACK                                    0x20000180   Section     1024  startup_stm32f103xb.o(STACK)

    Global Symbols

    Symbol Name                              Value     Ov Type        Size  Object(Section)

    BuildAttributes$$THM_ISAv4$P$D$K$B$S$PE$A:L22UL41UL21$X:L11$S22US41US21$IEEE1$IW$USESV6$~STKCKD$USESV7$~SHL$OTIME$ROPI$IEEEX$EBA8$MICROLIB$REQ8$PRES8$EABIv2 0x00000000   Number         0  anon$$obj.o ABSOLUTE
    __ARM_use_no_argv                        0x00000000   Number         0  main.o ABSOLUTE
    _printf_a                                0x00000000   Number         0  stubs.o ABSOLUTE
    _printf_c                                0x00000000   Number         0  stubs.o ABSOLUTE
    _printf_charcount                        0x00000000   Number         0  stubs.o ABSOLUTE
    _printf_d                                0x00000000   Number         0  stubs.o ABSOLUTE
    _printf_e                                0x00000000   Number         0  stubs.o ABSOLUTE
    _printf_f                                0x00000000   Number         0  stubs.o ABSOLUTE
    _printf_flags                            0x00000000   Number         0  stubs.o ABSOLUTE
    _printf_fp_dec                           0x00000000   Number         0  stubs.o ABSOLUTE
    _printf_fp_hex                           0x00000000   Number         0  stubs.o ABSOLUTE
    _printf_g                                0x00000000   Number         0  stubs.o ABSOLUTE
    _printf_i                                0x00000000   Number         0  stubs.o ABSOLUTE
    _printf_int_dec                          0x00000000   Number         0  stubs.o ABSOLUTE
    _printf_l                                0x00000000   Number         0  stubs.o ABSOLUTE
    _printf_lc                               0x00000000   Number         0  stubs.o ABSOLUTE
    _printf_ll                               0x00000000   Number         0  stubs.o ABSOLUTE
    _printf_lld                              0x00000000   Number         0  stubs.o ABSOLUTE
    _printf_lli                              0x00000000   Number         0  stubs.o ABSOLUTE
    _printf_llo                              0x00000000   Number         0  stubs.o ABSOLUTE
    _printf_llu                              0x00000000   Number         0  stubs.o ABSOLUTE
    _printf_llx                              0x00000000   Number         0  stubs.o ABSOLUTE
    _printf_longlong_dec                     0x00000000   Number         0  stubs.o ABSOLUTE
    _printf_longlong_hex                     0x00000000   Number         0  stubs.o ABSOLUTE
    _printf_longlong_oct                     0x00000000   Number         0  stubs.o ABSOLUTE
    _printf_ls                               0x00000000   Number         0  stubs.o ABSOLUTE
    _printf_mbtowc                           0x00000000   Number         0  stubs.o ABSOLUTE
    _printf_n                                0x00000000   Number         0  stubs.o ABSOLUTE
    _printf_o                                0x00000000   Number         0  stubs.o ABSOLUTE
    _printf_p                                0x00000000   Number         0  stubs.o ABSOLUTE
    _printf_percent                          0x00000000   Number         0  stubs.o ABSOLUTE
    _printf_pre_padding                      0x00000000   Number         0  stubs.o ABSOLUTE
    _printf_return_value                     0x00000000   Number         0  stubs.o ABSOLUTE
    _printf_s                                0x00000000   Number         0  stubs.o ABSOLUTE
    _printf_sizespec                         0x00000000   Number         0  stubs.o ABSOLUTE
    _printf_str                              0x00000000   Number         0  stubs.o ABSOLUTE
    _printf_truncate_signed                  0x00000000   Number         0  stubs.o ABSOLUTE
    _printf_truncate_unsigned                0x00000000   Number         0  stubs.o ABSOLUTE
    _printf_u                                0x00000000   Number         0  stubs.o ABSOLUTE
    _printf_wc                               0x00000000   Number         0  stubs.o ABSOLUTE
    _printf_wctomb                           0x00000000   Number         0  stubs.o ABSOLUTE
    _printf_widthprec                        0x00000000   Number         0  stubs.o ABSOLUTE
    _printf_x                                0x00000000   Number         0  stubs.o ABSOLUTE
    __cpp_initialize__aeabi_                  - Undefined Weak Reference
    __cxa_finalize                            - Undefined Weak Reference
    __decompress                              - Undefined Weak Reference
    _clock_init                               - Undefined Weak Reference
    _microlib_exit                            - Undefined Weak Reference
    __Vectors_Size                           0x000000ec   Number         0  startup_stm32f103xb.o ABSOLUTE
    __Vectors                                0x08000000   Data           4  startup_stm32f103xb.o(RESET)
    __Vectors_End                            0x080000ec   Data           0  startup_stm32f103xb.o(RESET)
    __main                                   0x080000ed   Thumb Code     0  entry.o(.ARM.Collect$$$$00000000)
    _main_stk                                0x080000ed   Thumb Code     0  entry2.o(.ARM.Collect$$$$00000001)
    _main_scatterload                        0x080000f1   Thumb Code     0  entry5.o(.ARM.Collect$$$$00000004)
    __main_after_scatterload                 0x080000f5   Thumb Code     0  entry5.o(.ARM.Collect$$$$00000004)
    _main_clock                              0x080000f5   Thumb Code     0  entry7b.o(.ARM.Collect$$$$00000008)
    _main_cpp_init                           0x080000f5   Thumb Code     0  entry8b.o(.ARM.Collect$$$$0000000A)
    _main_init                               0x080000f5   Thumb Code     0  entry9a.o(.ARM.Collect$$$$0000000B)
    __rt_final_cpp                           0x080000fd   Thumb Code     0  entry10a.o(.ARM.Collect$$$$0000000D)
    __rt_final_exit                          0x080000fd   Thumb Code     0  entry11a.o(.ARM.Collect$$$$0000000F)
    Reset_Handler                            0x08000101   Thumb Code     8  startup_stm32f103xb.o(.text)
    ADC1_2_IRQHandler                        0x0800011b   Thumb Code     0  startup_stm32f103xb.o(.text)
    CAN1_RX1_IRQHandler                      0x0800011b   Thumb Code     0  startup_stm32f103xb.o(.text)
    CAN1_SCE_IRQHandler                      0x0800011b   Thumb Code     0  startup_stm32f103xb.o(.text)
    DMA1_Channel1_IRQHandler                 0x0800011b   Thumb Code     0  startup_stm32f103xb.o(.text)
    DMA1_Channel2_IRQHandler                 0x0800011b   Thumb Code     0  startup_stm32f103xb.o(.text)
    DMA1_Channel3_IRQHandler                 0x0800011b   Thumb Code     0  startup_stm32f103xb.o(.text)
    DMA1_Channel5_IRQHandler                 0x0800011b   Thumb Code     0  startup_stm32f103xb.o(.text)
    DMA1_Channel6_IRQHandler                 0x0800011b   Thumb Code     0  startup_stm32f103xb.o(.text)
    DMA1_Channel7_IRQHandler                 0x0800011b   Thumb Code     0  startup_stm32f103xb.o(.text)
    EXTI0_IRQHandler                         0x0800011b   Thumb Code     0  startup_stm32f103xb.o(.text)
    EXTI15_10_IRQHandler                     0x0800011b   Thumb Code     0  startup_stm32f103xb.o(.text)
    EXTI1_IRQHandler                         0x0800011b   Thumb Code     0  startup_stm32f103xb.o(.text)
    EXTI2_IRQHandler                         0x0800011b   Thumb Code     0  startup_stm32f103xb.o(.text)
    EXTI3_IRQHandler                         0x0800011b   Thumb Code     0  startup_stm32f103xb.o(.text)
    EXTI4_IRQHandler                         0x0800011b   Thumb Code     0  startup_stm32f103xb.o(.text)
    EXTI9_5_IRQHandler                       0x0800011b   Thumb Code     0  startup_stm32f103xb.o(.text)
    FLASH_IRQHandler                         0x0800011b   Thumb Code     0  startup_stm32f103xb.o(.text)
    I2C1_ER_IRQHandler                       0x0800011b   Thumb Code     0  startup_stm32f103xb.o(.text)
    I2C1_EV_IRQHandler                       0x0800011b   Thumb Code     0  startup_stm32f103xb.o(.text)
    I2C2_ER_IRQHandler                       0x0800011b   Thumb Code     0  startup_stm32f103xb.o(.text)
    I2C2_EV_IRQHandler                       0x0800011b   Thumb Code     0  startup_stm32f103xb.o(.text)
    PVD_IRQHandler                           0x0800011b   Thumb Code     0  startup_stm32f103xb.o(.text)
    RCC_IRQHandler                           0x0800011b   Thumb Code     0  startup_stm32f103xb.o(.text)
    RTC_Alarm_IRQHandler                     0x0800011b   Thumb Code     0  startup_stm32f103xb.o(.text)
    RTC_IRQHandler                           0x0800011b   Thumb Code     0  startup_stm32f103xb.o(.text)
    SPI1_IRQHandler                          0x0800011b   Thumb Code     0  startup_stm32f103xb.o(.text)
    SPI2_IRQHandler                          0x0800011b   Thumb Code     0  startup_stm32f103xb.o(.text)
    TAMPER_IRQHandler                        0x0800011b   Thumb Code     0  startup_stm32f103xb.o(.text)
    TIM1_BRK_IRQHandler                      0x0800011b   Thumb Code     0  startup_stm32f103xb.o(.text)
    TIM1_CC_IRQHandler                       0x0800011b   Thumb Code     0  startup_stm32f103xb.o(.text)
    TIM1_TRG_COM_IRQHandler                  0x0800011b   Thumb Code     0  startup_stm32f103xb.o(.text)
    TIM1_UP_IRQHandler                       0x0800011b   Thumb Code     0  startup_stm32f103xb.o(.text)
    TIM2_IRQHandler                          0x0800011b   Thumb Code     0  startup_stm32f103xb.o(.text)
    TIM3_IRQHandler                          0x0800011b   Thumb Code     0  startup_stm32f103xb.o(.text)
    TIM4_IRQHandler                          0x0800011b   Thumb Code     0  startup_stm32f103xb.o(.text)
    USART2_IRQHandler                        0x0800011b   Thumb Code     0  startup_stm32f103xb.o(.text)
    USART3_IRQHandler                        0x0800011b   Thumb Code     0  startup_stm32f103xb.o(.text)
    USBWakeUp_IRQHandler                     0x0800011b   Thumb Code     0  startup_stm32f103xb.o(.text)
    USB_HP_CAN1_TX_IRQHandler                0x0800011b   Thumb Code     0  startup_stm32f103xb.o(.text)
    USB_LP_CAN1_RX0_IRQHandler               0x0800011b   Thumb Code     0  startup_stm32f103xb.o(.text)
    WWDG_IRQHandler                          0x0800011b   Thumb Code     0  startup_stm32f103xb.o(.text)
    __aeabi_ldivmod                          0x08000125   Thumb Code    98  ldiv.o(.text)
    __aeabi_llsr                             0x08000187   Thumb Code    32  llushr.o(.text)
    _ll_ushift_r                             0x08000187   Thumb Code     0  llushr.o(.text)
    __aeabi_memset                           0x080001a7   Thumb Code    14  memseta.o(.text)
    __aeabi_memset4                          0x080001a7   Thumb Code     0  memseta.o(.text)
    __aeabi_memset8                          0x080001a7   Thumb Code     0  memseta.o(.text)
    __aeabi_memclr                           0x080001b5   Thumb Code     4  memseta.o(.text)
    __aeabi_memclr4                          0x080001b5   Thumb Code     0  memseta.o(.text)
    __aeabi_memclr8                          0x080001b5   Thumb Code     0  memseta.o(.text)
    _memset$wrapper                          0x080001b9   Thumb Code    18  memseta.o(.text)
    memcmp                                   0x080001cb   Thumb Code    26  memcmp.o(.text)
    __aeabi_fadd                             0x080001e5   Thumb Code   164  fadd.o(.text)
    __aeabi_fsub                             0x08000289   Thumb Code     6  fadd.o(.text)
    __aeabi_frsub                            0x0800028f   Thumb Code     6  fadd.o(.text)
    __aeabi_fmul                             0x08000295   Thumb Code   100  fmul.o(.text)
    __aeabi_fdiv                             0x080002f9   Thumb Code   124  fdiv.o(.text)
    __ARM_scalbnf                            0x08000375   Thumb Code    24  fscalb.o(.text)
    scalbnf                                  0x08000375   Thumb Code     0  fscalb.o(.text)
    __aeabi_dadd                             0x0800038d   Thumb Code   322  dadd.o(.text)
    __aeabi_dsub                             0x080004cf   Thumb Code     6  dadd.o(.text)
    __aeabi_drsub                            0x080004d5   Thumb Code     6  dadd.o(.text)
    __aeabi_dmul                             0x080004db   Thumb Code   228  dmul.o(.text)
    __aeabi_ddiv                             0x080005bf   Thumb Code   222  ddiv.o(.text)
    __aeabi_i2f                              0x0800069d   Thumb Code    18  fflti.o(.text)
    __aeabi_ui2f                             0x080006af   Thumb Code    10  ffltui.o(.text)
    __aeabi_f2iz                             0x080006b9   Thumb Code    50  ffixi.o(.text)
    __aeabi_f2uiz                            0x080006eb   Thumb Code    40  ffixui.o(.text)
    __aeabi_f2d                              0x08000713   Thumb Code    38  f2d.o(.text)
    __aeabi_d2f                              0x08000739   Thumb Code    56  d2f.o(.text)
    __aeabi_uidiv                            0x08000771   Thumb Code     0  uidiv.o(.text)
    __aeabi_uidivmod                         0x08000771   Thumb Code    44  uidiv.o(.text)
    __aeabi_uldivmod                         0x0800079d   Thumb Code    98  uldiv.o(.text)
    __aeabi_llsl                             0x080007ff   Thumb Code    30  llshl.o(.text)
    _ll_shift_l                              0x080007ff   Thumb Code     0  llshl.o(.text)
    __aeabi_lasr                             0x0800081d   Thumb Code    36  llsshr.o(.text)
    _ll_sshift_r                             0x0800081d   Thumb Code     0  llsshr.o(.text)
    __I$use$fp                               0x08000841   Thumb Code     0  iusefp.o(.text)
    _float_round                             0x08000841   Thumb Code    18  fepilogue.o(.text)
    _float_epilogue                          0x08000853   Thumb Code    92  fepilogue.o(.text)
    _double_round                            0x080008af   Thumb Code    30  depilogue.o(.text)
    _double_epilogue                         0x080008cd   Thumb Code   156  depilogue.o(.text)
    __ARM_scalbn                             0x08000969   Thumb Code    46  dscalb.o(.text)
    scalbn                                   0x08000969   Thumb Code     0  dscalb.o(.text)
    __aeabi_d2ulz                            0x08000997   Thumb Code    48  dfixul.o(.text)
    __aeabi_cdrcmple                         0x080009c9   Thumb Code    48  cdrcmple.o(.text)
    __scatterload                            0x080009f9   Thumb Code    28  init.o(.text)
    __scatterload_rt2                        0x080009f9   Thumb Code     0  init.o(.text)
    _dsqrt                                   0x08000a1d   Thumb Code   162  dsqrt.o(.text)
    BusFault_Handler                         0x08000abf   Thumb Code     2  stm32f1xx_it.o(i.BusFault_Handler)
    DMA1_Channel4_IRQHandler                 0x08000ac1   Thumb Code     6  stm32f1xx_it.o(i.DMA1_Channel4_IRQHandler)
    DMP_Read_Len                             0x08000af9   Thumb Code    38  mpu6050.o(i.DMP_Read_Len)
    DMP_Write_Len                            0x08000b25   Thumb Code    38  mpu6050.o(i.DMP_Write_Len)
    DebugMon_Handler                         0x08000b51   Thumb Code     2  stm32f1xx_it.o(i.DebugMon_Handler)
    Error_Handler                            0x08000b53   Thumb Code     4  main.o(i.Error_Handler)
    HAL_DMA_Abort                            0x08000b57   Thumb Code    70  stm32f1xx_hal_dma.o(i.HAL_DMA_Abort)
    HAL_DMA_Abort_IT                         0x08000b9d   Thumb Code   148  stm32f1xx_hal_dma.o(i.HAL_DMA_Abort_IT)
    HAL_DMA_IRQHandler                       0x08000c35   Thumb Code   316  stm32f1xx_hal_dma.o(i.HAL_DMA_IRQHandler)
    HAL_DMA_Init                             0x08000d89   Thumb Code    84  stm32f1xx_hal_dma.o(i.HAL_DMA_Init)
    HAL_DMA_Start_IT                         0x08000de5   Thumb Code   112  stm32f1xx_hal_dma.o(i.HAL_DMA_Start_IT)
    HAL_Delay                                0x08000e55   Thumb Code    32  stm32f1xx_hal.o(i.HAL_Delay)
    HAL_GPIO_Init                            0x08000e79   Thumb Code   446  stm32f1xx_hal_gpio.o(i.HAL_GPIO_Init)
    HAL_GetTick                              0x08001059   Thumb Code     6  stm32f1xx_hal.o(i.HAL_GetTick)
    HAL_I2C_Init                             0x08001065   Thumb Code   376  stm32f1xx_hal_i2c.o(i.HAL_I2C_Init)
    HAL_I2C_Master_Transmit                  0x080011ed   Thumb Code   290  stm32f1xx_hal_i2c.o(i.HAL_I2C_Master_Transmit)
    HAL_I2C_Mem_Read                         0x08001319   Thumb Code   574  stm32f1xx_hal_i2c.o(i.HAL_I2C_Mem_Read)
    HAL_I2C_Mem_Write                        0x08001569   Thumb Code   294  stm32f1xx_hal_i2c.o(i.HAL_I2C_Mem_Write)
    HAL_I2C_MspInit                          0x08001699   Thumb Code    80  i2c.o(i.HAL_I2C_MspInit)
    HAL_IncTick                              0x080016f5   Thumb Code    12  stm32f1xx_hal.o(i.HAL_IncTick)
    HAL_Init                                 0x08001705   Thumb Code    32  stm32f1xx_hal.o(i.HAL_Init)
    HAL_InitTick                             0x08001729   Thumb Code    54  stm32f1xx_hal.o(i.HAL_InitTick)
    HAL_MspInit                              0x08001769   Thumb Code    52  stm32f1xx_hal_msp.o(i.HAL_MspInit)
    HAL_NVIC_EnableIRQ                       0x080017a5   Thumb Code    26  stm32f1xx_hal_cortex.o(i.HAL_NVIC_EnableIRQ)
    HAL_NVIC_SetPriority                     0x080017c1   Thumb Code    60  stm32f1xx_hal_cortex.o(i.HAL_NVIC_SetPriority)
    HAL_NVIC_SetPriorityGrouping             0x08001801   Thumb Code    26  stm32f1xx_hal_cortex.o(i.HAL_NVIC_SetPriorityGrouping)
    HAL_RCC_ClockConfig                      0x08001825   Thumb Code   280  stm32f1xx_hal_rcc.o(i.HAL_RCC_ClockConfig)
    HAL_RCC_GetPCLK1Freq                     0x08001951   Thumb Code    20  stm32f1xx_hal_rcc.o(i.HAL_RCC_GetPCLK1Freq)
    HAL_RCC_GetPCLK2Freq                     0x08001971   Thumb Code    20  stm32f1xx_hal_rcc.o(i.HAL_RCC_GetPCLK2Freq)
    HAL_RCC_GetSysClockFreq                  0x08001991   Thumb Code    58  stm32f1xx_hal_rcc.o(i.HAL_RCC_GetSysClockFreq)
    HAL_RCC_OscConfig                        0x080019dd   Thumb Code   778  stm32f1xx_hal_rcc.o(i.HAL_RCC_OscConfig)
    HAL_SYSTICK_Config                       0x08001cfd   Thumb Code    40  stm32f1xx_hal_cortex.o(i.HAL_SYSTICK_Config)
    HAL_UARTEx_RxEventCallback               0x08001d25   Thumb Code     2  stm32f1xx_hal_uart.o(i.HAL_UARTEx_RxEventCallback)
    HAL_UART_ErrorCallback                   0x08001d27   Thumb Code     2  stm32f1xx_hal_uart.o(i.HAL_UART_ErrorCallback)
    HAL_UART_IRQHandler                      0x08001d29   Thumb Code   616  stm32f1xx_hal_uart.o(i.HAL_UART_IRQHandler)
    HAL_UART_Init                            0x08001f95   Thumb Code   100  stm32f1xx_hal_uart.o(i.HAL_UART_Init)
    HAL_UART_MspInit                         0x08001ff9   Thumb Code   158  usart.o(i.HAL_UART_MspInit)
    HAL_UART_RxCpltCallback                  0x080020ad   Thumb Code     2  stm32f1xx_hal_uart.o(i.HAL_UART_RxCpltCallback)
    HAL_UART_Transmit                        0x080020af   Thumb Code   154  stm32f1xx_hal_uart.o(i.HAL_UART_Transmit)
    HAL_UART_Transmit_DMA                    0x08002149   Thumb Code   106  stm32f1xx_hal_uart.o(i.HAL_UART_Transmit_DMA)
    HAL_UART_TxCpltCallback                  0x080021c1   Thumb Code     2  stm32f1xx_hal_uart.o(i.HAL_UART_TxCpltCallback)
    HAL_UART_TxHalfCpltCallback              0x080021c3   Thumb Code     2  stm32f1xx_hal_uart.o(i.HAL_UART_TxHalfCpltCallback)
    HardFault_Handler                        0x080021c5   Thumb Code     2  stm32f1xx_it.o(i.HardFault_Handler)
    MPU_Init                                 0x0800269f   Thumb Code   114  mpu6050.o(i.MPU_Init)
    MPU_Read_Byte                            0x08002711   Thumb Code    52  mpu6050.o(i.MPU_Read_Byte)
    MPU_Set_Accel_Fsr                        0x08002749   Thumb Code    10  mpu6050.o(i.MPU_Set_Accel_Fsr)
    MPU_Set_Gyro_Fsr                         0x08002753   Thumb Code    10  mpu6050.o(i.MPU_Set_Gyro_Fsr)
    MPU_Set_LPF                              0x0800275d   Thumb Code    48  mpu6050.o(i.MPU_Set_LPF)
    MPU_Set_Rate                             0x0800278d   Thumb Code    46  mpu6050.o(i.MPU_Set_Rate)
    MPU_Write_Byte                           0x080027bd   Thumb Code    46  mpu6050.o(i.MPU_Write_Byte)
    MX_DMA_Init                              0x080027f1   Thumb Code    40  dma.o(i.MX_DMA_Init)
    MX_GPIO_Init                             0x0800281d   Thumb Code    70  gpio.o(i.MX_GPIO_Init)
    MX_I2C1_Init                             0x08002869   Thumb Code    50  i2c.o(i.MX_I2C1_Init)
    MX_USART1_UART_Init                      0x080028a9   Thumb Code    48  usart.o(i.MX_USART1_UART_Init)
    MemManage_Handler                        0x080028e1   Thumb Code     2  stm32f1xx_it.o(i.MemManage_Handler)
    NMI_Handler                              0x080028e3   Thumb Code     2  stm32f1xx_it.o(i.NMI_Handler)
    PendSV_Handler                           0x080028e5   Thumb Code     2  stm32f1xx_it.o(i.PendSV_Handler)
    SVC_Handler                              0x080028e7   Thumb Code     2  stm32f1xx_it.o(i.SVC_Handler)
    SysTick_Handler                          0x080028e9   Thumb Code     4  stm32f1xx_it.o(i.SysTick_Handler)
    SystemClock_Config                       0x080028ed   Thumb Code    94  main.o(i.SystemClock_Config)
    SystemInit                               0x0800294b   Thumb Code     2  system_stm32f1xx.o(i.SystemInit)
    USART1_IRQHandler                        0x08002c51   Thumb Code     6  stm32f1xx_it.o(i.USART1_IRQHandler)
    UsageFault_Handler                       0x08002c5d   Thumb Code     2  stm32f1xx_it.o(i.UsageFault_Handler)
    __0printf                                0x08002c61   Thumb Code    22  printfa.o(i.__0printf)
    __1printf                                0x08002c61   Thumb Code     0  printfa.o(i.__0printf)
    __2printf                                0x08002c61   Thumb Code     0  printfa.o(i.__0printf)
    __c89printf                              0x08002c61   Thumb Code     0  printfa.o(i.__0printf)
    printf                                   0x08002c61   Thumb Code     0  printfa.o(i.__0printf)
    __0snprintf                              0x08002c81   Thumb Code    44  printfa.o(i.__0snprintf)
    __1snprintf                              0x08002c81   Thumb Code     0  printfa.o(i.__0snprintf)
    __2snprintf                              0x08002c81   Thumb Code     0  printfa.o(i.__0snprintf)
    __c89snprintf                            0x08002c81   Thumb Code     0  printfa.o(i.__0snprintf)
    snprintf                                 0x08002c81   Thumb Code     0  printfa.o(i.__0snprintf)
    __ARM_fpclassify                         0x08002cb1   Thumb Code    40  fpclassify.o(i.__ARM_fpclassify)
    __kernel_poly                            0x08002cf9   Thumb Code   170  poly.o(i.__kernel_poly)
    __mathlib_dbl_infnan                     0x08002da3   Thumb Code     6  dunder.o(i.__mathlib_dbl_infnan)
    __mathlib_dbl_infnan2                    0x08002da9   Thumb Code     4  dunder.o(i.__mathlib_dbl_infnan2)
    __mathlib_dbl_invalid                    0x08002dad   Thumb Code    12  dunder.o(i.__mathlib_dbl_invalid)
    __mathlib_dbl_underflow                  0x08002db9   Thumb Code    10  dunder.o(i.__mathlib_dbl_underflow)
    __scatterload_copy                       0x08002dc9   Thumb Code    14  handlers.o(i.__scatterload_copy)
    __scatterload_null                       0x08002dd7   Thumb Code     2  handlers.o(i.__scatterload_null)
    __scatterload_zeroinit                   0x08002dd9   Thumb Code    14  handlers.o(i.__scatterload_zeroinit)
    __set_errno                              0x08002de9   Thumb Code     6  errno.o(i.__set_errno)
    asin                                     0x0800373d   Thumb Code   572  asin.o(i.asin)
    atan                                     0x080039ad   Thumb Code   474  atan.o(i.atan)
    atan2                                    0x08003bcd   Thumb Code   346  atan2.o(i.atan2)
    dmp_enable_6x_lp_quat                    0x08003d4d   Thumb Code    58  inv_mpu_dmp_motion_driver.o(i.dmp_enable_6x_lp_quat)
    dmp_enable_feature                       0x08003d89   Thumb Code   464  inv_mpu_dmp_motion_driver.o(i.dmp_enable_feature)
    dmp_enable_gyro_cal                      0x08003f61   Thumb Code    34  inv_mpu_dmp_motion_driver.o(i.dmp_enable_gyro_cal)
    dmp_enable_lp_quat                       0x08003f9d   Thumb Code    58  inv_mpu_dmp_motion_driver.o(i.dmp_enable_lp_quat)
    dmp_load_motion_driver_firmware          0x08003fd9   Thumb Code    16  inv_mpu_dmp_motion_driver.o(i.dmp_load_motion_driver_firmware)
    dmp_read_fifo                            0x08003fed   Thumb Code   320  inv_mpu_dmp_motion_driver.o(i.dmp_read_fifo)
    dmp_set_accel_bias                       0x08004131   Thumb Code   210  inv_mpu_dmp_motion_driver.o(i.dmp_set_accel_bias)
    dmp_set_fifo_rate                        0x08004209   Thumb Code    82  inv_mpu_dmp_motion_driver.o(i.dmp_set_fifo_rate)
    dmp_set_gyro_bias                        0x0800426d   Thumb Code   196  inv_mpu_dmp_motion_driver.o(i.dmp_set_gyro_bias)
    dmp_set_orientation                      0x08004339   Thumb Code   246  inv_mpu_dmp_motion_driver.o(i.dmp_set_orientation)
    dmp_set_shake_reject_thresh              0x08004445   Thumb Code    48  inv_mpu_dmp_motion_driver.o(i.dmp_set_shake_reject_thresh)
    dmp_set_shake_reject_time                0x08004475   Thumb Code    32  inv_mpu_dmp_motion_driver.o(i.dmp_set_shake_reject_time)
    dmp_set_shake_reject_timeout             0x08004495   Thumb Code    32  inv_mpu_dmp_motion_driver.o(i.dmp_set_shake_reject_timeout)
    dmp_set_tap_axes                         0x080044b5   Thumb Code    64  inv_mpu_dmp_motion_driver.o(i.dmp_set_tap_axes)
    dmp_set_tap_count                        0x080044f5   Thumb Code    34  inv_mpu_dmp_motion_driver.o(i.dmp_set_tap_count)
    dmp_set_tap_thresh                       0x08004519   Thumb Code   274  inv_mpu_dmp_motion_driver.o(i.dmp_set_tap_thresh)
    dmp_set_tap_time                         0x08004641   Thumb Code    32  inv_mpu_dmp_motion_driver.o(i.dmp_set_tap_time)
    dmp_set_tap_time_multi                   0x08004661   Thumb Code    32  inv_mpu_dmp_motion_driver.o(i.dmp_set_tap_time_multi)
    fputc                                    0x08004681   Thumb Code    20  usart.o(i.fputc)
    inv_orientation_matrix_to_scalar         0x08004b2d   Thumb Code    34  inv_mpu.o(i.inv_orientation_matrix_to_scalar)
    inv_row_2_scale                          0x08004b4f   Thumb Code    72  inv_mpu.o(i.inv_row_2_scale)
    main                                     0x08004b99   Thumb Code    84  main.o(i.main)
    mget_ms                                  0x08004c0d   Thumb Code     2  inv_mpu.o(i.mget_ms)
    mpu_configure_fifo                       0x08004c11   Thumb Code    78  inv_mpu.o(i.mpu_configure_fifo)
    mpu_dmp_get_data                         0x08004c65   Thumb Code   408  inv_mpu.o(i.mpu_dmp_get_data)
    mpu_dmp_init                             0x08004e01   Thumb Code   154  inv_mpu.o(i.mpu_dmp_init)
    mpu_get_accel_fsr                        0x08004ea1   Thumb Code    54  inv_mpu.o(i.mpu_get_accel_fsr)
    mpu_get_accel_sens                       0x08004edd   Thumb Code    62  inv_mpu.o(i.mpu_get_accel_sens)
    mpu_get_gyro_fsr                         0x08004f21   Thumb Code    48  inv_mpu.o(i.mpu_get_gyro_fsr)
    mpu_get_gyro_sens                        0x08004f55   Thumb Code    44  inv_mpu.o(i.mpu_get_gyro_sens)
    mpu_get_lpf                              0x08004f95   Thumb Code    52  inv_mpu.o(i.mpu_get_lpf)
    mpu_get_sample_rate                      0x08004fcd   Thumb Code    22  inv_mpu.o(i.mpu_get_sample_rate)
    mpu_init                                 0x08004fe9   Thumb Code   310  inv_mpu.o(i.mpu_init)
    mpu_load_firmware                        0x08005171   Thumb Code   154  inv_mpu.o(i.mpu_load_firmware)
    mpu_lp_accel_mode                        0x08005211   Thumb Code   178  inv_mpu.o(i.mpu_lp_accel_mode)
    mpu_read_fifo_stream                     0x080052c9   Thumb Code   140  inv_mpu.o(i.mpu_read_fifo_stream)
    mpu_read_mem                             0x08005359   Thumb Code    80  inv_mpu.o(i.mpu_read_mem)
    mpu_reset_fifo                           0x080053ad   Thumb Code   346  inv_mpu.o(i.mpu_reset_fifo)
    mpu_run_self_test                        0x0800550d   Thumb Code   234  inv_mpu.o(i.mpu_run_self_test)
    mpu_set_accel_fsr                        0x080055fd   Thumb Code    98  inv_mpu.o(i.mpu_set_accel_fsr)
    mpu_set_bypass                           0x08005665   Thumb Code   214  inv_mpu.o(i.mpu_set_bypass)
    mpu_set_dmp_state                        0x08005741   Thumb Code   114  inv_mpu.o(i.mpu_set_dmp_state)
    mpu_set_gyro_fsr                         0x080057b9   Thumb Code   104  inv_mpu.o(i.mpu_set_gyro_fsr)
    mpu_set_int_latched                      0x08005825   Thumb Code    94  inv_mpu.o(i.mpu_set_int_latched)
    mpu_set_lpf                              0x08005889   Thumb Code   102  inv_mpu.o(i.mpu_set_lpf)
    mpu_set_sample_rate                      0x080058f5   Thumb Code   124  inv_mpu.o(i.mpu_set_sample_rate)
    mpu_set_sensors                          0x08005975   Thumb Code   178  inv_mpu.o(i.mpu_set_sensors)
    mpu_write_mem                            0x08005a2d   Thumb Code    80  inv_mpu.o(i.mpu_write_mem)
    run_self_test                            0x08005a81   Thumb Code   128  inv_mpu.o(i.run_self_test)
    selectPort                               0x08005b01   Thumb Code    34  pca9548.o(i.selectPort)
    sentData_Uart                            0x08005b29   Thumb Code   118  main.o(i.sentData_Uart)
    sqrt                                     0x08005c1d   Thumb Code    76  sqrt.o(i.sqrt)
    AHBPrescTable                            0x08005c7a   Data          16  system_stm32f1xx.o(.constdata)
    APBPrescTable                            0x08005c8a   Data           8  system_stm32f1xx.o(.constdata)
    reg                                      0x08005c92   Data          27  inv_mpu.o(.constdata)
    hw                                       0x08005cae   Data          12  inv_mpu.o(.constdata)
    test                                     0x08005cbc   Data          40  inv_mpu.o(.constdata)
    __mathlib_zero                           0x080069c8   Data           8  qnan.o(.constdata)
    Region$$Table$$Base                      0x08006a20   Number         0  anon$$obj.o(Region$$Table)
    Region$$Table$$Limit                     0x08006a40   Number         0  anon$$obj.o(Region$$Table)
    pitch                                    0x20000000   Data           4  main.o(.data)
    roll                                     0x20000004   Data           4  main.o(.data)
    yaw                                      0x20000008   Data           4  main.o(.data)
    uwTickFreq                               0x2000000c   Data           1  stm32f1xx_hal.o(.data)
    uwTickPrio                               0x20000010   Data           4  stm32f1xx_hal.o(.data)
    uwTick                                   0x20000014   Data           4  stm32f1xx_hal.o(.data)
    SystemCoreClock                          0x20000018   Data           4  system_stm32f1xx.o(.data)
    __stdout                                 0x20000054   Data           4  stdout.o(.data)
    txBuf                                    0x2000005c   Data          50  main.o(.bss)
    hi2c1                                    0x20000090   Data          84  i2c.o(.bss)
    huart1                                   0x200000e4   Data          72  usart.o(.bss)
    hdma_usart1_tx                           0x2000012c   Data          68  usart.o(.bss)
    __initial_sp                             0x20000580   Data           0  startup_stm32f103xb.o(STACK)



==============================================================================

Memory Map of the image

  Image Entry point : 0x080000ed

  Load Region LR_IROM1 (Base: 0x08000000, Size: 0x00006a9c, Max: 0x00010000, ABSOLUTE)

    Execution Region ER_IROM1 (Exec base: 0x08000000, Load base: 0x08000000, Size: 0x00006a40, Max: 0x00010000, ABSOLUTE)

    Exec Addr    Load Addr    Size         Type   Attr      Idx    E Section Name        Object

    0x08000000   0x08000000   0x000000ec   Data   RO            3    RESET               startup_stm32f103xb.o
    0x080000ec   0x080000ec   0x00000000   Code   RO         3009  * .ARM.Collect$$$$00000000  mc_w.l(entry.o)
    0x080000ec   0x080000ec   0x00000004   Code   RO         3346    .ARM.Collect$$$$00000001  mc_w.l(entry2.o)
    0x080000f0   0x080000f0   0x00000004   Code   RO         3349    .ARM.Collect$$$$00000004  mc_w.l(entry5.o)
    0x080000f4   0x080000f4   0x00000000   Code   RO         3351    .ARM.Collect$$$$00000008  mc_w.l(entry7b.o)
    0x080000f4   0x080000f4   0x00000000   Code   RO         3353    .ARM.Collect$$$$0000000A  mc_w.l(entry8b.o)
    0x080000f4   0x080000f4   0x00000008   Code   RO         3354    .ARM.Collect$$$$0000000B  mc_w.l(entry9a.o)
    0x080000fc   0x080000fc   0x00000000   Code   RO         3356    .ARM.Collect$$$$0000000D  mc_w.l(entry10a.o)
    0x080000fc   0x080000fc   0x00000000   Code   RO         3358    .ARM.Collect$$$$0000000F  mc_w.l(entry11a.o)
    0x080000fc   0x080000fc   0x00000004   Code   RO         3347    .ARM.Collect$$$$00002712  mc_w.l(entry2.o)
    0x08000100   0x08000100   0x00000024   Code   RO            4    .text               startup_stm32f103xb.o
    0x08000124   0x08000124   0x00000062   Code   RO         3012    .text               mc_w.l(ldiv.o)
    0x08000186   0x08000186   0x00000020   Code   RO         3014    .text               mc_w.l(llushr.o)
    0x080001a6   0x080001a6   0x00000024   Code   RO         3016    .text               mc_w.l(memseta.o)
    0x080001ca   0x080001ca   0x0000001a   Code   RO         3018    .text               mc_w.l(memcmp.o)
    0x080001e4   0x080001e4   0x000000b0   Code   RO         3281    .text               mf_w.l(fadd.o)
    0x08000294   0x08000294   0x00000064   Code   RO         3283    .text               mf_w.l(fmul.o)
    0x080002f8   0x080002f8   0x0000007c   Code   RO         3285    .text               mf_w.l(fdiv.o)
    0x08000374   0x08000374   0x00000018   Code   RO         3287    .text               mf_w.l(fscalb.o)
    0x0800038c   0x0800038c   0x0000014e   Code   RO         3289    .text               mf_w.l(dadd.o)
    0x080004da   0x080004da   0x000000e4   Code   RO         3291    .text               mf_w.l(dmul.o)
    0x080005be   0x080005be   0x000000de   Code   RO         3293    .text               mf_w.l(ddiv.o)
    0x0800069c   0x0800069c   0x00000012   Code   RO         3295    .text               mf_w.l(fflti.o)
    0x080006ae   0x080006ae   0x0000000a   Code   RO         3297    .text               mf_w.l(ffltui.o)
    0x080006b8   0x080006b8   0x00000032   Code   RO         3301    .text               mf_w.l(ffixi.o)
    0x080006ea   0x080006ea   0x00000028   Code   RO         3303    .text               mf_w.l(ffixui.o)
    0x08000712   0x08000712   0x00000026   Code   RO         3305    .text               mf_w.l(f2d.o)
    0x08000738   0x08000738   0x00000038   Code   RO         3307    .text               mf_w.l(d2f.o)
    0x08000770   0x08000770   0x0000002c   Code   RO         3361    .text               mc_w.l(uidiv.o)
    0x0800079c   0x0800079c   0x00000062   Code   RO         3363    .text               mc_w.l(uldiv.o)
    0x080007fe   0x080007fe   0x0000001e   Code   RO         3365    .text               mc_w.l(llshl.o)
    0x0800081c   0x0800081c   0x00000024   Code   RO         3367    .text               mc_w.l(llsshr.o)
    0x08000840   0x08000840   0x00000000   Code   RO         3376    .text               mc_w.l(iusefp.o)
    0x08000840   0x08000840   0x0000006e   Code   RO         3377    .text               mf_w.l(fepilogue.o)
    0x080008ae   0x080008ae   0x000000ba   Code   RO         3379    .text               mf_w.l(depilogue.o)
    0x08000968   0x08000968   0x0000002e   Code   RO         3381    .text               mf_w.l(dscalb.o)
    0x08000996   0x08000996   0x00000030   Code   RO         3383    .text               mf_w.l(dfixul.o)
    0x080009c6   0x080009c6   0x00000002   PAD
    0x080009c8   0x080009c8   0x00000030   Code   RO         3385    .text               mf_w.l(cdrcmple.o)
    0x080009f8   0x080009f8   0x00000024   Code   RO         3387    .text               mc_w.l(init.o)
    0x08000a1c   0x08000a1c   0x000000a2   Code   RO         3389    .text               mf_w.l(dsqrt.o)
    0x08000abe   0x08000abe   0x00000002   Code   RO          321    i.BusFault_Handler  stm32f1xx_it.o
    0x08000ac0   0x08000ac0   0x0000000c   Code   RO          322    i.DMA1_Channel4_IRQHandler  stm32f1xx_it.o
    0x08000acc   0x08000acc   0x0000002a   Code   RO         1286    i.DMA_SetConfig     stm32f1xx_hal_dma.o
    0x08000af6   0x08000af6   0x00000002   PAD
    0x08000af8   0x08000af8   0x0000002c   Code   RO         2320    i.DMP_Read_Len      mpu6050.o
    0x08000b24   0x08000b24   0x0000002c   Code   RO         2321    i.DMP_Write_Len     mpu6050.o
    0x08000b50   0x08000b50   0x00000002   Code   RO          323    i.DebugMon_Handler  stm32f1xx_it.o
    0x08000b52   0x08000b52   0x00000004   Code   RO           13    i.Error_Handler     main.o
    0x08000b56   0x08000b56   0x00000046   Code   RO         1287    i.HAL_DMA_Abort     stm32f1xx_hal_dma.o
    0x08000b9c   0x08000b9c   0x00000098   Code   RO         1288    i.HAL_DMA_Abort_IT  stm32f1xx_hal_dma.o
    0x08000c34   0x08000c34   0x00000154   Code   RO         1292    i.HAL_DMA_IRQHandler  stm32f1xx_hal_dma.o
    0x08000d88   0x08000d88   0x0000005c   Code   RO         1293    i.HAL_DMA_Init      stm32f1xx_hal_dma.o
    0x08000de4   0x08000de4   0x00000070   Code   RO         1297    i.HAL_DMA_Start_IT  stm32f1xx_hal_dma.o
    0x08000e54   0x08000e54   0x00000024   Code   RO          913    i.HAL_Delay         stm32f1xx_hal.o
    0x08000e78   0x08000e78   0x000001e0   Code   RO         1223    i.HAL_GPIO_Init     stm32f1xx_hal_gpio.o
    0x08001058   0x08001058   0x0000000c   Code   RO          917    i.HAL_GetTick       stm32f1xx_hal.o
    0x08001064   0x08001064   0x00000188   Code   RO          480    i.HAL_I2C_Init      stm32f1xx_hal_i2c.o
    0x080011ec   0x080011ec   0x0000012c   Code   RO          493    i.HAL_I2C_Master_Transmit  stm32f1xx_hal_i2c.o
    0x08001318   0x08001318   0x00000250   Code   RO          498    i.HAL_I2C_Mem_Read  stm32f1xx_hal_i2c.o
    0x08001568   0x08001568   0x00000130   Code   RO          501    i.HAL_I2C_Mem_Write  stm32f1xx_hal_i2c.o
    0x08001698   0x08001698   0x0000005c   Code   RO          226    i.HAL_I2C_MspInit   i2c.o
    0x080016f4   0x080016f4   0x00000010   Code   RO          923    i.HAL_IncTick       stm32f1xx_hal.o
    0x08001704   0x08001704   0x00000024   Code   RO          924    i.HAL_Init          stm32f1xx_hal.o
    0x08001728   0x08001728   0x00000040   Code   RO          925    i.HAL_InitTick      stm32f1xx_hal.o
    0x08001768   0x08001768   0x0000003c   Code   RO          409    i.HAL_MspInit       stm32f1xx_hal_msp.o
    0x080017a4   0x080017a4   0x0000001a   Code   RO         1383    i.HAL_NVIC_EnableIRQ  stm32f1xx_hal_cortex.o
    0x080017be   0x080017be   0x00000002   PAD
    0x080017c0   0x080017c0   0x00000040   Code   RO         1389    i.HAL_NVIC_SetPriority  stm32f1xx_hal_cortex.o
    0x08001800   0x08001800   0x00000024   Code   RO         1390    i.HAL_NVIC_SetPriorityGrouping  stm32f1xx_hal_cortex.o
    0x08001824   0x08001824   0x0000012c   Code   RO         1081    i.HAL_RCC_ClockConfig  stm32f1xx_hal_rcc.o
    0x08001950   0x08001950   0x00000020   Code   RO         1088    i.HAL_RCC_GetPCLK1Freq  stm32f1xx_hal_rcc.o
    0x08001970   0x08001970   0x00000020   Code   RO         1089    i.HAL_RCC_GetPCLK2Freq  stm32f1xx_hal_rcc.o
    0x08001990   0x08001990   0x0000004c   Code   RO         1090    i.HAL_RCC_GetSysClockFreq  stm32f1xx_hal_rcc.o
    0x080019dc   0x080019dc   0x00000320   Code   RO         1093    i.HAL_RCC_OscConfig  stm32f1xx_hal_rcc.o
    0x08001cfc   0x08001cfc   0x00000028   Code   RO         1394    i.HAL_SYSTICK_Config  stm32f1xx_hal_cortex.o
    0x08001d24   0x08001d24   0x00000002   Code   RO         1931    i.HAL_UARTEx_RxEventCallback  stm32f1xx_hal_uart.o
    0x08001d26   0x08001d26   0x00000002   Code   RO         1945    i.HAL_UART_ErrorCallback  stm32f1xx_hal_uart.o
    0x08001d28   0x08001d28   0x0000026c   Code   RO         1948    i.HAL_UART_IRQHandler  stm32f1xx_hal_uart.o
    0x08001f94   0x08001f94   0x00000064   Code   RO         1949    i.HAL_UART_Init     stm32f1xx_hal_uart.o
    0x08001ff8   0x08001ff8   0x000000b4   Code   RO          268    i.HAL_UART_MspInit  usart.o
    0x080020ac   0x080020ac   0x00000002   Code   RO         1955    i.HAL_UART_RxCpltCallback  stm32f1xx_hal_uart.o
    0x080020ae   0x080020ae   0x0000009a   Code   RO         1957    i.HAL_UART_Transmit  stm32f1xx_hal_uart.o
    0x08002148   0x08002148   0x00000078   Code   RO         1958    i.HAL_UART_Transmit_DMA  stm32f1xx_hal_uart.o
    0x080021c0   0x080021c0   0x00000002   Code   RO         1960    i.HAL_UART_TxCpltCallback  stm32f1xx_hal_uart.o
    0x080021c2   0x080021c2   0x00000002   Code   RO         1961    i.HAL_UART_TxHalfCpltCallback  stm32f1xx_hal_uart.o
    0x080021c4   0x080021c4   0x00000002   Code   RO          324    i.HardFault_Handler  stm32f1xx_it.o
    0x080021c6   0x080021c6   0x0000002e   Code   RO          523    i.I2C_IsAcknowledgeFailed  stm32f1xx_hal_i2c.o
    0x080021f4   0x080021f4   0x0000009c   Code   RO          527    i.I2C_MasterRequestWrite  stm32f1xx_hal_i2c.o
    0x08002290   0x08002290   0x000000fc   Code   RO          533    i.I2C_RequestMemoryRead  stm32f1xx_hal_i2c.o
    0x0800238c   0x0800238c   0x000000a8   Code   RO          534    i.I2C_RequestMemoryWrite  stm32f1xx_hal_i2c.o
    0x08002434   0x08002434   0x00000056   Code   RO          538    i.I2C_WaitOnBTFFlagUntilTimeout  stm32f1xx_hal_i2c.o
    0x0800248a   0x0800248a   0x00000002   PAD
    0x0800248c   0x0800248c   0x00000090   Code   RO          539    i.I2C_WaitOnFlagUntilTimeout  stm32f1xx_hal_i2c.o
    0x0800251c   0x0800251c   0x000000bc   Code   RO          540    i.I2C_WaitOnMasterAddressFlagUntilTimeout  stm32f1xx_hal_i2c.o
    0x080025d8   0x080025d8   0x00000070   Code   RO          541    i.I2C_WaitOnRXNEFlagUntilTimeout  stm32f1xx_hal_i2c.o
    0x08002648   0x08002648   0x00000056   Code   RO          542    i.I2C_WaitOnTXEFlagUntilTimeout  stm32f1xx_hal_i2c.o
    0x0800269e   0x0800269e   0x00000072   Code   RO         2325    i.MPU_Init          mpu6050.o
    0x08002710   0x08002710   0x00000038   Code   RO         2326    i.MPU_Read_Byte     mpu6050.o
    0x08002748   0x08002748   0x0000000a   Code   RO         2328    i.MPU_Set_Accel_Fsr  mpu6050.o
    0x08002752   0x08002752   0x0000000a   Code   RO         2329    i.MPU_Set_Gyro_Fsr  mpu6050.o
    0x0800275c   0x0800275c   0x00000030   Code   RO         2330    i.MPU_Set_LPF       mpu6050.o
    0x0800278c   0x0800278c   0x0000002e   Code   RO         2331    i.MPU_Set_Rate      mpu6050.o
    0x080027ba   0x080027ba   0x00000002   PAD
    0x080027bc   0x080027bc   0x00000034   Code   RO         2332    i.MPU_Write_Byte    mpu6050.o
    0x080027f0   0x080027f0   0x0000002c   Code   RO          201    i.MX_DMA_Init       dma.o
    0x0800281c   0x0800281c   0x0000004c   Code   RO          177    i.MX_GPIO_Init      gpio.o
    0x08002868   0x08002868   0x00000040   Code   RO          227    i.MX_I2C1_Init      i2c.o
    0x080028a8   0x080028a8   0x00000038   Code   RO          269    i.MX_USART1_UART_Init  usart.o
    0x080028e0   0x080028e0   0x00000002   Code   RO          325    i.MemManage_Handler  stm32f1xx_it.o
    0x080028e2   0x080028e2   0x00000002   Code   RO          326    i.NMI_Handler       stm32f1xx_it.o
    0x080028e4   0x080028e4   0x00000002   Code   RO          327    i.PendSV_Handler    stm32f1xx_it.o
    0x080028e6   0x080028e6   0x00000002   Code   RO          328    i.SVC_Handler       stm32f1xx_it.o
    0x080028e8   0x080028e8   0x00000004   Code   RO          329    i.SysTick_Handler   stm32f1xx_it.o
    0x080028ec   0x080028ec   0x0000005e   Code   RO           14    i.SystemClock_Config  main.o
    0x0800294a   0x0800294a   0x00000002   Code   RO         2283    i.SystemInit        system_stm32f1xx.o
    0x0800294c   0x0800294c   0x00000010   Code   RO         1962    i.UART_DMAAbortOnError  stm32f1xx_hal_uart.o
    0x0800295c   0x0800295c   0x0000004a   Code   RO         1963    i.UART_DMAError     stm32f1xx_hal_uart.o
    0x080029a6   0x080029a6   0x00000042   Code   RO         1968    i.UART_DMATransmitCplt  stm32f1xx_hal_uart.o
    0x080029e8   0x080029e8   0x0000000a   Code   RO         1970    i.UART_DMATxHalfCplt  stm32f1xx_hal_uart.o
    0x080029f2   0x080029f2   0x0000004e   Code   RO         1972    i.UART_EndRxTransfer  stm32f1xx_hal_uart.o
    0x08002a40   0x08002a40   0x0000001c   Code   RO         1973    i.UART_EndTxTransfer  stm32f1xx_hal_uart.o
    0x08002a5c   0x08002a5c   0x000000c2   Code   RO         1974    i.UART_Receive_IT   stm32f1xx_hal_uart.o
    0x08002b1e   0x08002b1e   0x00000002   PAD
    0x08002b20   0x08002b20   0x000000b8   Code   RO         1975    i.UART_SetConfig    stm32f1xx_hal_uart.o
    0x08002bd8   0x08002bd8   0x00000078   Code   RO         1978    i.UART_WaitOnFlagUntilTimeout  stm32f1xx_hal_uart.o
    0x08002c50   0x08002c50   0x0000000c   Code   RO          330    i.USART1_IRQHandler  stm32f1xx_it.o
    0x08002c5c   0x08002c5c   0x00000002   Code   RO          331    i.UsageFault_Handler  stm32f1xx_it.o
    0x08002c5e   0x08002c5e   0x00000002   PAD
    0x08002c60   0x08002c60   0x00000020   Code   RO         3253    i.__0printf         mc_w.l(printfa.o)
    0x08002c80   0x08002c80   0x00000030   Code   RO         3254    i.__0snprintf       mc_w.l(printfa.o)
    0x08002cb0   0x08002cb0   0x00000028   Code   RO         3333    i.__ARM_fpclassify  m_ws.l(fpclassify.o)
    0x08002cd8   0x08002cd8   0x00000020   Code   RO         1396    i.__NVIC_SetPriority  stm32f1xx_hal_cortex.o
    0x08002cf8   0x08002cf8   0x000000aa   Code   RO         3335    i.__kernel_poly     m_ws.l(poly.o)
    0x08002da2   0x08002da2   0x00000006   Code   RO         3320    i.__mathlib_dbl_infnan  m_ws.l(dunder.o)
    0x08002da8   0x08002da8   0x00000004   Code   RO         3321    i.__mathlib_dbl_infnan2  m_ws.l(dunder.o)
    0x08002dac   0x08002dac   0x0000000c   Code   RO         3322    i.__mathlib_dbl_invalid  m_ws.l(dunder.o)
    0x08002db8   0x08002db8   0x00000010   Code   RO         3325    i.__mathlib_dbl_underflow  m_ws.l(dunder.o)
    0x08002dc8   0x08002dc8   0x0000000e   Code   RO         3395    i.__scatterload_copy  mc_w.l(handlers.o)
    0x08002dd6   0x08002dd6   0x00000002   Code   RO         3396    i.__scatterload_null  mc_w.l(handlers.o)
    0x08002dd8   0x08002dd8   0x0000000e   Code   RO         3397    i.__scatterload_zeroinit  mc_w.l(handlers.o)
    0x08002de6   0x08002de6   0x00000002   PAD
    0x08002de8   0x08002de8   0x0000000c   Code   RO         3371    i.__set_errno       mc_w.l(errno.o)
    0x08002df4   0x08002df4   0x00000184   Code   RO         3260    i._fp_digits        mc_w.l(printfa.o)
    0x08002f78   0x08002f78   0x000006dc   Code   RO         3261    i._printf_core      mc_w.l(printfa.o)
    0x08003654   0x08003654   0x00000024   Code   RO         3262    i._printf_post_padding  mc_w.l(printfa.o)
    0x08003678   0x08003678   0x0000002e   Code   RO         3263    i._printf_pre_padding  mc_w.l(printfa.o)
    0x080036a6   0x080036a6   0x00000016   Code   RO         3264    i._snputc           mc_w.l(printfa.o)
    0x080036bc   0x080036bc   0x00000080   Code   RO         2423    i.accel_self_test   inv_mpu.o
    0x0800373c   0x0800373c   0x00000270   Code   RO         2992    i.asin              m_ws.l(asin.o)
    0x080039ac   0x080039ac   0x00000220   Code   RO         3310    i.atan              m_ws.l(atan.o)
    0x08003bcc   0x08003bcc   0x00000180   Code   RO         3002    i.atan2             m_ws.l(atan2.o)
    0x08003d4c   0x08003d4c   0x0000003a   Code   RO         2778    i.dmp_enable_6x_lp_quat  inv_mpu_dmp_motion_driver.o
    0x08003d86   0x08003d86   0x00000002   PAD
    0x08003d88   0x08003d88   0x000001d8   Code   RO         2779    i.dmp_enable_feature  inv_mpu_dmp_motion_driver.o
    0x08003f60   0x08003f60   0x0000003c   Code   RO         2780    i.dmp_enable_gyro_cal  inv_mpu_dmp_motion_driver.o
    0x08003f9c   0x08003f9c   0x0000003a   Code   RO         2781    i.dmp_enable_lp_quat  inv_mpu_dmp_motion_driver.o
    0x08003fd6   0x08003fd6   0x00000002   PAD
    0x08003fd8   0x08003fd8   0x00000014   Code   RO         2786    i.dmp_load_motion_driver_firmware  inv_mpu_dmp_motion_driver.o
    0x08003fec   0x08003fec   0x00000144   Code   RO         2787    i.dmp_read_fifo     inv_mpu_dmp_motion_driver.o
    0x08004130   0x08004130   0x000000d8   Code   RO         2790    i.dmp_set_accel_bias  inv_mpu_dmp_motion_driver.o
    0x08004208   0x08004208   0x00000064   Code   RO         2791    i.dmp_set_fifo_rate  inv_mpu_dmp_motion_driver.o
    0x0800426c   0x0800426c   0x000000cc   Code   RO         2792    i.dmp_set_gyro_bias  inv_mpu_dmp_motion_driver.o
    0x08004338   0x08004338   0x0000010c   Code   RO         2794    i.dmp_set_orientation  inv_mpu_dmp_motion_driver.o
    0x08004444   0x08004444   0x00000030   Code   RO         2797    i.dmp_set_shake_reject_thresh  inv_mpu_dmp_motion_driver.o
    0x08004474   0x08004474   0x00000020   Code   RO         2798    i.dmp_set_shake_reject_time  inv_mpu_dmp_motion_driver.o
    0x08004494   0x08004494   0x00000020   Code   RO         2799    i.dmp_set_shake_reject_timeout  inv_mpu_dmp_motion_driver.o
    0x080044b4   0x080044b4   0x00000040   Code   RO         2800    i.dmp_set_tap_axes  inv_mpu_dmp_motion_driver.o
    0x080044f4   0x080044f4   0x00000022   Code   RO         2801    i.dmp_set_tap_count  inv_mpu_dmp_motion_driver.o
    0x08004516   0x08004516   0x00000002   PAD
    0x08004518   0x08004518   0x00000128   Code   RO         2802    i.dmp_set_tap_thresh  inv_mpu_dmp_motion_driver.o
    0x08004640   0x08004640   0x00000020   Code   RO         2803    i.dmp_set_tap_time  inv_mpu_dmp_motion_driver.o
    0x08004660   0x08004660   0x00000020   Code   RO         2804    i.dmp_set_tap_time_multi  inv_mpu_dmp_motion_driver.o
    0x08004680   0x08004680   0x00000018   Code   RO          271    i.fputc             usart.o
    0x08004698   0x08004698   0x000000ac   Code   RO         2424    i.get_accel_prod_shift  inv_mpu.o
    0x08004744   0x08004744   0x00000314   Code   RO         2425    i.get_st_biases     inv_mpu.o
    0x08004a58   0x08004a58   0x000000d4   Code   RO         2426    i.gyro_self_test    inv_mpu.o
    0x08004b2c   0x08004b2c   0x00000022   Code   RO         2427    i.inv_orientation_matrix_to_scalar  inv_mpu.o
    0x08004b4e   0x08004b4e   0x00000048   Code   RO         2428    i.inv_row_2_scale   inv_mpu.o
    0x08004b96   0x08004b96   0x00000002   PAD
    0x08004b98   0x08004b98   0x00000074   Code   RO           15    i.main              main.o
    0x08004c0c   0x08004c0c   0x00000002   Code   RO         2429    i.mget_ms           inv_mpu.o
    0x08004c0e   0x08004c0e   0x00000002   PAD
    0x08004c10   0x08004c10   0x00000054   Code   RO         2430    i.mpu_configure_fifo  inv_mpu.o
    0x08004c64   0x08004c64   0x0000019c   Code   RO         2431    i.mpu_dmp_get_data  inv_mpu.o
    0x08004e00   0x08004e00   0x000000a0   Code   RO         2432    i.mpu_dmp_init      inv_mpu.o
    0x08004ea0   0x08004ea0   0x0000003c   Code   RO         2433    i.mpu_get_accel_fsr  inv_mpu.o
    0x08004edc   0x08004edc   0x00000044   Code   RO         2435    i.mpu_get_accel_sens  inv_mpu.o
    0x08004f20   0x08004f20   0x00000034   Code   RO         2441    i.mpu_get_gyro_fsr  inv_mpu.o
    0x08004f54   0x08004f54   0x00000040   Code   RO         2443    i.mpu_get_gyro_sens  inv_mpu.o
    0x08004f94   0x08004f94   0x00000038   Code   RO         2445    i.mpu_get_lpf       inv_mpu.o
    0x08004fcc   0x08004fcc   0x0000001c   Code   RO         2447    i.mpu_get_sample_rate  inv_mpu.o
    0x08004fe8   0x08004fe8   0x00000188   Code   RO         2449    i.mpu_init          inv_mpu.o
    0x08005170   0x08005170   0x000000a0   Code   RO         2450    i.mpu_load_firmware  inv_mpu.o
    0x08005210   0x08005210   0x000000b8   Code   RO         2451    i.mpu_lp_accel_mode  inv_mpu.o
    0x080052c8   0x080052c8   0x00000090   Code   RO         2454    i.mpu_read_fifo_stream  inv_mpu.o
    0x08005358   0x08005358   0x00000054   Code   RO         2455    i.mpu_read_mem      inv_mpu.o
    0x080053ac   0x080053ac   0x00000160   Code   RO         2458    i.mpu_reset_fifo    inv_mpu.o
    0x0800550c   0x0800550c   0x000000f0   Code   RO         2459    i.mpu_run_self_test  inv_mpu.o
    0x080055fc   0x080055fc   0x00000068   Code   RO         2461    i.mpu_set_accel_fsr  inv_mpu.o
    0x08005664   0x08005664   0x000000dc   Code   RO         2462    i.mpu_set_bypass    inv_mpu.o
    0x08005740   0x08005740   0x00000078   Code   RO         2464    i.mpu_set_dmp_state  inv_mpu.o
    0x080057b8   0x080057b8   0x0000006c   Code   RO         2465    i.mpu_set_gyro_fsr  inv_mpu.o
    0x08005824   0x08005824   0x00000064   Code   RO         2466    i.mpu_set_int_latched  inv_mpu.o
    0x08005888   0x08005888   0x0000006c   Code   RO         2468    i.mpu_set_lpf       inv_mpu.o
    0x080058f4   0x080058f4   0x00000080   Code   RO         2469    i.mpu_set_sample_rate  inv_mpu.o
    0x08005974   0x08005974   0x000000b8   Code   RO         2470    i.mpu_set_sensors   inv_mpu.o
    0x08005a2c   0x08005a2c   0x00000054   Code   RO         2471    i.mpu_write_mem     inv_mpu.o
    0x08005a80   0x08005a80   0x00000080   Code   RO         2472    i.run_self_test     inv_mpu.o
    0x08005b00   0x08005b00   0x00000028   Code   RO         2967    i.selectPort        pca9548.o
    0x08005b28   0x08005b28   0x0000009c   Code   RO           16    i.sentData_Uart     main.o
    0x08005bc4   0x08005bc4   0x00000058   Code   RO         2473    i.set_int_enable    inv_mpu.o
    0x08005c1c   0x08005c1c   0x0000004c   Code   RO         3339    i.sqrt              m_ws.l(sqrt.o)
    0x08005c68   0x08005c68   0x00000012   Data   RO         1094    .constdata          stm32f1xx_hal_rcc.o
    0x08005c7a   0x08005c7a   0x00000010   Data   RO         2284    .constdata          system_stm32f1xx.o
    0x08005c8a   0x08005c8a   0x00000008   Data   RO         2285    .constdata          system_stm32f1xx.o
    0x08005c92   0x08005c92   0x0000001b   Data   RO         2475    .constdata          inv_mpu.o
    0x08005cad   0x08005cad   0x00000001   PAD
    0x08005cae   0x08005cae   0x0000000c   Data   RO         2476    .constdata          inv_mpu.o
    0x08005cba   0x08005cba   0x00000002   PAD
    0x08005cbc   0x08005cbc   0x00000028   Data   RO         2477    .constdata          inv_mpu.o
    0x08005ce4   0x08005ce4   0x00000bf6   Data   RO         2806    .constdata          inv_mpu_dmp_motion_driver.o
    0x080068da   0x080068da   0x00000006   PAD
    0x080068e0   0x080068e0   0x00000050   Data   RO         2993    .constdata          m_ws.l(asin.o)
    0x08006930   0x08006930   0x00000098   Data   RO         3311    .constdata          m_ws.l(atan.o)
    0x080069c8   0x080069c8   0x00000008   Data   RO         3337    .constdata          m_ws.l(qnan.o)
    0x080069d0   0x080069d0   0x0000004d   Data   RO         2478    .conststring        inv_mpu.o
    0x08006a1d   0x08006a1d   0x00000003   PAD
    0x08006a20   0x08006a20   0x00000020   Data   RO         3393    Region$$Table       anon$$obj.o


    Execution Region RW_IRAM1 (Exec base: 0x20000000, Load base: 0x08006a40, Size: 0x00000580, Max: 0x00005000, ABSOLUTE)

    Exec Addr    Load Addr    Size         Type   Attr      Idx    E Section Name        Object

    0x20000000   0x08006a40   0x0000000c   Data   RW           18    .data               main.o
    0x2000000c   0x08006a4c   0x0000000c   Data   RW          931    .data               stm32f1xx_hal.o
    0x20000018   0x08006a58   0x00000004   Data   RW         2286    .data               system_stm32f1xx.o
    0x2000001c   0x08006a5c   0x00000035   Data   RW         2479    .data               inv_mpu.o
    0x20000051   0x08006a91   0x00000003   PAD
    0x20000054   0x08006a94   0x00000004   Data   RW         3360    .data               mc_w.l(stdout.o)
    0x20000058   0x08006a98   0x00000004   Data   RW         3372    .data               mc_w.l(errno.o)
    0x2000005c        -       0x00000032   Zero   RW           17    .bss                main.o
    0x2000008e   0x08006a9c   0x00000002   PAD
    0x20000090        -       0x00000054   Zero   RW          228    .bss                i2c.o
    0x200000e4        -       0x0000008c   Zero   RW          272    .bss                usart.o
    0x20000170        -       0x00000010   Zero   RW         2805    .bss                inv_mpu_dmp_motion_driver.o
    0x20000180        -       0x00000400   Zero   RW            1    STACK               startup_stm32f103xb.o


==============================================================================

Image component sizes


      Code (inc. data)   RO Data    RW Data    ZI Data      Debug   Object Name

        44          4          0          0          0        794   dma.o
        76          6          0          0          0        891   gpio.o
       156         26          0          0         84       1697   i2c.o
      5320        290        156         53          0      30810   inv_mpu.o
      2350        118       3062          0         16      19954   inv_mpu_dmp_motion_driver.o
       370         70          0         12         50     405859   main.o
       424         22          0          0          0       5714   mpu6050.o
        40          6          0          0          0        525   pca9548.o
        36          8        236          0       1024        820   startup_stm32f103xb.o
       164         28          0         12          0       6049   stm32f1xx_hal.o
       198         14          0          0          0      29047   stm32f1xx_hal_cortex.o
       808         36          0          0          0       5114   stm32f1xx_hal_dma.o
       480         34          0          0          0       2296   stm32f1xx_hal_gpio.o
      2826         72          0          0          0      15204   stm32f1xx_hal_i2c.o
        60          8          0          0          0        906   stm32f1xx_hal_msp.o
      1240         84         18          0          0       5220   stm32f1xx_hal_rcc.o
      1774         24          0          0          0      14010   stm32f1xx_hal_uart.o
        44         12          0          0          0       4953   stm32f1xx_it.o
         2          0         24          4          0       1167   system_stm32f1xx.o
       260         34          0          0        140       2345   usart.o

    ----------------------------------------------------------------------
     16694        896       3540         84       1316     553375   Object Totals
         0          0         32          0          0          0   (incl. Generated)
        22          0         12          3          2          0   (incl. Padding)

    ----------------------------------------------------------------------

      Code (inc. data)   RO Data    RW Data    ZI Data      Debug   Library Member Name

       624         52         80          0          0        168   asin.o
       544         70        152          0          0        124   atan.o
       384         38          0          0          0        144   atan2.o
        38          6          0          0          0        272   dunder.o
        40          0          0          0          0         68   fpclassify.o
       170          0          0          0          0         96   poly.o
         0          0          8          0          0          0   qnan.o
        76          0          0          0          0         84   sqrt.o
         0          0          0          0          0          0   entry.o
         0          0          0          0          0          0   entry10a.o
         0          0          0          0          0          0   entry11a.o
         8          4          0          0          0          0   entry2.o
         4          0          0          0          0          0   entry5.o
         0          0          0          0          0          0   entry7b.o
         0          0          0          0          0          0   entry8b.o
         8          4          0          0          0          0   entry9a.o
        12          6          0          4          0         68   errno.o
        30          0          0          0          0          0   handlers.o
        36          8          0          0          0         68   init.o
         0          0          0          0          0          0   iusefp.o
        98          0          0          0          0         84   ldiv.o
        30          0          0          0          0         68   llshl.o
        36          0          0          0          0         68   llsshr.o
        32          0          0          0          0         68   llushr.o
        26          0          0          0          0         80   memcmp.o
        36          0          0          0          0        108   memseta.o
      2328         94          0          0          0        604   printfa.o
         0          0          0          4          0          0   stdout.o
        44          0          0          0          0         80   uidiv.o
        98          0          0          0          0         92   uldiv.o
        48          0          0          0          0         68   cdrcmple.o
        56          0          0          0          0         88   d2f.o
       334          0          0          0          0        148   dadd.o
       222          0          0          0          0        100   ddiv.o
       186          0          0          0          0        176   depilogue.o
        48          0          0          0          0         68   dfixul.o
       228          0          0          0          0         96   dmul.o
        46          0          0          0          0         80   dscalb.o
       162          0          0          0          0        100   dsqrt.o
        38          0          0          0          0         68   f2d.o
       176          0          0          0          0        140   fadd.o
       124          0          0          0          0         88   fdiv.o
       110          0          0          0          0        168   fepilogue.o
        50          0          0          0          0         68   ffixi.o
        40          0          0          0          0         68   ffixui.o
        18          0          0          0          0         68   fflti.o
        10          0          0          0          0         68   ffltui.o
       100          0          0          0          0         76   fmul.o
        24          0          0          0          0         68   fscalb.o

    ----------------------------------------------------------------------
      6726        282        240          8          0       4148   Library Totals
         4          0          0          0          0          0   (incl. Padding)

    ----------------------------------------------------------------------

      Code (inc. data)   RO Data    RW Data    ZI Data      Debug   Library Name

      1876        166        240          0          0        956   m_ws.l
      2826        116          0          8          0       1388   mc_w.l
      2020          0          0          0          0       1804   mf_w.l

    ----------------------------------------------------------------------
      6726        282        240          8          0       4148   Library Totals

    ----------------------------------------------------------------------

==============================================================================


      Code (inc. data)   RO Data    RW Data    ZI Data      Debug   

     23420       1178       3780         92       1316     548367   Grand Totals
     23420       1178       3780         92       1316     548367   ELF Image Totals
     23420       1178       3780         92          0          0   ROM Totals

==============================================================================

    Total RO  Size (Code + RO Data)                27200 (  26.56kB)
    Total RW  Size (RW Data + ZI Data)              1408 (   1.38kB)
    Total ROM Size (Code + RO Data + RW Data)      27292 (  26.65kB)

==============================================================================

