Component: ARM Compiler 5.06 update 7 (build 960) Tool: armlink [4d3601]

==============================================================================

Section Cross References

    startup_stm32f103xb.o(RESET) refers to startup_stm32f103xb.o(STACK) for __initial_sp
    startup_stm32f103xb.o(RESET) refers to startup_stm32f103xb.o(.text) for Reset_Handler
    startup_stm32f103xb.o(RESET) refers to stm32f1xx_it.o(i.NMI_Handler) for NMI_Handler
    startup_stm32f103xb.o(RESET) refers to stm32f1xx_it.o(i.HardFault_Handler) for HardFault_Handler
    startup_stm32f103xb.o(RESET) refers to stm32f1xx_it.o(i.MemManage_Handler) for MemManage_Handler
    startup_stm32f103xb.o(RESET) refers to stm32f1xx_it.o(i.BusFault_Handler) for BusFault_Handler
    startup_stm32f103xb.o(RESET) refers to stm32f1xx_it.o(i.UsageFault_Handler) for UsageFault_Handler
    startup_stm32f103xb.o(RESET) refers to stm32f1xx_it.o(i.SVC_Handler) for SVC_Handler
    startup_stm32f103xb.o(RESET) refers to stm32f1xx_it.o(i.DebugMon_Handler) for DebugMon_Handler
    startup_stm32f103xb.o(RESET) refers to stm32f1xx_it.o(i.PendSV_Handler) for PendSV_Handler
    startup_stm32f103xb.o(RESET) refers to stm32f1xx_it.o(i.SysTick_Handler) for SysTick_Handler
    startup_stm32f103xb.o(.text) refers to system_stm32f1xx.o(i.SystemInit) for SystemInit
    startup_stm32f103xb.o(.text) refers to entry.o(.ARM.Collect$$$$00000000) for __main
    main.o(i.SystemClock_Config) refers to memseta.o(.text) for __aeabi_memclr4
    main.o(i.SystemClock_Config) refers to stm32f1xx_hal_rcc.o(i.HAL_RCC_OscConfig) for HAL_RCC_OscConfig
    main.o(i.SystemClock_Config) refers to stm32f1xx_hal_rcc.o(i.HAL_RCC_ClockConfig) for HAL_RCC_ClockConfig
    main.o(i.main) refers to stm32f1xx_hal.o(i.HAL_Init) for HAL_Init
    main.o(i.main) refers to main.o(i.SystemClock_Config) for SystemClock_Config
==============================================================================

Removing Unused input sections from the image.

    Removing startup_stm32f103xb.o(HEAP), (512 bytes).
    Removing main.o(.rev16_text), (4 bytes).
    Removing main.o(.revsh_text), (4 bytes).
    Removing main.o(.rrx_text), (6 bytes).
    Removing gpio.o(.rev16_text), (4 bytes).
    Removing gpio.o(.revsh_text), (4 bytes).
    Removing gpio.o(.rrx_text), (6 bytes).
    Removing i2c.o(.rev16_text), (4 bytes).
    Removing i2c.o(.revsh_text), (4 bytes).
    Removing i2c.o(.rrx_text), (6 bytes).
    Removing i2c.o(i.HAL_I2C_MspDeInit), (56 bytes).
    Removing usart.o(.rev16_text), (4 bytes).
    Removing usart.o(.revsh_text), (4 bytes).
    Removing usart.o(.rrx_text), (6 bytes).
    Removing usart.o(i.HAL_UART_MspDeInit), (44 bytes).
    Removing usart.o(i.fgetc), (28 bytes).
    Removing stm32f1xx_it.o(.rev16_text), (4 bytes).
    Removing stm32f1xx_it.o(.revsh_text), (4 bytes).
==============================================================================

Image Symbol Table

    Local Symbols

    Symbol Name                              Value     Ov Type        Size  Object(Section)

    ../Core/Src/gpio.c                       0x00000000   Number         0  gpio.o ABSOLUTE
    ../Core/Src/i2c.c                        0x00000000   Number         0  i2c.o ABSOLUTE
    ../Core/Src/main.c                       0x00000000   Number         0  main.o ABSOLUTE
    ../Core/Src/stm32f1xx_hal_msp.c          0x00000000   Number         0  stm32f1xx_hal_msp.o ABSOLUTE
    ../Core/Src/stm32f1xx_it.c               0x00000000   Number         0  stm32f1xx_it.o ABSOLUTE
    ../Core/Src/system_stm32f1xx.c           0x00000000   Number         0  system_stm32f1xx.o ABSOLUTE
    ../Core/Src/usart.c                      0x00000000   Number         0  usart.o ABSOLUTE
    ../Drivers/STM32F1xx_HAL_Driver/Src/stm32f1xx_hal.c 0x00000000   Number         0  stm32f1xx_hal.o ABSOLUTE
    ../Drivers/STM32F1xx_HAL_Driver/Src/stm32f1xx_hal_cortex.c 0x00000000   Number         0  stm32f1xx_hal_cortex.o ABSOLUTE
    ../Drivers/STM32F1xx_HAL_Driver/Src/stm32f1xx_hal_dma.c 0x00000000   Number         0  stm32f1xx_hal_dma.o ABSOLUTE
    ../Drivers/STM32F1xx_HAL_Driver/Src/stm32f1xx_hal_exti.c 0x00000000   Number         0  stm32f1xx_hal_exti.o ABSOLUTE
    ../Drivers/STM32F1xx_HAL_Driver/Src/stm32f1xx_hal_flash.c 0x00000000   Number         0  stm32f1xx_hal_flash.o ABSOLUTE
    ../Drivers/STM32F1xx_HAL_Driver/Src/stm32f1xx_hal_flash_ex.c 0x00000000   Number         0  stm32f1xx_hal_flash_ex.o ABSOLUTE
    ../Drivers/STM32F1xx_HAL_Driver/Src/stm32f1xx_hal_gpio.c 0x00000000   Number         0  stm32f1xx_hal_gpio.o ABSOLUTE
    ../Drivers/STM32F1xx_HAL_Driver/Src/stm32f1xx_hal_gpio_ex.c 0x00000000   Number         0  stm32f1xx_hal_gpio_ex.o ABSOLUTE
    ../Drivers/STM32F1xx_HAL_Driver/Src/stm32f1xx_hal_i2c.c 0x00000000   Number         0  stm32f1xx_hal_i2c.o ABSOLUTE
    ../Drivers/STM32F1xx_HAL_Driver/Src/stm32f1xx_hal_pwr.c 0x00000000   Number         0  stm32f1xx_hal_pwr.o ABSOLUTE
    ../Drivers/STM32F1xx_HAL_Driver/Src/stm32f1xx_hal_rcc.c 0x00000000   Number         0  stm32f1xx_hal_rcc.o ABSOLUTE
    ../Drivers/STM32F1xx_HAL_Driver/Src/stm32f1xx_hal_rcc_ex.c 0x00000000   Number         0  stm32f1xx_hal_rcc_ex.o ABSOLUTE
    ../Drivers/STM32F1xx_HAL_Driver/Src/stm32f1xx_hal_tim.c 0x00000000   Number         0  stm32f1xx_hal_tim.o ABSOLUTE
    ../Drivers/STM32F1xx_HAL_Driver/Src/stm32f1xx_hal_tim_ex.c 0x00000000   Number         0  stm32f1xx_hal_tim_ex.o ABSOLUTE
    ../Drivers/STM32F1xx_HAL_Driver/Src/stm32f1xx_hal_uart.c 0x00000000   Number         0  stm32f1xx_hal_uart.o ABSOLUTE
    ../clib/microlib/division.c              0x00000000   Number         0  uldiv.o ABSOLUTE
    ../clib/microlib/division.c              0x00000000   Number         0  ldiv.o ABSOLUTE
    ../clib/microlib/division.c              0x00000000   Number         0  uidiv.o ABSOLUTE
    ../clib/microlib/errno.c                 0x00000000   Number         0  errno.o ABSOLUTE
    ../clib/microlib/init/entry.s            0x00000000   Number         0  entry10a.o ABSOLUTE
    ../clib/microlib/init/entry.s            0x00000000   Number         0  entry.o ABSOLUTE
    ../clib/microlib/init/entry.s            0x00000000   Number         0  entry7a.o ABSOLUTE
    ../clib/microlib/init/entry.s            0x00000000   Number         0  entry9a.o ABSOLUTE
    ../clib/microlib/init/entry.s            0x00000000   Number         0  entry7b.o ABSOLUTE
    ../clib/microlib/init/entry.s            0x00000000   Number         0  entry8a.o ABSOLUTE
    ../clib/microlib/init/entry.s            0x00000000   Number         0  entry8b.o ABSOLUTE
    ../clib/microlib/init/entry.s            0x00000000   Number         0  entry9b.o ABSOLUTE
    ../clib/microlib/init/entry.s            0x00000000   Number         0  entry12a.o ABSOLUTE
    ../clib/microlib/init/entry.s            0x00000000   Number         0  entry11b.o ABSOLUTE
    ../clib/microlib/init/entry.s            0x00000000   Number         0  entry12b.o ABSOLUTE
    ../clib/microlib/init/entry.s            0x00000000   Number         0  entry2.o ABSOLUTE
    ../clib/microlib/init/entry.s            0x00000000   Number         0  entry10b.o ABSOLUTE
    ../clib/microlib/init/entry.s            0x00000000   Number         0  entry5.o ABSOLUTE
    ../clib/microlib/init/entry.s            0x00000000   Number         0  entry11a.o ABSOLUTE
    ../clib/microlib/longlong.c              0x00000000   Number         0  llshl.o ABSOLUTE
    ../clib/microlib/longlong.c              0x00000000   Number         0  llsshr.o ABSOLUTE
    ../clib/microlib/longlong.c              0x00000000   Number         0  llushr.o ABSOLUTE
    ../clib/microlib/printf/printf.c         0x00000000   Number         0  printf5.o ABSOLUTE
    ../clib/microlib/printf/printf.c         0x00000000   Number         0  printfb.o ABSOLUTE
    ../clib/microlib/printf/printf.c         0x00000000   Number         0  printf8.o ABSOLUTE
    ../clib/microlib/printf/printf.c         0x00000000   Number         0  printf7.o ABSOLUTE
    ../clib/microlib/printf/printf.c         0x00000000   Number         0  printf4.o ABSOLUTE
    ../clib/microlib/printf/printf.c         0x00000000   Number         0  printf3.o ABSOLUTE
    ../clib/microlib/printf/printf.c         0x00000000   Number         0  printf2.o ABSOLUTE
    ../clib/microlib/printf/printf.c         0x00000000   Number         0  printf6.o ABSOLUTE
    ../clib/microlib/printf/printf.c         0x00000000   Number         0  printf1.o ABSOLUTE
    ../clib/microlib/printf/printf.c         0x00000000   Number         0  printfa.o ABSOLUTE
    ../clib/microlib/printf/printf.c         0x00000000   Number         0  printf0.o ABSOLUTE
    ../clib/microlib/printf/stubs.s          0x00000000   Number         0  stubs.o ABSOLUTE
    ../clib/microlib/stdio/streams.c         0x00000000   Number         0  stdout.o ABSOLUTE
    ../clib/microlib/string/memcmp.c         0x00000000   Number         0  memcmp.o ABSOLUTE
    ../clib/microlib/string/memset.c         0x00000000   Number         0  memseta.o ABSOLUTE
    ../clib/microlib/stubs.s                 0x00000000   Number         0  iusefp.o ABSOLUTE
    ../fplib/microlib/d2f.c                  0x00000000   Number         0  d2f.o ABSOLUTE
    ../fplib/microlib/f2d.c                  0x00000000   Number         0  f2d.o ABSOLUTE
    ../fplib/microlib/fpadd.c                0x00000000   Number         0  dadd.o ABSOLUTE
    ../fplib/microlib/fpadd.c                0x00000000   Number         0  fadd.o ABSOLUTE
    ../fplib/microlib/fpdiv.c                0x00000000   Number         0  ddiv.o ABSOLUTE
    ../fplib/microlib/fpdiv.c                0x00000000   Number         0  fdiv.o ABSOLUTE
    ../fplib/microlib/fpepilogue.c           0x00000000   Number         0  depilogue.o ABSOLUTE
    ../fplib/microlib/fpepilogue.c           0x00000000   Number         0  fepilogue.o ABSOLUTE
    ../fplib/microlib/fpfix.c                0x00000000   Number         0  dfixul.o ABSOLUTE
    ../fplib/microlib/fpfix.c                0x00000000   Number         0  ffixi.o ABSOLUTE
    ../fplib/microlib/fpfix.c                0x00000000   Number         0  ffixui.o ABSOLUTE
    ../fplib/microlib/fpflt.c                0x00000000   Number         0  ffltui.o ABSOLUTE
    ../fplib/microlib/fpflt.c                0x00000000   Number         0  fflti.o ABSOLUTE
    ../fplib/microlib/fpflt.c                0x00000000   Number         0  dflti.o ABSOLUTE
    ../fplib/microlib/fpmul.c                0x00000000   Number         0  fmul.o ABSOLUTE
    ../fplib/microlib/fpmul.c                0x00000000   Number         0  dmul.o ABSOLUTE
    ../fplib/microlib/fpscalb.c              0x00000000   Number         0  fscalb.o ABSOLUTE
    ../fplib/microlib/fpscalb.c              0x00000000   Number         0  dscalb.o ABSOLUTE
    ../fplib/microlib/fpsqrt.c               0x00000000   Number         0  dsqrt.o ABSOLUTE
    ../mathlib/asin.c                        0x00000000   Number         0  asin.o ABSOLUTE
    ../mathlib/asin.c                        0x00000000   Number         0  asin_x.o ABSOLUTE
    ../mathlib/atan.c                        0x00000000   Number         0  atan.o ABSOLUTE
    ../mathlib/atan.c                        0x00000000   Number         0  atan_x.o ABSOLUTE
    ../mathlib/atan2.c                       0x00000000   Number         0  atan2.o ABSOLUTE
    ../mathlib/atan2.c                       0x00000000   Number         0  atan2_x.o ABSOLUTE
    ../mathlib/dunder.c                      0x00000000   Number         0  dunder.o ABSOLUTE
    ../mathlib/fpclassify.c                  0x00000000   Number         0  fpclassify.o ABSOLUTE
    ../mathlib/poly.c                        0x00000000   Number         0  poly.o ABSOLUTE
    ../mathlib/qnan.c                        0x00000000   Number         0  qnan.o ABSOLUTE
    ../mathlib/sqrt.c                        0x00000000   Number         0  sqrt.o ABSOLUTE
    ../mathlib/sqrt.c                        0x00000000   Number         0  sqrt_x.o ABSOLUTE
    ..\Core\Src\gpio.c                       0x00000000   Number         0  gpio.o ABSOLUTE
    ..\Core\Src\i2c.c                        0x00000000   Number         0  i2c.o ABSOLUTE
    ..\Core\Src\main.c                       0x00000000   Number         0  main.o ABSOLUTE
    ..\Core\Src\stm32f1xx_hal_msp.c          0x00000000   Number         0  stm32f1xx_hal_msp.o ABSOLUTE
    ..\Core\Src\stm32f1xx_it.c               0x00000000   Number         0  stm32f1xx_it.o ABSOLUTE
    ..\Core\Src\system_stm32f1xx.c           0x00000000   Number         0  system_stm32f1xx.o ABSOLUTE
    ..\Core\Src\usart.c                      0x00000000   Number         0  usart.o ABSOLUTE
    ..\Drivers\STM32F1xx_HAL_Driver\Src\stm32f1xx_hal.c 0x00000000   Number         0  stm32f1xx_hal.o ABSOLUTE
    ..\Drivers\STM32F1xx_HAL_Driver\Src\stm32f1xx_hal_cortex.c 0x00000000   Number         0  stm32f1xx_hal_cortex.o ABSOLUTE
    ..\Drivers\STM32F1xx_HAL_Driver\Src\stm32f1xx_hal_dma.c 0x00000000   Number         0  stm32f1xx_hal_dma.o ABSOLUTE
    ..\Drivers\STM32F1xx_HAL_Driver\Src\stm32f1xx_hal_exti.c 0x00000000   Number         0  stm32f1xx_hal_exti.o ABSOLUTE
    ..\Drivers\STM32F1xx_HAL_Driver\Src\stm32f1xx_hal_flash.c 0x00000000   Number         0  stm32f1xx_hal_flash.o ABSOLUTE
    ..\Drivers\STM32F1xx_HAL_Driver\Src\stm32f1xx_hal_flash_ex.c 0x00000000   Number         0  stm32f1xx_hal_flash_ex.o ABSOLUTE
    ..\Drivers\STM32F1xx_HAL_Driver\Src\stm32f1xx_hal_gpio.c 0x00000000   Number         0  stm32f1xx_hal_gpio.o ABSOLUTE
    ..\Drivers\STM32F1xx_HAL_Driver\Src\stm32f1xx_hal_gpio_ex.c 0x00000000   Number         0  stm32f1xx_hal_gpio_ex.o ABSOLUTE
    ..\Drivers\STM32F1xx_HAL_Driver\Src\stm32f1xx_hal_i2c.c 0x00000000   Number         0  stm32f1xx_hal_i2c.o ABSOLUTE
    ..\Drivers\STM32F1xx_HAL_Driver\Src\stm32f1xx_hal_pwr.c 0x00000000   Number         0  stm32f1xx_hal_pwr.o ABSOLUTE
    ..\Drivers\STM32F1xx_HAL_Driver\Src\stm32f1xx_hal_rcc.c 0x00000000   Number         0  stm32f1xx_hal_rcc.o ABSOLUTE
    ..\Drivers\STM32F1xx_HAL_Driver\Src\stm32f1xx_hal_rcc_ex.c 0x00000000   Number         0  stm32f1xx_hal_rcc_ex.o ABSOLUTE
    ..\Drivers\STM32F1xx_HAL_Driver\Src\stm32f1xx_hal_tim.c 0x00000000   Number         0  stm32f1xx_hal_tim.o ABSOLUTE
    ..\Drivers\STM32F1xx_HAL_Driver\Src\stm32f1xx_hal_tim_ex.c 0x00000000   Number         0  stm32f1xx_hal_tim_ex.o ABSOLUTE
    ..\Drivers\STM32F1xx_HAL_Driver\Src\stm32f1xx_hal_uart.c 0x00000000   Number         0  stm32f1xx_hal_uart.o ABSOLUTE
    ..\MPU6050\eMPL\inv_mpu.c                0x00000000   Number         0  inv_mpu.o ABSOLUTE
    ..\MPU6050\eMPL\inv_mpu_dmp_motion_driver.c 0x00000000   Number         0  inv_mpu_dmp_motion_driver.o ABSOLUTE
    ..\MPU6050\mpu6050.c                     0x00000000   Number         0  mpu6050.o ABSOLUTE
    ..\\MPU6050\\eMPL\\inv_mpu.c             0x00000000   Number         0  inv_mpu.o ABSOLUTE
    ..\\MPU6050\\eMPL\\inv_mpu_dmp_motion_driver.c 0x00000000   Number         0  inv_mpu_dmp_motion_driver.o ABSOLUTE
    ..\\MPU6050\\mpu6050.c                   0x00000000   Number         0  mpu6050.o ABSOLUTE
    cdcmple.s                                0x00000000   Number         0  cdcmple.o ABSOLUTE
    cdrcmple.s                               0x00000000   Number         0  cdrcmple.o ABSOLUTE
    dc.s                                     0x00000000   Number         0  dc.o ABSOLUTE
    handlers.s                               0x00000000   Number         0  handlers.o ABSOLUTE
    init.s                                   0x00000000   Number         0  init.o ABSOLUTE
    startup_stm32f103xb.s                    0x00000000   Number         0  startup_stm32f103xb.o ABSOLUTE
    RESET                                    0x08000000   Section      236  startup_stm32f103xb.o(RESET)
    .ARM.Collect$$$$00000000                 0x080000ec   Section        0  entry.o(.ARM.Collect$$$$00000000)
    .ARM.Collect$$$$00000001                 0x080000ec   Section        4  entry2.o(.ARM.Collect$$$$00000001)
    .ARM.Collect$$$$00000004                 0x080000f0   Section        4  entry5.o(.ARM.Collect$$$$00000004)
    .ARM.Collect$$$$00000008                 0x080000f4   Section        0  entry7b.o(.ARM.Collect$$$$00000008)
    .ARM.Collect$$$$0000000A                 0x080000f4   Section        0  entry8b.o(.ARM.Collect$$$$0000000A)
    .ARM.Collect$$$$0000000B                 0x080000f4   Section        8  entry9a.o(.ARM.Collect$$$$0000000B)
    .ARM.Collect$$$$0000000E                 0x080000fc   Section        4  entry12b.o(.ARM.Collect$$$$0000000E)
    .ARM.Collect$$$$0000000F                 0x08000100   Section        0  entry10a.o(.ARM.Collect$$$$0000000F)
    .ARM.Collect$$$$00000011                 0x08000100   Section        0  entry11a.o(.ARM.Collect$$$$00000011)
    .ARM.Collect$$$$00002712                 0x08000100   Section        4  entry2.o(.ARM.Collect$$$$00002712)
    __lit__00000000                          0x08000100   Data           4  entry2.o(.ARM.Collect$$$$00002712)
    .text                                    0x08000104   Section       36  startup_stm32f103xb.o(.text)
    .text                                    0x08000128   Section        0  ldiv.o(.text)
    .text                                    0x0800018a   Section        0  llushr.o(.text)
    .text                                    0x080001aa   Section        0  memseta.o(.text)
    .text                                    0x080001ce   Section        0  memcmp.o(.text)
    .text                                    0x080001e8   Section        0  fadd.o(.text)
    .text                                    0x08000298   Section        0  fmul.o(.text)
    .text                                    0x080002fc   Section        0  fdiv.o(.text)
    .text                                    0x08000378   Section        0  fscalb.o(.text)
    .text                                    0x08000390   Section        0  dadd.o(.text)
    .text                                    0x080004de   Section        0  dmul.o(.text)
    .text                                    0x080005c2   Section        0  ddiv.o(.text)
    .text                                    0x080006a0   Section        0  fflti.o(.text)
    .text                                    0x080006b2   Section        0  ffltui.o(.text)
    .text                                    0x080006bc   Section        0  ffixi.o(.text)
    .text                                    0x080006ee   Section        0  ffixui.o(.text)
    .text                                    0x08000716   Section        0  f2d.o(.text)
    .text                                    0x0800073c   Section        0  d2f.o(.text)
    .text                                    0x08000774   Section        0  uidiv.o(.text)
    .text                                    0x080007a0   Section        0  uldiv.o(.text)
    .text                                    0x08000802   Section        0  llshl.o(.text)
    .text                                    0x08000820   Section        0  llsshr.o(.text)
    .text                                    0x08000844   Section        0  iusefp.o(.text)
    .text                                    0x08000844   Section        0  fepilogue.o(.text)
    .text                                    0x080008b2   Section        0  depilogue.o(.text)
    .text                                    0x0800096c   Section        0  dscalb.o(.text)
    .text                                    0x0800099a   Section        0  dfixul.o(.text)
    .text                                    0x080009cc   Section       48  cdcmple.o(.text)
    .text                                    0x080009fc   Section       48  cdrcmple.o(.text)
    .text                                    0x08000a2c   Section       36  init.o(.text)
    .text                                    0x08000a50   Section        0  dsqrt.o(.text)
    i.BusFault_Handler                       0x08000af2   Section        0  stm32f1xx_it.o(i.BusFault_Handler)
    i.DMP_Read_Len                           0x08000af4   Section        0  mpu6050.o(i.DMP_Read_Len)
    i.DMP_Write_Len                          0x08000b1c   Section        0  mpu6050.o(i.DMP_Write_Len)
    i.DebugMon_Handler                       0x08000b44   Section        0  stm32f1xx_it.o(i.DebugMon_Handler)
    i.Error_Handler                          0x08000b46   Section        0  main.o(i.Error_Handler)
    i.HAL_Delay                              0x08000b4c   Section        0  stm32f1xx_hal.o(i.HAL_Delay)
    i.HAL_GPIO_Init                          0x08000b70   Section        0  stm32f1xx_hal_gpio.o(i.HAL_GPIO_Init)
    i.HAL_GetTick                            0x08000d50   Section        0  stm32f1xx_hal.o(i.HAL_GetTick)
    i.HAL_I2C_Init                           0x08000d5c   Section        0  stm32f1xx_hal_i2c.o(i.HAL_I2C_Init)
    i.HAL_I2C_Mem_Read                       0x08000ee4   Section        0  stm32f1xx_hal_i2c.o(i.HAL_I2C_Mem_Read)
    i.HAL_I2C_Mem_Write                      0x08001134   Section        0  stm32f1xx_hal_i2c.o(i.HAL_I2C_Mem_Write)
    i.HAL_I2C_MspInit                        0x08001264   Section        0  i2c.o(i.HAL_I2C_MspInit)
    i.HAL_IncTick                            0x080012c0   Section        0  stm32f1xx_hal.o(i.HAL_IncTick)
    i.HAL_Init                               0x080012d0   Section        0  stm32f1xx_hal.o(i.HAL_Init)
    i.HAL_InitTick                           0x080012f4   Section        0  stm32f1xx_hal.o(i.HAL_InitTick)
    i.HAL_MspInit                            0x08001334   Section        0  stm32f1xx_hal_msp.o(i.HAL_MspInit)
    i.HAL_NVIC_SetPriority                   0x08001370   Section        0  stm32f1xx_hal_cortex.o(i.HAL_NVIC_SetPriority)
    i.HAL_NVIC_SetPriorityGrouping           0x080013b0   Section        0  stm32f1xx_hal_cortex.o(i.HAL_NVIC_SetPriorityGrouping)
    i.HAL_RCC_ClockConfig                    0x080013d4   Section        0  stm32f1xx_hal_rcc.o(i.HAL_RCC_ClockConfig)
    i.HAL_RCC_GetPCLK1Freq                   0x08001500   Section        0  stm32f1xx_hal_rcc.o(i.HAL_RCC_GetPCLK1Freq)
    i.HAL_RCC_GetPCLK2Freq                   0x08001520   Section        0  stm32f1xx_hal_rcc.o(i.HAL_RCC_GetPCLK2Freq)
    i.HAL_RCC_GetSysClockFreq                0x08001540   Section        0  stm32f1xx_hal_rcc.o(i.HAL_RCC_GetSysClockFreq)
    i.HAL_RCC_OscConfig                      0x0800158c   Section        0  stm32f1xx_hal_rcc.o(i.HAL_RCC_OscConfig)
    i.HAL_SYSTICK_Config                     0x080018ac   Section        0  stm32f1xx_hal_cortex.o(i.HAL_SYSTICK_Config)
    i.HAL_UART_Init                          0x080018d4   Section        0  stm32f1xx_hal_uart.o(i.HAL_UART_Init)
    i.HAL_UART_MspInit                       0x08001938   Section        0  usart.o(i.HAL_UART_MspInit)
    i.HAL_UART_Transmit                      0x080019a8   Section        0  stm32f1xx_hal_uart.o(i.HAL_UART_Transmit)
    i.HardFault_Handler                      0x08001a42   Section        0  stm32f1xx_it.o(i.HardFault_Handler)
    i.I2C_IsAcknowledgeFailed                0x08001a44   Section        0  stm32f1xx_hal_i2c.o(i.I2C_IsAcknowledgeFailed)
    I2C_IsAcknowledgeFailed                  0x08001a45   Thumb Code    46  stm32f1xx_hal_i2c.o(i.I2C_IsAcknowledgeFailed)
    i.I2C_RequestMemoryRead                  0x08001a74   Section        0  stm32f1xx_hal_i2c.o(i.I2C_RequestMemoryRead)
    I2C_RequestMemoryRead                    0x08001a75   Thumb Code   246  stm32f1xx_hal_i2c.o(i.I2C_RequestMemoryRead)
    i.I2C_RequestMemoryWrite                 0x08001b70   Section        0  stm32f1xx_hal_i2c.o(i.I2C_RequestMemoryWrite)
    I2C_RequestMemoryWrite                   0x08001b71   Thumb Code   162  stm32f1xx_hal_i2c.o(i.I2C_RequestMemoryWrite)
    i.I2C_WaitOnBTFFlagUntilTimeout          0x08001c18   Section        0  stm32f1xx_hal_i2c.o(i.I2C_WaitOnBTFFlagUntilTimeout)
    I2C_WaitOnBTFFlagUntilTimeout            0x08001c19   Thumb Code    86  stm32f1xx_hal_i2c.o(i.I2C_WaitOnBTFFlagUntilTimeout)
    i.I2C_WaitOnFlagUntilTimeout             0x08001c70   Section        0  stm32f1xx_hal_i2c.o(i.I2C_WaitOnFlagUntilTimeout)
    I2C_WaitOnFlagUntilTimeout               0x08001c71   Thumb Code   144  stm32f1xx_hal_i2c.o(i.I2C_WaitOnFlagUntilTimeout)
    i.I2C_WaitOnMasterAddressFlagUntilTimeout 0x08001d00   Section        0  stm32f1xx_hal_i2c.o(i.I2C_WaitOnMasterAddressFlagUntilTimeout)
    I2C_WaitOnMasterAddressFlagUntilTimeout  0x08001d01   Thumb Code   188  stm32f1xx_hal_i2c.o(i.I2C_WaitOnMasterAddressFlagUntilTimeout)
    i.I2C_WaitOnRXNEFlagUntilTimeout         0x08001dbc   Section        0  stm32f1xx_hal_i2c.o(i.I2C_WaitOnRXNEFlagUntilTimeout)
    I2C_WaitOnRXNEFlagUntilTimeout           0x08001dbd   Thumb Code   112  stm32f1xx_hal_i2c.o(i.I2C_WaitOnRXNEFlagUntilTimeout)
    i.I2C_WaitOnTXEFlagUntilTimeout          0x08001e2c   Section        0  stm32f1xx_hal_i2c.o(i.I2C_WaitOnTXEFlagUntilTimeout)
    I2C_WaitOnTXEFlagUntilTimeout            0x08001e2d   Thumb Code    86  stm32f1xx_hal_i2c.o(i.I2C_WaitOnTXEFlagUntilTimeout)
    i.MPU_Init                               0x08001e82   Section        0  mpu6050.o(i.MPU_Init)
    i.MPU_Read_Byte                          0x08001ef4   Section        0  mpu6050.o(i.MPU_Read_Byte)
    i.MPU_Set_Accel_Fsr                      0x08001f28   Section        0  mpu6050.o(i.MPU_Set_Accel_Fsr)
    i.MPU_Set_Gyro_Fsr                       0x08001f32   Section        0  mpu6050.o(i.MPU_Set_Gyro_Fsr)
    i.MPU_Set_LPF                            0x08001f3c   Section        0  mpu6050.o(i.MPU_Set_LPF)
    i.MPU_Set_Rate                           0x08001f6c   Section        0  mpu6050.o(i.MPU_Set_Rate)
    i.MPU_Write_Byte                         0x08001f9c   Section        0  mpu6050.o(i.MPU_Write_Byte)
    i.MX_GPIO_Init                           0x08001fcc   Section        0  gpio.o(i.MX_GPIO_Init)
    i.MX_I2C1_Init                           0x08002018   Section        0  i2c.o(i.MX_I2C1_Init)
    i.MX_USART1_UART_Init                    0x08002058   Section        0  usart.o(i.MX_USART1_UART_Init)
    i.MemManage_Handler                      0x08002090   Section        0  stm32f1xx_it.o(i.MemManage_Handler)
    i.NMI_Handler                            0x08002092   Section        0  stm32f1xx_it.o(i.NMI_Handler)
    i.PendSV_Handler                         0x08002094   Section        0  stm32f1xx_it.o(i.PendSV_Handler)
    i.SVC_Handler                            0x08002096   Section        0  stm32f1xx_it.o(i.SVC_Handler)
    i.SysTick_Handler                        0x08002098   Section        0  stm32f1xx_it.o(i.SysTick_Handler)
    i.SystemClock_Config                     0x0800209c   Section        0  main.o(i.SystemClock_Config)
    i.SystemInit                             0x080020fa   Section        0  system_stm32f1xx.o(i.SystemInit)
    i.UART_SetConfig                         0x080020fc   Section        0  stm32f1xx_hal_uart.o(i.UART_SetConfig)
    UART_SetConfig                           0x080020fd   Thumb Code   178  stm32f1xx_hal_uart.o(i.UART_SetConfig)
    i.UART_WaitOnFlagUntilTimeout            0x080021b4   Section        0  stm32f1xx_hal_uart.o(i.UART_WaitOnFlagUntilTimeout)
    UART_WaitOnFlagUntilTimeout              0x080021b5   Thumb Code   120  stm32f1xx_hal_uart.o(i.UART_WaitOnFlagUntilTimeout)
    i.UsageFault_Handler                     0x0800222c   Section        0  stm32f1xx_it.o(i.UsageFault_Handler)
    i.__0printf                              0x08002230   Section        0  printfa.o(i.__0printf)
    i.__ARM_fpclassify                       0x08002250   Section        0  fpclassify.o(i.__ARM_fpclassify)
    i.__NVIC_SetPriority                     0x08002278   Section        0  stm32f1xx_hal_cortex.o(i.__NVIC_SetPriority)
    __NVIC_SetPriority                       0x08002279   Thumb Code    32  stm32f1xx_hal_cortex.o(i.__NVIC_SetPriority)
    i.__kernel_poly                          0x08002298   Section        0  poly.o(i.__kernel_poly)
    i.__mathlib_dbl_infnan                   0x08002342   Section        0  dunder.o(i.__mathlib_dbl_infnan)
    i.__mathlib_dbl_infnan2                  0x08002348   Section        0  dunder.o(i.__mathlib_dbl_infnan2)
    i.__mathlib_dbl_invalid                  0x0800234c   Section        0  dunder.o(i.__mathlib_dbl_invalid)
    i.__mathlib_dbl_underflow                0x08002358   Section        0  dunder.o(i.__mathlib_dbl_underflow)
    i.__scatterload_copy                     0x08002368   Section       14  handlers.o(i.__scatterload_copy)
    i.__scatterload_null                     0x08002376   Section        2  handlers.o(i.__scatterload_null)
    i.__scatterload_zeroinit                 0x08002378   Section       14  handlers.o(i.__scatterload_zeroinit)
    i.__set_errno                            0x08002388   Section        0  errno.o(i.__set_errno)
    i._fp_digits                             0x08002394   Section        0  printfa.o(i._fp_digits)
    _fp_digits                               0x08002395   Thumb Code   366  printfa.o(i._fp_digits)
    i._printf_core                           0x08002518   Section        0  printfa.o(i._printf_core)
    _printf_core                             0x08002519   Thumb Code  1704  printfa.o(i._printf_core)
    i._printf_post_padding                   0x08002bcc   Section        0  printfa.o(i._printf_post_padding)
    _printf_post_padding                     0x08002bcd   Thumb Code    36  printfa.o(i._printf_post_padding)
    i._printf_pre_padding                    0x08002bf0   Section        0  printfa.o(i._printf_pre_padding)
    _printf_pre_padding                      0x08002bf1   Thumb Code    46  printfa.o(i._printf_pre_padding)
    i.accel_self_test                        0x08002c20   Section        0  inv_mpu.o(i.accel_self_test)
    accel_self_test                          0x08002c21   Thumb Code   114  inv_mpu.o(i.accel_self_test)
    i.asin                                   0x08002ca0   Section        0  asin.o(i.asin)
    i.atan                                   0x08002f10   Section        0  atan.o(i.atan)
    i.atan2                                  0x08003130   Section        0  atan2.o(i.atan2)
    i.dmp_enable_6x_lp_quat                  0x080032cc   Section        0  inv_mpu_dmp_motion_driver.o(i.dmp_enable_6x_lp_quat)
    i.dmp_enable_feature                     0x08003308   Section        0  inv_mpu_dmp_motion_driver.o(i.dmp_enable_feature)
    i.dmp_enable_gyro_cal                    0x080034e0   Section        0  inv_mpu_dmp_motion_driver.o(i.dmp_enable_gyro_cal)
    i.dmp_enable_lp_quat                     0x0800351c   Section        0  inv_mpu_dmp_motion_driver.o(i.dmp_enable_lp_quat)
    i.dmp_load_motion_driver_firmware        0x08003558   Section        0  inv_mpu_dmp_motion_driver.o(i.dmp_load_motion_driver_firmware)
    i.dmp_read_fifo                          0x0800356c   Section        0  inv_mpu_dmp_motion_driver.o(i.dmp_read_fifo)
    i.dmp_set_accel_bias                     0x080036d0   Section        0  inv_mpu_dmp_motion_driver.o(i.dmp_set_accel_bias)
    i.dmp_set_fifo_rate                      0x080037a8   Section        0  inv_mpu_dmp_motion_driver.o(i.dmp_set_fifo_rate)
    i.dmp_set_gyro_bias                      0x0800380c   Section        0  inv_mpu_dmp_motion_driver.o(i.dmp_set_gyro_bias)
    i.dmp_set_orientation                    0x080038d8   Section        0  inv_mpu_dmp_motion_driver.o(i.dmp_set_orientation)
    i.dmp_set_shake_reject_thresh            0x080039e4   Section        0  inv_mpu_dmp_motion_driver.o(i.dmp_set_shake_reject_thresh)
    i.dmp_set_shake_reject_time              0x08003a14   Section        0  inv_mpu_dmp_motion_driver.o(i.dmp_set_shake_reject_time)
    i.dmp_set_shake_reject_timeout           0x08003a34   Section        0  inv_mpu_dmp_motion_driver.o(i.dmp_set_shake_reject_timeout)
    i.dmp_set_tap_axes                       0x08003a54   Section        0  inv_mpu_dmp_motion_driver.o(i.dmp_set_tap_axes)
    i.dmp_set_tap_count                      0x08003a94   Section        0  inv_mpu_dmp_motion_driver.o(i.dmp_set_tap_count)
    i.dmp_set_tap_thresh                     0x08003ab8   Section        0  inv_mpu_dmp_motion_driver.o(i.dmp_set_tap_thresh)
    i.dmp_set_tap_time                       0x08003be0   Section        0  inv_mpu_dmp_motion_driver.o(i.dmp_set_tap_time)
    i.dmp_set_tap_time_multi                 0x08003c00   Section        0  inv_mpu_dmp_motion_driver.o(i.dmp_set_tap_time_multi)
    i.fputc                                  0x08003c20   Section        0  usart.o(i.fputc)
    i.get_accel_prod_shift                   0x08003c38   Section        0  inv_mpu.o(i.get_accel_prod_shift)
    get_accel_prod_shift                     0x08003c39   Thumb Code   158  inv_mpu.o(i.get_accel_prod_shift)
    i.get_st_biases                          0x08003ce4   Section        0  inv_mpu.o(i.get_st_biases)
    get_st_biases                            0x08003ce5   Thumb Code   784  inv_mpu.o(i.get_st_biases)
    i.gyro_self_test                         0x08003ff8   Section        0  inv_mpu.o(i.gyro_self_test)
    gyro_self_test                           0x08003ff9   Thumb Code   190  inv_mpu.o(i.gyro_self_test)
    i.inv_orientation_matrix_to_scalar       0x080040cc   Section        0  inv_mpu.o(i.inv_orientation_matrix_to_scalar)
    i.inv_row_2_scale                        0x080040ee   Section        0  inv_mpu.o(i.inv_row_2_scale)
    i.main                                   0x08004138   Section        0  main.o(i.main)
    i.mget_ms                                0x080041cc   Section        0  inv_mpu.o(i.mget_ms)
    i.mpu_configure_fifo                     0x080041d0   Section        0  inv_mpu.o(i.mpu_configure_fifo)
    i.mpu_dmp_get_data                       0x08004224   Section        0  inv_mpu.o(i.mpu_dmp_get_data)
    i.mpu_dmp_init                           0x080043c0   Section        0  inv_mpu.o(i.mpu_dmp_init)
    i.mpu_get_accel_fsr                      0x08004460   Section        0  inv_mpu.o(i.mpu_get_accel_fsr)
    i.mpu_get_accel_sens                     0x0800449c   Section        0  inv_mpu.o(i.mpu_get_accel_sens)
    i.mpu_get_gyro_fsr                       0x080044e0   Section        0  inv_mpu.o(i.mpu_get_gyro_fsr)
    i.mpu_get_gyro_sens                      0x08004514   Section        0  inv_mpu.o(i.mpu_get_gyro_sens)
    i.mpu_get_lpf                            0x08004554   Section        0  inv_mpu.o(i.mpu_get_lpf)
    i.mpu_get_sample_rate                    0x0800458c   Section        0  inv_mpu.o(i.mpu_get_sample_rate)
    i.mpu_init                               0x080045a8   Section        0  inv_mpu.o(i.mpu_init)
    i.mpu_load_firmware                      0x08004730   Section        0  inv_mpu.o(i.mpu_load_firmware)
    i.mpu_lp_accel_mode                      0x080047d0   Section        0  inv_mpu.o(i.mpu_lp_accel_mode)
    i.mpu_read_fifo_stream                   0x08004888   Section        0  inv_mpu.o(i.mpu_read_fifo_stream)
    i.mpu_read_mem                           0x08004918   Section        0  inv_mpu.o(i.mpu_read_mem)
    i.mpu_reset_fifo                         0x0800496c   Section        0  inv_mpu.o(i.mpu_reset_fifo)
    i.mpu_run_self_test                      0x08004acc   Section        0  inv_mpu.o(i.mpu_run_self_test)
    i.mpu_set_accel_fsr                      0x08004bbc   Section        0  inv_mpu.o(i.mpu_set_accel_fsr)
    i.mpu_set_bypass                         0x08004c24   Section        0  inv_mpu.o(i.mpu_set_bypass)
    i.mpu_set_dmp_state                      0x08004d00   Section        0  inv_mpu.o(i.mpu_set_dmp_state)
    i.mpu_set_gyro_fsr                       0x08004d78   Section        0  inv_mpu.o(i.mpu_set_gyro_fsr)
    i.mpu_set_int_latched                    0x08004de4   Section        0  inv_mpu.o(i.mpu_set_int_latched)
    i.mpu_set_lpf                            0x08004e48   Section        0  inv_mpu.o(i.mpu_set_lpf)
    i.mpu_set_sample_rate                    0x08004eb4   Section        0  inv_mpu.o(i.mpu_set_sample_rate)
    i.mpu_set_sensors                        0x08004f34   Section        0  inv_mpu.o(i.mpu_set_sensors)
    i.mpu_write_mem                          0x08004fec   Section        0  inv_mpu.o(i.mpu_write_mem)
    i.run_self_test                          0x08005040   Section        0  inv_mpu.o(i.run_self_test)
    i.set_int_enable                         0x080050c0   Section        0  inv_mpu.o(i.set_int_enable)
    set_int_enable                           0x080050c1   Thumb Code    84  inv_mpu.o(i.set_int_enable)
    i.sqrt                                   0x08005118   Section        0  sqrt.o(i.sqrt)
    .constdata                               0x08005164   Section       18  stm32f1xx_hal_rcc.o(.constdata)
    aPredivFactorTable                       0x08005164   Data           2  stm32f1xx_hal_rcc.o(.constdata)
    aPLLMULFactorTable                       0x08005166   Data          16  stm32f1xx_hal_rcc.o(.constdata)
    .constdata                               0x08005176   Section       16  system_stm32f1xx.o(.constdata)
    .constdata                               0x08005186   Section        8  system_stm32f1xx.o(.constdata)
    .constdata                               0x0800518e   Section       27  inv_mpu.o(.constdata)
    .constdata                               0x080051aa   Section       12  inv_mpu.o(.constdata)
    .constdata                               0x080051b8   Section       40  inv_mpu.o(.constdata)
    .constdata                               0x080051e0   Section     3062  inv_mpu_dmp_motion_driver.o(.constdata)
    dmp_memory                               0x080051e0   Data        3062  inv_mpu_dmp_motion_driver.o(.constdata)
    .constdata                               0x08005dd8   Section       80  asin.o(.constdata)
    pS                                       0x08005dd8   Data          48  asin.o(.constdata)
    qS                                       0x08005e08   Data          32  asin.o(.constdata)
    .constdata                               0x08005e28   Section      152  atan.o(.constdata)
    atanhi                                   0x08005e28   Data          32  atan.o(.constdata)
    atanlo                                   0x08005e48   Data          32  atan.o(.constdata)
    aTodd                                    0x08005e68   Data          40  atan.o(.constdata)
    aTeven                                   0x08005e90   Data          48  atan.o(.constdata)
    .constdata                               0x08005ec0   Section        8  qnan.o(.constdata)
    .conststring                             0x08005ec8   Section       77  inv_mpu.o(.conststring)
    .data                                    0x20000000   Section       12  stm32f1xx_hal.o(.data)
    .data                                    0x2000000c   Section        4  system_stm32f1xx.o(.data)
    .data                                    0x20000010   Section       53  inv_mpu.o(.data)
    st                                       0x20000010   Data          44  inv_mpu.o(.data)
    gyro_orientation                         0x2000003c   Data           9  inv_mpu.o(.data)
    .data                                    0x20000048   Section        4  stdout.o(.data)
    .data                                    0x2000004c   Section        4  errno.o(.data)
    _errno                                   0x2000004c   Data           4  errno.o(.data)
    .bss                                     0x20000050   Section       84  i2c.o(.bss)
    .bss                                     0x200000a4   Section       72  usart.o(.bss)
    .bss                                     0x200000ec   Section       16  inv_mpu_dmp_motion_driver.o(.bss)
    dmp                                      0x200000ec   Data          16  inv_mpu_dmp_motion_driver.o(.bss)
    STACK                                    0x20000100   Section     1024  startup_stm32f103xb.o(STACK)

    Global Symbols

    Symbol Name                              Value     Ov Type        Size  Object(Section)

    BuildAttributes$$THM_ISAv4$P$D$K$B$S$PE$A:L22UL41UL21$X:L11$S22US41US21$IEEE1$IW$USESV6$~STKCKD$USESV7$~SHL$OTIME$ROPI$IEEEX$EBA8$MICROLIB$REQ8$PRES8$EABIv2 0x00000000   Number         0  anon$$obj.o ABSOLUTE
    __ARM_use_no_argv                        0x00000000   Number         0  main.o ABSOLUTE
    _printf_a                                0x00000000   Number         0  stubs.o ABSOLUTE
    _printf_c                                0x00000000   Number         0  stubs.o ABSOLUTE
    _printf_charcount                        0x00000000   Number         0  stubs.o ABSOLUTE
    _printf_d                                0x00000000   Number         0  stubs.o ABSOLUTE
    _printf_e                                0x00000000   Number         0  stubs.o ABSOLUTE
    _printf_f                                0x00000000   Number         0  stubs.o ABSOLUTE
    _printf_flags                            0x00000000   Number         0  stubs.o ABSOLUTE
    _printf_fp_dec                           0x00000000   Number         0  stubs.o ABSOLUTE
    _printf_fp_hex                           0x00000000   Number         0  stubs.o ABSOLUTE
    _printf_g                                0x00000000   Number         0  stubs.o ABSOLUTE
    _printf_i                                0x00000000   Number         0  stubs.o ABSOLUTE
    _printf_int_dec                          0x00000000   Number         0  stubs.o ABSOLUTE
    _printf_l                                0x00000000   Number         0  stubs.o ABSOLUTE
    _printf_lc                               0x00000000   Number         0  stubs.o ABSOLUTE
    _printf_ll                               0x00000000   Number         0  stubs.o ABSOLUTE
    _printf_lld                              0x00000000   Number         0  stubs.o ABSOLUTE
    _printf_lli                              0x00000000   Number         0  stubs.o ABSOLUTE
    _printf_llo                              0x00000000   Number         0  stubs.o ABSOLUTE
    _printf_llu                              0x00000000   Number         0  stubs.o ABSOLUTE
    _printf_llx                              0x00000000   Number         0  stubs.o ABSOLUTE
    _printf_longlong_dec                     0x00000000   Number         0  stubs.o ABSOLUTE
    _printf_longlong_hex                     0x00000000   Number         0  stubs.o ABSOLUTE
    _printf_longlong_oct                     0x00000000   Number         0  stubs.o ABSOLUTE
    _printf_ls                               0x00000000   Number         0  stubs.o ABSOLUTE
    _printf_mbtowc                           0x00000000   Number         0  stubs.o ABSOLUTE
    _printf_n                                0x00000000   Number         0  stubs.o ABSOLUTE
    _printf_o                                0x00000000   Number         0  stubs.o ABSOLUTE
    _printf_p                                0x00000000   Number         0  stubs.o ABSOLUTE
    _printf_percent                          0x00000000   Number         0  stubs.o ABSOLUTE
    _printf_pre_padding                      0x00000000   Number         0  stubs.o ABSOLUTE
    _printf_return_value                     0x00000000   Number         0  stubs.o ABSOLUTE
    _printf_s                                0x00000000   Number         0  stubs.o ABSOLUTE
    _printf_sizespec                         0x00000000   Number         0  stubs.o ABSOLUTE
    _printf_str                              0x00000000   Number         0  stubs.o ABSOLUTE
    _printf_truncate_signed                  0x00000000   Number         0  stubs.o ABSOLUTE
    _printf_truncate_unsigned                0x00000000   Number         0  stubs.o ABSOLUTE
    _printf_u                                0x00000000   Number         0  stubs.o ABSOLUTE
    _printf_wc                               0x00000000   Number         0  stubs.o ABSOLUTE
    _printf_wctomb                           0x00000000   Number         0  stubs.o ABSOLUTE
    _printf_widthprec                        0x00000000   Number         0  stubs.o ABSOLUTE
    _printf_x                                0x00000000   Number         0  stubs.o ABSOLUTE
    __arm_fini_                               - Undefined Weak Reference
    __cpp_initialize__aeabi_                  - Undefined Weak Reference
    __cxa_finalize                            - Undefined Weak Reference
    __decompress                              - Undefined Weak Reference
    _clock_init                               - Undefined Weak Reference
    _microlib_exit                            - Undefined Weak Reference
    __Vectors_Size                           0x000000ec   Number         0  startup_stm32f103xb.o ABSOLUTE
    __Vectors                                0x08000000   Data           4  startup_stm32f103xb.o(RESET)
    __Vectors_End                            0x080000ec   Data           0  startup_stm32f103xb.o(RESET)
    __main                                   0x080000ed   Thumb Code     0  entry.o(.ARM.Collect$$$$00000000)
    _main_stk                                0x080000ed   Thumb Code     0  entry2.o(.ARM.Collect$$$$00000001)
    _main_scatterload                        0x080000f1   Thumb Code     0  entry5.o(.ARM.Collect$$$$00000004)
    __main_after_scatterload                 0x080000f5   Thumb Code     0  entry5.o(.ARM.Collect$$$$00000004)
    _main_clock                              0x080000f5   Thumb Code     0  entry7b.o(.ARM.Collect$$$$00000008)
    _main_cpp_init                           0x080000f5   Thumb Code     0  entry8b.o(.ARM.Collect$$$$0000000A)
    _main_init                               0x080000f5   Thumb Code     0  entry9a.o(.ARM.Collect$$$$0000000B)
    __rt_lib_shutdown_fini                   0x080000fd   Thumb Code     0  entry12b.o(.ARM.Collect$$$$0000000E)
    __rt_final_cpp                           0x08000101   Thumb Code     0  entry10a.o(.ARM.Collect$$$$0000000F)
    __rt_final_exit                          0x08000101   Thumb Code     0  entry11a.o(.ARM.Collect$$$$00000011)
    Reset_Handler                            0x08000105   Thumb Code     8  startup_stm32f103xb.o(.text)
    ADC1_2_IRQHandler                        0x0800011f   Thumb Code     0  startup_stm32f103xb.o(.text)
    CAN1_RX1_IRQHandler                      0x0800011f   Thumb Code     0  startup_stm32f103xb.o(.text)
    CAN1_SCE_IRQHandler                      0x0800011f   Thumb Code     0  startup_stm32f103xb.o(.text)
    DMA1_Channel1_IRQHandler                 0x0800011f   Thumb Code     0  startup_stm32f103xb.o(.text)
    DMA1_Channel2_IRQHandler                 0x0800011f   Thumb Code     0  startup_stm32f103xb.o(.text)
    DMA1_Channel3_IRQHandler                 0x0800011f   Thumb Code     0  startup_stm32f103xb.o(.text)
    DMA1_Channel4_IRQHandler                 0x0800011f   Thumb Code     0  startup_stm32f103xb.o(.text)
    DMA1_Channel5_IRQHandler                 0x0800011f   Thumb Code     0  startup_stm32f103xb.o(.text)
    DMA1_Channel6_IRQHandler                 0x0800011f   Thumb Code     0  startup_stm32f103xb.o(.text)
    DMA1_Channel7_IRQHandler                 0x0800011f   Thumb Code     0  startup_stm32f103xb.o(.text)
    EXTI0_IRQHandler                         0x0800011f   Thumb Code     0  startup_stm32f103xb.o(.text)
    EXTI15_10_IRQHandler                     0x0800011f   Thumb Code     0  startup_stm32f103xb.o(.text)
    EXTI1_IRQHandler                         0x0800011f   Thumb Code     0  startup_stm32f103xb.o(.text)
    EXTI2_IRQHandler                         0x0800011f   Thumb Code     0  startup_stm32f103xb.o(.text)
    EXTI3_IRQHandler                         0x0800011f   Thumb Code     0  startup_stm32f103xb.o(.text)
    EXTI4_IRQHandler                         0x0800011f   Thumb Code     0  startup_stm32f103xb.o(.text)
    EXTI9_5_IRQHandler                       0x0800011f   Thumb Code     0  startup_stm32f103xb.o(.text)
    FLASH_IRQHandler                         0x0800011f   Thumb Code     0  startup_stm32f103xb.o(.text)
    I2C1_ER_IRQHandler                       0x0800011f   Thumb Code     0  startup_stm32f103xb.o(.text)
    I2C1_EV_IRQHandler                       0x0800011f   Thumb Code     0  startup_stm32f103xb.o(.text)
    I2C2_ER_IRQHandler                       0x0800011f   Thumb Code     0  startup_stm32f103xb.o(.text)
    I2C2_EV_IRQHandler                       0x0800011f   Thumb Code     0  startup_stm32f103xb.o(.text)
    PVD_IRQHandler                           0x0800011f   Thumb Code     0  startup_stm32f103xb.o(.text)
    RCC_IRQHandler                           0x0800011f   Thumb Code     0  startup_stm32f103xb.o(.text)
    RTC_Alarm_IRQHandler                     0x0800011f   Thumb Code     0  startup_stm32f103xb.o(.text)
    RTC_IRQHandler                           0x0800011f   Thumb Code     0  startup_stm32f103xb.o(.text)
    SPI1_IRQHandler                          0x0800011f   Thumb Code     0  startup_stm32f103xb.o(.text)
    SPI2_IRQHandler                          0x0800011f   Thumb Code     0  startup_stm32f103xb.o(.text)
    TAMPER_IRQHandler                        0x0800011f   Thumb Code     0  startup_stm32f103xb.o(.text)
    TIM1_BRK_IRQHandler                      0x0800011f   Thumb Code     0  startup_stm32f103xb.o(.text)
    TIM1_CC_IRQHandler                       0x0800011f   Thumb Code     0  startup_stm32f103xb.o(.text)
    TIM1_TRG_COM_IRQHandler                  0x0800011f   Thumb Code     0  startup_stm32f103xb.o(.text)
    TIM1_UP_IRQHandler                       0x0800011f   Thumb Code     0  startup_stm32f103xb.o(.text)
    TIM2_IRQHandler                          0x0800011f   Thumb Code     0  startup_stm32f103xb.o(.text)
    TIM3_IRQHandler                          0x0800011f   Thumb Code     0  startup_stm32f103xb.o(.text)
    TIM4_IRQHandler                          0x0800011f   Thumb Code     0  startup_stm32f103xb.o(.text)
    USART1_IRQHandler                        0x0800011f   Thumb Code     0  startup_stm32f103xb.o(.text)
    USART2_IRQHandler                        0x0800011f   Thumb Code     0  startup_stm32f103xb.o(.text)
    USART3_IRQHandler                        0x0800011f   Thumb Code     0  startup_stm32f103xb.o(.text)
    USBWakeUp_IRQHandler                     0x0800011f   Thumb Code     0  startup_stm32f103xb.o(.text)
    USB_HP_CAN1_TX_IRQHandler                0x0800011f   Thumb Code     0  startup_stm32f103xb.o(.text)
    USB_LP_CAN1_RX0_IRQHandler               0x0800011f   Thumb Code     0  startup_stm32f103xb.o(.text)
    WWDG_IRQHandler                          0x0800011f   Thumb Code     0  startup_stm32f103xb.o(.text)
    __aeabi_ldivmod                          0x08000129   Thumb Code    98  ldiv.o(.text)
    __aeabi_llsr                             0x0800018b   Thumb Code    32  llushr.o(.text)
    _ll_ushift_r                             0x0800018b   Thumb Code     0  llushr.o(.text)
    __aeabi_memset                           0x080001ab   Thumb Code    14  memseta.o(.text)
    __aeabi_memset4                          0x080001ab   Thumb Code     0  memseta.o(.text)
    __aeabi_memset8                          0x080001ab   Thumb Code     0  memseta.o(.text)
    __aeabi_memclr                           0x080001b9   Thumb Code     4  memseta.o(.text)
    __aeabi_memclr4                          0x080001b9   Thumb Code     0  memseta.o(.text)
    __aeabi_memclr8                          0x080001b9   Thumb Code     0  memseta.o(.text)
    _memset$wrapper                          0x080001bd   Thumb Code    18  memseta.o(.text)
    memcmp                                   0x080001cf   Thumb Code    26  memcmp.o(.text)
    __aeabi_fadd                             0x080001e9   Thumb Code   164  fadd.o(.text)
    __aeabi_fsub                             0x0800028d   Thumb Code     6  fadd.o(.text)
    __aeabi_frsub                            0x08000293   Thumb Code     6  fadd.o(.text)
    __aeabi_fmul                             0x08000299   Thumb Code   100  fmul.o(.text)
    __aeabi_fdiv                             0x080002fd   Thumb Code   124  fdiv.o(.text)
    __ARM_scalbnf                            0x08000379   Thumb Code    24  fscalb.o(.text)
    scalbnf                                  0x08000379   Thumb Code     0  fscalb.o(.text)
    __aeabi_dadd                             0x08000391   Thumb Code   322  dadd.o(.text)
    __aeabi_dsub                             0x080004d3   Thumb Code     6  dadd.o(.text)
    __aeabi_drsub                            0x080004d9   Thumb Code     6  dadd.o(.text)
    __aeabi_dmul                             0x080004df   Thumb Code   228  dmul.o(.text)
    __aeabi_ddiv                             0x080005c3   Thumb Code   222  ddiv.o(.text)
    __aeabi_i2f                              0x080006a1   Thumb Code    18  fflti.o(.text)
    __aeabi_ui2f                             0x080006b3   Thumb Code    10  ffltui.o(.text)
    __aeabi_f2iz                             0x080006bd   Thumb Code    50  ffixi.o(.text)
    __aeabi_f2uiz                            0x080006ef   Thumb Code    40  ffixui.o(.text)
    __aeabi_f2d                              0x08000717   Thumb Code    38  f2d.o(.text)
    __aeabi_d2f                              0x0800073d   Thumb Code    56  d2f.o(.text)
    __aeabi_uidiv                            0x08000775   Thumb Code     0  uidiv.o(.text)
    __aeabi_uidivmod                         0x08000775   Thumb Code    44  uidiv.o(.text)
    __aeabi_uldivmod                         0x080007a1   Thumb Code    98  uldiv.o(.text)
    __aeabi_llsl                             0x08000803   Thumb Code    30  llshl.o(.text)
    _ll_shift_l                              0x08000803   Thumb Code     0  llshl.o(.text)
    __aeabi_lasr                             0x08000821   Thumb Code    36  llsshr.o(.text)
    _ll_sshift_r                             0x08000821   Thumb Code     0  llsshr.o(.text)
    __I$use$fp                               0x08000845   Thumb Code     0  iusefp.o(.text)
    _float_round                             0x08000845   Thumb Code    18  fepilogue.o(.text)
    _float_epilogue                          0x08000857   Thumb Code    92  fepilogue.o(.text)
    _double_round                            0x080008b3   Thumb Code    30  depilogue.o(.text)
    _double_epilogue                         0x080008d1   Thumb Code   156  depilogue.o(.text)
    __ARM_scalbn                             0x0800096d   Thumb Code    46  dscalb.o(.text)
    scalbn                                   0x0800096d   Thumb Code     0  dscalb.o(.text)
    __aeabi_d2ulz                            0x0800099b   Thumb Code    48  dfixul.o(.text)
    __aeabi_cdcmpeq                          0x080009cd   Thumb Code     0  cdcmple.o(.text)
    __aeabi_cdcmple                          0x080009cd   Thumb Code    48  cdcmple.o(.text)
    __aeabi_cdrcmple                         0x080009fd   Thumb Code    48  cdrcmple.o(.text)
    __scatterload                            0x08000a2d   Thumb Code    28  init.o(.text)
    __scatterload_rt2                        0x08000a2d   Thumb Code     0  init.o(.text)
    _dsqrt                                   0x08000a51   Thumb Code   162  dsqrt.o(.text)
    BusFault_Handler                         0x08000af3   Thumb Code     2  stm32f1xx_it.o(i.BusFault_Handler)
    DMP_Read_Len                             0x08000af5   Thumb Code    34  mpu6050.o(i.DMP_Read_Len)
    DMP_Write_Len                            0x08000b1d   Thumb Code    34  mpu6050.o(i.DMP_Write_Len)
    DebugMon_Handler                         0x08000b45   Thumb Code     2  stm32f1xx_it.o(i.DebugMon_Handler)
    Error_Handler                            0x08000b47   Thumb Code     4  main.o(i.Error_Handler)
    HAL_Delay                                0x08000b4d   Thumb Code    32  stm32f1xx_hal.o(i.HAL_Delay)
    HAL_GPIO_Init                            0x08000b71   Thumb Code   446  stm32f1xx_hal_gpio.o(i.HAL_GPIO_Init)
    HAL_GetTick                              0x08000d51   Thumb Code     6  stm32f1xx_hal.o(i.HAL_GetTick)
    HAL_I2C_Init                             0x08000d5d   Thumb Code   376  stm32f1xx_hal_i2c.o(i.HAL_I2C_Init)
    HAL_I2C_Mem_Read                         0x08000ee5   Thumb Code   574  stm32f1xx_hal_i2c.o(i.HAL_I2C_Mem_Read)
    HAL_I2C_Mem_Write                        0x08001135   Thumb Code   294  stm32f1xx_hal_i2c.o(i.HAL_I2C_Mem_Write)
    HAL_I2C_MspInit                          0x08001265   Thumb Code    80  i2c.o(i.HAL_I2C_MspInit)
    HAL_IncTick                              0x080012c1   Thumb Code    12  stm32f1xx_hal.o(i.HAL_IncTick)
    HAL_Init                                 0x080012d1   Thumb Code    32  stm32f1xx_hal.o(i.HAL_Init)
    HAL_InitTick                             0x080012f5   Thumb Code    54  stm32f1xx_hal.o(i.HAL_InitTick)
    HAL_MspInit                              0x08001335   Thumb Code    52  stm32f1xx_hal_msp.o(i.HAL_MspInit)
    HAL_NVIC_SetPriority                     0x08001371   Thumb Code    60  stm32f1xx_hal_cortex.o(i.HAL_NVIC_SetPriority)
    HAL_NVIC_SetPriorityGrouping             0x080013b1   Thumb Code    26  stm32f1xx_hal_cortex.o(i.HAL_NVIC_SetPriorityGrouping)
    HAL_RCC_ClockConfig                      0x080013d5   Thumb Code   280  stm32f1xx_hal_rcc.o(i.HAL_RCC_ClockConfig)
    HAL_RCC_GetPCLK1Freq                     0x08001501   Thumb Code    20  stm32f1xx_hal_rcc.o(i.HAL_RCC_GetPCLK1Freq)
    HAL_RCC_GetPCLK2Freq                     0x08001521   Thumb Code    20  stm32f1xx_hal_rcc.o(i.HAL_RCC_GetPCLK2Freq)
    HAL_RCC_GetSysClockFreq                  0x08001541   Thumb Code    58  stm32f1xx_hal_rcc.o(i.HAL_RCC_GetSysClockFreq)
    HAL_RCC_OscConfig                        0x0800158d   Thumb Code   778  stm32f1xx_hal_rcc.o(i.HAL_RCC_OscConfig)
    HAL_SYSTICK_Config                       0x080018ad   Thumb Code    40  stm32f1xx_hal_cortex.o(i.HAL_SYSTICK_Config)
    HAL_UART_Init                            0x080018d5   Thumb Code   100  stm32f1xx_hal_uart.o(i.HAL_UART_Init)
    HAL_UART_MspInit                         0x08001939   Thumb Code   100  usart.o(i.HAL_UART_MspInit)
    HAL_UART_Transmit                        0x080019a9   Thumb Code   154  stm32f1xx_hal_uart.o(i.HAL_UART_Transmit)
    HardFault_Handler                        0x08001a43   Thumb Code     2  stm32f1xx_it.o(i.HardFault_Handler)
    MPU_Init                                 0x08001e83   Thumb Code   114  mpu6050.o(i.MPU_Init)
    MPU_Read_Byte                            0x08001ef5   Thumb Code    46  mpu6050.o(i.MPU_Read_Byte)
    MPU_Set_Accel_Fsr                        0x08001f29   Thumb Code    10  mpu6050.o(i.MPU_Set_Accel_Fsr)
    MPU_Set_Gyro_Fsr                         0x08001f33   Thumb Code    10  mpu6050.o(i.MPU_Set_Gyro_Fsr)
    MPU_Set_LPF                              0x08001f3d   Thumb Code    48  mpu6050.o(i.MPU_Set_LPF)
    MPU_Set_Rate                             0x08001f6d   Thumb Code    46  mpu6050.o(i.MPU_Set_Rate)
    MPU_Write_Byte                           0x08001f9d   Thumb Code    42  mpu6050.o(i.MPU_Write_Byte)
    MX_GPIO_Init                             0x08001fcd   Thumb Code    70  gpio.o(i.MX_GPIO_Init)
    MX_I2C1_Init                             0x08002019   Thumb Code    50  i2c.o(i.MX_I2C1_Init)
    MX_USART1_UART_Init                      0x08002059   Thumb Code    48  usart.o(i.MX_USART1_UART_Init)
    MemManage_Handler                        0x08002091   Thumb Code     2  stm32f1xx_it.o(i.MemManage_Handler)
    NMI_Handler                              0x08002093   Thumb Code     2  stm32f1xx_it.o(i.NMI_Handler)
    PendSV_Handler                           0x08002095   Thumb Code     2  stm32f1xx_it.o(i.PendSV_Handler)
    SVC_Handler                              0x08002097   Thumb Code     2  stm32f1xx_it.o(i.SVC_Handler)
    SysTick_Handler                          0x08002099   Thumb Code     4  stm32f1xx_it.o(i.SysTick_Handler)
    SystemClock_Config                       0x0800209d   Thumb Code    94  main.o(i.SystemClock_Config)
    SystemInit                               0x080020fb   Thumb Code     2  system_stm32f1xx.o(i.SystemInit)
    UsageFault_Handler                       0x0800222d   Thumb Code     2  stm32f1xx_it.o(i.UsageFault_Handler)
    __0printf                                0x08002231   Thumb Code    22  printfa.o(i.__0printf)
    __1printf                                0x08002231   Thumb Code     0  printfa.o(i.__0printf)
    __2printf                                0x08002231   Thumb Code     0  printfa.o(i.__0printf)
    __c89printf                              0x08002231   Thumb Code     0  printfa.o(i.__0printf)
    printf                                   0x08002231   Thumb Code     0  printfa.o(i.__0printf)
    __ARM_fpclassify                         0x08002251   Thumb Code    40  fpclassify.o(i.__ARM_fpclassify)
    __kernel_poly                            0x08002299   Thumb Code   170  poly.o(i.__kernel_poly)
    __mathlib_dbl_infnan                     0x08002343   Thumb Code     6  dunder.o(i.__mathlib_dbl_infnan)
    __mathlib_dbl_infnan2                    0x08002349   Thumb Code     4  dunder.o(i.__mathlib_dbl_infnan2)
    __mathlib_dbl_invalid                    0x0800234d   Thumb Code    12  dunder.o(i.__mathlib_dbl_invalid)
    __mathlib_dbl_underflow                  0x08002359   Thumb Code    10  dunder.o(i.__mathlib_dbl_underflow)
    __scatterload_copy                       0x08002369   Thumb Code    14  handlers.o(i.__scatterload_copy)
    __scatterload_null                       0x08002377   Thumb Code     2  handlers.o(i.__scatterload_null)
    __scatterload_zeroinit                   0x08002379   Thumb Code    14  handlers.o(i.__scatterload_zeroinit)
    __set_errno                              0x08002389   Thumb Code     6  errno.o(i.__set_errno)
    asin                                     0x08002ca1   Thumb Code   572  asin.o(i.asin)
    atan                                     0x08002f11   Thumb Code   474  atan.o(i.atan)
    atan2                                    0x08003131   Thumb Code   374  atan2.o(i.atan2)
    dmp_enable_6x_lp_quat                    0x080032cd   Thumb Code    58  inv_mpu_dmp_motion_driver.o(i.dmp_enable_6x_lp_quat)
    dmp_enable_feature                       0x08003309   Thumb Code   464  inv_mpu_dmp_motion_driver.o(i.dmp_enable_feature)
    dmp_enable_gyro_cal                      0x080034e1   Thumb Code    34  inv_mpu_dmp_motion_driver.o(i.dmp_enable_gyro_cal)
    dmp_enable_lp_quat                       0x0800351d   Thumb Code    58  inv_mpu_dmp_motion_driver.o(i.dmp_enable_lp_quat)
    dmp_load_motion_driver_firmware          0x08003559   Thumb Code    16  inv_mpu_dmp_motion_driver.o(i.dmp_load_motion_driver_firmware)
    dmp_read_fifo                            0x0800356d   Thumb Code   352  inv_mpu_dmp_motion_driver.o(i.dmp_read_fifo)
    dmp_set_accel_bias                       0x080036d1   Thumb Code   210  inv_mpu_dmp_motion_driver.o(i.dmp_set_accel_bias)
    dmp_set_fifo_rate                        0x080037a9   Thumb Code    82  inv_mpu_dmp_motion_driver.o(i.dmp_set_fifo_rate)
    dmp_set_gyro_bias                        0x0800380d   Thumb Code   196  inv_mpu_dmp_motion_driver.o(i.dmp_set_gyro_bias)
    dmp_set_orientation                      0x080038d9   Thumb Code   246  inv_mpu_dmp_motion_driver.o(i.dmp_set_orientation)
    dmp_set_shake_reject_thresh              0x080039e5   Thumb Code    48  inv_mpu_dmp_motion_driver.o(i.dmp_set_shake_reject_thresh)
    dmp_set_shake_reject_time                0x08003a15   Thumb Code    32  inv_mpu_dmp_motion_driver.o(i.dmp_set_shake_reject_time)
    dmp_set_shake_reject_timeout             0x08003a35   Thumb Code    32  inv_mpu_dmp_motion_driver.o(i.dmp_set_shake_reject_timeout)
    dmp_set_tap_axes                         0x08003a55   Thumb Code    64  inv_mpu_dmp_motion_driver.o(i.dmp_set_tap_axes)
    dmp_set_tap_count                        0x08003a95   Thumb Code    34  inv_mpu_dmp_motion_driver.o(i.dmp_set_tap_count)
    dmp_set_tap_thresh                       0x08003ab9   Thumb Code   274  inv_mpu_dmp_motion_driver.o(i.dmp_set_tap_thresh)
    dmp_set_tap_time                         0x08003be1   Thumb Code    32  inv_mpu_dmp_motion_driver.o(i.dmp_set_tap_time)
    dmp_set_tap_time_multi                   0x08003c01   Thumb Code    32  inv_mpu_dmp_motion_driver.o(i.dmp_set_tap_time_multi)
    fputc                                    0x08003c21   Thumb Code    20  usart.o(i.fputc)
    inv_orientation_matrix_to_scalar         0x080040cd   Thumb Code    34  inv_mpu.o(i.inv_orientation_matrix_to_scalar)
    inv_row_2_scale                          0x080040ef   Thumb Code    72  inv_mpu.o(i.inv_row_2_scale)
    main                                     0x08004139   Thumb Code   104  main.o(i.main)
    mget_ms                                  0x080041cd   Thumb Code     2  inv_mpu.o(i.mget_ms)
    mpu_configure_fifo                       0x080041d1   Thumb Code    78  inv_mpu.o(i.mpu_configure_fifo)
    mpu_dmp_get_data                         0x08004225   Thumb Code   408  inv_mpu.o(i.mpu_dmp_get_data)
    mpu_dmp_init                             0x080043c1   Thumb Code   154  inv_mpu.o(i.mpu_dmp_init)
    mpu_get_accel_fsr                        0x08004461   Thumb Code    54  inv_mpu.o(i.mpu_get_accel_fsr)
    mpu_get_accel_sens                       0x0800449d   Thumb Code    62  inv_mpu.o(i.mpu_get_accel_sens)
    mpu_get_gyro_fsr                         0x080044e1   Thumb Code    48  inv_mpu.o(i.mpu_get_gyro_fsr)
    mpu_get_gyro_sens                        0x08004515   Thumb Code    44  inv_mpu.o(i.mpu_get_gyro_sens)
    mpu_get_lpf                              0x08004555   Thumb Code    52  inv_mpu.o(i.mpu_get_lpf)
    mpu_get_sample_rate                      0x0800458d   Thumb Code    22  inv_mpu.o(i.mpu_get_sample_rate)
    mpu_init                                 0x080045a9   Thumb Code   310  inv_mpu.o(i.mpu_init)
    mpu_load_firmware                        0x08004731   Thumb Code   154  inv_mpu.o(i.mpu_load_firmware)
    mpu_lp_accel_mode                        0x080047d1   Thumb Code   178  inv_mpu.o(i.mpu_lp_accel_mode)
    mpu_read_fifo_stream                     0x08004889   Thumb Code   140  inv_mpu.o(i.mpu_read_fifo_stream)
    mpu_read_mem                             0x08004919   Thumb Code    80  inv_mpu.o(i.mpu_read_mem)
    mpu_reset_fifo                           0x0800496d   Thumb Code   346  inv_mpu.o(i.mpu_reset_fifo)
    mpu_run_self_test                        0x08004acd   Thumb Code   234  inv_mpu.o(i.mpu_run_self_test)
    mpu_set_accel_fsr                        0x08004bbd   Thumb Code    98  inv_mpu.o(i.mpu_set_accel_fsr)
    mpu_set_bypass                           0x08004c25   Thumb Code   214  inv_mpu.o(i.mpu_set_bypass)
    mpu_set_dmp_state                        0x08004d01   Thumb Code   114  inv_mpu.o(i.mpu_set_dmp_state)
    mpu_set_gyro_fsr                         0x08004d79   Thumb Code   104  inv_mpu.o(i.mpu_set_gyro_fsr)
    mpu_set_int_latched                      0x08004de5   Thumb Code    94  inv_mpu.o(i.mpu_set_int_latched)
    mpu_set_lpf                              0x08004e49   Thumb Code   102  inv_mpu.o(i.mpu_set_lpf)
    mpu_set_sample_rate                      0x08004eb5   Thumb Code   124  inv_mpu.o(i.mpu_set_sample_rate)
    mpu_set_sensors                          0x08004f35   Thumb Code   178  inv_mpu.o(i.mpu_set_sensors)
    mpu_write_mem                            0x08004fed   Thumb Code    80  inv_mpu.o(i.mpu_write_mem)
    run_self_test                            0x08005041   Thumb Code   128  inv_mpu.o(i.run_self_test)
    sqrt                                     0x08005119   Thumb Code    76  sqrt.o(i.sqrt)
    AHBPrescTable                            0x08005176   Data          16  system_stm32f1xx.o(.constdata)
    APBPrescTable                            0x08005186   Data           8  system_stm32f1xx.o(.constdata)
    reg                                      0x0800518e   Data          27  inv_mpu.o(.constdata)
    hw                                       0x080051aa   Data          12  inv_mpu.o(.constdata)
    test                                     0x080051b8   Data          40  inv_mpu.o(.constdata)
    __mathlib_zero                           0x08005ec0   Data           8  qnan.o(.constdata)
    Region$$Table$$Base                      0x08005f18   Number         0  anon$$obj.o(Region$$Table)
    Region$$Table$$Limit                     0x08005f38   Number         0  anon$$obj.o(Region$$Table)
    uwTickFreq                               0x20000000   Data           1  stm32f1xx_hal.o(.data)
    uwTickPrio                               0x20000004   Data           4  stm32f1xx_hal.o(.data)
    uwTick                                   0x20000008   Data           4  stm32f1xx_hal.o(.data)
    SystemCoreClock                          0x2000000c   Data           4  system_stm32f1xx.o(.data)
    __stdout                                 0x20000048   Data           4  stdout.o(.data)
    hi2c1                                    0x20000050   Data          84  i2c.o(.bss)
    huart1                                   0x200000a4   Data          72  usart.o(.bss)
    __initial_sp                             0x20000500   Data           0  startup_stm32f103xb.o(STACK)



==============================================================================

Memory Map of the image

  Image Entry point : 0x080000ed

  Load Region LR_IROM1 (Base: 0x08000000, Size: 0x00005f88, Max: 0x00010000, ABSOLUTE)

    Execution Region ER_IROM1 (Exec base: 0x08000000, Load base: 0x08000000, Size: 0x00005f38, Max: 0x00010000, ABSOLUTE)

    Exec Addr    Load Addr    Size         Type   Attr      Idx    E Section Name        Object

    0x08000000   0x08000000   0x000000ec   Data   RO            3    RESET               startup_stm32f103xb.o
    0x080000ec   0x080000ec   0x00000000   Code   RO         2916  * .ARM.Collect$$$$00000000  mc_w.l(entry.o)
    0x080000ec   0x080000ec   0x00000004   Code   RO         3253    .ARM.Collect$$$$00000001  mc_w.l(entry2.o)
    0x080000f0   0x080000f0   0x00000004   Code   RO         3256    .ARM.Collect$$$$00000004  mc_w.l(entry5.o)
    0x080000f4   0x080000f4   0x00000000   Code   RO         3258    .ARM.Collect$$$$00000008  mc_w.l(entry7b.o)
    0x080000f4   0x080000f4   0x00000000   Code   RO         3260    .ARM.Collect$$$$0000000A  mc_w.l(entry8b.o)
    0x080000f4   0x080000f4   0x00000008   Code   RO         3261    .ARM.Collect$$$$0000000B  mc_w.l(entry9a.o)
    0x080000fc   0x080000fc   0x00000004   Code   RO         3268    .ARM.Collect$$$$0000000E  mc_w.l(entry12b.o)
    0x08000100   0x08000100   0x00000000   Code   RO         3263    .ARM.Collect$$$$0000000F  mc_w.l(entry10a.o)
    0x08000100   0x08000100   0x00000000   Code   RO         3265    .ARM.Collect$$$$00000011  mc_w.l(entry11a.o)
    0x08000100   0x08000100   0x00000004   Code   RO         3254    .ARM.Collect$$$$00002712  mc_w.l(entry2.o)
    0x08000104   0x08000104   0x00000024   Code   RO            4    .text               startup_stm32f103xb.o
    0x08000128   0x08000128   0x00000062   Code   RO         2919    .text               mc_w.l(ldiv.o)
    0x0800018a   0x0800018a   0x00000020   Code   RO         2921    .text               mc_w.l(llushr.o)
    0x080001aa   0x080001aa   0x00000024   Code   RO         2923    .text               mc_w.l(memseta.o)
    0x080001ce   0x080001ce   0x0000001a   Code   RO         2925    .text               mc_w.l(memcmp.o)
    0x080001e8   0x080001e8   0x000000b0   Code   RO         3188    .text               mf_w.l(fadd.o)
    0x08000298   0x08000298   0x00000064   Code   RO         3190    .text               mf_w.l(fmul.o)
    0x080002fc   0x080002fc   0x0000007c   Code   RO         3192    .text               mf_w.l(fdiv.o)
    0x08000378   0x08000378   0x00000018   Code   RO         3194    .text               mf_w.l(fscalb.o)
    0x08000390   0x08000390   0x0000014e   Code   RO         3196    .text               mf_w.l(dadd.o)
    0x080004de   0x080004de   0x000000e4   Code   RO         3198    .text               mf_w.l(dmul.o)
    0x080005c2   0x080005c2   0x000000de   Code   RO         3200    .text               mf_w.l(ddiv.o)
    0x080006a0   0x080006a0   0x00000012   Code   RO         3202    .text               mf_w.l(fflti.o)
    0x080006b2   0x080006b2   0x0000000a   Code   RO         3204    .text               mf_w.l(ffltui.o)
    0x080006bc   0x080006bc   0x00000032   Code   RO         3208    .text               mf_w.l(ffixi.o)
    0x080006ee   0x080006ee   0x00000028   Code   RO         3210    .text               mf_w.l(ffixui.o)
    0x08000716   0x08000716   0x00000026   Code   RO         3212    .text               mf_w.l(f2d.o)
    0x0800073c   0x0800073c   0x00000038   Code   RO         3214    .text               mf_w.l(d2f.o)
    0x08000774   0x08000774   0x0000002c   Code   RO         3270    .text               mc_w.l(uidiv.o)
    0x080007a0   0x080007a0   0x00000062   Code   RO         3272    .text               mc_w.l(uldiv.o)
    0x08000802   0x08000802   0x0000001e   Code   RO         3274    .text               mc_w.l(llshl.o)
    0x08000820   0x08000820   0x00000024   Code   RO         3276    .text               mc_w.l(llsshr.o)
    0x08000844   0x08000844   0x00000000   Code   RO         3285    .text               mc_w.l(iusefp.o)
    0x08000844   0x08000844   0x0000006e   Code   RO         3286    .text               mf_w.l(fepilogue.o)
    0x080008b2   0x080008b2   0x000000ba   Code   RO         3288    .text               mf_w.l(depilogue.o)
    0x0800096c   0x0800096c   0x0000002e   Code   RO         3290    .text               mf_w.l(dscalb.o)
    0x0800099a   0x0800099a   0x00000030   Code   RO         3292    .text               mf_w.l(dfixul.o)
    0x080009ca   0x080009ca   0x00000002   PAD
    0x080009cc   0x080009cc   0x00000030   Code   RO         3294    .text               mf_w.l(cdcmple.o)
    0x080009fc   0x080009fc   0x00000030   Code   RO         3296    .text               mf_w.l(cdrcmple.o)
    0x08000a2c   0x08000a2c   0x00000024   Code   RO         3298    .text               mc_w.l(init.o)
    0x08000a50   0x08000a50   0x000000a2   Code   RO         3300    .text               mf_w.l(dsqrt.o)
    0x08000af2   0x08000af2   0x00000002   Code   RO          278    i.BusFault_Handler  stm32f1xx_it.o
    0x08000af4   0x08000af4   0x00000028   Code   RO         2264    i.DMP_Read_Len      mpu6050.o
    0x08000b1c   0x08000b1c   0x00000028   Code   RO         2265    i.DMP_Write_Len     mpu6050.o
    0x08000b44   0x08000b44   0x00000002   Code   RO          279    i.DebugMon_Handler  stm32f1xx_it.o
    0x08000b46   0x08000b46   0x00000004   Code   RO           13    i.Error_Handler     main.o
    0x08000b4a   0x08000b4a   0x00000002   PAD
    0x08000b4c   0x08000b4c   0x00000024   Code   RO          857    i.HAL_Delay         stm32f1xx_hal.o
    0x08000b70   0x08000b70   0x000001e0   Code   RO         1167    i.HAL_GPIO_Init     stm32f1xx_hal_gpio.o
    0x08000d50   0x08000d50   0x0000000c   Code   RO          861    i.HAL_GetTick       stm32f1xx_hal.o
    0x08000d5c   0x08000d5c   0x00000188   Code   RO          424    i.HAL_I2C_Init      stm32f1xx_hal_i2c.o
    0x08000ee4   0x08000ee4   0x00000250   Code   RO          442    i.HAL_I2C_Mem_Read  stm32f1xx_hal_i2c.o
    0x08001134   0x08001134   0x00000130   Code   RO          445    i.HAL_I2C_Mem_Write  stm32f1xx_hal_i2c.o
    0x08001264   0x08001264   0x0000005c   Code   RO          183    i.HAL_I2C_MspInit   i2c.o
    0x080012c0   0x080012c0   0x00000010   Code   RO          867    i.HAL_IncTick       stm32f1xx_hal.o
    0x080012d0   0x080012d0   0x00000024   Code   RO          868    i.HAL_Init          stm32f1xx_hal.o
    0x080012f4   0x080012f4   0x00000040   Code   RO          869    i.HAL_InitTick      stm32f1xx_hal.o
    0x08001334   0x08001334   0x0000003c   Code   RO          353    i.HAL_MspInit       stm32f1xx_hal_msp.o
    0x08001370   0x08001370   0x00000040   Code   RO         1333    i.HAL_NVIC_SetPriority  stm32f1xx_hal_cortex.o
    0x080013b0   0x080013b0   0x00000024   Code   RO         1334    i.HAL_NVIC_SetPriorityGrouping  stm32f1xx_hal_cortex.o
    0x080013d4   0x080013d4   0x0000012c   Code   RO         1025    i.HAL_RCC_ClockConfig  stm32f1xx_hal_rcc.o
    0x08001500   0x08001500   0x00000020   Code   RO         1032    i.HAL_RCC_GetPCLK1Freq  stm32f1xx_hal_rcc.o
    0x08001520   0x08001520   0x00000020   Code   RO         1033    i.HAL_RCC_GetPCLK2Freq  stm32f1xx_hal_rcc.o
    0x08001540   0x08001540   0x0000004c   Code   RO         1034    i.HAL_RCC_GetSysClockFreq  stm32f1xx_hal_rcc.o
    0x0800158c   0x0800158c   0x00000320   Code   RO         1037    i.HAL_RCC_OscConfig  stm32f1xx_hal_rcc.o
    0x080018ac   0x080018ac   0x00000028   Code   RO         1338    i.HAL_SYSTICK_Config  stm32f1xx_hal_cortex.o
    0x080018d4   0x080018d4   0x00000064   Code   RO         1893    i.HAL_UART_Init     stm32f1xx_hal_uart.o
    0x08001938   0x08001938   0x00000070   Code   RO          225    i.HAL_UART_MspInit  usart.o
    0x080019a8   0x080019a8   0x0000009a   Code   RO         1901    i.HAL_UART_Transmit  stm32f1xx_hal_uart.o
    0x08001a42   0x08001a42   0x00000002   Code   RO          280    i.HardFault_Handler  stm32f1xx_it.o
    0x08001a44   0x08001a44   0x0000002e   Code   RO          467    i.I2C_IsAcknowledgeFailed  stm32f1xx_hal_i2c.o
    0x08001a72   0x08001a72   0x00000002   PAD
    0x08001a74   0x08001a74   0x000000fc   Code   RO          477    i.I2C_RequestMemoryRead  stm32f1xx_hal_i2c.o
    0x08001b70   0x08001b70   0x000000a8   Code   RO          478    i.I2C_RequestMemoryWrite  stm32f1xx_hal_i2c.o
    0x08001c18   0x08001c18   0x00000056   Code   RO          482    i.I2C_WaitOnBTFFlagUntilTimeout  stm32f1xx_hal_i2c.o
    0x08001c6e   0x08001c6e   0x00000002   PAD
    0x08001c70   0x08001c70   0x00000090   Code   RO          483    i.I2C_WaitOnFlagUntilTimeout  stm32f1xx_hal_i2c.o
    0x08001d00   0x08001d00   0x000000bc   Code   RO          484    i.I2C_WaitOnMasterAddressFlagUntilTimeout  stm32f1xx_hal_i2c.o
    0x08001dbc   0x08001dbc   0x00000070   Code   RO          485    i.I2C_WaitOnRXNEFlagUntilTimeout  stm32f1xx_hal_i2c.o
    0x08001e2c   0x08001e2c   0x00000056   Code   RO          486    i.I2C_WaitOnTXEFlagUntilTimeout  stm32f1xx_hal_i2c.o
    0x08001e82   0x08001e82   0x00000072   Code   RO         2269    i.MPU_Init          mpu6050.o
    0x08001ef4   0x08001ef4   0x00000034   Code   RO         2270    i.MPU_Read_Byte     mpu6050.o
    0x08001f28   0x08001f28   0x0000000a   Code   RO         2272    i.MPU_Set_Accel_Fsr  mpu6050.o
    0x08001f32   0x08001f32   0x0000000a   Code   RO         2273    i.MPU_Set_Gyro_Fsr  mpu6050.o
    0x08001f3c   0x08001f3c   0x00000030   Code   RO         2274    i.MPU_Set_LPF       mpu6050.o
    0x08001f6c   0x08001f6c   0x0000002e   Code   RO         2275    i.MPU_Set_Rate      mpu6050.o
    0x08001f9a   0x08001f9a   0x00000002   PAD
    0x08001f9c   0x08001f9c   0x00000030   Code   RO         2276    i.MPU_Write_Byte    mpu6050.o
    0x08001fcc   0x08001fcc   0x0000004c   Code   RO          158    i.MX_GPIO_Init      gpio.o
    0x08002018   0x08002018   0x00000040   Code   RO          184    i.MX_I2C1_Init      i2c.o
    0x08002058   0x08002058   0x00000038   Code   RO          226    i.MX_USART1_UART_Init  usart.o
    0x08002090   0x08002090   0x00000002   Code   RO          281    i.MemManage_Handler  stm32f1xx_it.o
    0x08002092   0x08002092   0x00000002   Code   RO          282    i.NMI_Handler       stm32f1xx_it.o
    0x08002094   0x08002094   0x00000002   Code   RO          283    i.PendSV_Handler    stm32f1xx_it.o
    0x08002096   0x08002096   0x00000002   Code   RO          284    i.SVC_Handler       stm32f1xx_it.o
    0x08002098   0x08002098   0x00000004   Code   RO          285    i.SysTick_Handler   stm32f1xx_it.o
    0x0800209c   0x0800209c   0x0000005e   Code   RO           14    i.SystemClock_Config  main.o
    0x080020fa   0x080020fa   0x00000002   Code   RO         2227    i.SystemInit        system_stm32f1xx.o
    0x080020fc   0x080020fc   0x000000b8   Code   RO         1919    i.UART_SetConfig    stm32f1xx_hal_uart.o
    0x080021b4   0x080021b4   0x00000078   Code   RO         1922    i.UART_WaitOnFlagUntilTimeout  stm32f1xx_hal_uart.o
    0x0800222c   0x0800222c   0x00000002   Code   RO          286    i.UsageFault_Handler  stm32f1xx_it.o
    0x0800222e   0x0800222e   0x00000002   PAD
    0x08002230   0x08002230   0x00000020   Code   RO         3160    i.__0printf         mc_w.l(printfa.o)
    0x08002250   0x08002250   0x00000028   Code   RO         3240    i.__ARM_fpclassify  m_ws.l(fpclassify.o)
    0x08002278   0x08002278   0x00000020   Code   RO         1340    i.__NVIC_SetPriority  stm32f1xx_hal_cortex.o
    0x08002298   0x08002298   0x000000aa   Code   RO         3242    i.__kernel_poly     m_ws.l(poly.o)
    0x08002342   0x08002342   0x00000006   Code   RO         3227    i.__mathlib_dbl_infnan  m_ws.l(dunder.o)
    0x08002348   0x08002348   0x00000004   Code   RO         3228    i.__mathlib_dbl_infnan2  m_ws.l(dunder.o)
    0x0800234c   0x0800234c   0x0000000c   Code   RO         3229    i.__mathlib_dbl_invalid  m_ws.l(dunder.o)
    0x08002358   0x08002358   0x00000010   Code   RO         3232    i.__mathlib_dbl_underflow  m_ws.l(dunder.o)
    0x08002368   0x08002368   0x0000000e   Code   RO         3304    i.__scatterload_copy  mc_w.l(handlers.o)
    0x08002376   0x08002376   0x00000002   Code   RO         3305    i.__scatterload_null  mc_w.l(handlers.o)
    0x08002378   0x08002378   0x0000000e   Code   RO         3306    i.__scatterload_zeroinit  mc_w.l(handlers.o)
    0x08002386   0x08002386   0x00000002   PAD
    0x08002388   0x08002388   0x0000000c   Code   RO         3280    i.__set_errno       mc_w.l(errno.o)
    0x08002394   0x08002394   0x00000184   Code   RO         3167    i._fp_digits        mc_w.l(printfa.o)
    0x08002518   0x08002518   0x000006b4   Code   RO         3168    i._printf_core      mc_w.l(printfa.o)
    0x08002bcc   0x08002bcc   0x00000024   Code   RO         3169    i._printf_post_padding  mc_w.l(printfa.o)
    0x08002bf0   0x08002bf0   0x0000002e   Code   RO         3170    i._printf_pre_padding  mc_w.l(printfa.o)
    0x08002c1e   0x08002c1e   0x00000002   PAD
    0x08002c20   0x08002c20   0x00000080   Code   RO         2363    i.accel_self_test   inv_mpu.o
    0x08002ca0   0x08002ca0   0x00000270   Code   RO         2899    i.asin              m_ws.l(asin.o)
    0x08002f10   0x08002f10   0x00000220   Code   RO         3217    i.atan              m_ws.l(atan.o)
    0x08003130   0x08003130   0x0000019c   Code   RO         2909    i.atan2             m_ws.l(atan2.o)
    0x080032cc   0x080032cc   0x0000003a   Code   RO         2712    i.dmp_enable_6x_lp_quat  inv_mpu_dmp_motion_driver.o
    0x08003306   0x08003306   0x00000002   PAD
    0x08003308   0x08003308   0x000001d8   Code   RO         2713    i.dmp_enable_feature  inv_mpu_dmp_motion_driver.o
    0x080034e0   0x080034e0   0x0000003c   Code   RO         2714    i.dmp_enable_gyro_cal  inv_mpu_dmp_motion_driver.o
    0x0800351c   0x0800351c   0x0000003a   Code   RO         2715    i.dmp_enable_lp_quat  inv_mpu_dmp_motion_driver.o
    0x08003556   0x08003556   0x00000002   PAD
    0x08003558   0x08003558   0x00000014   Code   RO         2720    i.dmp_load_motion_driver_firmware  inv_mpu_dmp_motion_driver.o
    0x0800356c   0x0800356c   0x00000164   Code   RO         2721    i.dmp_read_fifo     inv_mpu_dmp_motion_driver.o
    0x080036d0   0x080036d0   0x000000d8   Code   RO         2724    i.dmp_set_accel_bias  inv_mpu_dmp_motion_driver.o
    0x080037a8   0x080037a8   0x00000064   Code   RO         2725    i.dmp_set_fifo_rate  inv_mpu_dmp_motion_driver.o
    0x0800380c   0x0800380c   0x000000cc   Code   RO         2726    i.dmp_set_gyro_bias  inv_mpu_dmp_motion_driver.o
    0x080038d8   0x080038d8   0x0000010c   Code   RO         2728    i.dmp_set_orientation  inv_mpu_dmp_motion_driver.o
    0x080039e4   0x080039e4   0x00000030   Code   RO         2731    i.dmp_set_shake_reject_thresh  inv_mpu_dmp_motion_driver.o
    0x08003a14   0x08003a14   0x00000020   Code   RO         2732    i.dmp_set_shake_reject_time  inv_mpu_dmp_motion_driver.o
    0x08003a34   0x08003a34   0x00000020   Code   RO         2733    i.dmp_set_shake_reject_timeout  inv_mpu_dmp_motion_driver.o
    0x08003a54   0x08003a54   0x00000040   Code   RO         2734    i.dmp_set_tap_axes  inv_mpu_dmp_motion_driver.o
    0x08003a94   0x08003a94   0x00000022   Code   RO         2735    i.dmp_set_tap_count  inv_mpu_dmp_motion_driver.o
    0x08003ab6   0x08003ab6   0x00000002   PAD
    0x08003ab8   0x08003ab8   0x00000128   Code   RO         2736    i.dmp_set_tap_thresh  inv_mpu_dmp_motion_driver.o
    0x08003be0   0x08003be0   0x00000020   Code   RO         2737    i.dmp_set_tap_time  inv_mpu_dmp_motion_driver.o
    0x08003c00   0x08003c00   0x00000020   Code   RO         2738    i.dmp_set_tap_time_multi  inv_mpu_dmp_motion_driver.o
    0x08003c20   0x08003c20   0x00000018   Code   RO          228    i.fputc             usart.o
    0x08003c38   0x08003c38   0x000000ac   Code   RO         2364    i.get_accel_prod_shift  inv_mpu.o
    0x08003ce4   0x08003ce4   0x00000314   Code   RO         2365    i.get_st_biases     inv_mpu.o
    0x08003ff8   0x08003ff8   0x000000d4   Code   RO         2366    i.gyro_self_test    inv_mpu.o
    0x080040cc   0x080040cc   0x00000022   Code   RO         2367    i.inv_orientation_matrix_to_scalar  inv_mpu.o
    0x080040ee   0x080040ee   0x00000048   Code   RO         2368    i.inv_row_2_scale   inv_mpu.o
    0x08004136   0x08004136   0x00000002   PAD
    0x08004138   0x08004138   0x00000094   Code   RO           15    i.main              main.o
    0x080041cc   0x080041cc   0x00000002   Code   RO         2369    i.mget_ms           inv_mpu.o
    0x080041ce   0x080041ce   0x00000002   PAD
    0x080041d0   0x080041d0   0x00000054   Code   RO         2370    i.mpu_configure_fifo  inv_mpu.o
    0x08004224   0x08004224   0x0000019c   Code   RO         2371    i.mpu_dmp_get_data  inv_mpu.o
    0x080043c0   0x080043c0   0x000000a0   Code   RO         2372    i.mpu_dmp_init      inv_mpu.o
    0x08004460   0x08004460   0x0000003c   Code   RO         2373    i.mpu_get_accel_fsr  inv_mpu.o
    0x0800449c   0x0800449c   0x00000044   Code   RO         2375    i.mpu_get_accel_sens  inv_mpu.o
    0x080044e0   0x080044e0   0x00000034   Code   RO         2381    i.mpu_get_gyro_fsr  inv_mpu.o
    0x08004514   0x08004514   0x00000040   Code   RO         2383    i.mpu_get_gyro_sens  inv_mpu.o
    0x08004554   0x08004554   0x00000038   Code   RO         2385    i.mpu_get_lpf       inv_mpu.o
    0x0800458c   0x0800458c   0x0000001c   Code   RO         2387    i.mpu_get_sample_rate  inv_mpu.o
    0x080045a8   0x080045a8   0x00000188   Code   RO         2389    i.mpu_init          inv_mpu.o
    0x08004730   0x08004730   0x000000a0   Code   RO         2390    i.mpu_load_firmware  inv_mpu.o
    0x080047d0   0x080047d0   0x000000b8   Code   RO         2391    i.mpu_lp_accel_mode  inv_mpu.o
    0x08004888   0x08004888   0x00000090   Code   RO         2394    i.mpu_read_fifo_stream  inv_mpu.o
    0x08004918   0x08004918   0x00000054   Code   RO         2395    i.mpu_read_mem      inv_mpu.o
    0x0800496c   0x0800496c   0x00000160   Code   RO         2398    i.mpu_reset_fifo    inv_mpu.o
    0x08004acc   0x08004acc   0x000000f0   Code   RO         2399    i.mpu_run_self_test  inv_mpu.o
    0x08004bbc   0x08004bbc   0x00000068   Code   RO         2401    i.mpu_set_accel_fsr  inv_mpu.o
    0x08004c24   0x08004c24   0x000000dc   Code   RO         2402    i.mpu_set_bypass    inv_mpu.o
    0x08004d00   0x08004d00   0x00000078   Code   RO         2404    i.mpu_set_dmp_state  inv_mpu.o
    0x08004d78   0x08004d78   0x0000006c   Code   RO         2405    i.mpu_set_gyro_fsr  inv_mpu.o
    0x08004de4   0x08004de4   0x00000064   Code   RO         2406    i.mpu_set_int_latched  inv_mpu.o
    0x08004e48   0x08004e48   0x0000006c   Code   RO         2408    i.mpu_set_lpf       inv_mpu.o
    0x08004eb4   0x08004eb4   0x00000080   Code   RO         2409    i.mpu_set_sample_rate  inv_mpu.o
    0x08004f34   0x08004f34   0x000000b8   Code   RO         2410    i.mpu_set_sensors   inv_mpu.o
    0x08004fec   0x08004fec   0x00000054   Code   RO         2411    i.mpu_write_mem     inv_mpu.o
    0x08005040   0x08005040   0x00000080   Code   RO         2412    i.run_self_test     inv_mpu.o
    0x080050c0   0x080050c0   0x00000058   Code   RO         2413    i.set_int_enable    inv_mpu.o
    0x08005118   0x08005118   0x0000004c   Code   RO         3246    i.sqrt              m_ws.l(sqrt.o)
    0x08005164   0x08005164   0x00000012   Data   RO         1038    .constdata          stm32f1xx_hal_rcc.o
    0x08005176   0x08005176   0x00000010   Data   RO         2228    .constdata          system_stm32f1xx.o
    0x08005186   0x08005186   0x00000008   Data   RO         2229    .constdata          system_stm32f1xx.o
    0x0800518e   0x0800518e   0x0000001b   Data   RO         2415    .constdata          inv_mpu.o
    0x080051a9   0x080051a9   0x00000001   PAD
    0x080051aa   0x080051aa   0x0000000c   Data   RO         2416    .constdata          inv_mpu.o
    0x080051b6   0x080051b6   0x00000002   PAD
    0x080051b8   0x080051b8   0x00000028   Data   RO         2417    .constdata          inv_mpu.o
    0x080051e0   0x080051e0   0x00000bf6   Data   RO         2740    .constdata          inv_mpu_dmp_motion_driver.o
    0x08005dd6   0x08005dd6   0x00000002   PAD
    0x08005dd8   0x08005dd8   0x00000050   Data   RO         2900    .constdata          m_ws.l(asin.o)
    0x08005e28   0x08005e28   0x00000098   Data   RO         3218    .constdata          m_ws.l(atan.o)
    0x08005ec0   0x08005ec0   0x00000008   Data   RO         3244    .constdata          m_ws.l(qnan.o)
    0x08005ec8   0x08005ec8   0x0000004d   Data   RO         2418    .conststring        inv_mpu.o
    0x08005f15   0x08005f15   0x00000003   PAD
    0x08005f18   0x08005f18   0x00000020   Data   RO         3302    Region$$Table       anon$$obj.o


    Execution Region RW_IRAM1 (Exec base: 0x20000000, Load base: 0x08005f38, Size: 0x00000500, Max: 0x00005000, ABSOLUTE)

    Exec Addr    Load Addr    Size         Type   Attr      Idx    E Section Name        Object

    0x20000000   0x08005f38   0x0000000c   Data   RW          875    .data               stm32f1xx_hal.o
    0x2000000c   0x08005f44   0x00000004   Data   RW         2230    .data               system_stm32f1xx.o
    0x20000010   0x08005f48   0x00000035   Data   RW         2419    .data               inv_mpu.o
    0x20000045   0x08005f7d   0x00000003   PAD
    0x20000048   0x08005f80   0x00000004   Data   RW         3269    .data               mc_w.l(stdout.o)
    0x2000004c   0x08005f84   0x00000004   Data   RW         3281    .data               mc_w.l(errno.o)
    0x20000050        -       0x00000054   Zero   RW          185    .bss                i2c.o
    0x200000a4        -       0x00000048   Zero   RW          229    .bss                usart.o
    0x200000ec        -       0x00000010   Zero   RW         2739    .bss                inv_mpu_dmp_motion_driver.o
    0x200000fc   0x08005f88   0x00000004   PAD
    0x20000100        -       0x00000400   Zero   RW            1    STACK               startup_stm32f103xb.o


==============================================================================

Image component sizes


      Code (inc. data)   RO Data    RW Data    ZI Data      Debug   Object Name

        76          6          0          0          0        867   gpio.o
       156         26          0          0         84       1657   i2c.o
      5320        290        156         53          0      30438   inv_mpu.o
      2382        118       3062          0         16      19742   inv_mpu_dmp_motion_driver.o
       246         44          0          0          0     404688   main.o
       408         24          0          0          0       5580   mpu6050.o
        36          8        236          0       1024        808   startup_stm32f103xb.o
       164         28          0         12          0       5953   stm32f1xx_hal.o
       172         14          0          0          0      28322   stm32f1xx_hal_cortex.o
       480         34          0          0          0       2276   stm32f1xx_hal_gpio.o
      2370         56          0          0          0      13050   stm32f1xx_hal_i2c.o
        60          8          0          0          0        882   stm32f1xx_hal_msp.o
      1240         84         18          0          0       5160   stm32f1xx_hal_rcc.o
       558          6          0          0          0       4012   stm32f1xx_hal_uart.o
        20          0          0          0          0       3938   stm32f1xx_it.o
         2          0         24          4          0       1139   system_stm32f1xx.o
       192         24          0          0         72       2190   usart.o

    ----------------------------------------------------------------------
     13902        770       3536         72       1200     530702   Object Totals
         0          0         32          0          0          0   (incl. Generated)
        20          0          8          3          4          0   (incl. Padding)

    ----------------------------------------------------------------------

      Code (inc. data)   RO Data    RW Data    ZI Data      Debug   Library Member Name

       624         52         80          0          0        168   asin.o
       544         70        152          0          0        124   atan.o
       412         38          0          0          0        144   atan2.o
        38          6          0          0          0        272   dunder.o
        40          0          0          0          0         68   fpclassify.o
       170          0          0          0          0         96   poly.o
         0          0          8          0          0          0   qnan.o
        76          0          0          0          0         84   sqrt.o
         0          0          0          0          0          0   entry.o
         0          0          0          0          0          0   entry10a.o
         0          0          0          0          0          0   entry11a.o
         4          0          0          0          0          0   entry12b.o
         8          4          0          0          0          0   entry2.o
         4          0          0          0          0          0   entry5.o
         0          0          0          0          0          0   entry7b.o
         0          0          0          0          0          0   entry8b.o
         8          4          0          0          0          0   entry9a.o
        12          6          0          4          0         68   errno.o
        30          0          0          0          0          0   handlers.o
        36          8          0          0          0         68   init.o
         0          0          0          0          0          0   iusefp.o
        98          0          0          0          0         84   ldiv.o
        30          0          0          0          0         68   llshl.o
        36          0          0          0          0         68   llsshr.o
        32          0          0          0          0         68   llushr.o
        26          0          0          0          0         80   memcmp.o
        36          0          0          0          0        108   memseta.o
      2218         90          0          0          0        464   printfa.o
         0          0          0          4          0          0   stdout.o
        44          0          0          0          0         80   uidiv.o
        98          0          0          0          0         92   uldiv.o
        48          0          0          0          0         68   cdcmple.o
        48          0          0          0          0         68   cdrcmple.o
        56          0          0          0          0         88   d2f.o
       334          0          0          0          0        148   dadd.o
       222          0          0          0          0        100   ddiv.o
       186          0          0          0          0        176   depilogue.o
        48          0          0          0          0         68   dfixul.o
       228          0          0          0          0         96   dmul.o
        46          0          0          0          0         80   dscalb.o
       162          0          0          0          0        100   dsqrt.o
        38          0          0          0          0         68   f2d.o
       176          0          0          0          0        140   fadd.o
       124          0          0          0          0         88   fdiv.o
       110          0          0          0          0        168   fepilogue.o
        50          0          0          0          0         68   ffixi.o
        40          0          0          0          0         68   ffixui.o
        18          0          0          0          0         68   fflti.o
        10          0          0          0          0         68   ffltui.o
       100          0          0          0          0         76   fmul.o
        24          0          0          0          0         68   fscalb.o

    ----------------------------------------------------------------------
      6698        278        240          8          0       4076   Library Totals
         6          0          0          0          0          0   (incl. Padding)

    ----------------------------------------------------------------------

      Code (inc. data)   RO Data    RW Data    ZI Data      Debug   Library Name

      1904        166        240          0          0        956   m_ws.l
      2720        112          0          8          0       1248   mc_w.l
      2068          0          0          0          0       1872   mf_w.l

    ----------------------------------------------------------------------
      6698        278        240          8          0       4076   Library Totals

    ----------------------------------------------------------------------

==============================================================================


      Code (inc. data)   RO Data    RW Data    ZI Data      Debug   

     20600       1048       3776         80       1200     527130   Grand Totals
     20600       1048       3776         80       1200     527130   ELF Image Totals
     20600       1048       3776         80          0          0   ROM Totals

==============================================================================

    Total RO  Size (Code + RO Data)                24376 (  23.80kB)
    Total RW  Size (RW Data + ZI Data)              1280 (   1.25kB)
    Total ROM Size (Code + RO Data + RW Data)      24456 (  23.88kB)

==============================================================================

