:020000040800F2
:10000000000500200501000893200008431A00089D
:1000100091200008F30A00082D22000800000000CB
:100020000000000000000000000000009720000811
:10003000450B0008000000009520000899200008EA
:100040001F0100081F0100081F0100081F01000810
:100050001F0100081F0100081F0100081F01000800
:100060001F0100081F0100081F0100081F010008F0
:100070001F0100081F0100081F0100081F010008E0
:100080001F0100081F0100081F0100081F010008D0
:100090001F0100081F0100081F0100081F010008C0
:1000A0001F0100081F0100081F0100081F010008B0
:1000B0001F0100081F0100081F0100081F010008A0
:1000C0001F0100081F0100081F0100081F01000890
:1000D0001F0100081F0100081F0100081F01000880
:1000E0001F0100081F0100081F010008DFF810D0E1
:1000F00000F09CFC0048004739410008AFF3008045
:10010000000500200648804706480047FEE7FEE756
:10011000FEE7FEE7FEE7FEE7FEE7FEE7FEE7FEE7B7
:10012000FB200008ED0000082DE9F0410024061B2B
:10013000254671F1000605DA01240027D0EB0700FF
:1001400067EB0101161E73F1000605DA0027D2EBFA
:100150000702012567EB030300F022FB86460E46EB
:1001600017469C46AC4204D00025D0EB050E65EB4B
:10017000010624B10020D2EB000760EB030C7046AF
:1001800031463A466346BDE8F081202A04DB203A36
:1001900021FA02F00021704721FA02F3D040C2F1A7
:1001A00020029140084319467047D2B201E000F89E
:1001B000012B491EFBD270470022F6E710B513460B
:1001C0000A4604461946FFF7F0FF204610BD30B539
:1001D00004460020034600E05B1C934203D2E05C2F
:1001E000CD5C401BF8D030BDF0B480EA0102D40FE2
:1001F0004200B2EB410F02D20246084611464A00C5
:1002000042D0C30DDDB2C1F3C752AD1A202D35DA8D
:10021000C1F3160141F4000204B15242C5F12006B7
:1002200002FA06F12A411044B3EBD05F23D0C4B1E7
:10023000012DA0EBC35009DCF0BC4FF0004202EAF4
:10024000C352DBB200F5000000F005BB400000F136
:10025000807000EBC350A0F1807040EAD17049007B
:1002600009E0490841EAC071A0EBC35000F5000065
:10027000400800EBC350F0BC00F0E4BA6142012238
:1002800002EB4101001BF6E7F0BC704781F0004132
:10029000AAE780F00040A7E780EA010210B502F06B
:1002A0000043400022D04A001FD0010E01EB126132
:1002B000C0F35600C2F3560240F4000042F40002BC
:1002C000A0FB022000047F39140400D0401C50EA37
:1002D000124001D44000491EC2B20C0604EBD010FB
:1002E000401C4008802A02D003E0002010BD20F00E
:1002F0000100002900DA0020184310BD30B480EA64
:10030000010202F0004530F0004221F0004013D01D
:1003100090B1C30DD40DC2F31601C0F31600E41A58
:1003200041F4000140F400027D34914201D3641C89
:1003300000E04900002C02DA30BC002070474FF486
:1003400000000023914201D3891A034340084FEA79
:100350004101F7D151B1914202D14FF0004105E086
:1003600002D24FF0010101E06FF0010103EBC45034
:10037000284430BC00F066BA420005D0C0F3C75232
:100380005242914201DC0020704700EBC15070479F
:100390002DE9FE4F804681EA0300C00F0C46009015
:1003A00021F0004123F00045B8EB0200A94105D23D
:1003B0004046214690461C460B46024623F000402C
:1003C000104347D0270DC7F30A00C3F30A51029028
:1003D000401A019040286BDAC3F3130040F4801BED
:1003E0000098924620B10023D2EB030A63EB0B0B7B
:1003F00001985946C0F14002504600F002FA064604
:100400000D4650465946019A00F00AFA10EB0800D2
:100410006141002487EA115284EAE7731A4340D00D
:10042000009A62B3019A012A4FEA075215DC001BB9
:1004300061EB02014FF0004202EA0752CDE90042AF
:10044000001C41F5801132462B4600F041FA03B002
:10045000BDE8F08F40462146F9E7001B61EB020141
:10046000001C41F5801300185B412018A2F500170D
:1004700047EB030140EAD570B6196D4111E06D08F4
:100480004FEA360645EAC0754FEA0752001B61EB9A
:100490000201001C41F5801149084FEA30000019A3
:1004A000514132462B4603B0BDE8F04F00F001BA8F
:1004B0000098012240000023D0EB020263EBE073BE
:1004C000009821464FEAE074B8EB000061EB0401AC
:1004D000E9E783F000435BE781F0004158E72DE94D
:1004E000FE4F81EA030404F0004421F0004100942F
:1004F0004FF0000B23F0004350EA01045ED052EAB3
:1005000003045BD0C3F30A54C1F30A552C44A4F28C
:10051000F3340194A0FB0254C1F3130141F48011A0
:10052000C3F3130343F4801301FB024400FB034EA7
:10053000840A970A44EA815447EA8357A4FB076870
:1005400002958D0A05FB07854FEA932C04FB0C549A
:100550002705029D4FEA065847EA1637B5EB08050E
:100560006EEB070C870E920E47EA811742EA831260
:10057000A7FB0201B6EB0B0164EB00042B0D43EA71
:100580000C335E1844EB1C50DA465146E7FB02017F
:10059000C5F313044FEA0B3343EA14534FEA043212
:1005A000019C43EA0603A4F10C040294009CCDE9EB
:1005B00000B400F08DF903B0BDE8F08F00200146D3
:1005C000F9E72DE9F04D81EA030404F0004B21F036
:1005D000004514464FF0000A23F0004150EA05029E
:1005E00020D054EA01021DD0C5F30A570246C5F3D4
:1005F0001303C1F31300C1F30A5640F4801543F40A
:100600008013A7EB0608101BD64608F2FD3873EBE3
:10061000050002D308F1010801E092185B41B8F12E
:10062000000F03DA00200146BDE8F08D00204FF4F2
:100630008011064684460EE0171B73EB050705D3B1
:10064000121B63EB050306434CEA010C49084FEA11
:10065000300092185B4150EA0107EDD152EA0300E5
:1006600012D082EA040083EA0501084305D0101B7A
:10067000AB4106D20122002306E000224FF00043E6
:1006800002E06FF0010253101AEB06004CEB085128
:1006900010EB0A0041EB0B01BDE8F04D00F009B989
:1006A000C10F80EAE0700844CA079623002100F0D9
:1006B000D2B896230022114600F0CDB800F00042D7
:1006C00020F00040C10DC0F3160040F400007F2967
:1006D00001DA00207047962903DCC1F19601C84079
:1006E00001E096398840002AF4D04042704720F05B
:1006F0000040C10DC0F3160040F400007F2901DA6C
:1007000000207047962903DCC1F19601C84070476C
:1007100096398840704700F0004230F000400AD01F
:10072000C10D01F56071C0F3160042EA0151C20823
:1007300040071143704700200146704701F0004315
:1007400030B421F0004150EA010206D00A0DA2F5B2
:100750006072C1F31301002A02DC30BC0020704734
:10076000440F44EAC104C100E01830BC00EBC250A1
:1007700000F068B830B50B46014600202022012465
:1007800009E021FA02F59D4205D303FA02F5491B5F
:1007900004FA02F52844151EA2F10102F1DC30BD75
:1007A0002DE9F05F0546002092469B4688460646A6
:1007B000814640241BE02846414647462246FFF733
:1007C000E4FC53465A46C01A914110D311461846CC
:1007D000224600F016F82D1A67EB01084F46224614
:1007E0000120002100F00DF817EB00094E41201EFA
:1007F000A4F10104DFDC484631462A464346BDE801
:10080000F09F202A04DB203A00FA02F10020704712
:100810009140C2F1200320FA03F31943904070473E
:10082000202A06DBCB17203A41FA02F043EAE073B4
:1008300006E041FA02F3D040C2F1200291400843A1
:10084000194670470029A8BF7047401C490008BFDF
:1008500020F00100704710B4B0FA80FC00FA0CF0F0
:1008600050EA010404BF10BC704749B1CCF1200428
:1008700021FA04F411FA0CF118BF012121430843B5
:10088000A3EB0C01CB1D4FEA00614FEA102042BFE1
:10089000002010BC704700EBC35010440029A4BFD7
:1008A00010BC7047401C490008BF20F0010010BC7C
:1008B000704710B5141E73F1000408DA401C41F1B2
:1008C000000192185B411A4301D120F0010010BDD4
:1008D0002DE9F04D92469B4611B1B1FA81F202E04A
:1008E000B0FA80F220329046FFF78BFF04460F46A5
:1008F00040EA0A0041EA0B0153465A46084313D026
:10090000114653EA010019D0C8F140025046FFF7E2
:100910003CFC05460E46504659464246FFF771FFDD
:10092000084305D0012004E020463946BDE8F08D9B
:100930000020054346EAE0762C4337430A986305D6
:10094000E40AA0EB08000022FD0A44EA47540A30FA
:1009500002D500200146E9E7010510196941DDE9EA
:10096000084500196941BDE8F04DA2E770B521F0D6
:10097000004303430CD0C1F30A550024D5EB040512
:1009800064EB0403D617AD1AB34102DB0020014625
:1009900070BD201841EB025170BDC1F30A52C1F382
:1009A000130140F2FF3341F480119A4202DA002031
:1009B0000146704740F233439A42A2F2334202DCCE
:1009C0005242FFF7E2BBFFF71CBF000030B5041E28
:1009D00071F1000404DB4FF00044404264EB01017C
:1009E000141E73F1000405DB1C464FF00043524215
:1009F00063EB04038B4208BF824230BD30B5041E56
:100A000071F1000404DB4FF00044404264EB01014B
:100A1000141E73F1000405DB1C464FF000435242E4
:100A200063EB0403994208BF904230BD064C074D6A
:100A300006E0E06840F0010394E8070098471034AE
:100A4000AC42F6D3FFF756FB185F0008385F00088A
:100A50002DE9F04D00231A461B1A8A4103DB0020C2
:100A60000146BDE8F08DC1F30A52C1F3130141F410
:100A700080154FF0000BD10702D100186D41521EB6
:100A80000027044640F2FF11384601EB620A3E4659
:100A90008046024600204FF48011FFF776FBC21912
:100AA0007141BB1846EB0100B4EB030C75EB000C75
:100AB00004D3E41A65EB000517460E46241908F125
:100AC00001006D4180463428E3DDF91946EB06004C
:100AD000091BA84103D24FF0FF32134601E0002268
:100AE00013461BEB070046EB0A51BDE8F04DFFF73C
:100AF000E0BEFEE73EB540F6FF74CDE900320A469F
:100B0000014602940123044800F0ECF9012000F0B2
:100B10001DF800203EBD0000500000203EB540F60C
:100B2000FF74CDE900320A460146029401230448CD
:100B300000F000FB012000F009F800203EBD00009D
:100B400050000020704772B6FEE7000070B5044602
:100B500000F0FEF80546601C02D00448007804440A
:100B600000F0F6F8401BA042FAD370BD0000002050
:100B70002DE9F84FDFF8B8910024A9F1040B2346C2
:100B80000F2709F1040AABF1040EC9E00125A540C5
:100B90002A40AA427DD1674ED1F804C0ACEB0608CA
:100BA000B44532D014DCBCF1030F3AD009DCBCF1FF
:100BB000000F2AD0BCF1010F1CD0BCF1020F31D1C3
:100BC0001DE0BCF1110F17D0BCF1120F2AD119E0B2
:100BD000B8F5881F19D006DCB8F5803F15D0B8F5F8
:100BE000801F1FD111E0B8F5001F0ED0B8F5041F0B
:100BF00018D10AE0CB6815E0CB681B1D12E0CB686A
:100C000008330FE0CB680C330CE08B682BB1012B61
:100C10004FF0080303D0456104E0042302E00561BE
:100C200000E00023FF2A01D8064601E000F1040697
:100C30004FEA840501D9A5F12005D6F8008007FA0E
:100C400005FC28EA0C0803FA05F548EA0508C6F889
:100C500000804D68ED0062D5374DAE6946F0010663
:100C6000AE61AD6924F0030605F001050095334D32
:100C700006EB050CDCF80850A607360F07FA06F855
:100C800025EA0805DFF8B880404503D14FF0000899
:100C900017E044E0DFF8AC80404502D14FF0010896
:100CA0000FE0DFF8A480404502D14FF0020808E0D1
:100CB000DFF89880404502D14FF0030801E04FF083
:100CC000040808FA06F848EA0508CCF808804D68D8
:100CD000D9F80060ED024D4601D5164300E0964379
:100CE0002E604D68DAF80060AD02554601D5164316
:100CF00000E096432E604D68DBF80060AD035D4672
:100D000001D5164300E096432E604D68DEF8006082
:100D1000ED03754601D5164300E096432E60641C32
:100D20000D682A46E5407FF431AFBDE8F88F00003A
:100D300008040140000011100010024000000140B2
:100D400000080140000C0140001001400014014067
:100D500001488068704700000000002070B5040062
:100D600025D094F83D00002520B984F83C50204659
:100D700000F078FA242084F83D002068016821F012
:100D8000010101602068016841F4004101602068B0
:100D9000016821F40041016000F0B2FB4D4A616836
:100DA000914201D84C4900E04C49884201D20120CF
:100DB00070BD4B492368B0FBF1F15E6826F03F0639
:100DC0000E435E606368934206D94FF496735943AD
:100DD0004FF47A73B1FBF3F12368491C1E6A26F0C5
:100DE0003F06314319626168914210D84900401EA4
:100DF000B0FBF1F2521CC2F30B02042A01D2042010
:100E000022E0B0FBF1F0401CC0F30B001CE0A26834
:100E1000F2B301EBC10303EB0116431EB3FBF6F380
:100E20005B1C43F480431B0549D092B301EBC10224
:100E300002EB0111401EB0FBF1F0401CC0F30B00AF
:100E400040F4804040F400402168CA694CF6FF73CA
:100E50009A431043C861D4E907100143206802682F
:100E600022F0C00211430160D4E90301014320686C
:100E7000826848F2FF339A4311438160D4E9050147
:100E800008432168CA6822F0FF021043C86001E0ED
:100E90000EE016E02068016841F001010160256460
:100EA000202084F83D00256384F83E50002070BD6A
:100EB00001EB4106431EB3FBF6F35B1CB3E70120D5
:100EC000C2E701EB4101401EB0FBF1F0401CC0F352
:100ED0000B00B7E7A086010080841E0000093D00DA
:100EE00040420F002DE9FF4F83B00025DDE9107966
:100EF0009A4693460446DDF848800095FFF728FFA0
:100F0000064694F83D0020287CD11923012285490A
:100F10002046009600F0ACFE0028F5D194F83C0085
:100F200001286FD0012084F83C0020680168C907BF
:100F300003D1016841F0010101602068016821F4DA
:100F400000610160222084F83D00402084F83E00CA
:100F500025646762A4F82A90608D20857248E0625B
:100F6000CDE9008653465A462046049900F082FD9A
:100F700000287DD1208DDFF8B491202768B10128A9
:100F800014D00228206801681ED041F480610160FD
:100F90002068416980690090B6E0206841698169F4
:100FA0000091016841F400710160ADE020680168C2
:100FB00021F48061016072B6206841698169009105
:100FC000016841F400710AE041F40061016072B609
:100FD0002068416981690091016821F480610160A4
:100FE00062B691E0032868D801280CD00228434655
:100FF0004FF000024946204600960FD000F038FE20
:10100000B0BB10E08BE032464146204600F0D6FEF1
:1010100070BB20680069616A08706CE000F028FE0F
:1010200030BB72B634E02068016821F48061016051
:1010300072B620680069616A0870606A401C60626C
:10104000208D401E2085608D401E6085384846F208
:10105000A8110068B0FBF1F0C0EBC00000EB80000D
:101060000090401E009008D020684069C04300E016
:1010700029E040070CD50098F3E744F8305F677328
:10108000A573206940F02000206162B625731AE044
:101090002068016841F40071016020680069616A9C
:1010A0000870606A401C6062218D491E2185618D37
:1010B000491E618562B621681BE0324641462046E2
:1010C00000F07CFE18B1012007B0BDE8F08F206869
:1010D0000069616A0870606A401C6062218D491E67
:1010E0002185618D491E618521684A69D243520775
:1010F0000AD409690170606A401C6062208D401E3C
:101100002085608D401E6085208D00287FF46AAFA9
:1011100084F83D7084F83E5084F83C50D4E70220B7
:10112000D2E70000020010000000FFFF04000100F1
:101130000C0000202DE9FF4F83B09A46DDE911979E
:1011400093460446DDF84080FFF702FE054694F81A
:101150003D0020287FD119230122404920460095D7
:1011600000F086FD002876D194F83C00012872D06A
:10117000012084F83C0020680168C90703D1016898
:1011800041F0010101602068016821F40061016003
:10119000212084F83D00402084F83E00002626648B
:1011A000C4F82480A4F82A90608D20852C48E06241
:1011B000CDE9007553465A462046049900F0D8FC04
:1011C00070B930E02A463946204600F02FFE58B16B
:1011D000206C042804D12068016841F4007101608A
:1011E000012007B0BDE8F08F606A216800780861CF
:1011F000606A401C6062218D491E89B22185628D22
:10120000521E628522685369DB435B070BD469B1C8
:1012100000781061606A401C6062208D401E20854D
:10122000608D401E6085208D0028CBD12A4639462E
:10123000204600F0F1FC0028CAD154F83D0B0168AB
:1012400041F400710160202004F81E09E6776677FA
:101250000020C6E7FFE70220C3E7000002001000FD
:101260000000FFFF10B586B00021009101910291AE
:10127000039100680F4988421AD10F4CA06940F0D1
:101280000800A061A069694600F008000490C02031
:10129000009012200190032003900848FFF768FC9B
:1012A000E06940F40010E061E06900F4001004908F
:1012B00006B010BD0054004000100240000C014078
:1012C0000248816802781144816070470000002064
:1012D000074810B5016841F010010160032000F0DB
:1012E00067F80F2000F006F800F024F8002010BD89
:1012F0000020024070B50D4D04464FF47A712878F5
:10130000B1FBF0F00A490968B1FBF0F000F0CEFA49
:1013100048B9102C07D200222146501E00F028F8B0
:1013200000206C6070BD012070BD00000000002036
:101330000C0000200C4808B5816941F00101816171
:10134000816901F001010091C16941F08051C161E1
:10135000C06900F0805000900448416821F0E061CD
:1013600041F00071416008BD0010024000000140E2
:10137000F0B40E4B1B680C46C3F30223C3F1070500
:10138000042D00D90425191D072901D2002300E0EE
:10139000DB1E012606FA05F1491E214099409E40B8
:1013A000761E16403143F0BC00F066BF0CED00E045
:1013B000064900F0070208684FF6FF03184040EAAC
:1013C0000220034A10430860704700000CED00E063
:1013D0000000FA052DE9F0470F46050061D0434EA5
:1013E000306800F00700B84209D2306820F00700EA
:1013F00038433060306800F00700B84251D12868A7
:101400003B4C810712D5400703D5606840F4E0608B
:1014100060602878000703D5606840F46050606021
:101420006068A96820F0F000084360602878C00771
:1014300028D06868012810D02168022810D08907B8
:1014400000292EDA616821F0030101436160FFF792
:101450007FFC804641F288390DE021688903EFE77F
:101460008901EDE7FFF774FCA0EB0801494502D9BB
:101470000320BDE8F0876068696800F00C00B0EBFD
:10148000810FEFD1306800F00700B8420BD9306807
:1014900020F0070038433060306800F00700B842A1
:1014A00001D00120E5E72878400705D56068E968A4
:1014B00020F4E060084360602878000706D5606883
:1014C000296920F4605040EAC100606000F038F8FB
:1014D0006168084AC1F30311515CC84006490860BD
:1014E00006480068FFF706FF0020C2E70020024020
:1014F00000100240765100080C000020040000207B
:101500000448054900684968044AC1F30221515C56
:10151000C84070470C0000200010024086510008AF
:101520000448054900684968044AC1F3C221515C76
:10153000C84070470C00002000100240865100088F
:101540000E4A51680E4801F00C03042B11D0082BF1
:101550000FD10C48C1F38343C903C05C0AD551685D
:10156000084AC1F34041921E515C054A5043B0FB0A
:10157000F1F07047044948437047000000100240F2
:1015800000127A006651000800093D002DE9F84F6D
:10159000040070D02078C04DC00749D06868C0F3FF
:1015A0008100012807D06868C0F38100022809D1B2
:1015B0006868C00306D52868800339D560680028AC
:1015C000E7D035E06068B0F5803F0BD010B1B0F5E2
:1015D000A02F11D0286820F480302860286820F4DB
:1015E000802002E0286840F480302860606890B174
:1015F000FFF7AEFB06460AE0286840F4802028602A
:10160000F0E700BFFFF7A4FB801B642873D82868AD
:101610008003F7D50CE0FFF79BFB064605E000BF13
:10162000FFF796FB801B6428F0D828688003F7D466
:1016300020789A4E80074FF001094FF0000839D505
:10164000686810F00C0F07D06868C0F381000228AA
:1016500009D16868C00306D42868800714D52069BA
:10166000012808D110E02069B0B1C6F80090FFF75A
:101670006FFB074605E00AE1FFF76AFBC01B022883
:10168000C4D828688007F7D52868616920F0F80079
:1016900040EAC10028600DE0C6F80080FFF758FB63
:1016A000074604E0FFF754FBC01B022823D8286834
:1016B0008007F7D4207800072CD57948A169D9B1E3
:1016C000C0F80090FFF744FB074604E0FFF740FB3B
:1016D000C01B02280FD8686A8007F7D571484FF4FD
:1016E000FA510068B0FBF1F0009000BF0098411E75
:1016F0000091FAD20EE080E0C0F80080FFF728FBEE
:10170000074604E0FFF724FBC01B022875D8686A6F
:101710008007F7D42078400760D5E8690027C0002B
:1017200008D4E86940F08050E861E869012700F0DA
:10173000805000905C480168C90513D40168834655
:1017400041F480710160FFF703FB824606E000BFB1
:10175000FFF7FEFAA0EB0A0064284ED8DBF8000081
:10176000C005F5D5E06801280AD008B1052813D0D6
:10177000286A20F001002862286A20F0040002E0B4
:10178000286A40F001002862E06841F2883B98B185
:10179000FFF7DEFA82460BE0286A40F00400286278
:1017A000EEE700BFFFF7D4FAA0EB0A0159455AD87B
:1017B000286A8007F6D50CE0FFF7CAFA824605E0F2
:1017C000FFF7C6FAA0EB0A0159454CD8286A8007F2
:1017D000F6D41FB1E86920F08050E861E06988B371
:1017E0006968C1F38101022944D00228C6F86080EB
:1017F00004D0FFF7ADFA044638E034E0FFF7A8FA6A
:10180000074604E0FFF7A4FAC01B02282BD828687B
:101810008001F7D4206AB0F5803F05D16868A168DF
:1018200020F4003008436860D4E90801084369687F
:1018300021F4741108436860C6F86090FFF788FAD5
:10184000044606E025E000BFFFF782FA001B0228ED
:1018500009D828688001F7D51BE000BFFFF778FAA8
:10186000001B022802D90320BDE8F88F28688001F8
:10187000F4D40EE00128F7D06868226A00F48031C1
:10188000914204D1616A00F47010884201D00120B5
:10189000EAE70020E8E700000010024000004242B2
:1018A000800442420C0000200070004010B5401E31
:1018B000B0F1807F01D3012010BD4FF0E0246061C2
:1018C0000F21601700F0D8FC0020A06107202061E4
:1018D000002010BD70B5040004D094F8410000252C
:1018E00010B106E0012070BD84F84050204600F0A1
:1018F00023F8242084F841002068C16821F40051B5
:10190000C160204600F0FAFB2068016921F4904193
:1019100001612068416921F02A0141612068C168A4
:1019200041F40051C1606564202084F8410084F8CE
:1019300042006563002070BD30B585B0002400947E
:1019400001940294039400681449884224D11448F5
:10195000816941F480418161816901F48041049190
:10196000816941F00401816180690E4D00F004003D
:1019700004904FF400700090022001900320039027
:1019800069462846FFF7F4F82815CDE900046946B2
:1019900028460294FFF7ECF805B030BD003801404E
:1019A00000100240000801402DE9F843044690F879
:1019B00041001F4616460D46202802D00220BDE8F1
:1019C000F8837DB176B100206064212084F8410065
:1019D000FFF7BEF9A6848046E684A068B0F5805F74
:1019E00002D003E00120EAE7206910B12E4600256D
:1019F0000EE000260CE08021204600F0DBFBA0B9C1
:101A0000AEB116F8010B21684860E08C401EE084FE
:101A1000E08C43464FF0000200970028EBD14FF0D6
:101A20004001204600F0C6FB30B10320C7E735F87F
:101A3000020BC0F30800E6E7202084F841000020F4
:101A4000BDE7FEE701684A69D24352050FD46FF43F
:101A500080624A61002140F8301F20224273817366
:101A6000026942F004020261017301207047002004
:101A7000704700002DE9F84F0446006889460B9D29
:101A800001689846174641F480610160206801684A
:101A900041F48071016000954FF0011B002259460E
:101AA00020460A9B00F0E4F84FF4007A40B1206829
:101AB0000068C00501D5C4F840A00320BDE8F88F38
:101AC000216809F0FE0008612B46284920460A9A41
:101AD00000F016F9F0BB20684169806900902A4641
:101AE00020460A9900F0A2F940B1206C04283AD1AE
:101AF0002068016841F40071016034E0FEB2B8F181
:101B0000010F09D02168380A08612A4620460A993F
:101B100000F08CF90028E8D1206806612A462046AA
:101B20000A9900F083F90028DFD12068016841F4A8
:101B30008071016000950022594620460A9B00F002
:101B400097F80028B3D1216809F0FF0040F00100A8
:101B5000086100E007E02B46044920460A9A00F09D
:101B6000CFF80028AAD00120A8E700000200010059
:101B70002DE9F843044600680D46DDE90897016841
:101B80009846164641F4807101604B4600224FF0A2
:101B900001112046009700F06BF848B120680068FA
:101BA000C00502D54FF4007020640320BDE8F8831F
:101BB000216805F0FE0008613B464A46154920466B
:101BC00000F09EF888B920684169806900903A4623
:101BD0004946204600F02AF948B1206C042804D177
:101BE0002068016841F4007101600120DEE7F5B270
:101BF000B8F1010F09D02168300A08613A46494618
:101C0000204600F013F90028E7D120680561002084
:101C1000CCE700000200010070B516460D460446F0
:101C20001EE02046FFF70EFF08B1012070BD681CC2
:101C300016D0FFF78DF8801BA84200D885B9206820
:101C40004069C04340070BD5002044F8300F2021E5
:101C50006173A073216941F0200121612073E4E7E1
:101C600020684069C0434007DBD4002070BD0000FD
:101C70002DE9F047984617460D460446C1F307463E
:101C8000DDF820902AE000BFB8F1FF3F26D0FFF733
:101C90005FF8A0EB0901414502D8B8F1000F1DD152
:101CA0002068012E16D0806925EA00000004000C8F
:101CB00012D00020B84211D1002044F8300F20216A
:101CC0006173A073216941F020012161207301201B
:101CD000BDE8F0874069E7E70120EBE72068012EC7
:101CE0000AD0806925EA00000004000C06D000201C
:101CF000B842C9D00020EBE74069F3E70120F7E7DD
:101D00002DE9F047984616460D4604464FF0000967
:101D10004FF0200AC1F3074723E020684069C04321
:101D2000400515D42068016841F400710160216804
:101D30006FF480604861C4F8309084F83DA084F866
:101D40003E90216C41F00401216484F83C9021E034
:101D5000701C06D0FEF7FCFFA0EB0800B04203D8D1
:101D600016B1012F1FD021E02068012F15D0806906
:101D700025EA00000004000C18D000BF44F8309F92
:101D800084F80DA084F80E90216941F020012161B2
:101D900084F80C900120BDE8F087406925EA000036
:101DA0000004000CEAD12068406901E020688069E5
:101DB00025EA00000004000CAFD1ECE72DE9F0416A
:101DC000002590460E460446202728E04069C0437F
:101DD000C0060CD454F8301B6FF01000486144F872
:101DE00010596777A577206A2062257714E0FEF7FF
:101DF000AFFFA0EB0800B04200D886B92068406968
:101E0000C04340060BD544F8305F6773A573206963
:101E100040F02000206125730120BDE8F08120689A
:101E20004169C9434906D1D40020F6E770B516468A
:101E30000D4604461EE02046FFF704FE08B10120CF
:101E400070BD681C16D0FEF783FF801BA84200D827
:101E500085B920684069C04300060BD5002044F8CE
:101E6000300F20216173A073216941F020012161AD
:101E70002073E4E720684069C0430006DBD40020FB
:101E800070BD10B580216B2000F088F86420FEF74B
:101E90005DFE00216B2000F081F8032000F049F87E
:101EA000002000F041F8322000F060F800213820D6
:101EB00000F074F800216A2000F070F8002123205F
:101EC00000F06CF88021372000F068F8752000F0F1
:101ED00011F8682801D0012010BD01216B2000F00D
:101EE0005DF800216C2000F059F8322000F03EF837
:101EF000002010BD1FB500218DF80C1040F6FF73B7
:101F0000012203A98DE80E0013460246D12105489F
:101F1000FEF7E8FF0120FEF719FE9DF80C0004B063
:101F200010BD000050000020C006010E1C2000F073
:101F300035B8C006010E1B2000F030B8BC2801D314
:101F4000012110E0622801D302210CE02A2801D3EC
:101F5000032108E0142801D3042104E00A2801D356
:101F6000052100E006211A2000F018B810B504463B
:101F70004FF47A70844201D9044602E0042C00D266
:101F80000424B0FBF4F0401EC1B2192000F006F8A2
:101F90006008BDE81040FFF7D1BF00001FB540F654
:101FA000FF738DF80C10012203A98DE80E00134673
:101FB0000246D0210448FFF7BDF80120FEF7C6FD18
:101FC00004B0002010BD000050000020114808B5EA
:101FD000816941F010018161816901F01001009176
:101FE000816941F020018161816901F02001009146
:101FF000816941F004018161816901F0040100916E
:10200000816941F008018161806900F00800009059
:1020100008BD0000001002400D4810B50B490160DA
:102020000C49416000214FF480428160C0E90312F5
:1020300041618161C1610162FEF790FE002803D019
:10204000BDE81040FEF77FBD10BD00000054004009
:1020500050000020801A06000C4810B50A490160A3
:102060004FF4E1314160002181600C22C160C0E980
:1020700004128161C161FFF72DFC002803D0BDE887
:102080001040FEF760BD10BD00380140A4000020E4
:10209000FEE7FEE770477047FFF712B930B58FB023
:1020A00028216846FEF788F814210AA8FEF784F86C
:1020B00001210804CDE900100024029402250491B6
:1020C000CDE907504FF4E01009906846FFF75EFA3B
:1020D00008B172B6FEE70F20CDE90A054FF4806023
:1020E000CDE90C4002210AA80E94FFF773F90028ED
:1020F00001D072B6FEE70FB030BD704770B5044630
:1021000000680169E26821F44051114301612169CD
:10211000A0680843616908432168CA6841F20C63FA
:102120009A430243CA6020684169A26921F4407160
:10213000114341611E492068884202D1FFF7F0F93E
:1021400001E0FFF7DDF900EBC00101EB0012606870
:1021500064218000B2FBF0F3B3FBF1F36FF01806DB
:102160007343B2FBF0F5B2FBF0F605EB83053223C7
:1021700003EB0515B5FBF1F5B6FBF1F605F0F0053F
:1021800005EB0615B2FBF0F6B2FBF0F0B0FBF1F098
:102190006FF01802504306EB800003EB0010B0FB19
:1021A000F1F0216800F00F002844886070BD000045
:1021B000003801402DE9F041984617460E46044686
:1021C000069D27E0681C25D02DB1FEF7C1FDA0EBD0
:1021D0000800A8421ED920680C3050E8001F21F4E6
:1021E000D07140E80012002AF5D12068143050E880
:1021F000001F21F0010140E80012002AF5D1202043
:1022000084F8410084F84200002084F84000032054
:10221000BDE8F0812068006836EA000004D00020A4
:10222000B842CFD00020F3E70120F9E7FEE7000035
:102230000FB4054B10B503A9044A029800F06CF9DD
:1022400010BC5DF814FB0000213C00084800002091
:10225000490050EAC12018BF04204A0D18BF40F0C1
:10226000010040F2FF72B2EB515F08BF40F0020084
:10227000012808BF052070470907090E002804DB64
:1022800000F1E02080F80014704700F00F0000F12A
:10229000E02080F8141D70472DE9F0414F1E00EB3F
:1022A000C7010446D1E9000115461E4637F0060273
:1022B0000DD02A463346FEF712F97F1E04EBC70302
:1022C000D3E90023FEF764F837F00602F1D1022FBC
:1022D00025D0042F13D0062F18BFBDE8F0812A4661
:1022E0003346FEF7FCF8D4E90A23FEF751F82A46F4
:1022F0003346FEF7F4F8D4E90823FEF749F82A46F6
:102300003346FEF7ECF8D4E90623FEF741F82A46F7
:102310003346FEF7E4F8D4E90423FEF739F82A46F9
:102320003346FEF7DCF8D4E90223FEF731F82A46FB
:102330003346FEF7D4F8D4E90023BDE8F041FEF7B8
:1023400027B80122FEF712BBFEF722B8002213467F
:1023500010461146FEF735B9024A00201107FEF774
:1023600005BB000001FDFFFF02E008C8121F08C105
:10237000002AFAD170477047002001E001C1121F06
:10238000002AFBD170470000014908607047000037
:102390004C0000202DE9FF5F82B00021DDE9043010
:1023A000020DDDF840B0034318D044F61050A2F2FD
:1023B000FF3242431514119801281FD0A5EB0B00E2
:1023C000401C5FEA000A4FF000064E4FDFF83891DC
:1023D000B046504615D5CAF1000413E01198012407
:1023E0004AA3012801D16FEA0B010298119AC0E9B2
:1023F0000031C0E9024206B0BDE8F09FCBF1000019
:10240000DFE704460021404A491842EB0450CDE979
:10241000001012E0E00707D032463B4640464946EE
:10242000FEF75DF88046894632463B46104619461F
:10243000FEF755F806460F466410002CEAD1DDE998
:102440000401DDE90023BAF1000F06DAFEF747F8D0
:1024500042464B46FEF743F805E0FEF7B2F8424627
:102460004B46FEF7AEF804460E460022284BFEF718
:10247000C5FA03D84FF0FF30014607E00022254B94
:1024800020463146FDF784FFFEF787FA102409E065
:10249000002C0ADB0A220023FEF782F9039B30326C
:1024A0001A55641E50EA0102F2D1641C039AC4F169
:1024B00011031444119A012A03D0012208430DD1BB
:1024C0000AE0084304D000204FF0110B119072E78E
:1024D000A3EB0B056D1E0DE05B4504DD4FF0000224
:1024E00005F1010504E003DA4FF00002A5F1010552
:1024F000002AECD002981199C0E90231C0E90045E8
:1025000079E70000000014400000F03F30000000B8
:102510000000F0430000E03F2DE9FF4F95B09A46E0
:10252000884606460025EEE1252877D10024274677
:10253000F94A0121039400E0044316F8013F203BCF
:1025400001FA03F01042F7D130782A2811D06FF049
:102550002F033078A0F13002092A16D8039A44F0EC
:10256000020402EB820203EB42021044761C039049
:10257000EFE758F8042B0392002A03DA504244F4A0
:102580000054039044F00204761C30782E2816D1B3
:1025900016F8010F44F004042A280DD06FF02F0222
:1025A0003078A0F13003092B09D807EB870302EB41
:1025B0004303C718761CF3E758F8047B761C307881
:1025C0006C280FD006DC4C2817D068280DD06A285C
:1025D00014D104E0742810D07A280FD10DE044F40F
:1025E00000140AE044F4801401E044F440147278CA
:1025F000824202D104F58014761C761C307866285D
:102600000BD013DC582877D009DC002875D045287A
:10261000F6D04628F4D047281AD193E118E0632871
:1026200035D0642879D0652812D18BE1702873D019
:1026300008DC6728F1D069286FD06E280DD06F288C
:1026400006D1ACE073282CD0752874D0782853D0EC
:102650005246179990476D1C54E1C4F3025002286A
:1026600009D003280DD0D8F8001004280DD00D6033
:1026700008F1040846E1D8F80010EA17C1E9005251
:10268000F6E7D8F800100D80F2E70D70F0E718F8C3
:10269000041B8DF8001000208DF80100EB4601208E
:1026A00003E058F804BB4FF0FF3061074FF0000122
:1026B00002D40DE009F101018946B9420FDA8145E2
:1026C000F8DB1BF809100029F4D108E009F1010139
:1026D00089468142FADB1BF809100029F6D10398DC
:1026E0005346A0EB090721463846179A00F080FAB6
:1026F000284400EB090507E044E008E10DE01BF881
:10270000010B524617999047B9F10109F7D2534688
:1027100021463846179AF2E039E00A21C4F3025202
:102720004FF0000B0091022A06D058F8040BC11795
:10273000032A09D00AE023E008F1070020F007028D
:10274000F2E80201904605E000B2C117042A01D167
:1027500040B2C117002906DA0A460021404261EB67
:1027600002012D2202E0220504D52B228DF804203F
:10277000012203E0E20701D02022F7E7914657E06B
:102780000A2100E010214FF0000B00910BE0102116
:102790004FF0000B44F004040827009103E00820E8
:1027A0004FF0000B0090C4F30252022A05D058F8F3
:1027B000040B0021032A08D008E008F1070020F0EC
:1027C0000702F2E80201904603E080B2042A00D139
:1027D000C0B24FF0000922072AD53278702A07D0FC
:1027E000DDF800C08CF0100C5CEA0B0C05D00EE09C
:1027F00040228DF80420012208E050EA010306D0AF
:1028000030238DF804308DF8052002229146009B7C
:1028100083F0080353EA0B030AD150EA010201D105
:10282000620705D530228DF804204FF001097F1E84
:102830003278582A04D039A20C920CAA02920BE0EA
:102840003BA2F9E75B46009AFDF7AAFF0C9B9B5C55
:10285000029A521E0292137050EA0102F2D10298BB
:1028600004A9081A00F1200B600702D524F4803473
:1028700000E001275F4502DDA7EB0B0000E0002030
:1028800000EB0B01009003984944401A0390E003C9
:1028900006D453462146179A039800F0A9F9054437
:1028A000002706E001A85246C05D179990476D1CAD
:1028B0007F1C4F45F6DBE0030CD553462146179AA3
:1028C000039800F095F9054404E03020524617992A
:1028D00090476D1C0099481E00900029F5DC08E027
:1028E0000298029952460078491C02911799904724
:1028F0006D1CBBF10001ABF1010BF1DC5BE100F001
:1029000065F90544761C307800287FF40DAE19B0C7
:102910002846BDE8F08F000009280100303132332D
:10292000343536373839616263646566000000000B
:1029300030313233343536373839414243444546F5
:1029400000000000600700D4062708F1070020F00F
:102950000700F0E80223804603F0004C5FEA0C0019
:1029600001D097A009E0200501D596A005E0E00779
:1029700001D095A001E0AFF24C001390307823F025
:10298000004365280CD006DC452809D046281DD018
:1029900047287FD13BE0662818D067287AD136E0F7
:1029A0000021112F01DB112000E0781CCDE900018E
:1029B00004A90CA8FFF7EEFCDDE90D010C9A4FF01D
:1029C000000B07F10109109200914EE04FF000401A
:1029D0000097CDE9011004A90CA8FFF7DBFCDDE9A5
:1029E0000D020C9B0F994FF0000B91461093009233
:1029F00011B9791C00EB0109B7EB090003D4C0F150
:102A0000FF3B07F10109A9EB0700019042E0012F0C
:102A100000DA01270021112F01DD112000E03846E6
:102A2000CDE9000104A90CA8FFF7B4FCDDE90D0114
:102A30000C9A00914FF0000BB946109221070FD469
:102A4000009A4A4503DA914601E0A9F10109B9F17A
:102A5000010F05DD109AA9F10101515C3029F4D074
:102A6000B84202DA10F1040F03DA0121CDE90110B6
:102A700010E0002803DC8344A9EB000102E0411CC4
:102A8000494500DD8946A0EB0B00401C01904FF04A
:102A900000400290200705D40198484502DB4FF022
:102AA000FF30019000208DF84B0002980DF14B078C
:102AB000B0F1004F25D002200C902B200D900298F1
:102AC00000280CDA404202902D200D9007E00A21E8
:102AD0000298FDF74FFE3031029007F8011D0C9966
:102AE000481E0C900029F2DC02980028EFD1791ED4
:102AF0000D980870307800F0200040F0450007F88D
:102B0000020D11A8C01BC01D02901398007800B1DF
:102B1000012000EB0901019801EBE07102980144EA
:102B20000398401A401E0390E00306D45346214602
:102B3000179A039800F05CF805441398007818B1D0
:102B40005246179990476D1CE00323D55346214602
:102B5000179A039800F04CF805441BE0BBF1000FF6
:102B600007DB0098584504DD1098179910F80B0002
:102B700001E0179930205246904701980BF1010B64
:102B8000401E05F10105019004D12E2052461799EF
:102B900090476D1CB9F10001A9F10109DEDC05E0E7
:102BA00017F8010B5246179990476D1C0299481E61
:102BB00002900029F4DC53462146179A03989EE6BA
:102BC0002D0000002B000000200000002DE9F04146
:102BD000044600251E461746880404D405E03946FD
:102BE0002020B0476D1C641EF9D52846BDE8F08151
:102BF0002DE9F041044600251E469046C80301D544
:102C0000302700E02027880404D505E041463846F7
:102C1000B0476D1C641EF9D52846BDE8F081000060
:102C20002DE9FE4F07460E460025684601F004F8E0
:102C300000246FF00F0AE8464FF0010957F824000E
:102C400056F82410401A00D54042FDF729FD5146A0
:102C5000FDF792FB58F8241011F0FF4F0BD0FDF751
:102C60004DFB4FF07E51FDF711FB0A4920F000406B
:102C7000884205DC07E0084908440849884202D335
:102C800009FA04F00543641C032CD7DB2846BDE891
:102C9000FE8F0000295C0F3E666666C19A99D900D6
:102CA0002DE9F04D8D4F21F0004A86B005460C46C7
:102CB000BA452ADBAAEB070028430AD08848824598
:102CC00001DC1AD1CDB106B02846BDE8F04DFFF7C2
:102CD00038BB844A844B2846FDF701FC07460E4664
:102CE000824A834B28462146FDF7F9FB06B03A4657
:102CF0003346BDE8F04DFDF74BBB0120FFF744FB29
:102D000006B0BDE8F04DFFF721BB7A48824542DAB4
:102D1000BAF1795F0BDA2846FFF79AFA042808BF60
:102D2000FFF71AFB284606B02146BDE8F08D2A467B
:102D30000B461046FDF7D3FB834602466E480E460F
:102D40000B4606217844FFF7A7FA5A463346FDF7AB
:102D5000C6FB804669488A465A4633460421784471
:102D6000FFF79AFA5A463346FDF7B9FB00223B4675
:102D7000FDF70EFB02460B4640465146FDF721FC8F
:102D80002A462346FDF7ABFB06B02A462346BDE89C
:102D9000F04DFDF7FDBA284624F0004100223D46E3
:102DA0003B46FDF799FB4FF0FF32FDF7DFFD06468E
:102DB000024653480F460B4606217844FFF76CFA4B
:102DC00032463B46FDF78BFBCDE900014D483246CC
:102DD0003B4604217844FFF75FFA32463B46FDF755
:102DE0007EFB00222B46FDF7D3FA83460291304644
:102DF000394602F091F9804643480D46504517DCAC
:102E0000DDE900015A46029BFDF7DBFB42462B46FB
:102E1000FDF765FB42462B46FDF7BAFA0122FDF7A6
:102E2000A5FD304A304BFDF754FB304A304B4CE0A7
:102E30004FF0000A52460B464046FDF7A9FACDE98D
:102E4000031052462B4610461946FDF748FB324602
:102E50003B46FDF741FBDDE90332FDF7B2FB0646D9
:102E60000F46DDE900015A46029BFDF7AAFB8346A7
:102E70000091012230463946FDF778FD194A1A4B78
:102E8000FDF72AFB06460F46012240462946FDF77C
:102E90006DFD5A46009BFDF722FB32463B46FDF78F
:102EA00018FB06460F46012250462946FDF75EFDF7
:102EB0000E4DDFF858802A464346FDF70DFB32469B
:102EC0003B46FDF709FB2A464346FDF705FB002C70
:102ED000D8BF81F0004106B0BDE8F08D0000F03FA2
:102EE0000000F07F075C143326A6913C182D445453
:102EF000FB21F93F0000E03F90300000A6300000C9
:102F00001A300000303000003333EF3FFB21E93F3F
:102F10002DE9F84F04460D4621F000400091734919
:102F2000814211DC7249884201DC06D12CB1204675
:102F30002946BDE8F84FFFF704BA6E48002DCCBF14
:102F40006D496E49BDE8F88F6D49814211DD6D49CB
:102F50008142D8BF4FF0FF366DDD20462946FFF78E
:102F600077F9042808BFFFF7F7F920462946BDE89E
:102F7000F88F6549654F25F00045814233DD64498E
:102F8000814219DD002632464FF080432046294613
:102F9000FDF7FEF980468A46012220462946FDF7C4
:102FA000E5FC00223B46FDF794FA42465346FDF706
:102FB00008FB04460D463EE001260022BA463B4689
:102FC00020462946FDF7E4F980460F460022534685
:102FD00020462946FDF77DFA42463B46FDF7F1FAC9
:102FE00004460D4627E04B4981421BDDDFF828A14E
:102FF00002260022534620462946FDF770FA002299
:103000003B46FDF7C5F980460F4600225346204651
:103010002946FDF75EFA42463B46FDF7D2FA0446E2
:103020000D4608E0032622462B4600203B49FDF7CB
:10303000C8FA04460D4622462B4610461946FDF7AF
:103040004EFA8B46824602460B46FDF748FA074683
:103050000246334888460B4606217844FFF71CF9A0
:1030600052465B46FDF73BFA82462E488B463A466F
:10307000434605217844FFF70FF93A464346FDF7EA
:103080002EFA02460B46002E504659460CDAFDF742
:103090007FF922462B46FDF722FA01B022462B4645
:1030A000BDE8F04FFDF718BAFDF772F922462B463E
:1030B000FDF715FA1C4A7A4402EBC603D3E9002354
:1030C000FDF707FA22462B46FDF703FA174A7A4422
:1030D00002EBC603D3E90023FDF7FEF9009A002AAC
:1030E000B8BF81F00041BDE8F88F00000000104437
:1030F0000000F07F182D4454FB21F93FFB21F9BF5C
:103100000000DC3F0000203E0000F33F0000F03FE5
:103110000000E63F008003400000F83F0000F0BFE1
:10312000322E0000F02D00008E2D0000562D0000E4
:103130002DE9F04D9446CCF1000423F000464CEA12
:103140000404594F46EAD4749A46884621F0004256
:10315000BC4206D8454240EA050442EAD474BC4267
:1031600004D9BDE8F04D6246FFF7EEB8AAF140552C
:10317000A5F17F6555EA0C040BD0022404EAAA7479
:103180004A4DDFF82CE144EAD87452EA000B04D02F
:103190000CE0BDE8F04DFFF7BBBE002C14BF012CC6
:1031A000BDE8F08D022C30D0032C32D056EA0C0B47
:1031B0000AD0BE4220D1BA4209D126F0804622F080
:1031C00080423346114617E000291ADB25E0DFF87C
:1031D000E4B0FB44002C04BFDBE90001BDE8F08D46
:1031E000012C02BFDBE9000181F00041BDE8F08D58
:1031F000022C0AD0032C0CD0BA4212D1B8F1000F25
:103200000BDA2A482C49BDE8F08D28462B49BDE849
:10321000F08D28467146BDE8F08D24482849BDE868
:10322000F08D921B12153C2AC4BF204F244E10DC97
:10323000BAF1000FBEBF12F13C0F00273E4608DB7B
:103240006246FDF7BEF921F00041FFF761FE074637
:103250000E4694B1012C08BF86F000460DD0194AE5
:10326000194B022C3846314615D0FDF732F92A4663
:10327000BDE8F04D114BFDF72CB90022134638463E
:103280003146FDF7A3FB04BF0220FFF77DF8384667
:103290003146BDE8F08DFDF71CF92A46BDE8F04D3A
:1032A000064BFDF719B900000000F07F182D4454BB
:1032B000FB2109C0EA2C0000FB21F9BFFB210940DA
:1032C000FB21F93F075C143326A6A13C08B560B189
:1032D00020208DF8000028208DF8010030208DF886
:1032E000020038208DF8030004E0A3220421684680
:1032F000FCF75BFF6A46042140F69E2001F076FE53
:1033000001F034FB08BD00003EB5044602208DF8F4
:103310000000CA208DF80100E3208DF8020009208A
:103320008DF803006A460421682001F05FFEA320A7
:103330008DF80000610609D5C0218DF80110C82163
:103340008DF80210C2218DF8031005E08DF8010000
:103350008DF802008DF8030014F4C07F09D0C42159
:103360008DF80410CC218DF80510C6218DF80610BB
:1033700005E08DF804008DF805008DF806008DF845
:1033800008008DF807008DF809006A460A2140F60A
:10339000A72001F02BFEA0074FF0D80503D0202076
:1033A0008DF8000001E08DF800506A46012140F6DA
:1033B000B62001F01BFEA00601D5012000E0002090
:1033C00000F08EF814F4C07F1ED0E0050AD5B220BC
:1033D0008DF800008B208DF80100B6208DF80200DA
:1033E0009B2009E0B0208DF8000080208DF80100BE
:1033F000B4208DF8020090208DF803006A46042165
:1034000040F6A22001F0F2FDE1074FF40B6022D05C
:10341000F8218DF800106A46012101F0E7FDFA213C
:10342000072000F049FB072000F014FB012000F00A
:1034300031FB642000F0D4FB4FF4FA7000F0E0FBA5
:10344000C821254800F0CEFA282000F0E3FA0A202F
:1034500000F0F0FA05E08DF800506A46012101F015
:10346000C5FDA00703D5D9208DF8000001E08DF837
:1034700000506A46012140F23D7001F0B7FD60073F
:1034800001D5012000E0002000F048F8E00601D559
:10349000012000E00020FFF719FF104D44F0080064
:1034A000688101F063FA0020A873600601D5062048
:1034B000A87314F4C07F02D0A87B801DA87314F0F9
:1034C000140F02D0A87B1030A873A00702D0A87BED
:1034D000001DA87300203EBD09E3CA02EC000020D5
:1034E0000EB54FF4976310B106A107C901E008A219
:1034F00007CA8DE807006A460921184601F076FDE3
:103500000EBD0000B8AAB38DB4980D355D00000063
:10351000B8AAAAAAB088C3C5C700000008B560B1A0
:10352000C0208DF80000C2208DF80100C4208DF865
:103530000200C6208DF8030004E08B2204216846B7
:10354000FCF733FE6A46042140F6982001F04EFD58
:1035500001F00CFA08BD0000C8234FF48062024954
:1035600040F6F63001F0E4B8E05100082DE9FF4FD5
:1035700089B01746DDE916520024544E884681462C
:103580002C80A246B07B694601F07EF94FF0FF3BEC
:1035900018B158460DB0BDE8F08F708910F0140FC7
:1035A0004CD0BDF800109DF8022049BA090441EA48
:1035B00002239DF803100B433B60BDF804109DF8F7
:1035C000062049BA090441EA02229DF807101B149B
:1035D0000A437A60BDF808109DF80A4049BA090408
:1035E00041EA04219DF80B4012142143B960BDF853
:1035F0000C409DF80EC064BA240444EA0C2C9DF8DB
:103600000F4009144CEA040CC7F80CC04FEA2C47D1
:103610005B43494302FB023207FB071111441024AC
:10362000A1F17061B1F1007F04D901F09FF9A5F813
:1036300000A0AEE7298841F48071298042066946DE
:1036400011D50A19A41D13885BBAA8F80030538855
:103650005BBAA8F80230928852BAA8F804202A88E7
:1036600042F008022A8010F4C07F11D00A19A41D6C
:1036700013885BBAA9F8003053885BBAA9F8023006
:10368000928852BAA9F804202A8842F070022A804F
:10369000800716D00C44E07800F0C00500F03F0130
:1036A0006078C00706D0C80801F007013268491CDD
:1036B00002B190476078000703D5716809B1A80985
:1036C00088470C9800F082FD002063E7EC000020A2
:1036D0002DE9FF41044603A800F0E0FEBDF80C0010
:1036E000410CC3032F48008900F0030254F8225014
:1036F000420700D56D42C0F3C102860654F822206D
:1037000000D55242C0F38116C00554F8264000D5BA
:103710006442A5FB0367E81700FB037005FB01008B
:10372000850045EA9670A2FB0367D51705FB037574
:1037300002FB0152950045EA9672A4FB0367E51768
:1037400005FB037304FB01318B0043EA9671030E02
:103750008DF80030030C8DF80130030A8DF802302B
:103760008DF80300100E8DF80400100C8DF8050084
:10377000100A8DF80600080E8DF80800080C8DF868
:103780000900080A8DF80A008DF807208DF80B1043
:103790006A460C214FF4257001F028FC04B0BDE806
:1037A000F0810000EC00002030B5044613A285B083
:1037B00007CA8DE807004FF0FF35C82C16D8C8207F
:1037C000B0FBF4F1491E080A8DF80C008DF80D10BD
:1037D00003AA022140F2162001F008FC30B96A4623
:1037E0000C2140F6C12001F001FC10B1284605B0C3
:1037F00030BD054884810020F9E70000FEF2ABC42B
:10380000AAF1DFDFBBAFDFDFEC000020F8B5304905
:10381000098901F0030250F822404A0700D56442AA
:10382000C1F3C1028B0650F8222000D55242C1F3E9
:10383000811350F82330C80500D55B42254984FB2D
:103840000140850045EA947082FB0142A40F44EADE
:10385000820483FB0121950F45EA8105010E8DF855
:103860000010010C8DF80110010A8DF802108DF87E
:1038700003006A4604214FF4747001F0B7FB4FF067
:10388000FF3688B9200E8DF80000200C8DF801005D
:10389000200A8DF802008DF803406A4604214FF497
:1038A000757001F0A3FB08B13046F8BD280E8DF805
:1038B0000000280C8DF80100280A8DF802008DF810
:1038C00003506A4604214FF4767001F08FFBF8BD77
:1038D000EC00002009E3CA022DE9FF4104463CA0A8
:1038E00004F00303006802903AA0006803903AA035
:1038F00006683AA0056802A8C15C8DF80010C4F300
:10390000C101425C8DF80120C4F38112805C8DF806
:10391000020003A8C35C8DF80430415C8DF80510EB
:10392000805C8DF806006A46032140F2264001F0D3
:103930005DFB4FF0FF37E0BB01AA032140F22A40B4
:1039400001F054FBA8BBCDE9006560070BD59DF8DD
:10395000000040F001008DF800009DF8040040F0E8
:1039600001008DF80400A0060BD59DF8010040F081
:1039700001008DF801009DF8050040F001008DF870
:103980000500E0050BD59DF8020040F001008DF820
:1039900002009DF8060040F001008DF806006A461E
:1039A00003214FF4886001F021FB10B901AA032123
:1039B00000E004E040F2314001F018FB18B1384655
:1039C00004B0BDE8F081064804810020F8E700005B
:1039D0004CCD6C000CC92C0036567600264666008D
:1039E000EC0000204FF47A7290FBF2F008B54843E7
:1039F000010E8DF80010010C8DF80110010A8DF8F0
:103A000002108DF803006A4604214FF4AE7001F0F5
:103A1000EDFA08BD0521B0FBF1F008B5010A8DF8FB
:103A200000108DF801006A4602214FF4AD7001F0DC
:103A3000DDFA08BD0521B0FBF1F008B5010A8DF8EB
:103A400000108DF801006A4602214FF4AC7001F0BD
:103A5000CDFA08BD08B500218DF80010C10702D0CD
:103A600030218DF80010810705D59DF8001041F038
:103A70000C018DF80010400705D59DF8000040F0BE
:103A800003008DF800006A4601214FF4A47001F094
:103A9000ADFA08BD08B560B1042800D90420401E65
:103AA0008DF800006A46012140F24F1001F09EFAA5
:103AB00008BD0120F3E700002DE9FC410546400761
:103AC0004FF0FF367CD0B1F5C86F79D80846FCF7C7
:103AD000F0FD3E49FCF712FC074601A800F0C0FCCF
:103AE0009DF80400022806D004280DD008282ED006
:103AF000102865D134E00E213846FCF73DFCFCF778
:103B0000F6FD84B2324907E00D213846FCF734FC5B
:103B1000FCF7EDFD2F4984B23846FCF7BDFBFCF7FE
:103B2000E6FD210A8DF8001080B28DF80140010AEF
:103B30008DF802108DF80300E8076C4620D022466D
:103B400002214FF4EA7001F051FAC8BB11E00C21D8
:103B50003846FCF711FCFCF7CAFD84B21E49DBE7CE
:103B60000B213846FCF708FCFCF7C1FD84B21B4969
:103B7000D2E7A21C02214FF4927001F037FAF8B993
:103B8000A8070DD56A4602214FF4EC7001F02EFA19
:103B9000B0B9A21C02214FF4947001F027FA78B951
:103BA000680710D56A4602214FF4EE7001F01EFA44
:103BB00030B9A21C02214FF4967001F017FA10B12F
:103BC0003046BDE8FC810020FBE7000000004843D0
:103BD000000040460000C045000040450000C044D1
:103BE0000521B0FBF1F008B5010A8DF800108DF841
:103BF00001006A4602214FF4EF7001F0F7F908BDA9
:103C00000521B0FBF1F008B5010A8DF800108DF820
:103C100001006A4602214FF4ED7001F0E7F908BD9A
:103C200013B54FF0FF33012269460248FDF7BCFE91
:103C300000981CBDA40000202DE9FE43064626483E
:103C400001AB042240680D210078FCF753FF10B14E
:103C50000720BDE8FE839DF804101C2000EAD10275
:103C60009DF80710DFF87490C1F301131A438DF823
:103C700000209DF80520C1F3810300EAD2021A4317
:103C80008DF801209DF8062001F0030100EAD20022
:103C900008430024124F8DF80200A0466D46285DAF
:103CA00010B146F824900AE046F824800DE000BFE9
:103CB00056F824003946FCF7EFFA46F82400285D50
:103CC000401E10F0FF002855F2D1641CE4B2032C12
:103CD000E5D30020BDE70000100000207B14AE3EBD
:103CE0001D5A843F2DE9FE4F05460120C14E8DF837
:103CF00000004FF000088DF8018030680C46174630
:103D0000817C70686B4602220078FCF707FF4FF059
:103D1000FF3A00287AD1C820FCF718FF8DF8008000
:103D200030686B460122C17B70680078FCF7F6FEB4
:103D30000028EFD130686B46012241797068007825
:103D4000FCF7ECFE0028E5D130686B460122817C4F
:103D500070680078FCF7E2FE0028DBD130686B4623
:103D60000122C17D70680078FCF7D8FE0028D1D10F
:103D700030686B460122017970680078FCF7CEFE4E
:103D80000028C7D14FF00C098DF8009030686B46C1
:103D90000122017970680078FCF7C0FE002835D157
:103DA0000F20FCF7D3FEB06A6B460122407A8DF8F3
:103DB00000003068817870680078FCF7AFFE00285A
:103DC00024D1B06A6B460122007A8DF80000306879
:103DD000417870680078FCF7A1FE002873D1B06AC2
:103DE000807A0FB140F0E0008DF8000030686B463B
:103DF0000122817970680078FCF790FE002862D17A
:103E00002FB1B06AC07A40F0E00001E04AE018202B
:103E10008DF8000030686B460122C1797068007827
:103E2000FCF77CFEF0BB17B1C820FCF78FFE4020EA
:103E30008DF8000030686B460122017970680078C7
:103E4000FCF76CFE70BB78208DF8000030686B4684
:103E50000122417970680078FCF760FE10BB3220C7
:103E6000FCF774FE8DF80080306847466B46417958
:103E7000706801220078FCF751FE98B931687068CB
:103E8000B046897A00786B460222FCF733FE48B9C7
:103E9000BDF80000AF6040BAB0FBF9F06F60C6B289
:103EA0002F6000E00FE0A76067602760002739E01F
:103EB000D8F80010D8F804006B46C97A00780C22B4
:103EC000FCF718FE10B15046BDE8FE8FBDF80000AB
:103ED000236840BA00B2BDF80210BDF804201844AF
:103EE000206049BA606809B20844606052BAA068AC
:103EF00012B21044A060BDF806002B6840BA01B2AF
:103F0000BDF80800BDF80A201944296040BA696864
:103F100000B20844686052BAA86812B210447F1C0C
:103F2000FFB2A860B742C3D328688322C11709042F
:103F300041EA104100040023FCF7F6F83246002362
:103F4000FCF7F2F8286068688322C117090441EA87
:103F5000104100040023FCF7E7F832460023FCF789
:103F6000E3F86860A8688322C117090441EA104198
:103F700000040023FCF7D8F832460023FCF7D4F8FD
:103F8000A86020684FF40065C117090441EA104198
:103F900000042A460023FCF7C7F832460023FCF74A
:103FA000C3F8206060682A46C117090441EA10413D
:103FB00000040023FCF7B8F832460023FCF7B4F8FD
:103FC0006060A0682A46C117090441EA1041000454
:103FD0000023FCF7A9F832460023FCF7A5F8A060FF
:103FE000002802DDA0F5803001E000F58030A060FF
:103FF000002069E7100000202DE9F84F81462E4887
:104000008846002540686B46032200780D21FCF7A6
:1040100071FD10B10720BDE8F88F9DF80000002465
:1040200000F01F008DF800009DF801006FF00F0BED
:1040300000F01F008DF801009DF802006E4600F0B0
:104040001F008DF802004FF0010A00BF59F824103C
:1040500058F82400081A00D54042FCF721FB5946C5
:10406000FCF78AF90746305DC0B1144802E01449F4
:10407000FCF712F9315D491E11F0FF013155F6D1FF
:1040800001463846FCF73AF94FF07E51FCF7FEF84E
:104090000C4920F00040884205DC07E00A4838441B
:1040A000B0F1D97F02D90AFA04F00543641C032C4D
:1040B000CCDB2846AFE70000100000200000C8411C
:1040C00054E3853F295C0F3E0000E0BE00B5024688
:1040D00000F00DF80346D01C00F009F843EAC003D5
:1040E000901D00F004F843EA801080B200BD90F902
:1040F0000010002902DD4FF00000704702DA4FF097
:104100000400704790F90110002902DD4FF0010012
:10411000704702DA4FF00500704790F9020000285E
:1041200002DD4FF00200704702DA4FF006007047E0
:104130004FF007007047000088B0FDF7C9F8FDF7A1
:10414000ADFFFDF743FFFDF767FFFDF785FFFDF7C7
:1041500098FE05E000F034F9014611A0FEF768F87A
:1041600000F02EF90028F5D106AA05A904A800F050
:1041700059F80028F8D10698FCF7CDFA06460F4604
:104180000598FCF7C8FA04460D460498FCF7C3FAF4
:104190008DE8F00002460B4607A0FEF749F8E3E77A
:1041A000444D50206661696C656420636F6465A34B
:1041B000BA25640D0A000000252E33662C252E3307
:1041C000662C252E33662C0D0A0000007047000077
:1041D0002DE9F041124C20F00101002594F8240053
:1041E00010B10020BDE8F081A07A4FF0FF3668B131
:1041F0000840277C2074884200D0354641B1012018
:1042000000F05EFF00F0B2FB38B127743046E9E7FA
:10421000207D00B1012000F053FF2846E2E70000B6
:10422000100000202DE9F74F8EB00CA902A8CDE9AF
:1042300000010BAB03AA09A907A8FFF797F918B16A
:10424000012011B0BDE8F08FBDF80800C0057DD594
:104250000398FCF725FA6FF01D042146FCF78CF853
:1042600082460498FCF71CFA2146FCF785F8814643
:104270000598FCF715FA2146FCF77EF8804606986B
:10428000FCF70EFA2146FCF777F805460121504667
:10429000FCF772F806464146FBF7FEFF04464FF076
:1042A00040414846FBF7F8FF07462946FBF7F4FF75
:1042B0002146FBF799FFFCF72EFAFEF7F1FC4FF0D1
:1042C000663B5A463D4BFCF70AF9FCF737FA0E9964
:1042D000086001214046FCF74FF841460090FBF78B
:1042E000DBFF044638464946FBF7D6FF2146FBF77D
:1042F000CDFF4FF07E51FBF777FFFCF70CFA074636
:104300000C4630464946FBF7C7FF0646294600984B
:10431000FBF7C2FF3146FBF767FFFCF7FCF93A46B3
:104320002346FEF705FF5A46244BFCF7D8F8FCF766
:1043300005FA0F99086029460846FBF7ADFF0746C6
:1043400041460846FBF7A8FF064600E034E0494630
:104350000846FBF7A1FF044651460846FBF79CFFC1
:104360002146FBF741FF3146FBF790FF3946FBF74B
:104370008DFFFCF7D0F906460C4629465046FBF760
:104380008BFF054641464846FBF786FF2946FBF76B
:104390002BFF0121FBF7F0FFFCF7BDF93246234666
:1043A000FEF7C6FE5A46054BFCF799F8FCF7C6F92E
:1043B00010990860002044E7022042E766A64C40BE
:1043C00010B500F0F1F808B10A2010BD782000F017
:1043D000B1FD10F0FF0F01D0012010BD7820FFF7D4
:1043E000F7FE10F0FF0F01D0022010BD642000F096
:1043F00061FD10F0FF0F01D0032010BDFFF7ACF8F6
:1044000010F0FF0F01D0042010BD1448FFF75EFE2E
:10441000FFF762FA10F0FF0F01D0052010BD40F247
:104420007310FEF771FF10F0FF0F01D0062010BDD2
:104430006420FFF7B9F910F0FF0F01D0072010BD7D
:1044400000F0FEFD08B1082010BD012000F058FC6E
:1044500010F0FF00F8D0092010BD00003C00002043
:104460000D494A7A42B1012A08D0022A0FD0032A04
:104470000FD04FF0FF307047022200E0042202709C
:10448000C97C11B11106C90D0170002070470822C6
:10449000F5E71022F3E70000100000200F494A7AE8
:1044A00042B1012A09D0022A11D0032A12D04FF0BA
:1044B000FF3070474FF4804201E041F69C72028069
:1044C000C97C11B1C2F34E010180002070474FF446
:1044D0008052F4E74FF40062F1E700001000002082
:1044E0000B49097A39B1012907D002290AD00329D9
:1044F0000BD0002103E0FA2101E04FF4FA710180B2
:10450000002070474FF47A71F9E74FF4FA61F6E74B
:10451000100000200A49097A41B1012908D0022976
:104520000AD003290AD04FF0FF307047054900E058
:1045300005490160002070470449FAE70449F8E79B
:104540001000002000000343000083423333034285
:10455000333383410C49C97A072913D2DFE801F0CC
:104560001204060A0C0E1000BC2100E0622101803A
:10457000002070472A21FAE71421F8E70A21F6E71C
:104580000521F4E70021F2E710000020054991F829
:10459000242012B14FF0FF307047C98901800020FC
:1045A00070470000100000202DE9FC414C4C802099
:1045B0008DF8000020686B460122817C60680078DD
:1045C000FCF7ACFA4FF0FF37002832D16420FCF73B
:1045D000BDFA00258DF8005020686B460122817CD1
:1045E00060680078FCF79AFA002870D120686B4662
:1045F0000622817D60680078FCF77CFA002866D18D
:104600009DF805009DF80310C007400F01F001015F
:1046100040EA41019DF801004FF0010600F0010061
:10462000014309D0012905D0022915D02DA0FDF79D
:10463000FFFD4CE0E67410E020686B460122C17873
:1046400060680078FCF756FA40BB9DF8000010F057
:104650000F0020D0042822D0E574FF2004F80A0FB0
:104660004FF6FF7104F8020C04F8010C6070A18091
:10467000A0712072A67026766576E572A572E56057
:1046800025616561A576E576A5834FF4FA6000F0B3
:1046900073FB18B907E01D48FDF7CAFD17E01CA021
:1046A000FDF7C6FDC6E7022000F088FA78B92A2097
:1046B00000F0CAFB58B9322000F0FCFB38B90020EA
:1046C000FFF786FD18B9002000F0ACFA10B13846AB
:1046D000BDE8FC81002000F02DFC0020F8E7000080
:1046E00010000020556E737570706F7274656420D1
:1046F000736F6674776172652070726F647563742E
:10470000207265762025642E0A000000C85E00082D
:1047100048616C662073656E736974697669747933
:10472000207061727420666F756E642E0A0000003E
:104730002DE9FF4FDFF89480064685B098F82500F4
:1047400015460F464FF0FF39B0BBAFB3002420E051
:10475000301B102800DD102080B283463A19014634
:104760009246204600F042FC30BB6A46594620463D
:1047700000F0D2F800BB50465A466946FBF727FDC9
:1047800020B16FF0010009B0BDE8F08F04EB0B0021
:1047900084B2B442DCD3280A8DF810008DF8115091
:1047A000D8F80000444604AB817ED8F80400022209
:1047B0000078FCF7B3F908B14846E4E7012084F833
:1047C00025000898E0840020DDE7000010000020AC
:1047D0002DE9F84305464FF0FF39282844D807272C
:1047E000284C00267DB1012000F0FCFA20208DF835
:1047F00000004FF00108012D17D0052D18D88DF8B5
:10480000018005201FE0002000F0ECFA8DF8006028
:104810008DF8017020686B460222817C6068007808
:10482000FCF77CF900BB267529E08DF80160E8E70C
:10483000142D04D802208DF801000A2003E0032083
:104840008DF80100142000F0FFFA9DF801006B467E
:1048500007EB80108DF8010020680222817C6068DF
:104860000078FCF75BF910B14846BDE8F8830820F2
:10487000A072267384F814800020FFF7A9FC0020A2
:10488000F3E70000100000202DE9F843214C064614
:10489000174694F8240089464FF0FF3890B3A07A69
:1048A00080B320686B460222817A60680078FCF74A
:1048B00021F938BBBDF8000045BAB54202D200204C
:1048C00038701FE060684188B5EB510F11D921683D
:1048D00000786B46497C0122FCF70CF990B99DF8F1
:1048E0000000C00605D500F041F86FF00100BDE8FA
:1048F000F8832068F2B24B46C17A60680078FCF712
:10490000F9F808B14046F2E7B5FBF6F0401E387002
:104910000020ECE710000020F8B516000D464FF01F
:10492000FF371FD0104CA17AE1B1010A8DF80010B9
:10493000C0B28DF80100411960684289914211D8D6
:10494000216800786B46097E0222FCF7E7F848B937
:104950002068EAB23346417D60680078FCF7CAF807
:10496000002800D03846F8BD10000020F8B5564C9D
:104970004FF0FF36A07A00287DD000258DF800503A
:1049800020686B460122C17B60680078FCF7C6F89E
:10499000002870D120686B46012241796068007858
:1049A000FCF7BCF8002866D120686B46012201792B
:1049B00060680078FCF7B2F800285CD194F8240015
:1049C000E0B30C208DF8000020686B4601220179CD
:1049D00060680078FCF7A2F8002872D13220FCF75A
:1049E000B5F8C0208DF80000A07AC00702D0E02002
:1049F0008DF8000020686B4601220179606800781C
:104A0000FCF78CF800285CD1607C18B102208DF88E
:104A1000000001E08DF8005020686B460122C17B48
:104A200060680078FCF77AF828BB8DF800502068A1
:104A30006B4601224179606800783EE0FFE7042080
:104A40008DF8000020686B460122017960680078CB
:104A5000FCF764F878B9A07C90B9A07AC0070FD0B1
:104A60005FF060008DF8000020686B46012201793C
:104A70006068007800E024E0FCF750F808BB01E033
:104A80004020EFE73220FCF761F8607C18B101208C
:104A90008DF8000001E08DF8005020686B4601227F
:104AA000C17B60680078FCF739F850B92068064B84
:104AB00001224179606810330078FCF72FF8002854
:104AC00000D03046F8BD0000100000202DE9F0476E
:104AD000394C82468AB094F824000F4620B1002059
:104AE00000F00EF9012600E0002607A8FFF7F8FC09
:104AF00006A8FFF7B5FC09A8FFF72CFD08A8FFF7EB
:104B000045FD94F80A9094F810800025002239465B
:104B10005046FFF7E7F810B16D1C022DF6DB022DB1
:104B20001AD00025012203A96846FFF7DBF810B16F
:104B30006D1C022DF6DB022D0ED003A93846FEF7C0
:104B40006FF8C7B269465046FFF756FA10F0FF0FEC
:104B50004FF0000502D002E0002503E001250FB967
:104B600045F00205FF2020726072E0724FF6FF717F
:104B7000E181A072207401202073BDF81C0000F0B8
:104B8000FBF89DF8180000F019F8BDF8240000F0BB
:104B90005BF9BDF8200000F08DF9484600F0CAF935
:104BA0004046FFF715FB16B1012000F0A9F80AB046
:104BB0002846BDE8F08700001000002038B5184CEA
:104BC0004FF0FF35A17A19B3022806D0042806D089
:104BD00008280ED010281BD10DE0002000E008208E
:104BE0008DF80000607A9DF80010B0EBD10F04D072
:104BF00005E01020F4E71820F2E7002038BD206817
:104C00006B460122C17960680078FBF787FF08B125
:104C1000284638BD9DF80000C0086072EDE700002E
:104C200010000020F8B5354C0546A07CA84201D103
:104C30000020F8BD31484FF0FF366B46D0E9001038
:104C40004FF001020979007835B3FBF753FF70BBD1
:104C50009DF800006B4620F020008DF800002068D1
:104C60000122017960680078FBF758FFF8B903204A
:104C7000FBF76CFF02208DF8000094F8220078B357
:104C800082202BE020686B460122017D606800785D
:104C9000FBF744FF58B92EE0FBF72CFF38B9A07A98
:104CA000C0079DF8000003D040F0200002E00CE0B7
:104CB00020F020008DF8000020686B460122017969
:104CC00060680078FBF72AFF08B13046F8BD032082
:104CD000FBF73CFF94F8220000B180208DF8000023
:104CE00094F823000028CDD09DF8000040F030005B
:104CF0008DF80000C6E7A5749AE7000010000020B8
:104D000038B51C4C94F8241081421DD0002500B306
:104D100094F82500D0B1002000F0D2F90020FFF770
:104D200081FFE08C00F0C6F88DF8005060686B469B
:104D3000012200782321FBF7F1FE012084F82400F2
:104D400000F0BEF9FFF712FE002038BD4FF0FF3033
:104D500038BD002000F0B4F9207C8DF800006068B8
:104D60006B46012200782321FBF7D8FE84F82450FB
:104D7000E8E700001000002038B5194C4FF0FF356F
:104D8000A17A31B3FA2809D0B0F5FA7F08D0B0F58E
:104D90007A7F0FD0B0F5FA6F1BD10DE0002000E054
:104DA00008208DF80000207A9DF80010B0EBD10F9C
:104DB00004D005E01020F4E71820F2E7002038BD09
:104DC00020686B460122817960680078FBF7A6FEB7
:104DD00008B1284638BD9DF80000C0082072EDE7F4
:104DE0001000002038B5174C054694F82300A8425F
:104DF00001D1002038BD0DB1302000E000208DF839
:104E00000000A07C28B19DF8000040F002008DF861
:104E1000000094F8220028B19DF8000040F08000C6
:104E20008DF8000020686B460122017D60680078E3
:104E3000FBF774FE10B14FF0FF3038BD84F82350FB
:104E4000D7E700001000002038B5194C4FF0FF35AF
:104E5000A17A31B3BC2801D3012010E0622801D32C
:104E600002200CE02A2801D3032008E0142801D3F3
:104E7000042004E00A2801D3052000E006208DF874
:104E80000000E07A9DF80010884201D1002038BD72
:104E900020686B460122817860680078FBF73EFE4F
:104EA00008B1284638BD9DF80000E072EEE700002A
:104EB00010000020F8B51E4D04464FF0FF37A87AC9
:104EC00048B395F8240030BB287D4FF47A7648B17A
:104ED00064B1282C03D8E0B2FFF77AFC26E000206A
:104EE000FFF776FC042C05D2042406E00020FFF72F
:104EF0006FFCF9E7B44200D93446B6FBF4F0401E2B
:104F00008DF8000028686B460122417868680078B7
:104F1000FBF704FE08B13846F8BD9DF80000401CC0
:104F2000B6FBF0F0E8814008FFF78EFF0020F8BDE7
:104F300010000020F8B5054610F0700F4FF0000685
:104F400001D0012004E015B18DF8006002E040209E
:104F50008DF80000244C6B4601222068817C60683B
:104F60000078FBF7DBFD4FF0FF3760BB9DF80000DA
:104F700020F0400020738DF80060680602D4042001
:104F80008DF80000A80605D49DF8000040F002004E
:104F90008DF80000E80605D49DF8000040F00100FF
:104FA0008DF80000280705D49DF8000040F0380077
:104FB0008DF8000020686B460122C17C6068007893
:104FC000FBF7ACFD10B1A6723846F8BD25B1082D2F
:104FD00002D00020FFF706FFA57226753220FBF7EE
:104FE000B5FD0020F8BD000010000020F8B5160047
:104FF0000D464FF0FF371FD0104CA17AE1B1010AE6
:105000008DF80010C0B28DF8010041196068428926
:10501000914211D8216800786B46097E0222FBF785
:105020007DFD48B92068EAB23346417D606800786A
:10503000FBF774FD002800D03846F8BD10000020B2
:1050400010B588B0694604A8FFF740FD032802D0D8
:10505000012008B010BD07A8FFF75CFA0498FBF721
:105060001FFB07990C46FBF717F9FBF727FB04908A
:105070000598FBF715FB2146FBF70EF9FBF71EFB26
:1050800005900698FBF70CFB2146FBF705F9FBF7AB
:1050900015FB069004A8FEF7B9FB03A8FFF7FEF97D
:1050A000BDF80C00009941430091019941430191E1
:1050B0000299414368460291FEF70AFB0020C8E7C7
:1050C000F8B5144C0146224694F82460D2E9000257
:1050D00000235D1E56B179B1022111E0C17B107829
:1050E0006B460122FBF71AFD68B90EE0A67A56B1AD
:1050F00011B1617C61B902E08DF80030EEE7012169
:105100008DF80010EAE72846F8BD9DF800006074AD
:105110000020F8BD100000202DE9F04106460F46A2
:10512000FBF796FC041E0D4618BF0120284320F013
:105130000040C0F17F6000F1E040C00F0ED0301C95
:1051400018BF0120384320F00040C0F17F6000F11B
:10515000E040C00F04BF0120FDF716F920462946A4
:10516000BDE8F081010202030405060708090A0BE5
:105170000C0D0E0F101000000000000000000102D6
:105180000304060708090000000001020304751962
:105190001A0C6A231B1C1F207274433B4138393A96
:1051A0006B6C376F06246D6E7000D00000047600C3
:1051B0005401F7FD0001000083000000000800001A
:1051C0000001001832000500000020410000D2421A
:1051D000295C0F3E9A99993E3333733F295C0F3E09
:1051E0000000700000000024000000020003000026
:1051F00000650054FFEF0000FA80000B12820001EE
:10520000030C30C30E8C8CE914D5400213710F8E41
:105210003883F8833000F883258EF8833000F883D4
:10522000FFFFFFFF0FFEA9D6240004001A8279A118
:105230000000003CFFFF00000010000038836FA258
:10524000003E03304000000002CAE3093E80000037
:10525000200000000000000040000000600000008E
:10526000000C0000000C186E000006920A16C0DF49
:10527000FFFF0256FD8CD377FFE1C496E0C5BEAABE
:1052800000000000FFFF0B2B000016570000035921
:105290004000000000001DFA00026C1D000000002C
:1052A0003FFFDFEB003EB3B6000D227800002F3C3D
:1052B00000000000001942B5000039A20000B365EB
:1052C000D90E9FC91DCF4C343000000050000000A3
:1052D0003BB67AE80064000000C80000000000004F
:1052E000100000001000FA921000225E000D229FB4
:1052F0000001000000320000FF46000063D40000FF
:105300001000000004D6000004CC000004CC000013
:1053100000001072000000400000000000000000CB
:105320000006000200050007000000000064000005
:1053300000000000000000050005006400200000DF
:10534000000000000000000000004000000003001A
:1053500000000032F8980000FF650000830F000095
:10536000FF9BFC00000000000000000000000000A7
:10537000000000000000000000000000000000002D
:10538000000000000000000000000000000010000D
:1053900040000000000000060000B26A00020000A9
:1053A0000001FB830068000000D9FC007CF1FF8352
:1053B0000000000000650000006403E800640028AD
:1053C000000000250000000016A0000000001000F2
:1053D00000001000002F0000000001F40000100089
:1053E00000280000FFFF4581FFFFFA720000000067
:1053F00000000000004400050005BAC6004778A27E
:105400000000000100000000000006000000001481
:105410000000254D002F706D000005AE000C02D07D
:10542000000000000000000000000000000000007C
:10543000001B000000000000000000000000000051
:1054400000640000000800000000000000000000F0
:10545000000000000000000000000000000000004C
:10546000000000000000000000000000000000003C
:10547000000000000000000000000000000000002C
:10548000000000000000000000000000000000001C
:10549000000000000000000000000000000000000C
:1054A000001B00000000000000000000000E000EC5
:1054B00000000AC70004000000000032FFFFFF9C4C
:1054C00000000B2B0000000200000001000000643F
:1054D000FFE50000000000000000000000000000E8
:1054E00000000001000000000001000000000000BA
:1054F000000180000001800000018000002426D30C
:105500000000000000000000000600100096003CB3
:10551000000000000000000000000000000000008B
:105520000C0A4E68CDCF770950166759C619CE823E
:10553000000000000000000000000000000000006B
:10554000000000000000000017D7840003000000E6
:105550000000000000000000C7938F9D1E1B1C1957
:10556000000000000000000000000000000000003B
:105570000000000000000000020318850000400049
:105580000000000300000003000000000000000015
:1055900040000000000000000000000000000000CB
:1055A00000000000000000000000000000000000FB
:1055B00000000000000000000000000000000000EB
:1055C00000000000677DDF7E72902E554CF6E68865
:1055D00000000000000000000000000000000000CB
:1055E000D8DCB4B8B0D8B9ABF3F8FAB3B7BB8E9E79
:1055F000AEF132F51BF1B4B8B08097F1A9DFDFDF6F
:10560000AADFDFDFF2AAC5CDC7A90CC92C97F1A983
:1056100089264666B28999A92D557DB0B08AA8968B
:10562000365676F1BAA3B4B280C0B8A89711B28347
:1056300098BAA3F0240844106418B2B9B49883F15E
:10564000A329557DBAB5B1A38393F0002850F5B2D4
:10565000B6AA839328547CF1B9A3829361BAA2DAE3
:10566000DEDFDB819AB9AEF5606870F1DABAA2DFED
:10567000D9BAA2FAB9A38292DB31BAA2D9BAA2F8F6
:10568000DF85A4D0C1BBAD83C2C5C7B8A2DFDFDF51
:10569000BAA0DFDFDFD8D8F1B8AAB38DB4980D3542
:1056A0005DB2B6BAAF8C96198F9FA70E161EB49A2C
:1056B000B8AA872C547CBAA4B08AB691325676B276
:1056C0008494A4C808CDD8B8B4B0F19982A82D5557
:1056D0007D98A80E161EA22C547C92A4F02C507813
:1056E000F184A898C4CDFCD80DDBA8FC2DF3D9BA61
:1056F000A6F8DABAA6DED8BAB2B68696A6D0F3C8AD
:1057000041DAA6C8F8D8B0B4B882A892F52C54886B
:1057100098F135D9F418D8F1A2D0F8F9A884D9C7EE
:10572000DFF8F883C5DADF69DF83C1D8F40114F14B
:10573000A8824EA884F311D182F5D992289788F1D6
:1057400009F41C1CD884A8F3C0F9D1D99782F12997
:10575000F40DD8F3F9F9D1D982F4C203D8DEDF1AF7
:10576000D8F1A2FAF9A88498D9C7DFF8F8F883C766
:10577000DADF69DFF883C3D8F40114F198A8822E28
:10578000A884F311D182F5D992509788F109F41CBD
:10579000D884A8F3C0F8F9D1D99782F149F40DD88B
:1057A000F3F9F9D1D982F4C403D8DEDFD8F1AD889A
:1057B00098CCA809F9D98292A8F57CF1883ACF94BF
:1057C0004A6E98DB6931DAADF2DEF9D88795A8F236
:1057D00021D1DAA5F9F417D9F1AE8ED0C0C3AE82CB
:1057E000C684C3A88595C8A588F2C0F1F4010EF15E
:1057F0008E9EA8C63E56F554F18872F40115F198B4
:1058000045856EF58E9E0488F142985A8E9E0688D4
:1058100069F4011CF1981E1108D0F504F11E9702DD
:1058200002983625DBF9D985A5F3C1DA85A5F3DF22
:10583000D88595A8F309DAA5FAD88292A8F578F167
:10584000881A849F26889821DAF41DF3D8879F3917
:10585000D1AFD9DFDFFBF9F40CF3D8FAD0F8DAF9DD
:10586000F9D0DFD9F9D8F40BD8F3879F39D1AFD964
:10587000DFDFF41DF3D8FAFCA869F9F9AFD0DADE5E
:10588000FAD9F88F9FA8F1CCF398DB45D9AFDFD0D8
:10589000F8D8F18F9FA8CAF38809DAAF8FCBF8D870
:1058A000F2AD978D0CD9A5DFF9BAA6F3FAF412F28E
:1058B000D8950DD1D9BAA6F3FADAA5F2C1BAA6F3F2
:1058C000DFD8F1BAB2B68696A6D0CAF349DAA6CB2B
:1058D000F8D8B0B4B8D8AD84F2C0DFF18FCBC3A88C
:1058E000B2B68696C8C1CBC3F3B0B48898A821DB02
:1058F000718D9D71859521D9ADF2FAD88597A8282B
:10590000D9F408D8F28D29DAF405D9F285A4C2F2C7
:10591000D8A88D9401D1D9F411F2D88721D8F40AEE
:10592000D8F28498A8C801D1D9F411D8F3A4C8BB7F
:10593000AFD0F2DEF8F8F8F8F8F8F8F8D8F1B8F6E1
:10594000B5B9B08A95A3DE3CA3D9F8D85CA3D9F841
:10595000D87CA3D9F8D8F8F9D1A5D9DFDAFAD8B12B
:105960008530F7D9DED8F830ADDADED8F2B48C99CC
:10597000A32D557DA083DFDFDFB591A0F629D9FBEC
:10598000D8A0FC29D9FAD8A0D051D9F8D8FC51D93F
:10599000F9D879D9FBD8A0D0FC79D9FAD8A1F9F9EE
:1059A000F9F9F9A0DADFDFDFD8A1F8F8F8F8F8ACF8
:1059B000DEF8ADDE8393AC2C547CF1A8DFDFDFF69C
:1059C0009D2CDAA0DFD9FADB2DF8D8A850DAA0D0C8
:1059D000DED9D0F8F8F8DB55F8D8A878DAA0D0DF0F
:1059E000D9D0FAF8F8F8F8DB7DF8D89CA88CF53017
:1059F000DB38D9D0DEDFA0D0DEDFD8A848DB58D92D
:105A0000DFD0DEA0DFD0DED8A868DB70D9DFDFA072
:105A1000DFDFD8F1A888902C547C98A8D05C38D1CE
:105A2000DAF2AE8CDFF9D8B087A8C1C1B188A8C6B8
:105A3000F9F9DA36D8A8F9DA36D8A8F9DA36D8A8D2
:105A4000F9DA36D8A8F9DA36D8F78D9DADF818DA34
:105A5000F2AEDFD8F7ADFA30D9A4DEF9D8F2AEDE77
:105A6000FAF983A7D9C3C5C7F1889BA77AADF7DE3A
:105A7000DFA4F8849408A797F300AEF29819A488DD
:105A8000C6A39488F632DFF28393DB09D9F2AADF4A
:105A9000D8D8AEF8F9D1DAF3A4DEA7F1889B7AD88A
:105AA000F38494AE19F9DAAAF1DFD8A881C0C3C58E
:105AB000C7A39283F628ADDED9F8D8A350ADD9F8A4
:105AC000D8A378ADD9F8D8F8F9D1A1DADEC3C5C723
:105AD000D8A18194F818F2B089ACC3C5C7F1D8B881
:105AE000B4B09786A8319B069907AB9728889BF09E
:105AF0000C201440B0B4B8F0A88A9A285078B79B0C
:105B0000A8295179247059446938644831F1BBABF4
:105B100088002C547CF0B38BB8A804285078F1B0DE
:105B200088B49726A85998BBABB38B02264666B0BB
:105B3000B8F08A9CA82951798B2951798A24705907
:105B40008B2058718A4469388B3940688A6448319F
:105B50008B30496088F1AC002C547CF08CA8042870
:105B60005078F1889726A85998AC8C02264666F0A2
:105B7000899CA8295179247059446938644831A90D
:105B80008809205970AB11384069A8193148608CD8
:105B9000A83C415C207C00F187981986A86E767E2F
:105BA000A999882D557DD8B1B5B9A3DFDFDFAED077
:105BB000DFAAD0DEF2ABF8F9D9B087C4AAF1DFDFF3
:105BC000BBAFDFDFB9D8B1F1A3978E60DFB084F24D
:105BD000C8F8F9D9DED89385F14AB183A308B58313
:105BE0009A0810B79F10D8F1B0BAAEB08AC2B2B658
:105BF0008E9EF1FBD9F41DD8F9D90CF1D8F8F8AD87
:105C000061D9AEFBD8F40CF1D8F8F8AD19D9AEFBD8
:105C1000DFD8F416F1D8F8AD8D61D9F4F4ACF59C69
:105C20009C8DDF2BBAB6AEFAF8F40BD8F1AED0F8F3
:105C3000AD51DAAEFAF8F1D8B9B1B6A3839C08B980
:105C4000B1839AB5AAC0FD3083B79F10B58B93F28C
:105C50000202D1ABDADED8F1B080BAABC0C3B284F5
:105C6000C1C3D8B1B9F38BA391B609B4D9ABDEB037
:105C7000879CB9A3DDF1B38B8B8B8B8BB087A3A3F0
:105C8000A3A3B28BB69BF2A3A3A3A3A3A3A3A3A393
:105C9000A3F1B087B59AA3F39BA3A3DCBAACDFB999
:105CA000A3A3A3A3A3A3A3A3A3A3A3A3A3A3A3A3C4
:105CB000D8D8D8BBB3B7F1AAF9DAFFD9809AAA2805
:105CC000B48098A720B79787A86688F07951F1909B
:105CD0002C870CA781976293F071716085940129DC
:105CE000517990A5F1284C6C870C95188578A38381
:105CF00090284C6C886CD8F3A28200F210A89219FC
:105D000080A2F2D926D8F188A84DD948D896A839CA
:105D100080D93CD89580A839A68698D92CDA87A74F
:105D20002CD8A8899519A980D938D8A88939A980EB
:105D3000DA3CD8A82EA83990D90CD8A8953198D992
:105D40000CD8A809D9FFD801DAFFD89539A9DA26E5
:105D5000FFD890A80D8999A810809821DA2ED889AB
:105D600099A83180DA2ED8A886963180DA2ED8A864
:105D7000873180DA2ED8A88292F34180F1D92ED8CB
:105D8000A882F31980F1D92ED882ACF3C0A2802268
:105D9000F1A62EA72EA92298A829DAACDEFFD8A258
:105DA000F22AF1A92E8292A8F23180A696F1D900AA
:105DB000AC8C9C0C30ACDED0DEFFD88C9CACD01010
:105DC000ACDE8092A2F24C82A8F1CAF235F196883C
:105DD000A6D900D8F1FF0000555555555555C53F7A
:105DE0007D6FEB0312D6D4BF5544880E55C1C93F11
:105DF0003B8F68B52882A4BF88B20175E0EF493FA8
:105E000009F7FD0DE13D023F4B2D8A1C273A03C0E7
:105E1000C88A599CE52A004059018D1B6C06E6BFD3
:105E200082922EB1C5B8B33F4FBB610567ACDD3F71
:105E3000182D4454FB21E93F9BF681D20B73EF3FB1
:105E4000182D4454FB21F93FE2652F227F2B7A3C29
:105E5000075C143326A6813CBDCBF07A8807703CE2
:105E6000075C143326A6913CC4EB98999999C9BF55
:105E7000711623FEC671BCBF6D9A74AFF2B0B3BF8A
:105E80009AFDDE522DDEADBF2F6C6A2C44B4A2BF4A
:105E90000D5555555555D53FFF8300922449C23FB6
:105EA0006E204CC5CD45B73F513DD0A0660DB13FEA
:105EB000EB0D76244B7BA93F11DA22E33AAD903FFC
:105EC000000000000000000050726F6475637420D1
:105ED00049442072656164206173203020696E64DA
:105EE00069636174657320646576696365206973AD
:105EF0002065697468657220696E636F6D70617486
:105F000069626C65206F7220616E204D5055333090
:105F100035302E0A00000000385F00080000002025
:105F20005000000068230008885F0008500000202F
:105F3000B0040000782300080100000010000000F9
:105F4000000000000024F4008E510008AA5100084F
:105F50000000000000000000000000000000000041
:105F60000000000000000000000000000000000031
:105F7000B85100080100000001000000010000000D
:085F8000000000000000000019
:04000005080000ED02
:00000001FF
