:020000040800F2
:10000000B005002001010008EB270008CD20000802
:10001000E9270008C5090008652B0008000000005A
:10002000000000000000000000000000EF270008B2
:10003000590A000800000000ED270008F127000819
:100040001B0100081B0100081B0100081B01000820
:100050001B0100081B0100081B0100081B01000810
:100060001B0100081B0100081B0100081B01000800
:100070001B0100081B010008C90900081B0100083A
:100080001B0100081B0100081B0100081B010008E0
:100090001B0100081B0100081B0100081B010008D0
:1000A0001B0100081B0100081B0100081B010008C0
:1000B0001B0100081B0100081B0100081B010008B0
:1000C0001B0100081B0100081B0100081B010008A0
:1000D0001B010008592B00081B0100081B01000828
:1000E0001B0100081B0100081B010008DFF80CD0F1
:1000F00000F056FC004800478D430008B005002082
:100100000648804706480047FEE7FEE7FEE7FEE7B1
:10011000FEE7FEE7FEE7FEE7FEE7FEE753280008FE
:10012000ED0000082DE9F0410024061B254671F181
:10013000000605DA01240027D0EB070067EB010178
:10014000161E73F1000605DA0027D2EB070201251F
:1001500067EB030300F09BFA86460E4617469C4663
:10016000AC4204D00025D0EB050E65EB010624B1AE
:100170000020D2EB000760EB030C704631463A4694
:100180006346BDE8F081202A04DB203A21FA02F020
:100190000021704721FA02F3D040C2F120029140C1
:1001A000084319467047D2B201E000F8012B491EFE
:1001B000FBD270470022F6E710B513460A46044604
:1001C0001946FFF7F0FF204610BD421C10F8011B36
:1001D0000029FBD1801A704730B504460020034641
:1001E00000E05B1C934203D2E05CCD5C401BF8D086
:1001F00030BDF0B480EA0102D40F4200B2EB410FEF
:1002000002D20246084611464A0042D0C30DDDB272
:10021000C1F3C752AD1A202D35DAC1F3160141F4EE
:10022000000204B15242C5F1200602FA06F12A4149
:100230001044B3EBD05F23D0C4B1012DA0EBC35069
:1002400009DCF0BC4FF0004202EAC352DBB200F519
:10025000000000F077BA400000F1807000EBC3505E
:10026000A0F1807040EAD170490009E0490841EAF4
:10027000C071A0EBC35000F50000400800EBC35074
:10028000F0BC00F056BA6142012202EB4101001BB2
:10029000F6E7F0BC704781F00041AAE780F000402B
:1002A000A7E780EA010210B502F00043400022D027
:1002B0004A001FD0010E01EB1261C0F35600C2F3D9
:1002C000560240F4000042F40002A0FB02200004A9
:1002D0007F39140400D0401C50EA124001D4400081
:1002E000491EC2B20C0604EBD010401C4008802A04
:1002F00002D003E0002010BD20F00100002900DA48
:100300000020184310BD30B480EA010202F000451D
:1003100030F0004221F0004013D090B1C30DD40D55
:10032000C2F31601C0F31600E41A41F4000140F4D0
:1003300000027D34914201D3641C00E04900002C8E
:1003400002DA30BC002070474FF4000000239142D5
:1003500001D3891A034340084FEA4101F7D151B153
:10036000914202D14FF0004105E002D24FF001016D
:1003700001E06FF0010103EBC450284430BC00F0F1
:10038000D8B9420005D0C0F3C7525242914201DCB5
:100390000020704700EBC15070472DE9FE4F8046AA
:1003A00081EA0300C00F0C46009021F0004123F0C9
:1003B0000045B8EB0200A94105D2404621469046CF
:1003C0001C460B46024623F00040104347D0270D41
:1003D000C7F30A00C3F30A510290401A0190402863
:1003E0006BDAC3F3130040F4801B0098924620B1EF
:1003F0000023D2EB030A63EB0B0B01985946C0F1C3
:100400004002504600F074F906460D4650465946E3
:10041000019A00F07CF910EB08006141002487EAA2
:10042000115284EAE7731A4340D0009A62B3019AEA
:10043000012A4FEA075215DC001B61EB02014FF065
:10044000004202EA0752CDE90042001C41F580114A
:1004500032462B4600F0B3F903B0BDE8F08F4046BA
:100460002146F9E7001B61EB0201001C41F58013F6
:1004700000185B412018A2F5001747EB030140EA82
:10048000D570B6196D4111E06D084FEA360645EAA0
:10049000C0754FEA0752001B61EB0201001C41F5D9
:1004A000801149084FEA30000019514132462B466D
:1004B00003B0BDE8F04F00F073B90098012240008E
:1004C0000023D0EB020263EBE073009821464FEA71
:1004D000E074B8EB000061EB0401E9E783F000434E
:1004E0005BE781F0004158E72DE9F04D81EA030414
:1004F00004F0004B21F0004514464FF0000A23F0B1
:10050000004150EA050220D054EA01021DD0C5F393
:100510000A570246C5F31303C1F31300C1F30A5689
:1005200040F4801543F48013A7EB0608101BD64651
:1005300008F2FD3873EB050002D308F1010801E071
:1005400092185B41B8F1000F03DA00200146BDE8C4
:10055000F08D00204FF48011064684460EE0171BF4
:1005600073EB050705D3121B63EB050306434CEA47
:10057000010C49084FEA300092185B4150EA01072C
:10058000EDD152EA030012D082EA040083EA0501A9
:10059000084305D0101BAB4106D20122002306E020
:1005A00000224FF0004302E06FF0010253101AEBFB
:1005B00006004CEB085110EB0A0041EB0B01BDE8C3
:1005C000F04D00F0EDB8C10F80EAE0700844CA07B2
:1005D0009623002100F0B6B896230022114600F0C1
:1005E000B1B800F0004220F00040C10DC0F3160089
:1005F00040F400007F2901DA00207047962903DCCF
:10060000C1F19601C84001E096398840002AF4D033
:100610004042704720F00040C10DC0F3160040F486
:1006200000007F2901DA00207047962903DCC1F120
:100630009601C840704796398840704700F00042E4
:1006400030F000400AD0C10D01F56071C0F3160012
:1006500042EA0151C2084007114370470020014699
:10066000704730B50B46014600202022012409E0E6
:1006700021FA02F59D4205D303FA02F5491B04FA5B
:1006800002F52844151EA2F10102F1DC30BD2DE96E
:10069000F05F0546002092469B4688460646814606
:1006A00040241BE02846414647462246FFF76BFDA3
:1006B00053465A46C01A914110D311461846224655
:1006C00000F016F82D1A67EB01084F46224601206C
:1006D000002100F00DF817EB00094E41201EA4F197
:1006E0000104DFDC484631462A464346BDE8F09F18
:1006F000202A04DB203A00FA02F1002070479140E2
:10070000C2F1200320FA03F3194390407047202AD6
:1007100006DBCB17203A41FA02F043EAE07306E029
:1007200041FA02F3D040C2F1200291400843194639
:1007300070470029A8BF7047401C490008BF20F03F
:100740000100704710B4B0FA80FC00FA0CF050EAD7
:10075000010404BF10BC704749B1CCF1200421FA58
:1007600004F411FA0CF118BF012121430843A3EB53
:100770000C01CB1D4FEA00614FEA102042BF002060
:1007800010BC704700EBC35010440029A4BF10BC3C
:100790007047401C490008BF20F0010010BC7047A2
:1007A00010B5141E73F1000408DA401C41F1000179
:1007B00092185B411A4301D120F0010010BD2DE9D0
:1007C000F04D92469B4611B1B1FA81F202E0B0FAC7
:1007D00080F220329046FFF78BFF04460F4640EA36
:1007E0000A0041EA0B0153465A46084313D011460A
:1007F00053EA010019D0C8F140025046FFF7C3FC8C
:1008000005460E46504659464246FFF771FF0843DB
:1008100005D0012004E020463946BDE8F08D0020D7
:10082000054346EAE0762C4337430A986305E40A19
:10083000A0EB08000022FD0A44EA47540A3002D522
:1008400000200146E9E7010510196941DDE9084585
:1008500000196941BDE8F04DA2E72DE9FE4F81EA9C
:10086000030404F0004421F0004100944FF0000B19
:1008700023F0004350EA01045ED052EA03045BD047
:10088000C3F30A54C1F30A552C44A4F2F33401947F
:10089000A0FB0254C1F3130141F48011C3F313030D
:1008A00043F4801301FB024400FB034E840A970AC1
:1008B00044EA815447EA8357A4FB076802958D0AEE
:1008C00005FB07854FEA932C04FB0C542705029D7A
:1008D0004FEA065847EA1637B5EB08056EEB070CEA
:1008E000870E920E47EA811742EA8312A7FB0201A4
:1008F000B6EB0B0164EB00042B0D43EA0C335E18DE
:1009000044EB1C50DA465146E7FB0201C5F31304E1
:100910004FEA0B3343EA14534FEA0432019C43EA93
:100920000603A4F10C040294009CCDE900B4FFF787
:1009300046FF03B0BDE8F08F00200146F9E7C1F3A0
:100940000A52C1F3130140F2FF3341F480119A427D
:1009500002DA00200146704740F233439A42A2F285
:10096000334202DC5242FFF70EBCFFF7C1BE00006B
:1009700030B5041E71F1000404DB4FF00044404226
:1009800064EB0101141E73F1000405DB1C464FF0FB
:100990000043524263EB0403994208BF904230BDCA
:1009A000064C074D06E0E06840F0010394E80700BC
:1009B00098471034AC42F6D3FFF79CFBD85F000891
:1009C000F85F0008FEE70000014800F0B7B800003B
:1009D0005C01002030B590F840500124AC40C56B5C
:1009E0006C60046863604368102B036803D09960EF
:1009F0000068C26030BD9A600068C16030BD000010
:100A00003EB5094C94F83D50242DFBD0CDE9003281
:100A10000A4640F6FF74014602940123024800F0A2
:100A2000FFFB00203EBD0000C00000203EB5094C89
:100A300094F83D50242DFBD0CDE900320A4640F613
:100A4000FF74014602940123024800F011FD0020CA
:100A50003EBD0000C0000020704772B6FEE710B532
:100A600090F821100022022905D00421816380F82A
:100A70002020012010BD01680B6823F00E030B60DD
:100A800001680B6823F001030B6090F84030C46BE1
:100A9000012101FA03F3636080F8211080F820201F
:100AA000104610BD10B590F821100024022903D083
:100AB0000421816301243DE001680A6822F00E02EE
:100AC0000A6001680A6822F001020A601A4A016895
:100AD000914201D1012121E0174A1432914201D102
:100AE00010211BE0144A2832914201D1891515E0EA
:100AF000114A3C32914201D189140FE00E4A503222
:100B0000914202D14FF4803108E00B4A64329142A5
:100B100002D14FF4801101E04FF08071064A083A8B
:100B20005160012180F82110002180F82010416BD4
:100B300001B18847204610BD080002402DE9F05F52
:100B4000C16B0C6801680B68D0F840C0042202FA3F
:100B50000CF2494DDFF824A1494E4A4FDFF828B185
:100B6000DFF828E122422CD05A072AD50A689206DB
:100B700003D40A6822F004020A600168A94201D184
:100B8000042219E0514501D1402215E0B14202D1C1
:100B90004FF4806210E0B94202D14FF480420BE082
:100BA000594502D14FF4802206E0714502D14FF43D
:100BB000800201E04FF080622F4908394A60C16A23
:100BC0003BE04FF0020808FA0CF818EA040F4FF067
:100BD00000094FF0010235D05FEA837832D50B6807
:100BE0009B0605D40B6823F00A030B6080F82120D4
:100BF0000168A94201D1022219E0514501D1202208
:100C000015E0B14202D14FF4007210E0B94202D1B6
:100C10004FF400520BE0594502D14FF4003206E088
:100C2000714502D14FF4001201E04FF000721249F9
:100C300008394A6080F82090816A00291AD0BDE8FE
:100C4000F05F0847082505FA0CF5254212D01B076E
:100C500010D50B6823F00E030B6090F84010C36BA7
:100C600002FA01F15960826380F8212080F8209017
:100C7000016BE2E7BDE8F09F080002401C00024063
:100C80003000024044000240580002406C00024024
:100C900030B528B308C8134914221944B1FBF2F146
:100CA0008900C16310498163022141771A6843F6C4
:100CB000F0718A43D0E900142143D0E902452C4366
:100CC0002143046921434469214384692143114339
:100CD000196000214163012242770177084630BD47
:100CE000012030BDF8FFFDBF0000024070B5044692
:100CF00090F82000002501280CD0012084F8200065
:100D000094F821600020012E06D084F820000225EE
:100D1000284670BD022070BD022684F82160A063C1
:100D20002068066826F0010606602046FFF752FE9E
:100D3000E06A00282068016802D041F00E0106E058
:100D400021F0040101602068016841F00A0101609E
:100D50002068016841F001010160D9E770B50446DF
:100D600000F0FEF80546601C02D0044800780444F8
:100D700000F0F6F8401BA042FAD370BD000000203E
:100D80002DE9F84FDFF8B8910024A9F1040B2346B0
:100D90000F2709F1040AABF1040EC9E00125A540B3
:100DA0002A40AA427DD1674ED1F804C0ACEB0608B8
:100DB000B44532D014DCBCF1030F3AD009DCBCF1ED
:100DC000000F2AD0BCF1010F1CD0BCF1020F31D1B1
:100DD0001DE0BCF1110F17D0BCF1120F2AD119E0A0
:100DE000B8F5881F19D006DCB8F5803F15D0B8F5E6
:100DF000801F1FD111E0B8F5001F0ED0B8F5041FF9
:100E000018D10AE0CB6815E0CB681B1D12E0CB6857
:100E100008330FE0CB680C330CE08B682BB1012B4F
:100E20004FF0080303D0456104E0042302E00561AC
:100E300000E00023FF2A01D8064601E000F1040685
:100E40004FEA840501D9A5F12005D6F8008007FAFC
:100E500005FC28EA0C0803FA05F548EA0508C6F877
:100E600000804D68ED0062D5374DAE6946F0010651
:100E7000AE61AD6924F0030605F001050095334D20
:100E800006EB050CDCF80850A607360F07FA06F843
:100E900025EA0805DFF8B880404503D14FF0000887
:100EA00017E044E0DFF8AC80404502D14FF0010884
:100EB0000FE0DFF8A480404502D14FF0020808E0BF
:100EC000DFF89880404502D14FF0030801E04FF071
:100ED000040808FA06F848EA0508CCF808804D68C6
:100EE000D9F80060ED024D4601D5164300E0964367
:100EF0002E604D68DAF80060AD02554601D5164304
:100F000000E096432E604D68DBF80060AD035D465F
:100F100001D5164300E096432E604D68DEF8006070
:100F2000ED03754601D5164300E096432E60641C20
:100F30000D682A46E5407FF431AFBDE8F88F000028
:100F400008040140000011100010024000000140A0
:100F500000080140000C0140001001400014014055
:100F600001488068704700000000002070B5040050
:100F700025D094F83D00002520B984F83C50204647
:100F800000F00EFB242084F83D002068016821F069
:100F9000010101602068016841F40041016020689E
:100FA000016821F40041016000F056FC4D4A61687F
:100FB000914201D84C4900E04C49884201D20120BD
:100FC00070BD4B492368B0FBF1F15E6826F03F0627
:100FD0000E435E606368934206D94FF4967359439B
:100FE0004FF47A73B1FBF3F12368491C1E6A26F0B3
:100FF0003F06314319626168914210D84900401E92
:10100000B0FBF1F2521CC2F30B02042A01D20420FD
:1010100022E0B0FBF1F0401CC0F30B001CE0A26822
:10102000F2B301EBC10303EB0116431EB3FBF6F36E
:101030005B1C43F480431B0549D092B301EBC10212
:1010400002EB0111401EB0FBF1F0401CC0F30B009D
:1010500040F4804040F400402168CA694CF6FF73B8
:101060009A431043C861D4E907100143206802681D
:1010700022F0C00211430160D4E90301014320685A
:10108000826848F2FF339A4311438160D4E9050135
:1010900008432168CA6822F0FF021043C86001E0DB
:1010A0000EE016E02068016841F00101016025644E
:1010B000202084F83D00256384F83E50002070BD58
:1010C00001EB4106431EB3FBF6F35B1CB3E70120C3
:1010D000C2E701EB4101401EB0FBF1F0401CC0F340
:1010E0000B00B7E7A086010080841E0000093D00C8
:1010F00040420F002DE9F84F1F4690468A460446AD
:10110000DDF82890FFF72CFF054694F83D002028D5
:101110007FD11923012240492046009501F03AF978
:10112000002876D194F83C00012872D0012084F880
:101130003C0020680168C90703D1016841F0010142
:1011400001602068016821F400610160212084F8B9
:101150003D00102084F83E0000262664C4F8248058
:101160006785608D20852D48E0622B464A465146B2
:10117000204600F0C3FF90B9206841698069009063
:1011800036E02A464946204601F0E2F950B1206C8B
:10119000042804D12068016841F400710160012035
:1011A000BDE8F88F606A216800780861606A401CB9
:1011B0006062618D491E6185218D491E89B221853C
:1011C00022685369DB435B070BD451B1007810618F
:1011D000606A401C6062608D401E6085208D401EEC
:1011E00020852A464946204601F0A8F80028CED19D
:1011F000208D0028C5D154F83D0B016841F40071E1
:101200000160202004F81E09E67766770020C7E712
:10121000FFE70220C4E70000020010000000FFFF0B
:101220002DE9FF4F83B00025DDE910799A469346FA
:101230000446DDF848800095FFF792FE064694F8D4
:101240003D0020287CD119230122854920460096A3
:1012500001F0A0F80028F5D194F83C0001286FD0E7
:10126000012084F83C0020680168C90703D10168A7
:1012700041F0010101602068016821F40061016012
:10128000222084F83D00402084F83E0025646762F7
:10129000A4F82A90608D20857248E062CDE900862E
:1012A00053465A462046049900F076FF00287DD127
:1012B000208DDFF8B491202768B1012814D00228CE
:1012C000206801681ED041F4806101602068416996
:1012D00080690090B6E020684169816900910168E9
:1012E00041F400710160ADE02068016821F4806183
:1012F000016072B62068416981690091016841F41A
:1013000000710AE041F40061016072B62068416931
:1013100081690091016821F48061016062B691E009
:10132000032868D801280CD0022843464FF0000259
:101330004946204600960FD001F02CF8B0BB10E0D3
:101340008BE032464146204601F0CAF870BB206867
:101350000069616A08706CE001F01CF830BB72B67D
:1013600034E02068016821F48061016072B6206871
:101370000069616A0870606A401C6062208D401ECE
:101380002085608D401E6085384846F2A8110068AF
:10139000B0FBF1F0C0EBC00000EB80000090401EFD
:1013A000009008D020684069C04300E029E0400771
:1013B0000CD50098F3E744F8305F6773A573206994
:1013C00040F02000206162B625731AE020680168B1
:1013D00041F40071016020680069616A0870606A08
:1013E000401C6062218D491E2185618D491E6185E9
:1013F00062B621681BE032464146204601F070F893
:1014000018B1012007B0BDE8F08F20680069616A5B
:101410000870606A401C6062218D491E2185618DC3
:10142000491E618521684A69D24352070AD4096975
:101430000170606A401C6062208D401E2085608DB6
:10144000401E6085208D00287FF46AAF84F83D70CF
:1014500084F83E5084F83C50D4E70220D2E70000E4
:10146000020010000000FFFF040001000C0000203B
:101470002DE9FF4F83B09A46DDE911979346044664
:10148000DDF84080FFF76CFD054694F83D0020280C
:101490007FD11923012240492046009500F07AFFB0
:1014A000002876D194F83C00012872D0012084F8FD
:1014B0003C0020680168C90703D1016841F00101BF
:1014C00001602068016821F400610160212084F836
:1014D0003D00402084F83E0000262664C4F82480A5
:1014E000A4F82A90608D20852C48E062CDE9007533
:1014F00053465A462046049900F0CCFE70B930E0BD
:101500002A463946204601F023F858B1206C0428B9
:1015100004D12068016841F400710160012007B026
:10152000BDE8F08F606A216800780861606A401C3D
:101530006062218D491E89B22185628D521E6285AD
:1015400022685369DB435B070BD469B100781061F3
:10155000606A401C6062208D401E2085608D401EA8
:101560006085208D0028CBD12A463946204600F0E0
:10157000E5FE0028CAD154F83D0B016841F4007122
:101580000160202004F81E09E67766770020C6E790
:10159000FFE70220C3E70000020010000000FFFF89
:1015A00010B586B00021009101910291039100686D
:1015B0000F4988421AD10F4CA06940F00800A06181
:1015C000A069694600F008000490C0200090122035
:1015D0000190032003900848FFF7D2FBE06940F434
:1015E0000010E061E06900F40010049006B010BD46
:1015F0000054004000100240000C01400248816885
:10160000027811448160704700000020074810B53F
:10161000016841F010010160032000F075F80F200F
:1016200000F006F800F024F8002010BD0020024071
:1016300070B50D4D04464FF47A712878B1FBF0F087
:101640000A490968B1FBF0F000F0DCFA48B9102C47
:1016500007D200222146501E00F036F800206C60B0
:1016600070BD012070BD0000000000200C000020B3
:101670000C4808B5816941F001018161816901F07F
:1016800001010091C16941F08051C161C06900F060
:10169000805000900448416821F0E06141F0007101
:1016A000416008BD0010024000000140002809DB35
:1016B00000F01F02012191404009800000F1E0206C
:1016C000C0F8001170470000F0B40E4B1B680C46C8
:1016D000C3F30223C3F10705042D00D90425191D06
:1016E000072901D2002300E0DB1E012606FA05F1DE
:1016F000491E214099409E40761E16403143F0BC61
:1017000001F05ABA0CED00E0064900F00702086843
:101710004FF6FF03184040EA0220034A10430860D6
:10172000704700000CED00E00000FA052DE9F047DD
:101730000F46050061D0434E306800F00700B84204
:1017400009D2306820F0070038433060306800F07C
:101750000700B84251D128683B4C810712D5400799
:1017600003D5606840F4E06060602878000703D526
:10177000606840F4605060606068A96820F0F00024
:10178000084360602878C00728D06868012810D016
:101790002168022810D0890700292EDA616821F01B
:1017A000030101436160FFF7DBFB804641F28839AA
:1017B0000DE021688903EFE78901EDE7FFF7D0FB32
:1017C000A0EB0801494502D90320BDE8F087606815
:1017D000696800F00C00B0EB810FEFD1306800F0C9
:1017E0000700B8420BD9306820F00700384330605A
:1017F000306800F00700B84201D00120E5E7287802
:10180000400705D56068E96820F4E060084360603F
:101810002878000706D56068296920F4605040EAFE
:10182000C100606000F038F86168084AC1F3031134
:10183000515CC8400649086006480068FFF7F8FE9A
:101840000020C2E70020024000100240265300089A
:101850000C00002004000020044805490068496885
:10186000044AC1F30221515CC84070470C000020BB
:1018700000100240365300080448054900684968D2
:10188000044AC1F3C221515CC84070470C000020DB
:1018900000100240365300080E4A51680E4801F00D
:1018A0000C03042B11D0082B0FD10C48C1F3834338
:1018B000C903C05C0AD55168084AC1F34041921E71
:1018C000515C054A5043B0FBF1F07047044948436E
:1018D000704700000010024000127A001653000802
:1018E00000093D002DE9F84F040070D02078C04D6C
:1018F000C00749D06868C0F38100012807D0686834
:10190000C0F38100022809D16868C00306D52868A1
:10191000800339D560680028E7D035E06068B0F50D
:10192000803F0BD010B1B0F5A02F11D0286820F463
:1019300080302860286820F4802002E0286840F485
:1019400080302860606890B1FFF70AFB06460AE025
:10195000286840F480202860F0E700BFFFF700FB14
:10196000801B642873D828688003F7D50CE0FFF744
:10197000F7FA064605E000BFFFF7F2FA801B64287D
:10198000F0D828688003F7D420789A4E80074FF06B
:1019900001094FF0000839D5686810F00C0F07D026
:1019A0006868C0F38100022809D16868C00306D4C2
:1019B0002868800714D52069012808D110E0206923
:1019C000B0B1C6F80090FFF7CBFA074605E00AE190
:1019D000FFF7C6FAC01B0228C4D828688007F7D5CD
:1019E0002868616920F0F80040EAC10028600DE035
:1019F000C6F80080FFF7B4FA074604E0FFF7B0FA34
:101A0000C01B022823D828688007F7D42078000755
:101A10002CD57948A169D9B1C0F80090FFF7A0FA98
:101A2000074604E0FFF79CFAC01B02280FD8686A3B
:101A30008007F7D571484FF4FA510068B0FBF1F018
:101A4000009000BF0098411E0091FAD20EE080E0A5
:101A5000C0F80080FFF784FA074604E0FFF780FA39
:101A6000C01B022875D8686A8007F7D42078400721
:101A700060D5E8690027C00008D4E86940F08050CC
:101A8000E861E869012700F0805000905C48016837
:101A9000C90513D40168834641F480710160FFF7E2
:101AA0005FFA824606E000BFFFF75AFAA0EB0A0091
:101AB00064284ED8DBF80000C005F5D5E0680128A1
:101AC0000AD008B1052813D0286A20F00100286246
:101AD000286A20F0040002E0286A40F00100286231
:101AE000E06841F2883B98B1FFF73AFA82460BE092
:101AF000286A40F004002862EEE700BFFFF730FAE2
:101B0000A0EB0A0159455AD8286A8007F6D50CE09F
:101B1000FFF726FA824605E0FFF722FAA0EB0A015A
:101B200059454CD8286A8007F6D41FB1E86920F0DF
:101B30008050E861E06988B36968C1F381010229D6
:101B400044D00228C6F8608004D0FFF709FA0446A2
:101B500038E034E0FFF704FA074604E0FFF700FA44
:101B6000C01B02282BD828688001F7D4206AB0F562
:101B7000803F05D16868A16820F4003008436860A0
:101B8000D4E908010843696821F4741108436860C6
:101B9000C6F86090FFF7E4F9044606E025E000BFD0
:101BA000FFF7DEF9001B022809D828688001F7D565
:101BB0001BE000BFFFF7D4F9001B022802D9032065
:101BC000BDE8F88F28688001F4D40EE00128F7D032
:101BD0006868226A00F48031914204D1616A00F49D
:101BE0007010884201D00120EAE70020E8E70000F9
:101BF0000010024000004242800442420C000020DB
:101C00000070004010B5401EB0F1807F01D301206C
:101C100010BD4FF0E02460610F21601700F0CCFF91
:101C20000020A06107202061002010BD7047704790
:101C3000F8B5016804460868CA684B6910F00F0FD0
:101C40004FF0000559D003F0010602F490773743B6
:101C500065D0C10705D0D10503D5616C41F0010104
:101C60006164410705D5D90703D0616C41F00201D9
:101C70006164810705D5D90703D0616C41F0040187
:101C80006164010707D502F02001314303D0616C84
:101C900041F008016164616C00293AD0800604D5E6
:101CA000900602D5204600F05DFE20684069616C18
:101CB000C0F38010090700D460B3204600F01DFE79
:101CC00020684069400621D52068143050E8001F84
:101CD00021F0400140E80012002AF5D1E06BA8B1E4
:101CE0006D494163E06BFEF7DDFE002811D0E06B2B
:101CF000416B01B0BDE8F040084783060FD593065D
:101D00000DD52046BDE8F84000F02CBE2046FFF778
:101D10008EFFF8BD2046FFF78AFF6564F8BD266B8D
:101D20002023012E7CD1C6067AD5D60678D5086840
:101D30004868009048694FF00206400640D5E16BC4
:101D4000086840680004000CE8D0A28D8242E5D902
:101D5000E085886920282DD020680C3050E8001FCD
:101D600021F4807140E80012002AF5D12068143077
:101D700050E8001F21F0010140E80012002AF5D1CF
:101D80002068143050E8001F21F0400140E80012A4
:101D9000002AF5D184F84230256320680C3050E8E1
:101DA000001F21F0100140E80012002AF5D1E06B7D
:101DB000FEF755FE6663A08DE18D401A81B22AE0E0
:101DC000A08DE18D401A81B2E08D0028A6D00029B7
:101DD000A4D022680C3252E8000F20F4907042E840
:101DE0000007002FF5D12068143050E8002F22F0B2
:101DF000010240E80027002FF5D184F84230256326
:101E000020680C3050E8002F22F0100240E8002338
:101E1000002BF5D166632046FFF708FFF8BDFFE70A
:101E200005062BD5150629D594F841002128F5D1B2
:101E3000A068B0F5805F01D12069B0B1206A411C73
:101E40002162216800784860E08C401E0004000C8C
:101E5000E084E3D12068C16821F08001C16020687E
:101E6000C16841F04001C160D8E7206A0088C0F332
:101E700008004860206A801C2062E5E74006CDD556
:101E80005006CBD5CA68204622F04002CA6084F8CA
:101E9000413000F019F9C1E75528000870B5040079
:101EA00004D094F84100002510B106E0012070BD77
:101EB00084F84050204600F023F8242084F84100A4
:101EC0002068C16821F40051C160204600F0ACFDDB
:101ED0002068016921F4904101612068416921F085
:101EE0002A0141612068C16841F40051C160656404
:101EF000202084F8410084F842006563002070BD12
:101F000070B586B0002506460095019502950395AB
:101F100000682349884240D12249886940F48040C2
:101F20008861886900F480400490886940F004006A
:101F3000886188691C4C00F00400049048150090EA
:101F4000022001900320039069462046FEF718FF07
:101F50002015CDE90005694620460295FEF710FFE1
:101F6000134C124820601020C4E901058020C4E908
:101F7000030580016561C4E906502046FEF788FE2E
:101F800008B1FEF76AFDB46300221146252066629F
:101F9000FFF79AFB2520FFF789FB06B070BD000014
:101FA0000038014000100240000801404400024097
:101FB0005C01002070472DE9F843044690F8410089
:101FC0001F4616460D46202802D00220BDE8F883A1
:101FD0007DB176B100206064212084F84100FEF7D5
:101FE000BFFFA6848046E684A068B0F5805F02D07B
:101FF00003E00120EAE7206910B12E4600250EE03B
:1020000000260CE08021204600F06AFDA0B9AEB1A8
:1020100016F8010B21684860E08C401EE084E08CDB
:1020200043464FF0000200970028EBD14FF04001EB
:10203000204600F055FD30B10320C7E735F8020B0C
:10204000C0F30800E6E7202084F841000020BDE747
:1020500070B5044690F84100202801D0022070BDE0
:1020600049B342B32162A284E28400206064212348
:1020700084F84130A56B114BAB62A56B104BEB6242
:10208000A56B104B2B63A36B5863256813462A1D61
:10209000A06BFEF72BFE21686FF0400008602068FF
:1020A000143050E8001F41F0800140E80012002A7F
:1020B000F5D1002070BD012070BD0000AF280008E0
:1020C000F12800086528000870477047FEE701689E
:1020D0004A69D24352050FD46FF480624A610021ED
:1020E00040F8301F202242738173026942F00402DB
:1020F000026101730120704700207047F8B5044663
:10210000C06A1E460D461746082807D0012805D08C
:1021100010F5803F02D0206B122804D1206801689E
:1021200041F480710160134600224FF001112046F6
:10213000009600F02FF940B120680068C00502D574
:102140004FF4007020640320F8BD2069B0F5804F83
:102150000ED00620216800EAD51040F0F00008619A
:1021600033463A460B49204600F05CF978B902E064
:1021700005F0FE0000E0E8B2216808610549334639
:102180003A46891F204600F04DF90028DCD0012096
:10219000F8BD0000080001002DE9F84F0446006872
:1021A00089460B9D01689846174641F4806101609D
:1021B0002068016841F48071016000954FF0011BB7
:1021C0000022594620460A9B00F0E4F84FF4007ABA
:1021D00040B120680068C00501D5C4F840A00320C4
:1021E000BDE8F88F216809F0FE0008612B462849F8
:1021F00020460A9A00F016F9F0BB20684169806910
:1022000000902A4620460A9900F0A2F940B1206CBD
:1022100004283AD12068016841F40071016034E07B
:10222000FEB2B8F1010F09D02168380A08612A46C8
:1022300020460A9900F08CF90028E8D12068066150
:102240002A4620460A9900F083F90028DFD1206849
:10225000016841F4807101600095002259462046D2
:102260000A9B00F097F80028B3D1216809F0FF001D
:1022700040F00100086100E007E02B4604492046D9
:102280000A9A00F0CFF80028AAD00120A8E70000A1
:10229000020001002DE9F843044600680D46DDE91F
:1022A000089701689846164641F4807101604B46D4
:1022B00000224FF001112046009700F06BF848B162
:1022C00020680068C00502D54FF400702064032028
:1022D000BDE8F883216805F0FE0008613B464A46E8
:1022E0001549204600F09EF888B920684169806948
:1022F00000903A464946204600F02AF948B1206C41
:10230000042804D12068016841F4007101600120B3
:10231000DEE7F5B2B8F1010F09D02168300A086193
:102320003A464946204600F013F90028E7D12068D4
:1023300005610020CCE700000200010070B51646E0
:102340000D4604461EE02046FFF7C1FE08B10120FD
:1023500070BD681C16D0FEF703FE801BA84200D893
:1023600085B920684069C04340070BD5002044F878
:10237000300F20216173A073216941F02001216198
:102380002073E4E720684069C0434007DBD40020A5
:1023900070BD00002DE9F047984617460D460446EB
:1023A000C1F30746DDF820902AE000BFB8F1FF3FF7
:1023B00026D0FEF7D5FDA0EB0901414502D8B8F1C2
:1023C000000F1DD12068012E16D0806925EA00007B
:1023D0000004000C12D00020B84211D1002044F8B3
:1023E000300F20216173A073216941F02001216128
:1023F00020730120BDE8F0874069E7E70120EBE7A3
:102400002068012E0AD0806925EA00000004000C33
:1024100006D00020B842C9D00020EBE74069F3E7BE
:102420000120F7E72DE9F047984616460D46044689
:102430004FF000094FF0200AC1F3074723E020685E
:102440004069C043400515D42068016841F400711B
:10245000016021686FF480604861C4F8309084F8AE
:102460003DA084F83E90216C41F00401216484F881
:102470003C9021E0701C06D0FEF772FDA0EB080036
:10248000B04203D816B1012F1FD021E02068012FE0
:1024900015D0806925EA00000004000C18D000BFA8
:1024A00044F8309F84F80DA084F80E90216941F023
:1024B0002001216184F80C900120BDE8F08740697B
:1024C00025EA00000004000CEAD12068406901E020
:1024D0002068806925EA00000004000CAFD1ECE719
:1024E0002DE9F041002590460E460446202728E0BD
:1024F0004069C043C0060CD454F8301B6FF0100084
:10250000486144F810596777A577206A20622577DB
:1025100014E0FEF725FDA0EB0800B04200D886B914
:1025200020684069C04340060BD544F8305F6773AC
:10253000A573206940F02000206125730120BDE8CB
:10254000F08120684169C9434906D1D40020F6E7EB
:1025500070B516460D4604461EE02046FFF7B7FD4F
:1025600008B1012070BD681C16D0FEF7F9FC801B75
:10257000A84200D885B920684069C04300060BD541
:10258000002044F8300F20216173A073216941F0CD
:10259000200121612073E4E720684069C043000600
:1025A000DBD4002070BD10B580216B2000F08AF8CC
:1025B0006420FEF7D3FB00216B2000F083F803209A
:1025C00000F04BF8002000F043F8322000F062F8F1
:1025D0000021382000F076F800216A2000F072F81F
:1025E0000021232000F06EF88021372000F06AF8E7
:1025F000752000F011F8682801D0012010BD0121DC
:102600006B2000F05FF800216C2000F05BF83220B6
:1026100000F040F8002010BD1FB500218DF80C100F
:102620000A4900BF91F83D20242AFBD040F6FF73F1
:10263000012203A98DE80E0013460246D12103486A
:10264000FEF7EEFD9DF80C0004B010BDC0000020A8
:10265000C006010E1C2000F035B8C006010E1B207C
:1026600000F030B8BC2801D3012110E0622801D36A
:1026700002210CE02A2801D3032108E0142801D309
:10268000042104E00A2801D3052100E006211A20D4
:1026900000F018B810B504464FF47A70844201D99E
:1026A000044602E0042C00D20424B0FBF4F0401EE7
:1026B000C1B2192000F006F86008BDE81040FFF72D
:1026C000D1BF00001FB58DF80C100A4991F83D20CC
:1026D000242AFBD040F6FF73012203A98DE80E00E7
:1026E00013460246D0210348FEF7C2FE04B0002084
:1026F00010BD0000C0000020094808B5416941F044
:10270000010141614069002200F001000090114682
:102710000E20FEF7D9FFBDE808400E20FEF7C6BF29
:1027200000100240114808B5816941F01001816133
:10273000816901F010010091816941F020018161FE
:10274000816901F020010091816941F004018161FA
:10275000816901F004010091816941F00801816102
:10276000806900F00800009008BD000000100240E1
:102770000D4810B50B4901600C49416000214FF430
:1027800080428160C0E9031241618161C1610162DF
:10279000FEF7ECFB002803D0BDE81040FEF75DB962
:1027A00010BD000000540040C0000020801A060048
:1027B0000C4810B50A4901604FF4E1314160002135
:1027C00081600C22C160C0E904128161C161FFF720
:1027D00065FB002803D0BDE81040FEF73EB910BDF0
:1027E0000038014014010020FEE7FEE77047704703
:1027F000FEF704BF30B58FB028216846FDF7DAFC3C
:1028000014210AA8FDF7D6FC01210804CDE9001027
:102810000024029402250491CDE907504FF4E01002
:1028200009906846FFF75EF808B172B6FEE70F2020
:10283000CDE90A054FF48060CDE90C4002210AA8D9
:102840000E94FEF773FF002801D072B6FEE70FB0BA
:1028500030BD704710B5406A0021C185C184FFF7C3
:10286000E6F910BD70B5446A2068406994F84110DB
:10287000C0F3C0100025212904D118B1E5842046F9
:1028800000F062F82068406994F84210C0F38010AC
:10289000222904D118B1E585204600F02EF8606C9D
:1028A00040F0100060642046FFF7C1F970BD10B51C
:1028B0000146406A09680968890616D40021C18466
:1028C0000168143151E8002F22F0800241E8002312
:1028D000002BF5D101680C3151E8002F42F0400285
:1028E00041E80023002BF5D110BDFFF7EDFB10BD33
:1028F00010B5406AFFF7E9FB10BD01680C3151E8E3
:10290000002F22F4907241E80023002BF5D10168DA
:10291000143151E8002F22F0010241E80023002B7E
:10292000F5D1016B012909D101680C3151E8002F63
:1029300022F0100241E80023002BF5D1202180F87D
:10294000421000210163704701680C3151E8002FEB
:1029500022F0C00241E80023002BF5D1202180F8AD
:102960004110704708B590F84210222901D002208A
:1029700008BD82684FF480539A4201D1016921B1A8
:10298000816A9A421BD04AB10AE00268816A5268A1
:10299000C2F308020A80816A891C08E0026972B1E8
:1029A0000268526802F07F020A70816A491C8162E3
:1029B000C18D491E0904090CC18503D01BE00268C2
:1029C0005268F1E70168CA6822F02002CA60016813
:1029D000CA6822F48072CA6001684A6922F0010262
:1029E0004A61202180F8421000214163026B012AD4
:1029F00003D0FFF7DFFA002008BD016301680C3146
:102A000051E8002F22F0100241E80023002BF5D1FD
:102A100001680A68D20602D50A6849680091818D6A
:102A2000FFF704F9E7E7000070B5044600680169A4
:102A3000E26821F44051114301612169A068084313
:102A4000616908432168CA6841F20C639A430243F2
:102A5000CA6020684169A26921F440711143416153
:102A60001E492068884202D1FEF706FF01E0FEF70A
:102A7000F3FE00EBC00101EB0012606864218000EE
:102A8000B2FBF0F3B3FBF1F36FF018067343B2FB44
:102A9000F0F5B2FBF0F605EB8305322303EB0515E9
:102AA000B5FBF1F5B6FBF1F605F0F00505EB061503
:102AB000B2FBF0F6B2FBF0F0B0FBF1F06FF01802F1
:102AC000504306EB800003EB0010B0FBF1F02168EF
:102AD00000F00F002844886070BD000000380140FD
:102AE0002DE9F041984617460E460446069D27E01C
:102AF000681C25D02DB1FEF733FAA0EB0800A842E0
:102B00001ED920680C3050E8001F21F4D07140E835
:102B10000012002AF5D12068143050E8001F21F07F
:102B2000010140E80012002AF5D1202084F841007C
:102B300084F84200002084F840000320BDE8F081C2
:102B40002068006836EA000004D00020B842CFD0E8
:102B50000020F3E70120F9E70148FFF769B800001A
:102B600014010020FEE700000FB4054B10B503A9C7
:102B7000044A029800F002F910BC5DF814FB000052
:102B8000753E0008480000200FB41CB50246002026
:102B900007AC00290BD0491ECDE90021054B6A4640
:102BA0002146069800F0EAF8009A002111701CBC3A
:102BB0005DF814FBAB3400080907090E002804DB9C
:102BC00000F1E02080F80014704700F00F0000F1E1
:102BD000E02080F8141D704702E008C8121F08C1E9
:102BE000002AFAD170477047002001E001C1121F8E
:102BF000002AFBD1704700002DE9FF5F82B0002161
:102C0000DDE90430020DDDF840B0034318D044F68E
:102C10001050A2F2FF3242431514119801281FD020
:102C2000A5EB0B00401C5FEA000A4FF000064E4F78
:102C3000DFF83891B046504615D5CAF1000413E0CC
:102C4000119801244AA3012801D16FEA0B010298CF
:102C5000119AC0E90031C0E9024206B0BDE8F09F18
:102C6000CBF10000DFE704460021404A491842EB5F
:102C70000450CDE9001012E0E00707D032463B4691
:102C800040464946FDF7E9FD8046894632463B46C7
:102C900010461946FDF7E1FD06460F466410002C6C
:102CA000EAD1DDE90401DDE90023BAF1000F06DA1B
:102CB000FDF7D3FD42464B46FDF7CFFD05E0FDF79E
:102CC00013FC42464B46FDF70FFC04460E4600221D
:102CD000284BFDF74DFE03D84FF0FF30014607E0CB
:102CE0000022254B20463146FDF757FBFDF727FE16
:102CF000102409E0002C0ADB0A220023FDF7C7FCA0
:102D0000039B30321A55641E50EA0102F2D1641C52
:102D1000039AC4F111031444119A012A03D0012229
:102D200008430DD10AE0084304D000204FF0110BF6
:102D3000119072E7A3EB0B056D1E0DE05B4504DD02
:102D40004FF0000205F1010504E003DA4FF0000244
:102D5000A5F10105002AECD002981199C0E90231D1
:102D6000C0E9004579E70000000014400000F03F92
:102D7000300000000000F0430000E03F2DE9FF4F6D
:102D800095B09B468946064600250FE2252877D157
:102D900000242746F84A0121059400E0044316F870
:102DA000013F203B01FA03F01042F7D130782A2886
:102DB00011D06FF02F033078A0F13002092A16D815
:102DC000059A44F0020402EB820203EB4202104433
:102DD000761C0590EFE759F8042B0592002A03DAD8
:102DE000504244F40054059044F00204761C3078BC
:102DF0002E2816D116F8010F44F004042A280DD00D
:102E00006FF02F023078A0F13003092B09D807EBBF
:102E1000870302EB4303C718761CF3E759F8047BDA
:102E2000761C30786C280FD006DC4C2817D0682828
:102E30000DD06A2814D104E0742810D07A280FD15C
:102E40000DE044F400140AE044F4801401E044F47A
:102E500040147278824202D104F58014761C761CEC
:102E6000307866280BD013DC582877D009DC00288E
:102E700075D04528F6D04628F4D047281AD19DE1D0
:102E800018E0632835D0642879D0652812D195E1FF
:102E9000702873D008DC6728F1D069286FD06E28BD
:102EA0000DD06F2806D1B5E073282CD0752875D0C9
:102EB000782874D05A46179990476D1C75E1C4F371
:102EC0000250022809D003280DD0D9F80010042898
:102ED0000DD00D6009F1040967E1D9F80010EA1777
:102EE000C1E90052F6E7D9F800100D80F2E70D7045
:102EF000F0E719F8041B8DF8001000208DF8010090
:102F0000EA46012003E059F804AB4FF0FF306107B7
:102F10004FF0000102D40DE008F101018846B942EA
:102F20000FDA8045F8DB1AF808100029F4D108E020
:102F300008F1010188468142FADB1AF808100029DD
:102F4000F6D105985B46A0EB080721463846179A4C
:102F500000F094FA284400EB080507E04DE029E171
:102F60000DE01AF8010B5A4617999047B8F101087D
:102F7000F7D25B4621463846179A13E142E00A220F
:102F80000092C4F302524FF0000A022A08D059F806
:102F900004CB032A4FEAEC710AD00DE029E02AE0C5
:102FA00009F1070121F00702F2E802C1914609E0A8
:102FB0000FFA8CFC4FEAEC71042A03D14FFA8CFC17
:102FC0004FEAEC71002907DA0A460021DCF1000C17
:102FD00061EB02012D2202E0220504D52B228DF89F
:102FE0000420012203E0E20701D02022F7E7904607
:102FF00059E00A2102E010220DE010214FF0000AF2
:1030000000910BE010224FF0000A44F0040408275E
:10301000009203E008224FF0000A0092C4F302522B
:10302000022A05D059F804CB0021032A08D009E070
:1030300009F1070121F00702F2E802C1914605E01B
:103040001FFA8CFC042A01D10CF0FF0C4FF0000891
:10305000220728D5702806D0009B83F0100353EA7E
:103060000A0305D00EE040228DF80420012208E07A
:103070005CEA010206D030228DF804208DF80500AC
:1030800002229046009B83F0080353EA0A030AD108
:103090005CEA010201D1620705D530228DF80420D7
:1030A0004FF001087F1E582804D034A003900EA8CA
:1030B00002900DE036A0F9E753466046009AFDF70E
:1030C000E6FA84460398825C0298401E02900270E1
:1030D0005CEA0100F0D1029806A9081A00F1200A62
:1030E000600702D524F4803400E00127574502DD53
:1030F000A7EB0A0000E0002000EB0A010090059811
:103100004144401A0590E00306D45B462146179AD5
:10311000059800F0B3F90544002706E001A85A46D7
:10312000C05D179990476D1C7F1C4745F6DBE00397
:103130000CD55B462146179A059800F09FF9054487
:1031400004E030205A46179990476D1C0099481E9C
:1031500000900029F5DC08E0029802995A460078B0
:10316000491C0291179990476D1CBAF10001AAF110
:10317000010AF1DC65E10000092801003031323339
:1031800034353637383961626364656600000000A3
:10319000303132333435363738394142434445468D
:1031A0000000000000F058F90544761C3078002833
:1031B0007FF4ECAD19B02846BDE8F08F620700D46B
:1031C000062709F1070222F0070CFCE80223E1467A
:1031D00003F000485FEA080C02D00FF2702C0DE0FB
:1031E0005FEA045C02D50FF2682C07E05FEAC47C5A
:1031F00002D00FF2602C01E0AFF2700C4FF0FF38FC
:1032000023F00043CDF850C065280CD006DC4528DB
:1032100009D046281DD047283DD13DE0662818D06A
:1032200067287ED138E00021112F01DB112000E05A
:10323000781CCDE9000106A90EA8FFF7DDFCDDE949
:103240000F010E9A03910021009207F1010A0491E7
:103250004DE04FF000400097CDE9011006A90EA8FF
:10326000FFF7CAFCDDE90F0203920E9B11990022C1
:10327000DDF80CA00093049211B9791C00EB010A4F
:10328000B7EB0A0004D4C0F1FF3007F1010A049043
:10329000AAEB0700019044E0012F00DA012700218A
:1032A000112F01DD112000E03846CDE9000106A90B
:1032B0000EA8FFF7A1FCDDE90F010E9A0391002192
:1032C00004910092BA4621070CD40399514500DAC3
:1032D0008A46BAF1010F05DD009AAAF10101515C9D
:1032E000302908D0B84202DA10F1040F06DA0121C1
:1032F000CDE9011015E0AAF10101E9E7002805DC9C
:10330000049901440491AAEB000102E0411C5145DB
:1033100000DD8A460499401A401C01904FF000409D
:103320000290200704D40198504501DBCDF80480B9
:1033300000208DF84F0002980DF14F07B0F1004FBB
:1033400025D02B200E9002984FF0020800280CDAAE
:10335000404202902D200E9007E00A210298FDF7CE
:1033600080F93031029007F8011DB8F10001A8F191
:103370000108F2DC02980028EFD1791E0E9808703F
:10338000307800F0200040F0450007F8020D12A848
:10339000C01B00F107081498007800B1012000EB71
:1033A0000A01019801EBE07105984144401A401E62
:1033B0000590E00306D45B462146179A059800F075
:1033C0005DF805441498007818B15A46179990474B
:1033D0006D1CE00324D55B462146179A059800F042
:1033E0004DF805441CE00498002807DBDDE90301E3
:1033F000884203DD0098405C179901E0179930205E
:103400005A469047049805F10105401C0490019824
:10341000401E019004D12E205A46179990476D1CEA
:10342000BAF10001AAF1010ADDDC05E017F8010B91
:103430005A46179990476D1CB8F10001A8F1010890
:10344000F4DC5B462146179A0598ABE62D00000098
:103450002B000000200000002DE9F041044600256B
:103460001E461746880404D405E039462020B0479C
:103470006D1C641EF9D52846BDE8F0812DE9F041A8
:10348000044600251E469046C80301D5302700E0BB
:103490002027880404D505E041463846B0476D1C16
:1034A000641EF9D52846BDE8F0814A68002A06D096
:1034B0000A68531C0B6010704868401E48607047D3
:1034C0002DE9FE4F07460E460025684600F0DEFC5B
:1034D00000246FF00F0AE8464FF0010957F8240066
:1034E00056F82410401A00D54042FDF76CF85146BA
:1034F000FCF747FF58F8241011F0FF4F0BD0FCF7F2
:1035000002FF4FF07E51FCF7C6FE0A4920F0004052
:10351000884205DC07E0084908440849884202D38C
:1035200009FA04F00543641C032CD7DB2846BDE8E8
:10353000FE8F0000295C0F3E666666C19A99D9002D
:1035400008B560B120208DF8000028208DF801001A
:1035500030208DF8020038208DF8030004E0A3220B
:1035600004216846FCF71FFE6A46042140F69E20AF
:1035700001F0C4FD01F082FA08BD00003EB504462A
:1035800002208DF80000CA208DF80100E3208DF89C
:10359000020009208DF803006A460421682001F02A
:1035A000ADFDA3208DF80000610609D5C0218DF87E
:1035B0000110C8218DF80210C2218DF8031005E01A
:1035C0008DF801008DF802008DF8030014F4C07F1F
:1035D00009D0C4218DF80410CC218DF80510C62126
:1035E0008DF8061005E08DF804008DF805008DF8C3
:1035F00006008DF808008DF807008DF809006A466E
:103600000A2140F6A72001F079FDA0074FF0D80568
:1036100003D020208DF8000001E08DF800506A46AC
:10362000012140F6B62001F069FDA00601D5012078
:1036300000E0002000F08EF814F4C07F1ED0E005FA
:103640000AD5B2208DF800008B208DF80100B6203D
:103650008DF802009B2009E0B0208DF8000080204A
:103660008DF80100B4208DF8020090208DF8030041
:103670006A46042140F6A22001F040FDE1074FF424
:103680000B6022D0F8218DF800106A46012101F06C
:1036900035FDFA21072000F039FB072000F004FB7C
:1036A000012000F021FB642000F0C4FB4FF4FA700D
:1036B00000F0D0FBC821254800F0BEFA282000F019
:1036C000D3FA0A2000F0E0FA05E08DF800506A46CF
:1036D000012101F013FDA00703D5D9208DF80000CA
:1036E00001E08DF800506A46012140F23D7001F082
:1036F00005FD600701D5012000E0002000F048F83A
:10370000E00601D5012000E00020FFF719FF104D71
:1037100044F00800688101F0B1F90020A873600648
:1037200001D50620A87314F4C07F02D0A87B801DA9
:10373000A87314F0140F02D0A87B1030A873A00750
:1037400002D0A87B001DA87300203EBD09E3CA0279
:10375000A00100200EB54FF4976310B106A107C970
:1037600001E008A207CA8DE807006A460921184649
:1037700001F0C4FC0EBD0000B8AAB38DB4980D359D
:103780005D000000B8AAAAAAB088C3C5C70000009F
:1037900008B560B1C0208DF80000C2208DF801008E
:1037A000C4208DF80200C6208DF8030004E08B22AF
:1037B00004216846FCF7F7FC6A46042140F698208D
:1037C00001F09CFC01F05AF908BD0000C8234FF439
:1037D0008062024940F6F63001F032B8905300089A
:1037E0002DE9FF4F89B01746DDE9165200244C4EF3
:1037F000884681462C80A246B07B694601F0CCF811
:103800004FF0FF3B18B158460DB0BDE8F08F7089FE
:1038100010F0140F3CD0009909BA21F0FF039DF875
:1038200003100B433B6001991B1409BA21F0FF02FE
:103830009DF807105B430A437A6002999DF80B409C
:1038400009BA21F0FF012143B960039C091424BA8D
:1038500024F0FF0C9DF80F4012144CEA040CC7F83A
:103860000CC04FEA2C47494302FB023207FB071109
:1038700011441024A1F17061B1F1007F04D901F06D
:10388000FDF8A5F800A0BEE7298841F480712980E1
:103890004206694611D50A19A41D13885BBAA8F817
:1038A000003053885BBAA8F80230928852BAA8F860
:1038B00004202A8842F008022A8010F4C07F11D028
:1038C0000A19A41D13885BBAA9F8003053885BBAA3
:1038D000A9F80230928852BAA9F804202A8842F046
:1038E00070022A80800716D00C44E07800F0C005F2
:1038F00000F03F016078C00706D0C80801F007015A
:103900003268491C02B190476078000703D571689E
:1039100009B1A80988470C9800F072FD002073E7F0
:10392000A00100202DE9FF41044603A800F03EFE5F
:10393000BDF80C00410CC3032F48028902F00300BC
:10394000550754F8200000D54042C2F3C105960641
:1039500054F8255000D56D42C2F38116D20554F8B3
:10396000264000D56442A0FB0367C21702FB037226
:1039700000FB0120820042EA9670A5FB0367EA176C
:1039800002FB037205FB0122950045EA9672A4FB37
:103990000367E51705FB037304FB01318B0043EA62
:1039A0009671030E8DF80030030C8DF80130030A78
:1039B0008DF802308DF80300100E8DF80400100C05
:1039C0008DF80500100A8DF80600080E8DF8080025
:1039D000080C8DF80900080A8DF80A008DF80720F8
:1039E0008DF80B106A460C214FF4257001F086FB10
:1039F00004B0BDE8F0810000A001002030B504460D
:103A000013A285B007CA8DE807004FF0FF35C82C18
:103A100016D8C820B0FBF4F1491E080A8DF80C0036
:103A20008DF80D1003AA022140F2162001F066FB6A
:103A300030B96A460C2140F6C12001F05FFB10B19D
:103A4000284605B030BD054884810020F9E7000014
:103A5000FEF2ABC4AAF1DFDFBBAFDFDFA0010020C5
:103A6000F8B53049098901F0030250F822404A07AD
:103A700000D56442C1F3C1028B0650F8222000D564
:103A80005242C1F3811350F82330C80500D55B4280
:103A9000254984FB0140850045EA947082FB014280
:103AA000A40F44EA820483FB0121950F45EA8105B6
:103AB000010E8DF80010010C8DF80110010A8DF82F
:103AC00002108DF803006A4604214FF4747001F06F
:103AD00015FB4FF0FF3688B9200E8DF80000200C42
:103AE0008DF80100200A8DF802008DF803406A4627
:103AF00004214FF4757001F001FB08B13046F8BDA8
:103B0000280E8DF80000280C8DF80100280A8DF889
:103B100002008DF803506A4604214FF4767001F0DC
:103B2000EDFAF8BDA001002009E3CA022DE9FF412A
:103B300004463CA004F00303006802903AA0006829
:103B400003903AA006683AA0056802A8C15C8DF807
:103B50000010C4F3C101425C8DF80120C4F381124E
:103B6000805C8DF8020003A8C35C8DF80430415CD2
:103B70008DF80510805C8DF806006A46032140F23E
:103B8000264001F0BBFA4FF0FF37E0BB01AA03214A
:103B900040F22A4001F0B2FAA8BBCDE90065600707
:103BA0000BD59DF8000040F001008DF800009DF855
:103BB000040040F001008DF80400A0060BD59DF82C
:103BC000010040F001008DF801009DF8050040F073
:103BD00001008DF80500E0050BD59DF8020040F0CE
:103BE00001008DF802009DF8060040F001008DF8FC
:103BF00006006A4603214FF4886001F07FFA10B98D
:103C000001AA032100E004E040F2314001F076FA1D
:103C100018B1384604B0BDE8F081064804810020A0
:103C2000F8E700004CCD6C000CC92C00365676002D
:103C300026466600A00100204FF47A7290FBF2F055
:103C400008B54843010E8DF80010010C8DF80110E5
:103C5000010A8DF802108DF803006A4604214FF422
:103C6000AE7001F04BFA08BD0521B0FBF1F008B5CC
:103C7000010A8DF800108DF801006A4602214FF408
:103C8000AD7001F03BFA08BD0521B0FBF1F008B5BD
:103C9000010A8DF800108DF801006A4602214FF4E8
:103CA000AC7001F02BFA08BD08B500218DF80010AA
:103CB000C10702D030218DF80010810705D59DF88D
:103CC000001041F00C018DF80010400705D59DF85B
:103CD000000040F003008DF800006A4601214FF417
:103CE000A47001F00BFA08BD08B560B1042800D932
:103CF0000420401E8DF800006A46012140F24F105A
:103D000001F0FCF908BD0120F3E700002DE9FC41BA
:103D1000054640074FF0FF367CD0B1F5C86F79D823
:103D20000846FCF759FC3E49FCF7EDFA074601A8A6
:103D300000F01EFC9DF80400022806D004280DD0D7
:103D400008282ED0102865D134E00E213846FCF723
:103D500018FBFCF75FFC84B2324907E00D213846BE
:103D6000FCF70FFBFCF756FC2F4984B23846FCF7F2
:103D700098FAFCF74FFC210A8DF8001080B28DF8FC
:103D80000140010A8DF802108DF80300E8076C4627
:103D900020D0224602214FF4EA7001F0AFF9C8BBEF
:103DA00011E00C213846FCF7ECFAFCF733FC84B246
:103DB0001E49DBE70B213846FCF7E3FAFCF72AFC47
:103DC00084B21B49D2E7A21C02214FF4927001F089
:103DD00095F9F8B9A8070DD56A4602214FF4EC70A1
:103DE00001F08CF9B0B9A21C02214FF4947001F0DB
:103DF00085F978B9680710D56A4602214FF4EE704C
:103E000001F07CF930B9A21C02214FF4967001F048
:103E100075F910B13046BDE8FC810020FBE70000D9
:103E200000004843000040460000C04500004045F7
:103E30000000C0440521B0FBF1F008B5010A8DF87F
:103E400000108DF801006A4602214FF4EF7001F076
:103E500055F908BD0521B0FBF1F008B5010A8DF850
:103E600000108DF801006A4602214FF4ED7001F058
:103E700045F908BD13B54FF0FF33012269460248EA
:103E8000FEF799F800981CBD140100202DE9FE43AF
:103E90000646264801AB042240680D210078FCF755
:103EA000AFFD10B10720BDE8FE839DF804101C2073
:103EB00000EAD1029DF80710DFF87490C1F30113F6
:103EC0001A438DF800209DF80520C1F3810300EA14
:103ED000D2021A438DF801209DF8062001F003015B
:103EE00000EAD20008430024124F8DF80200A046D9
:103EF0006D46285D10B146F824900AE046F824800B
:103F00000DE000BF56F824003946FCF7CAF946F820
:103F10002400285D401E10F0FF002855F2D1641CDB
:103F2000E4B2032CE5D30020BDE700001000002020
:103F30007B14AE3E1D5A843F2DE9FE4F05460120FD
:103F4000C14E8DF800004FF000088DF801803068F8
:103F50000C461746817C70686B4602220078FCF79D
:103F600065FD4FF0FF3A00287AD1C820FCF7F6FE35
:103F70008DF8008030686B460122C17B7068007844
:103F8000FCF754FD0028EFD130686B4601224179DF
:103F900070680078FCF74AFD0028E5D130686B4670
:103FA0000122817C70680078FCF740FD0028DBD19D
:103FB00030686B460122C17D70680078FCF736FDE1
:103FC0000028D1D130686B460122017970680078F1
:103FD000FCF72CFD0028C7D14FF00C098DF800909C
:103FE00030686B460122017970680078FCF71EFD8D
:103FF000002835D10F20FCF7B1FEB06A6B460122D4
:10400000407A8DF800003068817870680078FCF79D
:104010000DFD002824D1B06A6B460122007A8DF88C
:1040200000003068417870680078FCF7FFFC0028D9
:1040300073D1B06A807A0FB140F0E0008DF80000D3
:1040400030686B460122817970680078FCF7EEFCDD
:10405000002862D12FB1B06AC07A40F0E00001E0E0
:104060004AE018208DF8000030686B460122C179C3
:1040700070680078FCF7DAFCF0BB17B1C820FCF7D9
:104080006DFE40208DF8000030686B4601220179FA
:1040900070680078FCF7CAFC70BB78208DF80000CF
:1040A00030686B460122417970680078FCF7BEFCED
:1040B00010BB3220FCF752FE8DF800803068474676
:1040C0006B464179706801220078FCF7AFFC98B923
:1040D00031687068B046897A00786B460222FCF736
:1040E0008FFC48B9BDF80000AF6040BAB0FBF9F0F2
:1040F0006F60C6B22F6000E00FE0A76067602760C6
:10410000002739E0D8F80010D8F804006B46C97AC7
:1041100000780C22FCF774FC10B15046BDE8FE8F0D
:10412000BDF80000236840BA02B2BDF80200BDF835
:1041300004101A44226040BA626800B21044606001
:1041400049BAA06809B20844A060BDF806002B680F
:1041500040BA02B2BDF808001A4440BA01B2BDF834
:104160000A002A606A6840BA11446960A96800B20E
:1041700008447F1CFFB2A860B742C3D328688322DB
:10418000C117090441EA104100040023FBF7CAFFEC
:1041900032460023FBF7C6FF286068688322C117F8
:1041A000090441EA104100040023FBF7BBFF32463B
:1041B0000023FBF7B7FF6860A8688322C1170904D2
:1041C00041EA104100040023FBF7ACFF3246002314
:1041D000FBF7A8FFA86020684FF40065C117090429
:1041E00041EA104100042A460023FBF79BFF3246B8
:1041F0000023FBF797FF206060682A46C117090477
:1042000041EA104100040023FBF78CFF32460023F3
:10421000FBF788FF6060A0682A46C117090441EADD
:10422000104100040023FBF77DFF32460023FBF71B
:1042300079FFA060002802DDA0F5803001E000F5E4
:104240008030A060002069E7100000202DE9F84FC1
:1042500081462E488846002540686B460322007838
:104260000D21FCF7CDFB10B10720BDE8F88F9DF8BC
:104270000000002400F01F008DF800009DF80100F0
:104280006FF00F0B00F01F008DF801009DF8020089
:104290006E4600F01F008DF802004FF0010A00BFCB
:1042A00059F8241058F82400081A00D54042FCF7A9
:1042B0008AF95946FCF765F80746305DC0B11448E5
:1042C00002E01449FBF7EDFF315D491E11F0FF01DB
:1042D0003155F6D101463846FCF715F84FF07E51BE
:1042E000FBF7D9FF0C4920F00040884205DC07E0CD
:1042F0000A483844B0F1D97F02D90AFA04F00543DC
:10430000641C032CCCDB2846AFE700001000002023
:104310000000C84154E3853F295C0F3E0000E0BE29
:1043200000B5024600F00DF80346D01C00F009F875
:1043300043EAC003901D00F004F843EA801080B205
:1043400000BD90F90010002902DD4FF00000704719
:1043500002DA4FF00400704790F90110002902DDE5
:104360004FF00100704702DA4FF00500704790F9F6
:104370000200002802DD4FF00200704702DA4FF021
:10438000060070474FF0070070470000FDF73EF948
:10439000FEF730FAFEF7C6F9FEF7AEF9FEF7E8F9D8
:1043A000FEF706FA0024204600F012FFFEF7FBF8A5
:1043B00007E000BF00F08CF80246214608A0FEF797
:1043C000D3FB00F085F80028F4D1641CE4B2022C81
:1043D000E9D3002000F010FF012000F00DFFF8E706
:1043E0004D5055256420444D50206661696C6564CC
:1043F0003A20636F64652025642E0D0A00000000DA
:10440000704700002DE9F041124C20F00101002519
:1044100094F8240010B10020BDE8F081A07A4FF09C
:10442000FF3668B10840277C2074884200D03546AA
:1044300041B1012000F042FF00F020FB38B12774A9
:104440003046E9E7207D00B1012000F037FF284623
:10445000E2E70000100000202DE9F04190B0044692
:104460000CA906A8CDE900010BAB02AA09A907A86F
:10447000FFF7B6F918B1012010B0BDE8F081BDF822
:104480001800C00522D50298FCF79DF86FF01D08B2
:104490004146FBF776FF07460398FCF794F8414640
:1044A000FBF76FFF06460498FCF78DF84146FBF7D3
:1044B00068FF05460598FCF786F84146FBF761FF63
:1044C000C4E90250C4E900760020D5E70220D3E712
:1044D00010B500F0F1F808B10A2010BD782000F006
:1044E000B1FD10F0FF0F01D0012010BD7820FFF7C3
:1044F00089FF10F0FF0F01D0022010BD642000F0F2
:1045000061FD10F0FF0F01D0032010BDFFF75EF931
:1045100010F0FF0F01D0042010BD1448FFF700FF7A
:10452000FFF704FB10F0FF0F01D0052010BD40F293
:104530007310FFF723F810F0FF0F01D0062010BD15
:104540006420FFF75BFA10F0FF0F01D0072010BDC9
:1045500000F0FEFD08B1082010BD012000F058FC5D
:1045600010F0FF00F8D0092010BD00003C00002032
:104570000D494A7A42B1012A08D0022A0FD0032AF3
:104580000FD04FF0FF307047022200E0042202708B
:10459000C97C11B11106C90D0170002070470822B5
:1045A000F5E71022F3E70000100000200F494A7AD7
:1045B00042B1012A09D0022A11D0032A12D04FF0A9
:1045C000FF3070474FF4804201E041F69C72028058
:1045D000C97C11B1C2F34E010180002070474FF435
:1045E0008052F4E74FF40062F1E700001000002071
:1045F0000B49097A39B1012907D002290AD00329C8
:104600000BD0002103E0FA2101E04FF4FA710180A0
:10461000002070474FF47A71F9E74FF4FA61F6E73A
:10462000100000200A49097A41B1012908D0022965
:104630000AD003290AD04FF0FF307047054900E047
:1046400005490160002070470449FAE70449F8E78A
:104650001000002000000343000083423333034274
:10466000333383410C49C97A072913D2DFE801F0BB
:104670001204060A0C0E1000BC2100E06221018029
:10468000002070472A21FAE71421F8E70A21F6E70B
:104690000521F4E70021F2E710000020054991F818
:1046A000242012B14FF0FF307047C98901800020EB
:1046B00070470000100000202DE9FC414C4C802088
:1046C0008DF8000020686B460122817C60680078CC
:1046D000FCF7ACF94FF0FF37002832D16420FCF72B
:1046E0003DFB00258DF8005020686B460122817C3F
:1046F00060680078FCF79AF9002870D120686B4652
:104700000622817D60680078FCF77AF9002866D17E
:104710009DF805009DF80310C007400F01F001014E
:1047200040EA41019DF801004FF0010600F0010050
:10473000014309D0012905D0022915D02DA0FEF78B
:1047400013FA4CE0E67410E020686B460122C17851
:1047500060680078FCF754F940BB9DF8000010F049
:104760000F0020D0042822D0E574FF2004F80A0F9F
:104770004FF6FF7104F8020C04F8010C6070A18080
:10478000A0712072A67026766576E572A572E56046
:1047900025616561A576E576A5834FF4FA6000F0A2
:1047A00073FB18B907E01D48FEF7DEF917E01CA0FF
:1047B000FEF7DAF9C6E7022000F088FA78B92A2075
:1047C00000F0CAFB58B9322000F0FCFB38B90020D9
:1047D000FFF718FE18B9002000F0ACFA10B1384607
:1047E000BDE8FC81002000F02DFC0020F8E700006F
:1047F00010000020556E737570706F7274656420C0
:10480000736F6674776172652070726F647563741C
:10481000207265762025642E0A000000885F00085B
:1048200048616C662073656E736974697669747922
:10483000207061727420666F756E642E0A0000002D
:104840002DE9FF4FDFF89480064685B098F82500E3
:1048500015460F464FF0FF39B0BBAFB3002420E040
:10486000301B102800DD102080B283463A19014623
:104870009246204600F042FC30BB6A46594620462C
:1048800000F0D2F800BB50465A466946FBF7A4FC3C
:1048900020B16FF0010009B0BDE8F08F04EB0B0010
:1048A00084B2B442DCD3280A8DF810008DF8115080
:1048B000D8F80000444604AB817ED8F804000222F8
:1048C0000078FCF7B3F808B14846E4E7012084F823
:1048D00025000898E0840020DDE70000100000209B
:1048E0002DE9F84305464FF0FF39282844D807271B
:1048F000284C00267DB1012000F0FCFA20208DF824
:1049000000004FF00108012D17D0052D18D88DF8A3
:10491000018005201FE0002000F0ECFA8DF8006017
:104920008DF8017020686B460222817C60680078F7
:10493000FCF77CF800BB267529E08DF80160E8E7FC
:10494000142D04D802208DF801000A2003E0032072
:104950008DF80100142000F0FFFA9DF801006B466D
:1049600007EB80108DF8010020680222817C6068CE
:104970000078FCF75BF810B14846BDE8F8830820E2
:10498000A072267384F814800020FFF73BFD0020FE
:10499000F3E70000100000202DE9F843214C064603
:1049A000174694F8240089464FF0FF3890B3A07A58
:1049B00080B320686B460222817A60680078FCF739
:1049C0001FF838BBBDF8000045BAB54202D200203E
:1049D00038701FE060684188B5EB510F11D921682C
:1049E00000786B46497C0122FCF70AF890B99DF8E3
:1049F0000000C00605D500F041F86FF00100BDE8E9
:104A0000F8832068F2B24B46C17A60680078FBF701
:104A1000F7FF08B14046F2E7B5FBF6F0401E3870EC
:104A20000020ECE710000020F8B516000D464FF00E
:104A3000FF371FD0104CA17AE1B1010A8DF80010A8
:104A4000C0B28DF80100411960684289914211D8C5
:104A5000216800786B46097E0222FBF7E7FF48B920
:104A60002068EAB23346417D60680078FBF7C8FFF2
:104A7000002800D03846F8BD10000020F8B5564C8C
:104A80004FF0FF36A07A00287DD000258DF8005029
:104A900020686B460122C17B60680078FBF7C6FF87
:104AA000002870D120686B46012241796068007847
:104AB000FBF7BCFF002866D120686B460122017914
:104AC00060680078FBF7B2FF00285CD194F82400FE
:104AD000E0B30C208DF8000020686B4601220179BC
:104AE00060680078FBF7A2FF002872D13220FCF743
:104AF00035F9C0208DF80000A07AC00702D0E02070
:104B00008DF8000020686B4601220179606800780A
:104B1000FBF78CFF00285CD1607C18B102208DF877
:104B2000000001E08DF8005020686B460122C17B37
:104B300060680078FBF77AFF28BB8DF8005020688A
:104B40006B4601224179606800783EE0FFE704206F
:104B50008DF8000020686B460122017960680078BA
:104B6000FBF764FF78B9A07C90B9A07AC0070FD09A
:104B70005FF060008DF8000020686B46012201792B
:104B80006068007800E024E0FBF750FF08BB01E01C
:104B90004020EFE73220FCF7E1F8607C18B10120FB
:104BA0008DF8000001E08DF8005020686B4601226E
:104BB000C17B60680078FBF739FF50B92068064B6D
:104BC00001224179606810330078FBF72FFF00283D
:104BD00000D03046F8BD0000100000202DE9F0475D
:104BE000394C82468AB094F824000F4620B1002048
:104BF00000F00EF9012600E0002607A8FFF7F8FCF8
:104C000006A8FFF7B5FC09A8FFF72CFD08A8FFF7D9
:104C100045FD94F80A9094F810800025002239464A
:104C20005046FFF789F910B16D1C022DF6DB022DFD
:104C30001AD00025012203A96846FFF77DF910B1BB
:104C40006D1C022DF6DB022D0ED003A93846FEF7AF
:104C500037FCC7B269465046FFF7F8FA10F0FF0F6D
:104C60004FF0000502D002E0002503E001250FB956
:104C700045F00205FF2020726072E0724FF6FF716E
:104C8000E181A072207401202073BDF81C0000F0A7
:104C9000FBF89DF8180000F019F8BDF8240000F0AA
:104CA0005BF9BDF8200000F08DF9484600F0CAF924
:104CB0004046FFF7A7FB16B1012000F0A9F80AB0A3
:104CC0002846BDE8F08700001000002038B5184CD9
:104CD0004FF0FF35A17A19B3022806D0042806D078
:104CE00008280ED010281BD10DE0002000E008207D
:104CF0008DF80000607A9DF80010B0EBD10F04D061
:104D000005E01020F4E71820F2E7002038BD206805
:104D10006B460122C17960680078FBF787FE08B115
:104D2000284638BD9DF80000C0086072EDE700001D
:104D300010000020F8B5354C0546A07CA84201D1F2
:104D40000020F8BD31484FF0FF366B46D0E9001027
:104D50004FF001020979007835B3FBF751FE70BBC3
:104D60009DF800006B4620F020008DF800002068C0
:104D70000122017960680078FBF758FEF8B903203A
:104D8000FBF7ECFF02208DF8000094F8220078B3C6
:104D900082202BE020686B460122017D606800784C
:104DA000FBF744FE58B92EE0FBF72AFE38B9A07A8B
:104DB000C0079DF8000003D040F0200002E00CE0A6
:104DC00020F020008DF8000020686B460122017958
:104DD00060680078FBF72AFE08B13046F8BD032072
:104DE000FBF7BCFF94F8220000B180208DF8000092
:104DF00094F823000028CDD09DF8000040F030004A
:104E00008DF80000C6E7A5749AE7000010000020A6
:104E100038B51C4C94F8241081421DD0002500B3F5
:104E200094F82500D0B1002000F048FA0020FFF7E8
:104E300081FFE08C00F0C6F88DF8005060686B468A
:104E4000012200782321FBF7F1FD012084F82400E2
:104E500000F034FAFFF712FE002038BD4FF0FF30AB
:104E600038BD002000F02AFA207C8DF80000606830
:104E70006B46012200782321FBF7D8FD84F82450EB
:104E8000E8E700001000002038B5194C4FF0FF355E
:104E9000A17A31B3FA2809D0B0F5FA7F08D0B0F57D
:104EA0007A7F0FD0B0F5FA6F1BD10DE0002000E043
:104EB00008208DF80000207A9DF80010B0EBD10F8B
:104EC00004D005E01020F4E71820F2E7002038BDF8
:104ED00020686B460122817960680078FBF7A6FDA7
:104EE00008B1284638BD9DF80000C0082072EDE7E3
:104EF0001000002038B5174C054694F82300A8424E
:104F000001D1002038BD0DB1302000E000208DF827
:104F10000000A07C28B19DF8000040F002008DF850
:104F2000000094F8220028B19DF8000040F08000B5
:104F30008DF8000020686B460122017D60680078D2
:104F4000FBF774FD10B14FF0FF3038BD84F82350EB
:104F5000D7E700001000002038B5194C4FF0FF359E
:104F6000A17A31B3BC2801D3012010E0622801D31B
:104F700002200CE02A2801D3032008E0142801D3E2
:104F8000042004E00A2801D3052000E006208DF863
:104F90000000E07A9DF80010884201D1002038BD61
:104FA00020686B460122817860680078FBF73EFD3F
:104FB00008B1284638BD9DF80000E072EEE7000019
:104FC00010000020F8B51E4D04464FF0FF37A87AB8
:104FD00048B395F8240030BB287D4FF47A7648B169
:104FE00064B1282C03D8E0B2FFF77AFC26E0002059
:104FF000FFF776FC042C05D2042406E00020FFF71E
:105000006FFCF9E7B44200D93446B6FBF4F0401E19
:105010008DF8000028686B460122417868680078A6
:10502000FBF704FD08B13846F8BD9DF80000401CB0
:10503000B6FBF0F0E8814008FFF78EFF0020F8BDD6
:1050400010000020F8B5054610F0700F4FF0000674
:1050500001D0012004E015B18DF8006002E040208D
:105060008DF80000244C6B4601222068817C60682A
:105070000078FBF7DBFC4FF0FF3760BB9DF80000CA
:1050800020F0400020738DF80060680602D40420F0
:105090008DF80000A80605D49DF8000040F002003D
:1050A0008DF80000E80605D49DF8000040F00100EE
:1050B0008DF80000280705D49DF8000040F0380066
:1050C0008DF8000020686B460122C17C6068007882
:1050D000FBF7ACFC10B1A6723846F8BD25B1082D1F
:1050E00002D00020FFF706FFA57226753220FBF7DD
:1050F00035FE0020F8BD000010000020F8B51600B5
:105100000D464FF0FF371FD0104CA17AE1B1010AD4
:105110008DF80010C0B28DF8010041196068428915
:10512000914211D8216800786B46097E0222FBF774
:105130007DFC48B92068EAB23346417D606800785A
:10514000FBF774FC002800D03846F8BD10000020A2
:1051500010B588B0694604A8FFF740FD032802D0C7
:10516000012008B010BD07A8FFF75CFA0498FBF710
:105170002AFA07990C46FBF794F8FBF732FA0490E9
:105180000598FBF720FA2146FBF78BF8FBF729FA85
:1051900005900698FBF717FA2146FBF782F8FBF714
:1051A00020FA069004A8FEF75BFC03A8FFF7FEF9BF
:1051B000BDF80C00009941430091019941430191D0
:1051C0000299414368460291FEF7ACFB0020C8E714
:1051D0001CB507280CD80121814040F6FF708DF8DE
:1051E00004100090012301AAE0210248FBF782FF8E
:1051F0001CBD0000C00000202DE9F04F89B083469F
:10520000FFF7E6FF1D48FFF727F9002833D11C48B8
:1052100090F841102129FBD0184864216438FAF72E
:10522000C9FF164CE068FBF709FA81468A46A06878
:10523000FBF704FA074688466068FBF7FFF9054666
:105240000E462068FBF7FAF90A468DE8E5075B464B
:105250000CA26421A4F16400FDF796FCA4F16400A3
:10526000FAF7B3FF09B0A4F16401BDE8F04F82B2D0
:105270000348FCF7EDBE09B0BDE8F08FB000002098
:10528000140100207B226B6579223A20222F6A6F5D
:10529000696E742F2564222C202276616C7565223C
:1052A0003A205B252E33662C252E33662C252E3393
:1052B000662C252E33665D7D0A000000F8B5144C7F
:1052C0000146224694F82460D2E9000200235D1EC4
:1052D00056B179B1022111E0C17B10786B460122F1
:1052E000FBF7A4FB68B90EE0A67A56B111B1617C58
:1052F00061B902E08DF80030EEE701218DF8001071
:10530000EAE72846F8BD9DF8000060740020F8BD6B
:1053100010000020010202030405060708090A0B19
:105320000C0D0E0F10100000000000000000010224
:1053300003040607080900000000010203047519B0
:105340001A0C6A231B1C1F207274433B4138393AE4
:105350006B6C376F06246D6E7000D0000004760011
:105360005401F7FD00010000830000000008000068
:105370000001001832000500000020410000D24268
:10538000295C0F3E9A99993E3333733F295C0F3E57
:105390000000700000000024000000020003000074
:1053A00000650054FFEF0000FA80000B128200013C
:1053B000030C30C30E8C8CE914D5400213710F8E90
:1053C0003883F8833000F883258EF8833000F88323
:1053D000FFFFFFFF0FFEA9D6240004001A8279A167
:1053E0000000003CFFFF00000010000038836FA2A7
:1053F000003E03304000000002CAE3093E80000086
:1054000020000000000000004000000060000000DC
:10541000000C0000000C186E000006920A16C0DF97
:10542000FFFF0256FD8CD377FFE1C496E0C5BEAA0C
:1054300000000000FFFF0B2B00001657000003596F
:105440004000000000001DFA00026C1D000000007A
:105450003FFFDFEB003EB3B6000D227800002F3C8B
:1054600000000000001942B5000039A20000B36539
:10547000D90E9FC91DCF4C343000000050000000F1
:105480003BB67AE80064000000C80000000000009D
:10549000100000001000FA921000225E000D229F02
:1054A0000001000000320000FF46000063D400004D
:1054B0001000000004D6000004CC000004CC000062
:1054C000000010720000004000000000000000001A
:1054D0000006000200050007000000000064000054
:1054E000000000000000000500050064002000002E
:1054F0000000000000000000000040000000030069
:1055000000000032F8980000FF650000830F0000E3
:10551000FF9BFC00000000000000000000000000F5
:10552000000000000000000000000000000000007B
:10553000000000000000000000000000000010005B
:1055400040000000000000060000B26A00020000F7
:105550000001FB830068000000D9FC007CF1FF83A0
:105560000000000000650000006403E800640028FB
:10557000000000250000000016A000000000100040
:1055800000001000002F0000000001F400001000D7
:1055900000280000FFFF4581FFFFFA7200000000B5
:1055A00000000000004400050005BAC6004778A2CC
:1055B00000000001000000000000060000000014D0
:1055C0000000254D002F706D000005AE000C02D0CC
:1055D00000000000000000000000000000000000CB
:1055E000001B0000000000000000000000000000A0
:1055F000006400000008000000000000000000003F
:10560000000000000000000000000000000000009A
:10561000000000000000000000000000000000008A
:10562000000000000000000000000000000000007A
:10563000000000000000000000000000000000006A
:10564000000000000000000000000000000000005A
:10565000001B00000000000000000000000E000E13
:1056600000000AC70004000000000032FFFFFF9C9A
:1056700000000B2B0000000200000001000000648D
:10568000FFE5000000000000000000000000000036
:105690000000000100000000000100000000000008
:1056A000000180000001800000018000002426D35A
:1056B0000000000000000000000600100096003C02
:1056C00000000000000000000000000000000000DA
:1056D0000C0A4E68CDCF770950166759C619CE828D
:1056E00000000000000000000000000000000000BA
:1056F000000000000000000017D784000300000035
:105700000000000000000000C7938F9D1E1B1C19A5
:105710000000000000000000000000000000000089
:105720000000000000000000020318850000400097
:105730000000000300000003000000000000000063
:105740004000000000000000000000000000000019
:105750000000000000000000000000000000000049
:105760000000000000000000000000000000000039
:1057700000000000677DDF7E72902E554CF6E688B3
:105780000000000000000000000000000000000019
:10579000D8DCB4B8B0D8B9ABF3F8FAB3B7BB8E9EC7
:1057A000AEF132F51BF1B4B8B08097F1A9DFDFDFBD
:1057B000AADFDFDFF2AAC5CDC7A90CC92C97F1A9D2
:1057C00089264666B28999A92D557DB0B08AA896DA
:1057D000365676F1BAA3B4B280C0B8A89711B28396
:1057E00098BAA3F0240844106418B2B9B49883F1AD
:1057F000A329557DBAB5B1A38393F0002850F5B223
:10580000B6AA839328547CF1B9A3829361BAA2DA31
:10581000DEDFDB819AB9AEF5606870F1DABAA2DF3B
:10582000D9BAA2FAB9A38292DB31BAA2D9BAA2F844
:10583000DF85A4D0C1BBAD83C2C5C7B8A2DFDFDF9F
:10584000BAA0DFDFDFD8D8F1B8AAB38DB4980D3590
:105850005DB2B6BAAF8C96198F9FA70E161EB49A7A
:10586000B8AA872C547CBAA4B08AB691325676B2C4
:105870008494A4C808CDD8B8B4B0F19982A82D55A5
:105880007D98A80E161EA22C547C92A4F02C507861
:10589000F184A898C4CDFCD80DDBA8FC2DF3D9BAAF
:1058A000A6F8DABAA6DED8BAB2B68696A6D0F3C8FB
:1058B00041DAA6C8F8D8B0B4B882A892F52C5488BA
:1058C00098F135D9F418D8F1A2D0F8F9A884D9C73D
:1058D000DFF8F883C5DADF69DF83C1D8F40114F19A
:1058E000A8824EA884F311D182F5D992289788F125
:1058F00009F41C1CD884A8F3C0F9D1D99782F129E6
:10590000F40DD8F3F9F9D1D982F4C203D8DEDF1A45
:10591000D8F1A2FAF9A88498D9C7DFF8F8F883C7B4
:10592000DADF69DFF883C3D8F40114F198A8822E76
:10593000A884F311D182F5D992509788F109F41C0B
:10594000D884A8F3C0F8F9D1D99782F149F40DD8D9
:10595000F3F9F9D1D982F4C403D8DEDFD8F1AD88E8
:1059600098CCA809F9D98292A8F57CF1883ACF940D
:105970004A6E98DB6931DAADF2DEF9D88795A8F284
:1059800021D1DAA5F9F417D9F1AE8ED0C0C3AE8219
:10599000C684C3A88595C8A588F2C0F1F4010EF1AC
:1059A0008E9EA8C63E56F554F18872F40115F19802
:1059B00045856EF58E9E0488F142985A8E9E068823
:1059C00069F4011CF1981E1108D0F504F11E97022C
:1059D00002983625DBF9D985A5F3C1DA85A5F3DF71
:1059E000D88595A8F309DAA5FAD88292A8F578F1B6
:1059F000881A849F26889821DAF41DF3D8879F3966
:105A0000D1AFD9DFDFFBF9F40CF3D8FAD0F8DAF92B
:105A1000F9D0DFD9F9D8F40BD8F3879F39D1AFD9B2
:105A2000DFDFF41DF3D8FAFCA869F9F9AFD0DADEAC
:105A3000FAD9F88F9FA8F1CCF398DB45D9AFDFD026
:105A4000F8D8F18F9FA8CAF38809DAAF8FCBF8D8BE
:105A5000F2AD978D0CD9A5DFF9BAA6F3FAF412F2DC
:105A6000D8950DD1D9BAA6F3FADAA5F2C1BAA6F340
:105A7000DFD8F1BAB2B68696A6D0CAF349DAA6CB79
:105A8000F8D8B0B4B8D8AD84F2C0DFF18FCBC3A8DA
:105A9000B2B68696C8C1CBC3F3B0B48898A821DB50
:105AA000718D9D71859521D9ADF2FAD88597A82879
:105AB000D9F408D8F28D29DAF405D9F285A4C2F216
:105AC000D8A88D9401D1D9F411F2D88721D8F40A3D
:105AD000D8F28498A8C801D1D9F411D8F3A4C8BBCE
:105AE000AFD0F2DEF8F8F8F8F8F8F8F8D8F1B8F630
:105AF000B5B9B08A95A3DE3CA3D9F8D85CA3D9F890
:105B0000D87CA3D9F8D8F8F9D1A5D9DFDAFAD8B179
:105B10008530F7D9DED8F830ADDADED8F2B48C991A
:105B2000A32D557DA083DFDFDFB591A0F629D9FB3A
:105B3000D8A0FC29D9FAD8A0D051D9F8D8FC51D98D
:105B4000F9D879D9FBD8A0D0FC79D9FAD8A1F9F93C
:105B5000F9F9F9A0DADFDFDFD8A1F8F8F8F8F8AC46
:105B6000DEF8ADDE8393AC2C547CF1A8DFDFDFF6EA
:105B70009D2CDAA0DFD9FADB2DF8D8A850DAA0D016
:105B8000DED9D0F8F8F8DB55F8D8A878DAA0D0DF5D
:105B9000D9D0FAF8F8F8F8DB7DF8D89CA88CF53065
:105BA000DB38D9D0DEDFA0D0DEDFD8A848DB58D97B
:105BB000DFD0DEA0DFD0DED8A868DB70D9DFDFA0C1
:105BC000DFDFD8F1A888902C547C98A8D05C38D11D
:105BD000DAF2AE8CDFF9D8B087A8C1C1B188A8C607
:105BE000F9F9DA36D8A8F9DA36D8A8F9DA36D8A821
:105BF000F9DA36D8A8F9DA36D8F78D9DADF818DA83
:105C0000F2AEDFD8F7ADFA30D9A4DEF9D8F2AEDEC5
:105C1000FAF983A7D9C3C5C7F1889BA77AADF7DE88
:105C2000DFA4F8849408A797F300AEF29819A4882B
:105C3000C6A39488F632DFF28393DB09D9F2AADF98
:105C4000D8D8AEF8F9D1DAF3A4DEA7F1889B7AD8D8
:105C5000F38494AE19F9DAAAF1DFD8A881C0C3C5DC
:105C6000C7A39283F628ADDED9F8D8A350ADD9F8F2
:105C7000D8A378ADD9F8D8F8F9D1A1DADEC3C5C771
:105C8000D8A18194F818F2B089ACC3C5C7F1D8B8CF
:105C9000B4B09786A8319B069907AB9728889BF0EC
:105CA0000C201440B0B4B8F0A88A9A285078B79B5A
:105CB000A8295179247059446938644831F1BBAB43
:105CC00088002C547CF0B38BB8A804285078F1B02D
:105CD00088B49726A85998BBABB38B02264666B00A
:105CE000B8F08A9CA82951798B2951798A24705956
:105CF0008B2058718A4469388B3940688A644831EE
:105D00008B30496088F1AC002C547CF08CA80428BE
:105D10005078F1889726A85998AC8C02264666F0F0
:105D2000899CA8295179247059446938644831A95B
:105D30008809205970AB11384069A8193148608C26
:105D4000A83C415C207C00F187981986A86E767E7D
:105D5000A999882D557DD8B1B5B9A3DFDFDFAED0C5
:105D6000DFAAD0DEF2ABF8F9D9B087C4AAF1DFDF41
:105D7000BBAFDFDFB9D8B1F1A3978E60DFB084F29B
:105D8000C8F8F9D9DED89385F14AB183A308B58361
:105D90009A0810B79F10D8F1B0BAAEB08AC2B2B6A6
:105DA0008E9EF1FBD9F41DD8F9D90CF1D8F8F8ADD5
:105DB00061D9AEFBD8F40CF1D8F8F8AD19D9AEFB27
:105DC000DFD8F416F1D8F8AD8D61D9F4F4ACF59CB8
:105DD0009C8DDF2BBAB6AEFAF8F40BD8F1AED0F842
:105DE000AD51DAAEFAF8F1D8B9B1B6A3839C08B9CF
:105DF000B1839AB5AAC0FD3083B79F10B58B93F2DB
:105E00000202D1ABDADED8F1B080BAABC0C3B28443
:105E1000C1C3D8B1B9F38BA391B609B4D9ABDEB085
:105E2000879CB9A3DDF1B38B8B8B8B8BB087A3A33E
:105E3000A3A3B28BB69BF2A3A3A3A3A3A3A3A3A3E1
:105E4000A3F1B087B59AA3F39BA3A3DCBAACDFB9E7
:105E5000A3A3A3A3A3A3A3A3A3A3A3A3A3A3A3A312
:105E6000D8D8D8BBB3B7F1AAF9DAFFD9809AAA2853
:105E7000B48098A720B79787A86688F07951F190E9
:105E80002C870CA781976293F0717160859401292A
:105E9000517990A5F1284C6C870C95188578A383CF
:105EA00090284C6C886CD8F3A28200F210A892194A
:105EB00080A2F2D926D8F188A84DD948D896A83919
:105EC00080D93CD89580A839A68698D92CDA87A79E
:105ED0002CD8A8899519A980D938D8A88939A9803A
:105EE000DA3CD8A82EA83990D90CD8A8953198D9E1
:105EF0000CD8A809D9FFD801DAFFD89539A9DA2634
:105F0000FFD890A80D8999A810809821DA2ED889F9
:105F100099A83180DA2ED8A886963180DA2ED8A8B2
:105F2000873180DA2ED8A88292F34180F1D92ED819
:105F3000A882F31980F1D92ED882ACF3C0A28022B6
:105F4000F1A62EA72EA92298A829DAACDEFFD8A2A6
:105F5000F22AF1A92E8292A8F23180A696F1D900F8
:105F6000AC8C9C0C30ACDED0DEFFD88C9CACD0105E
:105F7000ACDE8092A2F24C82A8F1CAF235F196888A
:105F8000A6D900D8F1FF000050726F6475637420C9
:105F900049442072656164206173203020696E6419
:105FA00069636174657320646576696365206973EC
:105FB0002065697468657220696E636F6D706174C5
:105FC00069626C65206F7220616E204D50553330D0
:105FD00035302E0A00000000F85F000800000020A5
:105FE0004C000000D82B0008446000084C00002042
:105FF00064050000E82B000801000000100000000C
:10600000000000000024F4003E5300085A5300082A
:106010000000000000000000000000000000000080
:106020000000000000000000000000000000000070
:10603000685300080100000001000000010000009A
:04604000000000005C
:04000005080000ED02
:00000001FF
