Component: ARM Compiler 5.06 update 5 (build 528) Tool: armlink [4d35e2]

==============================================================================

Section Cross References

    startup_stm32f103xb.o(RESET) refers to startup_stm32f103xb.o(STACK) for __initial_sp
    startup_stm32f103xb.o(RESET) refers to startup_stm32f103xb.o(.text) for Reset_Handler
    startup_stm32f103xb.o(RESET) refers to stm32f1xx_it.o(i.NMI_Handler) for NMI_Handler
    startup_stm32f103xb.o(RESET) refers to stm32f1xx_it.o(i.HardFault_Handler) for HardFault_Handler
    startup_stm32f103xb.o(RESET) refers to stm32f1xx_it.o(i.MemManage_Handler) for MemManage_Handler
    startup_stm32f103xb.o(RESET) refers to stm32f1xx_it.o(i.BusFault_Handler) for BusFault_Handler
    startup_stm32f103xb.o(RESET) refers to stm32f1xx_it.o(i.UsageFault_Handler) for UsageFault_Handler
    startup_stm32f103xb.o(RESET) refers to stm32f1xx_it.o(i.SVC_Handler) for SVC_Handler
    startup_stm32f103xb.o(RESET) refers to stm32f1xx_it.o(i.DebugMon_Handler) for DebugMon_Handler
    startup_stm32f103xb.o(RESET) refers to stm32f1xx_it.o(i.PendSV_Handler) for PendSV_Handler
    startup_stm32f103xb.o(RESET) refers to stm32f1xx_it.o(i.SysTick_Handler) for SysTick_Handler
    startup_stm32f103xb.o(RESET) refers to stm32f1xx_it.o(i.DMA1_Channel4_IRQHandler) for DMA1_Channel4_IRQHandler
    startup_stm32f103xb.o(RESET) refers to stm32f1xx_it.o(i.USART1_IRQHandler) for USART1_IRQHandler
    startup_stm32f103xb.o(.text) refers to system_stm32f1xx.o(i.SystemInit) for SystemInit
    startup_stm32f103xb.o(.text) refers to entry.o(.ARM.Collect$$$$00000000) for __main
    main.o(i.SystemClock_Config) refers to memseta.o(.text) for __aeabi_memclr4
    main.o(i.SystemClock_Config) refers to stm32f1xx_hal_rcc.o(i.HAL_RCC_OscConfig) for HAL_RCC_OscConfig
    main.o(i.SystemClock_Config) refers to stm32f1xx_hal_rcc.o(i.HAL_RCC_ClockConfig) for HAL_RCC_ClockConfig
==============================================================================

Removing Unused input sections from the image.

    Removing startup_stm32f103xb.o(HEAP), (512 bytes).
    Removing main.o(.rev16_text), (4 bytes).
    Removing main.o(.revsh_text), (4 bytes).
    Removing main.o(.rrx_text), (6 bytes).
    Removing main.o(.data), (4 bytes).
    Removing main.o(.data), (4 bytes).
    Removing main.o(.data), (4 bytes).
    Removing gpio.o(.rev16_text), (4 bytes).
    Removing gpio.o(.revsh_text), (4 bytes).
    Removing gpio.o(.rrx_text), (6 bytes).
    Removing dma.o(.rev16_text), (4 bytes).
    Removing dma.o(.revsh_text), (4 bytes).
    Removing dma.o(.rrx_text), (6 bytes).
    Removing i2c.o(.rev16_text), (4 bytes).
    Removing i2c.o(.revsh_text), (4 bytes).
    Removing i2c.o(.rrx_text), (6 bytes).
    Removing i2c.o(i.HAL_I2C_MspDeInit), (56 bytes).
    Removing usart.o(.rev16_text), (4 bytes).
==============================================================================

Image Symbol Table

    Local Symbols

    Symbol Name                              Value     Ov Type        Size  Object(Section)

    ../Core/Src/dma.c                        0x00000000   Number         0  dma.o ABSOLUTE
    ../Core/Src/gpio.c                       0x00000000   Number         0  gpio.o ABSOLUTE
    ../Core/Src/i2c.c                        0x00000000   Number         0  i2c.o ABSOLUTE
    ../Core/Src/main.c                       0x00000000   Number         0  main.o ABSOLUTE
    ../Core/Src/stm32f1xx_hal_msp.c          0x00000000   Number         0  stm32f1xx_hal_msp.o ABSOLUTE
    ../Core/Src/stm32f1xx_it.c               0x00000000   Number         0  stm32f1xx_it.o ABSOLUTE
    ../Core/Src/system_stm32f1xx.c           0x00000000   Number         0  system_stm32f1xx.o ABSOLUTE
    ../Core/Src/usart.c                      0x00000000   Number         0  usart.o ABSOLUTE
    ../Drivers/STM32F1xx_HAL_Driver/Src/stm32f1xx_hal.c 0x00000000   Number         0  stm32f1xx_hal.o ABSOLUTE
    ../Drivers/STM32F1xx_HAL_Driver/Src/stm32f1xx_hal_cortex.c 0x00000000   Number         0  stm32f1xx_hal_cortex.o ABSOLUTE
    ../Drivers/STM32F1xx_HAL_Driver/Src/stm32f1xx_hal_dma.c 0x00000000   Number         0  stm32f1xx_hal_dma.o ABSOLUTE
    ../Drivers/STM32F1xx_HAL_Driver/Src/stm32f1xx_hal_exti.c 0x00000000   Number         0  stm32f1xx_hal_exti.o ABSOLUTE
    ../Drivers/STM32F1xx_HAL_Driver/Src/stm32f1xx_hal_flash.c 0x00000000   Number         0  stm32f1xx_hal_flash.o ABSOLUTE
    ../Drivers/STM32F1xx_HAL_Driver/Src/stm32f1xx_hal_flash_ex.c 0x00000000   Number         0  stm32f1xx_hal_flash_ex.o ABSOLUTE
    ../Drivers/STM32F1xx_HAL_Driver/Src/stm32f1xx_hal_gpio.c 0x00000000   Number         0  stm32f1xx_hal_gpio.o ABSOLUTE
    ../Drivers/STM32F1xx_HAL_Driver/Src/stm32f1xx_hal_gpio_ex.c 0x00000000   Number         0  stm32f1xx_hal_gpio_ex.o ABSOLUTE
    ../Drivers/STM32F1xx_HAL_Driver/Src/stm32f1xx_hal_i2c.c 0x00000000   Number         0  stm32f1xx_hal_i2c.o ABSOLUTE
    ../Drivers/STM32F1xx_HAL_Driver/Src/stm32f1xx_hal_pwr.c 0x00000000   Number         0  stm32f1xx_hal_pwr.o ABSOLUTE
    ../Drivers/STM32F1xx_HAL_Driver/Src/stm32f1xx_hal_rcc.c 0x00000000   Number         0  stm32f1xx_hal_rcc.o ABSOLUTE
    ../Drivers/STM32F1xx_HAL_Driver/Src/stm32f1xx_hal_rcc_ex.c 0x00000000   Number         0  stm32f1xx_hal_rcc_ex.o ABSOLUTE
    ../Drivers/STM32F1xx_HAL_Driver/Src/stm32f1xx_hal_tim.c 0x00000000   Number         0  stm32f1xx_hal_tim.o ABSOLUTE
    ../Drivers/STM32F1xx_HAL_Driver/Src/stm32f1xx_hal_tim_ex.c 0x00000000   Number         0  stm32f1xx_hal_tim_ex.o ABSOLUTE
    ../Drivers/STM32F1xx_HAL_Driver/Src/stm32f1xx_hal_uart.c 0x00000000   Number         0  stm32f1xx_hal_uart.o ABSOLUTE
    ../clib/microlib/division.c              0x00000000   Number         0  uldiv.o ABSOLUTE
    ../clib/microlib/division.c              0x00000000   Number         0  ldiv.o ABSOLUTE
    ../clib/microlib/division.c              0x00000000   Number         0  uidiv.o ABSOLUTE
    ../clib/microlib/init/entry.s            0x00000000   Number         0  entry9b.o ABSOLUTE
    ../clib/microlib/init/entry.s            0x00000000   Number         0  entry10a.o ABSOLUTE
    ../clib/microlib/init/entry.s            0x00000000   Number         0  entry10b.o ABSOLUTE
    ../clib/microlib/init/entry.s            0x00000000   Number         0  entry11a.o ABSOLUTE
    ../clib/microlib/init/entry.s            0x00000000   Number         0  entry11b.o ABSOLUTE
    ../clib/microlib/init/entry.s            0x00000000   Number         0  entry9a.o ABSOLUTE
    ../clib/microlib/init/entry.s            0x00000000   Number         0  entry7a.o ABSOLUTE
    ../clib/microlib/init/entry.s            0x00000000   Number         0  entry2.o ABSOLUTE
    ../clib/microlib/init/entry.s            0x00000000   Number         0  entry7b.o ABSOLUTE
    ../clib/microlib/init/entry.s            0x00000000   Number         0  entry8a.o ABSOLUTE
    ../clib/microlib/init/entry.s            0x00000000   Number         0  entry5.o ABSOLUTE
    ../clib/microlib/init/entry.s            0x00000000   Number         0  entry8b.o ABSOLUTE
    ../clib/microlib/init/entry.s            0x00000000   Number         0  entry.o ABSOLUTE
    ../clib/microlib/longlong.c              0x00000000   Number         0  llshl.o ABSOLUTE
    ../clib/microlib/longlong.c              0x00000000   Number         0  llsshr.o ABSOLUTE
    ../clib/microlib/longlong.c              0x00000000   Number         0  llushr.o ABSOLUTE
    ../clib/microlib/printf/printf.c         0x00000000   Number         0  printf0.o ABSOLUTE
    ../clib/microlib/printf/printf.c         0x00000000   Number         0  printf1.o ABSOLUTE
    ../clib/microlib/printf/printf.c         0x00000000   Number         0  printf3.o ABSOLUTE
    ../clib/microlib/printf/printf.c         0x00000000   Number         0  printf7.o ABSOLUTE
    ../clib/microlib/printf/printf.c         0x00000000   Number         0  printf4.o ABSOLUTE
    ../clib/microlib/printf/printf.c         0x00000000   Number         0  printf5.o ABSOLUTE
    ../clib/microlib/printf/printf.c         0x00000000   Number         0  printf6.o ABSOLUTE
    ../clib/microlib/printf/printf.c         0x00000000   Number         0  printfb.o ABSOLUTE
    ../clib/microlib/printf/printf.c         0x00000000   Number         0  printfa.o ABSOLUTE
    ../clib/microlib/printf/printf.c         0x00000000   Number         0  printf8.o ABSOLUTE
    ../clib/microlib/printf/printf.c         0x00000000   Number         0  printf2.o ABSOLUTE
    ../clib/microlib/printf/stubs.s          0x00000000   Number         0  stubs.o ABSOLUTE
    ../clib/microlib/stdio/streams.c         0x00000000   Number         0  stdout.o ABSOLUTE
    ../clib/microlib/string/memcmp.c         0x00000000   Number         0  memcmp.o ABSOLUTE
    ../clib/microlib/string/memset.c         0x00000000   Number         0  memseta.o ABSOLUTE
    ../clib/microlib/string/strlen.c         0x00000000   Number         0  strlen.o ABSOLUTE
    ../clib/microlib/stubs.s                 0x00000000   Number         0  iusefp.o ABSOLUTE
    ../fplib/microlib/d2f.c                  0x00000000   Number         0  d2f.o ABSOLUTE
    ../fplib/microlib/f2d.c                  0x00000000   Number         0  f2d.o ABSOLUTE
    ../fplib/microlib/fpadd.c                0x00000000   Number         0  fadd.o ABSOLUTE
    ../fplib/microlib/fpadd.c                0x00000000   Number         0  dadd.o ABSOLUTE
    ../fplib/microlib/fpdiv.c                0x00000000   Number         0  fdiv.o ABSOLUTE
    ../fplib/microlib/fpdiv.c                0x00000000   Number         0  ddiv.o ABSOLUTE
    ../fplib/microlib/fpepilogue.c           0x00000000   Number         0  depilogue.o ABSOLUTE
    ../fplib/microlib/fpepilogue.c           0x00000000   Number         0  fepilogue.o ABSOLUTE
    ../fplib/microlib/fpfix.c                0x00000000   Number         0  ffixui.o ABSOLUTE
    ../fplib/microlib/fpfix.c                0x00000000   Number         0  dfixul.o ABSOLUTE
    ../fplib/microlib/fpfix.c                0x00000000   Number         0  ffixi.o ABSOLUTE
    ../fplib/microlib/fpflt.c                0x00000000   Number         0  dflti.o ABSOLUTE
    ../fplib/microlib/fpflt.c                0x00000000   Number         0  ffltui.o ABSOLUTE
    ../fplib/microlib/fpflt.c                0x00000000   Number         0  fflti.o ABSOLUTE
    ../fplib/microlib/fpmul.c                0x00000000   Number         0  dmul.o ABSOLUTE
    ../fplib/microlib/fpmul.c                0x00000000   Number         0  fmul.o ABSOLUTE
    ../fplib/microlib/fpscalb.c              0x00000000   Number         0  fscalb.o ABSOLUTE
    ..\Core\Src\dma.c                        0x00000000   Number         0  dma.o ABSOLUTE
    ..\Core\Src\gpio.c                       0x00000000   Number         0  gpio.o ABSOLUTE
    ..\Core\Src\i2c.c                        0x00000000   Number         0  i2c.o ABSOLUTE
    ..\Core\Src\main.c                       0x00000000   Number         0  main.o ABSOLUTE
    ..\Core\Src\stm32f1xx_hal_msp.c          0x00000000   Number         0  stm32f1xx_hal_msp.o ABSOLUTE
    ..\Core\Src\stm32f1xx_it.c               0x00000000   Number         0  stm32f1xx_it.o ABSOLUTE
    ..\Core\Src\system_stm32f1xx.c           0x00000000   Number         0  system_stm32f1xx.o ABSOLUTE
    ..\Core\Src\usart.c                      0x00000000   Number         0  usart.o ABSOLUTE
    ..\Drivers\STM32F1xx_HAL_Driver\Src\stm32f1xx_hal.c 0x00000000   Number         0  stm32f1xx_hal.o ABSOLUTE
    ..\Drivers\STM32F1xx_HAL_Driver\Src\stm32f1xx_hal_cortex.c 0x00000000   Number         0  stm32f1xx_hal_cortex.o ABSOLUTE
    ..\Drivers\STM32F1xx_HAL_Driver\Src\stm32f1xx_hal_dma.c 0x00000000   Number         0  stm32f1xx_hal_dma.o ABSOLUTE
    ..\Drivers\STM32F1xx_HAL_Driver\Src\stm32f1xx_hal_exti.c 0x00000000   Number         0  stm32f1xx_hal_exti.o ABSOLUTE
    ..\Drivers\STM32F1xx_HAL_Driver\Src\stm32f1xx_hal_flash.c 0x00000000   Number         0  stm32f1xx_hal_flash.o ABSOLUTE
    ..\Drivers\STM32F1xx_HAL_Driver\Src\stm32f1xx_hal_flash_ex.c 0x00000000   Number         0  stm32f1xx_hal_flash_ex.o ABSOLUTE
    ..\Drivers\STM32F1xx_HAL_Driver\Src\stm32f1xx_hal_gpio.c 0x00000000   Number         0  stm32f1xx_hal_gpio.o ABSOLUTE
    ..\Drivers\STM32F1xx_HAL_Driver\Src\stm32f1xx_hal_gpio_ex.c 0x00000000   Number         0  stm32f1xx_hal_gpio_ex.o ABSOLUTE
    ..\Drivers\STM32F1xx_HAL_Driver\Src\stm32f1xx_hal_i2c.c 0x00000000   Number         0  stm32f1xx_hal_i2c.o ABSOLUTE
    ..\Drivers\STM32F1xx_HAL_Driver\Src\stm32f1xx_hal_pwr.c 0x00000000   Number         0  stm32f1xx_hal_pwr.o ABSOLUTE
    ..\Drivers\STM32F1xx_HAL_Driver\Src\stm32f1xx_hal_rcc.c 0x00000000   Number         0  stm32f1xx_hal_rcc.o ABSOLUTE
    ..\Drivers\STM32F1xx_HAL_Driver\Src\stm32f1xx_hal_rcc_ex.c 0x00000000   Number         0  stm32f1xx_hal_rcc_ex.o ABSOLUTE
    ..\Drivers\STM32F1xx_HAL_Driver\Src\stm32f1xx_hal_tim.c 0x00000000   Number         0  stm32f1xx_hal_tim.o ABSOLUTE
    ..\Drivers\STM32F1xx_HAL_Driver\Src\stm32f1xx_hal_tim_ex.c 0x00000000   Number         0  stm32f1xx_hal_tim_ex.o ABSOLUTE
    ..\Drivers\STM32F1xx_HAL_Driver\Src\stm32f1xx_hal_uart.c 0x00000000   Number         0  stm32f1xx_hal_uart.o ABSOLUTE
    ..\MPU6050\eMPL\inv_mpu.c                0x00000000   Number         0  inv_mpu.o ABSOLUTE
    ..\MPU6050\eMPL\inv_mpu_dmp_motion_driver.c 0x00000000   Number         0  inv_mpu_dmp_motion_driver.o ABSOLUTE
    ..\MPU6050\mpu6050.c                     0x00000000   Number         0  mpu6050.o ABSOLUTE
    ..\PCA9548A\pca9548.c                    0x00000000   Number         0  pca9548.o ABSOLUTE
    ..\\MPU6050\\eMPL\\inv_mpu.c             0x00000000   Number         0  inv_mpu.o ABSOLUTE
    ..\\MPU6050\\eMPL\\inv_mpu_dmp_motion_driver.c 0x00000000   Number         0  inv_mpu_dmp_motion_driver.o ABSOLUTE
    ..\\MPU6050\\mpu6050.c                   0x00000000   Number         0  mpu6050.o ABSOLUTE
    ..\\PCA9548A\\pca9548.c                  0x00000000   Number         0  pca9548.o ABSOLUTE
    cdrcmple.s                               0x00000000   Number         0  cdrcmple.o ABSOLUTE
    dc.s                                     0x00000000   Number         0  dc.o ABSOLUTE
    handlers.s                               0x00000000   Number         0  handlers.o ABSOLUTE
    init.s                                   0x00000000   Number         0  init.o ABSOLUTE
    startup_stm32f103xb.s                    0x00000000   Number         0  startup_stm32f103xb.o ABSOLUTE
    RESET                                    0x08000000   Section      236  startup_stm32f103xb.o(RESET)
    .ARM.Collect$$$$00000000                 0x080000ec   Section        0  entry.o(.ARM.Collect$$$$00000000)
    .ARM.Collect$$$$00000001                 0x080000ec   Section        4  entry2.o(.ARM.Collect$$$$00000001)
    .ARM.Collect$$$$00000004                 0x080000f0   Section        4  entry5.o(.ARM.Collect$$$$00000004)
    .ARM.Collect$$$$00000008                 0x080000f4   Section        0  entry7b.o(.ARM.Collect$$$$00000008)
    .ARM.Collect$$$$0000000A                 0x080000f4   Section        0  entry8b.o(.ARM.Collect$$$$0000000A)
    .ARM.Collect$$$$0000000B                 0x080000f4   Section        8  entry9a.o(.ARM.Collect$$$$0000000B)
    .ARM.Collect$$$$0000000D                 0x080000fc   Section        0  entry10a.o(.ARM.Collect$$$$0000000D)
    .ARM.Collect$$$$0000000F                 0x080000fc   Section        0  entry11a.o(.ARM.Collect$$$$0000000F)
    .ARM.Collect$$$$00002712                 0x080000fc   Section        4  entry2.o(.ARM.Collect$$$$00002712)
    __lit__00000000                          0x080000fc   Data           4  entry2.o(.ARM.Collect$$$$00002712)
    .text                                    0x08000100   Section       36  startup_stm32f103xb.o(.text)
    .text                                    0x08000124   Section        0  ldiv.o(.text)
    .text                                    0x08000186   Section        0  llushr.o(.text)
    .text                                    0x080001a6   Section        0  memseta.o(.text)
    .text                                    0x080001ca   Section        0  strlen.o(.text)
    .text                                    0x080001d8   Section        0  memcmp.o(.text)
    .text                                    0x080001f2   Section        0  fadd.o(.text)
    .text                                    0x080002a2   Section        0  fmul.o(.text)
    .text                                    0x08000306   Section        0  fdiv.o(.text)
    .text                                    0x08000382   Section        0  fscalb.o(.text)
    .text                                    0x0800039a   Section        0  dadd.o(.text)
    .text                                    0x080004e8   Section        0  ddiv.o(.text)
    .text                                    0x080005c6   Section        0  fflti.o(.text)
    .text                                    0x080005d8   Section        0  ffltui.o(.text)
    .text                                    0x080005e2   Section        0  ffixi.o(.text)
    .text                                    0x08000614   Section        0  ffixui.o(.text)
    .text                                    0x0800063c   Section        0  f2d.o(.text)
    .text                                    0x08000662   Section        0  uidiv.o(.text)
    .text                                    0x0800068e   Section        0  uldiv.o(.text)
    .text                                    0x080006f0   Section        0  llshl.o(.text)
    .text                                    0x0800070e   Section        0  llsshr.o(.text)
    .text                                    0x08000732   Section        0  fepilogue.o(.text)
    .text                                    0x08000732   Section        0  iusefp.o(.text)
    .text                                    0x080007a0   Section        0  depilogue.o(.text)
    .text                                    0x0800085a   Section        0  dmul.o(.text)
    .text                                    0x0800093e   Section        0  dfixul.o(.text)
    .text                                    0x08000970   Section       48  cdrcmple.o(.text)
    .text                                    0x080009a0   Section       36  init.o(.text)
    i.BusFault_Handler                       0x080009c4   Section        0  stm32f1xx_it.o(i.BusFault_Handler)
    i.DMA1_Channel4_IRQHandler               0x080009c8   Section        0  stm32f1xx_it.o(i.DMA1_Channel4_IRQHandler)
    i.DMA_SetConfig                          0x080009d4   Section        0  stm32f1xx_hal_dma.o(i.DMA_SetConfig)
    DMA_SetConfig                            0x080009d5   Thumb Code    42  stm32f1xx_hal_dma.o(i.DMA_SetConfig)
    i.DMP_Read_Len                           0x08000a00   Section        0  mpu6050.o(i.DMP_Read_Len)
    i.DMP_Write_Len                          0x08000a2c   Section        0  mpu6050.o(i.DMP_Write_Len)
    i.DebugMon_Handler                       0x08000a58   Section        0  stm32f1xx_it.o(i.DebugMon_Handler)
    i.Error_Handler                          0x08000a5a   Section        0  main.o(i.Error_Handler)
    i.HAL_DMA_Abort                          0x08000a5e   Section        0  stm32f1xx_hal_dma.o(i.HAL_DMA_Abort)
    i.HAL_DMA_Abort_IT                       0x08000aa4   Section        0  stm32f1xx_hal_dma.o(i.HAL_DMA_Abort_IT)
    i.HAL_DMA_IRQHandler                     0x08000b3c   Section        0  stm32f1xx_hal_dma.o(i.HAL_DMA_IRQHandler)
    i.HAL_DMA_Init                           0x08000c90   Section        0  stm32f1xx_hal_dma.o(i.HAL_DMA_Init)
    i.HAL_DMA_Start_IT                       0x08000cec   Section        0  stm32f1xx_hal_dma.o(i.HAL_DMA_Start_IT)
    i.HAL_Delay                              0x08000d5c   Section        0  stm32f1xx_hal.o(i.HAL_Delay)
    i.HAL_GPIO_Init                          0x08000d80   Section        0  stm32f1xx_hal_gpio.o(i.HAL_GPIO_Init)
    i.HAL_GetTick                            0x08000f60   Section        0  stm32f1xx_hal.o(i.HAL_GetTick)
    i.HAL_I2C_Init                           0x08000f6c   Section        0  stm32f1xx_hal_i2c.o(i.HAL_I2C_Init)
    i.HAL_I2C_Master_Transmit                0x080010f4   Section        0  stm32f1xx_hal_i2c.o(i.HAL_I2C_Master_Transmit)
    i.HAL_I2C_Mem_Read                       0x08001220   Section        0  stm32f1xx_hal_i2c.o(i.HAL_I2C_Mem_Read)
    i.HAL_I2C_Mem_Write                      0x08001470   Section        0  stm32f1xx_hal_i2c.o(i.HAL_I2C_Mem_Write)
    i.HAL_I2C_MspInit                        0x080015a0   Section        0  i2c.o(i.HAL_I2C_MspInit)
    i.HAL_IncTick                            0x080015fc   Section        0  stm32f1xx_hal.o(i.HAL_IncTick)
    i.HAL_Init                               0x0800160c   Section        0  stm32f1xx_hal.o(i.HAL_Init)
    i.HAL_InitTick                           0x08001630   Section        0  stm32f1xx_hal.o(i.HAL_InitTick)
    i.HAL_MspInit                            0x08001670   Section        0  stm32f1xx_hal_msp.o(i.HAL_MspInit)
    i.HAL_NVIC_EnableIRQ                     0x080016ac   Section        0  stm32f1xx_hal_cortex.o(i.HAL_NVIC_EnableIRQ)
    i.HAL_NVIC_SetPriority                   0x080016c8   Section        0  stm32f1xx_hal_cortex.o(i.HAL_NVIC_SetPriority)
    i.HAL_NVIC_SetPriorityGrouping           0x08001708   Section        0  stm32f1xx_hal_cortex.o(i.HAL_NVIC_SetPriorityGrouping)
    i.HAL_RCC_ClockConfig                    0x0800172c   Section        0  stm32f1xx_hal_rcc.o(i.HAL_RCC_ClockConfig)
    i.HAL_RCC_GetPCLK1Freq                   0x08001858   Section        0  stm32f1xx_hal_rcc.o(i.HAL_RCC_GetPCLK1Freq)
    i.HAL_RCC_GetPCLK2Freq                   0x08001878   Section        0  stm32f1xx_hal_rcc.o(i.HAL_RCC_GetPCLK2Freq)
    i.HAL_RCC_GetSysClockFreq                0x08001898   Section        0  stm32f1xx_hal_rcc.o(i.HAL_RCC_GetSysClockFreq)
    i.HAL_RCC_OscConfig                      0x080018e4   Section        0  stm32f1xx_hal_rcc.o(i.HAL_RCC_OscConfig)
    i.HAL_SYSTICK_Config                     0x08001c04   Section        0  stm32f1xx_hal_cortex.o(i.HAL_SYSTICK_Config)
    i.HAL_UARTEx_RxEventCallback             0x08001c2c   Section        0  stm32f1xx_hal_uart.o(i.HAL_UARTEx_RxEventCallback)
    i.HAL_UART_ErrorCallback                 0x08001c2e   Section        0  stm32f1xx_hal_uart.o(i.HAL_UART_ErrorCallback)
    i.HAL_UART_IRQHandler                    0x08001c30   Section        0  stm32f1xx_hal_uart.o(i.HAL_UART_IRQHandler)
    i.HAL_UART_Init                          0x08001e9c   Section        0  stm32f1xx_hal_uart.o(i.HAL_UART_Init)
    i.HAL_UART_MspInit                       0x08001f00   Section        0  usart.o(i.HAL_UART_MspInit)
    i.HAL_UART_RxCpltCallback                0x08001fb4   Section        0  stm32f1xx_hal_uart.o(i.HAL_UART_RxCpltCallback)
    i.HAL_UART_Transmit                      0x08001fb6   Section        0  stm32f1xx_hal_uart.o(i.HAL_UART_Transmit)
    i.HAL_UART_Transmit_DMA                  0x08002050   Section        0  stm32f1xx_hal_uart.o(i.HAL_UART_Transmit_DMA)
    i.HAL_UART_TxCpltCallback                0x080020c8   Section        0  stm32f1xx_hal_uart.o(i.HAL_UART_TxCpltCallback)
    i.HAL_UART_TxHalfCpltCallback            0x080020ca   Section        0  stm32f1xx_hal_uart.o(i.HAL_UART_TxHalfCpltCallback)
    i.HardFault_Handler                      0x080020cc   Section        0  stm32f1xx_it.o(i.HardFault_Handler)
    i.I2C_IsAcknowledgeFailed                0x080020ce   Section        0  stm32f1xx_hal_i2c.o(i.I2C_IsAcknowledgeFailed)
    I2C_IsAcknowledgeFailed                  0x080020cf   Thumb Code    46  stm32f1xx_hal_i2c.o(i.I2C_IsAcknowledgeFailed)
    i.I2C_MasterRequestWrite                 0x080020fc   Section        0  stm32f1xx_hal_i2c.o(i.I2C_MasterRequestWrite)
    I2C_MasterRequestWrite                   0x080020fd   Thumb Code   150  stm32f1xx_hal_i2c.o(i.I2C_MasterRequestWrite)
    i.I2C_RequestMemoryRead                  0x08002198   Section        0  stm32f1xx_hal_i2c.o(i.I2C_RequestMemoryRead)
    I2C_RequestMemoryRead                    0x08002199   Thumb Code   246  stm32f1xx_hal_i2c.o(i.I2C_RequestMemoryRead)
    i.I2C_RequestMemoryWrite                 0x08002294   Section        0  stm32f1xx_hal_i2c.o(i.I2C_RequestMemoryWrite)
    I2C_RequestMemoryWrite                   0x08002295   Thumb Code   162  stm32f1xx_hal_i2c.o(i.I2C_RequestMemoryWrite)
    i.I2C_WaitOnBTFFlagUntilTimeout          0x0800233c   Section        0  stm32f1xx_hal_i2c.o(i.I2C_WaitOnBTFFlagUntilTimeout)
    I2C_WaitOnBTFFlagUntilTimeout            0x0800233d   Thumb Code    86  stm32f1xx_hal_i2c.o(i.I2C_WaitOnBTFFlagUntilTimeout)
    i.I2C_WaitOnFlagUntilTimeout             0x08002394   Section        0  stm32f1xx_hal_i2c.o(i.I2C_WaitOnFlagUntilTimeout)
    I2C_WaitOnFlagUntilTimeout               0x08002395   Thumb Code   144  stm32f1xx_hal_i2c.o(i.I2C_WaitOnFlagUntilTimeout)
    i.I2C_WaitOnMasterAddressFlagUntilTimeout 0x08002424   Section        0  stm32f1xx_hal_i2c.o(i.I2C_WaitOnMasterAddressFlagUntilTimeout)
    I2C_WaitOnMasterAddressFlagUntilTimeout  0x08002425   Thumb Code   188  stm32f1xx_hal_i2c.o(i.I2C_WaitOnMasterAddressFlagUntilTimeout)
    i.I2C_WaitOnRXNEFlagUntilTimeout         0x080024e0   Section        0  stm32f1xx_hal_i2c.o(i.I2C_WaitOnRXNEFlagUntilTimeout)
    I2C_WaitOnRXNEFlagUntilTimeout           0x080024e1   Thumb Code   112  stm32f1xx_hal_i2c.o(i.I2C_WaitOnRXNEFlagUntilTimeout)
    i.I2C_WaitOnTXEFlagUntilTimeout          0x08002550   Section        0  stm32f1xx_hal_i2c.o(i.I2C_WaitOnTXEFlagUntilTimeout)
    I2C_WaitOnTXEFlagUntilTimeout            0x08002551   Thumb Code    86  stm32f1xx_hal_i2c.o(i.I2C_WaitOnTXEFlagUntilTimeout)
    i.MPU_Init                               0x080025a6   Section        0  mpu6050.o(i.MPU_Init)
    i.MPU_Read_Byte                          0x08002618   Section        0  mpu6050.o(i.MPU_Read_Byte)
    i.MPU_Set_Accel_Fsr                      0x08002650   Section        0  mpu6050.o(i.MPU_Set_Accel_Fsr)
    i.MPU_Set_Gyro_Fsr                       0x0800265a   Section        0  mpu6050.o(i.MPU_Set_Gyro_Fsr)
    i.MPU_Set_LPF                            0x08002664   Section        0  mpu6050.o(i.MPU_Set_LPF)
    i.MPU_Set_Rate                           0x08002694   Section        0  mpu6050.o(i.MPU_Set_Rate)
    i.MPU_Write_Byte                         0x080026c4   Section        0  mpu6050.o(i.MPU_Write_Byte)
    i.MX_DMA_Init                            0x080026f8   Section        0  dma.o(i.MX_DMA_Init)
    i.MX_GPIO_Init                           0x08002724   Section        0  gpio.o(i.MX_GPIO_Init)
    i.MX_I2C1_Init                           0x08002770   Section        0  i2c.o(i.MX_I2C1_Init)
    i.MX_USART1_UART_Init                    0x080027b0   Section        0  usart.o(i.MX_USART1_UART_Init)
    i.MemManage_Handler                      0x080027e8   Section        0  stm32f1xx_it.o(i.MemManage_Handler)
    i.NMI_Handler                            0x080027ea   Section        0  stm32f1xx_it.o(i.NMI_Handler)
    i.PendSV_Handler                         0x080027ec   Section        0  stm32f1xx_it.o(i.PendSV_Handler)
    i.SVC_Handler                            0x080027ee   Section        0  stm32f1xx_it.o(i.SVC_Handler)
    i.SysTick_Handler                        0x080027f0   Section        0  stm32f1xx_it.o(i.SysTick_Handler)
    i.SystemClock_Config                     0x080027f4   Section        0  main.o(i.SystemClock_Config)
    i.SystemInit                             0x08002852   Section        0  system_stm32f1xx.o(i.SystemInit)
    i.UART_DMAAbortOnError                   0x08002854   Section        0  stm32f1xx_hal_uart.o(i.UART_DMAAbortOnError)
    UART_DMAAbortOnError                     0x08002855   Thumb Code    16  stm32f1xx_hal_uart.o(i.UART_DMAAbortOnError)
    i.UART_DMAError                          0x08002864   Section        0  stm32f1xx_hal_uart.o(i.UART_DMAError)
    UART_DMAError                            0x08002865   Thumb Code    74  stm32f1xx_hal_uart.o(i.UART_DMAError)
    i.UART_DMATransmitCplt                   0x080028ae   Section        0  stm32f1xx_hal_uart.o(i.UART_DMATransmitCplt)
    UART_DMATransmitCplt                     0x080028af   Thumb Code    66  stm32f1xx_hal_uart.o(i.UART_DMATransmitCplt)
    i.UART_DMATxHalfCplt                     0x080028f0   Section        0  stm32f1xx_hal_uart.o(i.UART_DMATxHalfCplt)
    UART_DMATxHalfCplt                       0x080028f1   Thumb Code    10  stm32f1xx_hal_uart.o(i.UART_DMATxHalfCplt)
    i.UART_EndRxTransfer                     0x080028fa   Section        0  stm32f1xx_hal_uart.o(i.UART_EndRxTransfer)
    UART_EndRxTransfer                       0x080028fb   Thumb Code    78  stm32f1xx_hal_uart.o(i.UART_EndRxTransfer)
    i.UART_EndTxTransfer                     0x08002948   Section        0  stm32f1xx_hal_uart.o(i.UART_EndTxTransfer)
    UART_EndTxTransfer                       0x08002949   Thumb Code    28  stm32f1xx_hal_uart.o(i.UART_EndTxTransfer)
    i.UART_Receive_IT                        0x08002964   Section        0  stm32f1xx_hal_uart.o(i.UART_Receive_IT)
    UART_Receive_IT                          0x08002965   Thumb Code   194  stm32f1xx_hal_uart.o(i.UART_Receive_IT)
    i.UART_SetConfig                         0x08002a28   Section        0  stm32f1xx_hal_uart.o(i.UART_SetConfig)
    UART_SetConfig                           0x08002a29   Thumb Code   178  stm32f1xx_hal_uart.o(i.UART_SetConfig)
    i.UART_WaitOnFlagUntilTimeout            0x08002ae0   Section        0  stm32f1xx_hal_uart.o(i.UART_WaitOnFlagUntilTimeout)
    UART_WaitOnFlagUntilTimeout              0x08002ae1   Thumb Code   120  stm32f1xx_hal_uart.o(i.UART_WaitOnFlagUntilTimeout)
    i.USART1_IRQHandler                      0x08002b58   Section        0  stm32f1xx_it.o(i.USART1_IRQHandler)
    i.UsageFault_Handler                     0x08002b64   Section        0  stm32f1xx_it.o(i.UsageFault_Handler)
    i.__0printf                              0x08002b68   Section        0  printfa.o(i.__0printf)
    i.__0snprintf                            0x08002b88   Section        0  printfa.o(i.__0snprintf)
    i.__NVIC_SetPriority                     0x08002bb8   Section        0  stm32f1xx_hal_cortex.o(i.__NVIC_SetPriority)
    __NVIC_SetPriority                       0x08002bb9   Thumb Code    32  stm32f1xx_hal_cortex.o(i.__NVIC_SetPriority)
    i.__scatterload_copy                     0x08002bd8   Section       14  handlers.o(i.__scatterload_copy)
    i.__scatterload_null                     0x08002be6   Section        2  handlers.o(i.__scatterload_null)
    i.__scatterload_zeroinit                 0x08002be8   Section       14  handlers.o(i.__scatterload_zeroinit)
    i._fp_digits                             0x08002bf8   Section        0  printfa.o(i._fp_digits)
    _fp_digits                               0x08002bf9   Thumb Code   366  printfa.o(i._fp_digits)
    i._printf_core                           0x08002d7c   Section        0  printfa.o(i._printf_core)
    _printf_core                             0x08002d7d   Thumb Code  1744  printfa.o(i._printf_core)
    i._printf_post_padding                   0x08003458   Section        0  printfa.o(i._printf_post_padding)
    _printf_post_padding                     0x08003459   Thumb Code    36  printfa.o(i._printf_post_padding)
    i._printf_pre_padding                    0x0800347c   Section        0  printfa.o(i._printf_pre_padding)
    _printf_pre_padding                      0x0800347d   Thumb Code    46  printfa.o(i._printf_pre_padding)
    i._snputc                                0x080034aa   Section        0  printfa.o(i._snputc)
    _snputc                                  0x080034ab   Thumb Code    22  printfa.o(i._snputc)
    i.accel_self_test                        0x080034c0   Section        0  inv_mpu.o(i.accel_self_test)
    accel_self_test                          0x080034c1   Thumb Code   114  inv_mpu.o(i.accel_self_test)
    i.dmp_enable_6x_lp_quat                  0x08003540   Section        0  inv_mpu_dmp_motion_driver.o(i.dmp_enable_6x_lp_quat)
    i.dmp_enable_feature                     0x0800357c   Section        0  inv_mpu_dmp_motion_driver.o(i.dmp_enable_feature)
    i.dmp_enable_gyro_cal                    0x08003754   Section        0  inv_mpu_dmp_motion_driver.o(i.dmp_enable_gyro_cal)
    i.dmp_enable_lp_quat                     0x08003790   Section        0  inv_mpu_dmp_motion_driver.o(i.dmp_enable_lp_quat)
    i.dmp_load_motion_driver_firmware        0x080037cc   Section        0  inv_mpu_dmp_motion_driver.o(i.dmp_load_motion_driver_firmware)
    i.dmp_read_fifo                          0x080037e0   Section        0  inv_mpu_dmp_motion_driver.o(i.dmp_read_fifo)
    i.dmp_set_accel_bias                     0x08003924   Section        0  inv_mpu_dmp_motion_driver.o(i.dmp_set_accel_bias)
    i.dmp_set_fifo_rate                      0x080039fc   Section        0  inv_mpu_dmp_motion_driver.o(i.dmp_set_fifo_rate)
    i.dmp_set_gyro_bias                      0x08003a60   Section        0  inv_mpu_dmp_motion_driver.o(i.dmp_set_gyro_bias)
    i.dmp_set_orientation                    0x08003b2c   Section        0  inv_mpu_dmp_motion_driver.o(i.dmp_set_orientation)
    i.dmp_set_shake_reject_thresh            0x08003c38   Section        0  inv_mpu_dmp_motion_driver.o(i.dmp_set_shake_reject_thresh)
    i.dmp_set_shake_reject_time              0x08003c68   Section        0  inv_mpu_dmp_motion_driver.o(i.dmp_set_shake_reject_time)
    i.dmp_set_shake_reject_timeout           0x08003c88   Section        0  inv_mpu_dmp_motion_driver.o(i.dmp_set_shake_reject_timeout)
    i.dmp_set_tap_axes                       0x08003ca8   Section        0  inv_mpu_dmp_motion_driver.o(i.dmp_set_tap_axes)
    i.dmp_set_tap_count                      0x08003ce8   Section        0  inv_mpu_dmp_motion_driver.o(i.dmp_set_tap_count)
    i.dmp_set_tap_thresh                     0x08003d0c   Section        0  inv_mpu_dmp_motion_driver.o(i.dmp_set_tap_thresh)
    i.dmp_set_tap_time                       0x08003e34   Section        0  inv_mpu_dmp_motion_driver.o(i.dmp_set_tap_time)
    i.dmp_set_tap_time_multi                 0x08003e54   Section        0  inv_mpu_dmp_motion_driver.o(i.dmp_set_tap_time_multi)
    i.fputc                                  0x08003e74   Section        0  usart.o(i.fputc)
    i.get_accel_prod_shift                   0x08003e8c   Section        0  inv_mpu.o(i.get_accel_prod_shift)
    get_accel_prod_shift                     0x08003e8d   Thumb Code   158  inv_mpu.o(i.get_accel_prod_shift)
    i.get_st_biases                          0x08003f38   Section        0  inv_mpu.o(i.get_st_biases)
    get_st_biases                            0x08003f39   Thumb Code   784  inv_mpu.o(i.get_st_biases)
    i.gyro_self_test                         0x0800424c   Section        0  inv_mpu.o(i.gyro_self_test)
    gyro_self_test                           0x0800424d   Thumb Code   190  inv_mpu.o(i.gyro_self_test)
    i.inv_orientation_matrix_to_scalar       0x08004320   Section        0  inv_mpu.o(i.inv_orientation_matrix_to_scalar)
    i.inv_row_2_scale                        0x08004342   Section        0  inv_mpu.o(i.inv_row_2_scale)
    i.main                                   0x0800438c   Section        0  main.o(i.main)
    i.mget_ms                                0x08004400   Section        0  inv_mpu.o(i.mget_ms)
    i.mpu_configure_fifo                     0x08004404   Section        0  inv_mpu.o(i.mpu_configure_fifo)
    i.mpu_dmp_get_data                       0x08004458   Section        0  inv_mpu.o(i.mpu_dmp_get_data)
    i.mpu_dmp_init                           0x080044d0   Section        0  inv_mpu.o(i.mpu_dmp_init)
    i.mpu_get_accel_fsr                      0x08004570   Section        0  inv_mpu.o(i.mpu_get_accel_fsr)
    i.mpu_get_accel_sens                     0x080045ac   Section        0  inv_mpu.o(i.mpu_get_accel_sens)
    i.mpu_get_gyro_fsr                       0x080045f0   Section        0  inv_mpu.o(i.mpu_get_gyro_fsr)
    i.mpu_get_gyro_sens                      0x08004624   Section        0  inv_mpu.o(i.mpu_get_gyro_sens)
    i.mpu_get_lpf                            0x08004664   Section        0  inv_mpu.o(i.mpu_get_lpf)
    i.mpu_get_sample_rate                    0x0800469c   Section        0  inv_mpu.o(i.mpu_get_sample_rate)
    i.mpu_init                               0x080046b8   Section        0  inv_mpu.o(i.mpu_init)
    i.mpu_load_firmware                      0x08004840   Section        0  inv_mpu.o(i.mpu_load_firmware)
    i.mpu_lp_accel_mode                      0x080048e0   Section        0  inv_mpu.o(i.mpu_lp_accel_mode)
    i.mpu_read_fifo_stream                   0x08004998   Section        0  inv_mpu.o(i.mpu_read_fifo_stream)
    i.mpu_read_mem                           0x08004a28   Section        0  inv_mpu.o(i.mpu_read_mem)
    i.mpu_reset_fifo                         0x08004a7c   Section        0  inv_mpu.o(i.mpu_reset_fifo)
    i.mpu_run_self_test                      0x08004bdc   Section        0  inv_mpu.o(i.mpu_run_self_test)
    i.mpu_set_accel_fsr                      0x08004ccc   Section        0  inv_mpu.o(i.mpu_set_accel_fsr)
    i.mpu_set_bypass                         0x08004d34   Section        0  inv_mpu.o(i.mpu_set_bypass)
    i.mpu_set_dmp_state                      0x08004e10   Section        0  inv_mpu.o(i.mpu_set_dmp_state)
    i.mpu_set_gyro_fsr                       0x08004e88   Section        0  inv_mpu.o(i.mpu_set_gyro_fsr)
    i.mpu_set_int_latched                    0x08004ef4   Section        0  inv_mpu.o(i.mpu_set_int_latched)
    i.mpu_set_lpf                            0x08004f58   Section        0  inv_mpu.o(i.mpu_set_lpf)
    i.mpu_set_sample_rate                    0x08004fc4   Section        0  inv_mpu.o(i.mpu_set_sample_rate)
    i.mpu_set_sensors                        0x08005044   Section        0  inv_mpu.o(i.mpu_set_sensors)
    i.mpu_write_mem                          0x080050fc   Section        0  inv_mpu.o(i.mpu_write_mem)
    i.run_self_test                          0x08005150   Section        0  inv_mpu.o(i.run_self_test)
    i.selectPort                             0x080051d0   Section        0  pca9548.o(i.selectPort)
    i.sentData_Uart                          0x080051f8   Section        0  main.o(i.sentData_Uart)
    i.set_int_enable                         0x080052bc   Section        0  inv_mpu.o(i.set_int_enable)
    set_int_enable                           0x080052bd   Thumb Code    84  inv_mpu.o(i.set_int_enable)
    .constdata                               0x08005314   Section       18  stm32f1xx_hal_rcc.o(.constdata)
    aPredivFactorTable                       0x08005314   Data           2  stm32f1xx_hal_rcc.o(.constdata)
    aPLLMULFactorTable                       0x08005316   Data          16  stm32f1xx_hal_rcc.o(.constdata)
    .constdata                               0x08005326   Section       16  system_stm32f1xx.o(.constdata)
    .constdata                               0x08005336   Section        8  system_stm32f1xx.o(.constdata)
    .constdata                               0x0800533e   Section       27  inv_mpu.o(.constdata)
    .constdata                               0x0800535a   Section       12  inv_mpu.o(.constdata)
    .constdata                               0x08005368   Section       40  inv_mpu.o(.constdata)
    .constdata                               0x08005390   Section     3062  inv_mpu_dmp_motion_driver.o(.constdata)
    dmp_memory                               0x08005390   Data        3062  inv_mpu_dmp_motion_driver.o(.constdata)
    .conststring                             0x08005f88   Section       77  inv_mpu.o(.conststring)
    .data                                    0x20000000   Section       12  stm32f1xx_hal.o(.data)
    .data                                    0x2000000c   Section        4  system_stm32f1xx.o(.data)
    .data                                    0x20000010   Section       53  inv_mpu.o(.data)
    st                                       0x20000010   Data          44  inv_mpu.o(.data)
    gyro_orientation                         0x2000003c   Data           9  inv_mpu.o(.data)
    .data                                    0x20000048   Section        4  stdout.o(.data)
    .bss                                     0x2000004c   Section      116  main.o(.bss)
    .bss                                     0x200000c0   Section       84  i2c.o(.bss)
    .bss                                     0x20000114   Section      140  usart.o(.bss)
    .bss                                     0x200001a0   Section       16  inv_mpu_dmp_motion_driver.o(.bss)
    dmp                                      0x200001a0   Data          16  inv_mpu_dmp_motion_driver.o(.bss)
    STACK                                    0x200001b0   Section     1024  startup_stm32f103xb.o(STACK)

    Global Symbols

    Symbol Name                              Value     Ov Type        Size  Object(Section)

    BuildAttributes$$THM_ISAv4$P$D$K$B$S$PE$A:L22UL41UL21$X:L11$S22US41US21$IEEE1$IW$USESV6$~STKCKD$USESV7$~SHL$OTIME$ROPI$EBA8$MICROLIB$REQ8$PRES8$EABIv2 0x00000000   Number         0  anon$$obj.o ABSOLUTE
    __ARM_use_no_argv                        0x00000000   Number         0  main.o ABSOLUTE
    _printf_a                                0x00000000   Number         0  stubs.o ABSOLUTE
    _printf_c                                0x00000000   Number         0  stubs.o ABSOLUTE
    _printf_charcount                        0x00000000   Number         0  stubs.o ABSOLUTE
    _printf_d                                0x00000000   Number         0  stubs.o ABSOLUTE
    _printf_e                                0x00000000   Number         0  stubs.o ABSOLUTE
    _printf_f                                0x00000000   Number         0  stubs.o ABSOLUTE
    _printf_flags                            0x00000000   Number         0  stubs.o ABSOLUTE
    _printf_fp_dec                           0x00000000   Number         0  stubs.o ABSOLUTE
    _printf_fp_hex                           0x00000000   Number         0  stubs.o ABSOLUTE
    _printf_g                                0x00000000   Number         0  stubs.o ABSOLUTE
    _printf_i                                0x00000000   Number         0  stubs.o ABSOLUTE
    _printf_int_dec                          0x00000000   Number         0  stubs.o ABSOLUTE
    _printf_l                                0x00000000   Number         0  stubs.o ABSOLUTE
    _printf_lc                               0x00000000   Number         0  stubs.o ABSOLUTE
    _printf_ll                               0x00000000   Number         0  stubs.o ABSOLUTE
    _printf_lld                              0x00000000   Number         0  stubs.o ABSOLUTE
    _printf_lli                              0x00000000   Number         0  stubs.o ABSOLUTE
    _printf_llo                              0x00000000   Number         0  stubs.o ABSOLUTE
    _printf_llu                              0x00000000   Number         0  stubs.o ABSOLUTE
    _printf_llx                              0x00000000   Number         0  stubs.o ABSOLUTE
    _printf_longlong_dec                     0x00000000   Number         0  stubs.o ABSOLUTE
    _printf_longlong_hex                     0x00000000   Number         0  stubs.o ABSOLUTE
    _printf_longlong_oct                     0x00000000   Number         0  stubs.o ABSOLUTE
    _printf_ls                               0x00000000   Number         0  stubs.o ABSOLUTE
    _printf_mbtowc                           0x00000000   Number         0  stubs.o ABSOLUTE
    _printf_n                                0x00000000   Number         0  stubs.o ABSOLUTE
    _printf_o                                0x00000000   Number         0  stubs.o ABSOLUTE
    _printf_p                                0x00000000   Number         0  stubs.o ABSOLUTE
    _printf_percent                          0x00000000   Number         0  stubs.o ABSOLUTE
    _printf_pre_padding                      0x00000000   Number         0  stubs.o ABSOLUTE
    _printf_return_value                     0x00000000   Number         0  stubs.o ABSOLUTE
    _printf_s                                0x00000000   Number         0  stubs.o ABSOLUTE
    _printf_sizespec                         0x00000000   Number         0  stubs.o ABSOLUTE
    _printf_str                              0x00000000   Number         0  stubs.o ABSOLUTE
    _printf_truncate_signed                  0x00000000   Number         0  stubs.o ABSOLUTE
    _printf_truncate_unsigned                0x00000000   Number         0  stubs.o ABSOLUTE
    _printf_u                                0x00000000   Number         0  stubs.o ABSOLUTE
    _printf_wc                               0x00000000   Number         0  stubs.o ABSOLUTE
    _printf_wctomb                           0x00000000   Number         0  stubs.o ABSOLUTE
    _printf_widthprec                        0x00000000   Number         0  stubs.o ABSOLUTE
    _printf_x                                0x00000000   Number         0  stubs.o ABSOLUTE
    __cpp_initialize__aeabi_                  - Undefined Weak Reference
    __cxa_finalize                            - Undefined Weak Reference
    __decompress                              - Undefined Weak Reference
    _clock_init                               - Undefined Weak Reference
    _microlib_exit                            - Undefined Weak Reference
    __Vectors_Size                           0x000000ec   Number         0  startup_stm32f103xb.o ABSOLUTE
    __Vectors                                0x08000000   Data           4  startup_stm32f103xb.o(RESET)
    __Vectors_End                            0x080000ec   Data           0  startup_stm32f103xb.o(RESET)
    __main                                   0x080000ed   Thumb Code     0  entry.o(.ARM.Collect$$$$00000000)
    _main_stk                                0x080000ed   Thumb Code     0  entry2.o(.ARM.Collect$$$$00000001)
    _main_scatterload                        0x080000f1   Thumb Code     0  entry5.o(.ARM.Collect$$$$00000004)
    __main_after_scatterload                 0x080000f5   Thumb Code     0  entry5.o(.ARM.Collect$$$$00000004)
    _main_clock                              0x080000f5   Thumb Code     0  entry7b.o(.ARM.Collect$$$$00000008)
    _main_cpp_init                           0x080000f5   Thumb Code     0  entry8b.o(.ARM.Collect$$$$0000000A)
    _main_init                               0x080000f5   Thumb Code     0  entry9a.o(.ARM.Collect$$$$0000000B)
    __rt_final_cpp                           0x080000fd   Thumb Code     0  entry10a.o(.ARM.Collect$$$$0000000D)
    __rt_final_exit                          0x080000fd   Thumb Code     0  entry11a.o(.ARM.Collect$$$$0000000F)
    Reset_Handler                            0x08000101   Thumb Code     8  startup_stm32f103xb.o(.text)
    ADC1_2_IRQHandler                        0x0800011b   Thumb Code     0  startup_stm32f103xb.o(.text)
    CAN1_RX1_IRQHandler                      0x0800011b   Thumb Code     0  startup_stm32f103xb.o(.text)
    CAN1_SCE_IRQHandler                      0x0800011b   Thumb Code     0  startup_stm32f103xb.o(.text)
    DMA1_Channel1_IRQHandler                 0x0800011b   Thumb Code     0  startup_stm32f103xb.o(.text)
    DMA1_Channel2_IRQHandler                 0x0800011b   Thumb Code     0  startup_stm32f103xb.o(.text)
    DMA1_Channel3_IRQHandler                 0x0800011b   Thumb Code     0  startup_stm32f103xb.o(.text)
    DMA1_Channel5_IRQHandler                 0x0800011b   Thumb Code     0  startup_stm32f103xb.o(.text)
    DMA1_Channel6_IRQHandler                 0x0800011b   Thumb Code     0  startup_stm32f103xb.o(.text)
    DMA1_Channel7_IRQHandler                 0x0800011b   Thumb Code     0  startup_stm32f103xb.o(.text)
    EXTI0_IRQHandler                         0x0800011b   Thumb Code     0  startup_stm32f103xb.o(.text)
    EXTI15_10_IRQHandler                     0x0800011b   Thumb Code     0  startup_stm32f103xb.o(.text)
    EXTI1_IRQHandler                         0x0800011b   Thumb Code     0  startup_stm32f103xb.o(.text)
    EXTI2_IRQHandler                         0x0800011b   Thumb Code     0  startup_stm32f103xb.o(.text)
    EXTI3_IRQHandler                         0x0800011b   Thumb Code     0  startup_stm32f103xb.o(.text)
    EXTI4_IRQHandler                         0x0800011b   Thumb Code     0  startup_stm32f103xb.o(.text)
    EXTI9_5_IRQHandler                       0x0800011b   Thumb Code     0  startup_stm32f103xb.o(.text)
    FLASH_IRQHandler                         0x0800011b   Thumb Code     0  startup_stm32f103xb.o(.text)
    I2C1_ER_IRQHandler                       0x0800011b   Thumb Code     0  startup_stm32f103xb.o(.text)
    I2C1_EV_IRQHandler                       0x0800011b   Thumb Code     0  startup_stm32f103xb.o(.text)
    I2C2_ER_IRQHandler                       0x0800011b   Thumb Code     0  startup_stm32f103xb.o(.text)
    I2C2_EV_IRQHandler                       0x0800011b   Thumb Code     0  startup_stm32f103xb.o(.text)
    PVD_IRQHandler                           0x0800011b   Thumb Code     0  startup_stm32f103xb.o(.text)
    RCC_IRQHandler                           0x0800011b   Thumb Code     0  startup_stm32f103xb.o(.text)
    RTC_Alarm_IRQHandler                     0x0800011b   Thumb Code     0  startup_stm32f103xb.o(.text)
    RTC_IRQHandler                           0x0800011b   Thumb Code     0  startup_stm32f103xb.o(.text)
    SPI1_IRQHandler                          0x0800011b   Thumb Code     0  startup_stm32f103xb.o(.text)
    SPI2_IRQHandler                          0x0800011b   Thumb Code     0  startup_stm32f103xb.o(.text)
    TAMPER_IRQHandler                        0x0800011b   Thumb Code     0  startup_stm32f103xb.o(.text)
    TIM1_BRK_IRQHandler                      0x0800011b   Thumb Code     0  startup_stm32f103xb.o(.text)
    TIM1_CC_IRQHandler                       0x0800011b   Thumb Code     0  startup_stm32f103xb.o(.text)
    TIM1_TRG_COM_IRQHandler                  0x0800011b   Thumb Code     0  startup_stm32f103xb.o(.text)
    TIM1_UP_IRQHandler                       0x0800011b   Thumb Code     0  startup_stm32f103xb.o(.text)
    TIM2_IRQHandler                          0x0800011b   Thumb Code     0  startup_stm32f103xb.o(.text)
    TIM3_IRQHandler                          0x0800011b   Thumb Code     0  startup_stm32f103xb.o(.text)
    TIM4_IRQHandler                          0x0800011b   Thumb Code     0  startup_stm32f103xb.o(.text)
    USART2_IRQHandler                        0x0800011b   Thumb Code     0  startup_stm32f103xb.o(.text)
    USART3_IRQHandler                        0x0800011b   Thumb Code     0  startup_stm32f103xb.o(.text)
    USBWakeUp_IRQHandler                     0x0800011b   Thumb Code     0  startup_stm32f103xb.o(.text)
    USB_HP_CAN1_TX_IRQHandler                0x0800011b   Thumb Code     0  startup_stm32f103xb.o(.text)
    USB_LP_CAN1_RX0_IRQHandler               0x0800011b   Thumb Code     0  startup_stm32f103xb.o(.text)
    WWDG_IRQHandler                          0x0800011b   Thumb Code     0  startup_stm32f103xb.o(.text)
    __aeabi_ldivmod                          0x08000125   Thumb Code    98  ldiv.o(.text)
    __aeabi_llsr                             0x08000187   Thumb Code    32  llushr.o(.text)
    _ll_ushift_r                             0x08000187   Thumb Code     0  llushr.o(.text)
    __aeabi_memset                           0x080001a7   Thumb Code    14  memseta.o(.text)
    __aeabi_memset4                          0x080001a7   Thumb Code     0  memseta.o(.text)
    __aeabi_memset8                          0x080001a7   Thumb Code     0  memseta.o(.text)
    __aeabi_memclr                           0x080001b5   Thumb Code     4  memseta.o(.text)
    __aeabi_memclr4                          0x080001b5   Thumb Code     0  memseta.o(.text)
    __aeabi_memclr8                          0x080001b5   Thumb Code     0  memseta.o(.text)
    _memset$wrapper                          0x080001b9   Thumb Code    18  memseta.o(.text)
    strlen                                   0x080001cb   Thumb Code    14  strlen.o(.text)
    memcmp                                   0x080001d9   Thumb Code    26  memcmp.o(.text)
    __aeabi_fadd                             0x080001f3   Thumb Code   164  fadd.o(.text)
    __aeabi_fsub                             0x08000297   Thumb Code     6  fadd.o(.text)
    __aeabi_frsub                            0x0800029d   Thumb Code     6  fadd.o(.text)
    __aeabi_fmul                             0x080002a3   Thumb Code   100  fmul.o(.text)
    __aeabi_fdiv                             0x08000307   Thumb Code   124  fdiv.o(.text)
    __ARM_scalbnf                            0x08000383   Thumb Code    24  fscalb.o(.text)
    scalbnf                                  0x08000383   Thumb Code     0  fscalb.o(.text)
    __aeabi_dadd                             0x0800039b   Thumb Code   322  dadd.o(.text)
    __aeabi_dsub                             0x080004dd   Thumb Code     6  dadd.o(.text)
    __aeabi_drsub                            0x080004e3   Thumb Code     6  dadd.o(.text)
    __aeabi_ddiv                             0x080004e9   Thumb Code   222  ddiv.o(.text)
    __aeabi_i2f                              0x080005c7   Thumb Code    18  fflti.o(.text)
    __aeabi_ui2f                             0x080005d9   Thumb Code    10  ffltui.o(.text)
    __aeabi_f2iz                             0x080005e3   Thumb Code    50  ffixi.o(.text)
    __aeabi_f2uiz                            0x08000615   Thumb Code    40  ffixui.o(.text)
    __aeabi_f2d                              0x0800063d   Thumb Code    38  f2d.o(.text)
    __aeabi_uidiv                            0x08000663   Thumb Code     0  uidiv.o(.text)
    __aeabi_uidivmod                         0x08000663   Thumb Code    44  uidiv.o(.text)
    __aeabi_uldivmod                         0x0800068f   Thumb Code    98  uldiv.o(.text)
    __aeabi_llsl                             0x080006f1   Thumb Code    30  llshl.o(.text)
    _ll_shift_l                              0x080006f1   Thumb Code     0  llshl.o(.text)
    __aeabi_lasr                             0x0800070f   Thumb Code    36  llsshr.o(.text)
    _ll_sshift_r                             0x0800070f   Thumb Code     0  llsshr.o(.text)
    __I$use$fp                               0x08000733   Thumb Code     0  iusefp.o(.text)
    _float_round                             0x08000733   Thumb Code    18  fepilogue.o(.text)
    _float_epilogue                          0x08000745   Thumb Code    92  fepilogue.o(.text)
    _double_round                            0x080007a1   Thumb Code    30  depilogue.o(.text)
    _double_epilogue                         0x080007bf   Thumb Code   156  depilogue.o(.text)
    __aeabi_dmul                             0x0800085b   Thumb Code   228  dmul.o(.text)
    __aeabi_d2ulz                            0x0800093f   Thumb Code    48  dfixul.o(.text)
    __aeabi_cdrcmple                         0x08000971   Thumb Code    48  cdrcmple.o(.text)
    __scatterload                            0x080009a1   Thumb Code    28  init.o(.text)
    __scatterload_rt2                        0x080009a1   Thumb Code     0  init.o(.text)
    BusFault_Handler                         0x080009c5   Thumb Code     2  stm32f1xx_it.o(i.BusFault_Handler)
    DMA1_Channel4_IRQHandler                 0x080009c9   Thumb Code     6  stm32f1xx_it.o(i.DMA1_Channel4_IRQHandler)
    DMP_Read_Len                             0x08000a01   Thumb Code    38  mpu6050.o(i.DMP_Read_Len)
    DMP_Write_Len                            0x08000a2d   Thumb Code    38  mpu6050.o(i.DMP_Write_Len)
    DebugMon_Handler                         0x08000a59   Thumb Code     2  stm32f1xx_it.o(i.DebugMon_Handler)
    Error_Handler                            0x08000a5b   Thumb Code     4  main.o(i.Error_Handler)
    HAL_DMA_Abort                            0x08000a5f   Thumb Code    70  stm32f1xx_hal_dma.o(i.HAL_DMA_Abort)
    HAL_DMA_Abort_IT                         0x08000aa5   Thumb Code   148  stm32f1xx_hal_dma.o(i.HAL_DMA_Abort_IT)
    HAL_DMA_IRQHandler                       0x08000b3d   Thumb Code   316  stm32f1xx_hal_dma.o(i.HAL_DMA_IRQHandler)
    HAL_DMA_Init                             0x08000c91   Thumb Code    84  stm32f1xx_hal_dma.o(i.HAL_DMA_Init)
    HAL_DMA_Start_IT                         0x08000ced   Thumb Code   112  stm32f1xx_hal_dma.o(i.HAL_DMA_Start_IT)
    HAL_Delay                                0x08000d5d   Thumb Code    32  stm32f1xx_hal.o(i.HAL_Delay)
    HAL_GPIO_Init                            0x08000d81   Thumb Code   446  stm32f1xx_hal_gpio.o(i.HAL_GPIO_Init)
    HAL_GetTick                              0x08000f61   Thumb Code     6  stm32f1xx_hal.o(i.HAL_GetTick)
    HAL_I2C_Init                             0x08000f6d   Thumb Code   376  stm32f1xx_hal_i2c.o(i.HAL_I2C_Init)
    HAL_I2C_Master_Transmit                  0x080010f5   Thumb Code   290  stm32f1xx_hal_i2c.o(i.HAL_I2C_Master_Transmit)
    HAL_I2C_Mem_Read                         0x08001221   Thumb Code   574  stm32f1xx_hal_i2c.o(i.HAL_I2C_Mem_Read)
    HAL_I2C_Mem_Write                        0x08001471   Thumb Code   294  stm32f1xx_hal_i2c.o(i.HAL_I2C_Mem_Write)
    HAL_I2C_MspInit                          0x080015a1   Thumb Code    80  i2c.o(i.HAL_I2C_MspInit)
    HAL_IncTick                              0x080015fd   Thumb Code    12  stm32f1xx_hal.o(i.HAL_IncTick)
    HAL_Init                                 0x0800160d   Thumb Code    32  stm32f1xx_hal.o(i.HAL_Init)
    HAL_InitTick                             0x08001631   Thumb Code    54  stm32f1xx_hal.o(i.HAL_InitTick)
    HAL_MspInit                              0x08001671   Thumb Code    52  stm32f1xx_hal_msp.o(i.HAL_MspInit)
    HAL_NVIC_EnableIRQ                       0x080016ad   Thumb Code    26  stm32f1xx_hal_cortex.o(i.HAL_NVIC_EnableIRQ)
    HAL_NVIC_SetPriority                     0x080016c9   Thumb Code    60  stm32f1xx_hal_cortex.o(i.HAL_NVIC_SetPriority)
    HAL_NVIC_SetPriorityGrouping             0x08001709   Thumb Code    26  stm32f1xx_hal_cortex.o(i.HAL_NVIC_SetPriorityGrouping)
    HAL_RCC_ClockConfig                      0x0800172d   Thumb Code   280  stm32f1xx_hal_rcc.o(i.HAL_RCC_ClockConfig)
    HAL_RCC_GetPCLK1Freq                     0x08001859   Thumb Code    20  stm32f1xx_hal_rcc.o(i.HAL_RCC_GetPCLK1Freq)
    HAL_RCC_GetPCLK2Freq                     0x08001879   Thumb Code    20  stm32f1xx_hal_rcc.o(i.HAL_RCC_GetPCLK2Freq)
    HAL_RCC_GetSysClockFreq                  0x08001899   Thumb Code    58  stm32f1xx_hal_rcc.o(i.HAL_RCC_GetSysClockFreq)
    HAL_RCC_OscConfig                        0x080018e5   Thumb Code   778  stm32f1xx_hal_rcc.o(i.HAL_RCC_OscConfig)
    HAL_SYSTICK_Config                       0x08001c05   Thumb Code    40  stm32f1xx_hal_cortex.o(i.HAL_SYSTICK_Config)
    HAL_UARTEx_RxEventCallback               0x08001c2d   Thumb Code     2  stm32f1xx_hal_uart.o(i.HAL_UARTEx_RxEventCallback)
    HAL_UART_ErrorCallback                   0x08001c2f   Thumb Code     2  stm32f1xx_hal_uart.o(i.HAL_UART_ErrorCallback)
    HAL_UART_IRQHandler                      0x08001c31   Thumb Code   616  stm32f1xx_hal_uart.o(i.HAL_UART_IRQHandler)
    HAL_UART_Init                            0x08001e9d   Thumb Code   100  stm32f1xx_hal_uart.o(i.HAL_UART_Init)
    HAL_UART_MspInit                         0x08001f01   Thumb Code   158  usart.o(i.HAL_UART_MspInit)
    HAL_UART_RxCpltCallback                  0x08001fb5   Thumb Code     2  stm32f1xx_hal_uart.o(i.HAL_UART_RxCpltCallback)
    HAL_UART_Transmit                        0x08001fb7   Thumb Code   154  stm32f1xx_hal_uart.o(i.HAL_UART_Transmit)
    HAL_UART_Transmit_DMA                    0x08002051   Thumb Code   106  stm32f1xx_hal_uart.o(i.HAL_UART_Transmit_DMA)
    HAL_UART_TxCpltCallback                  0x080020c9   Thumb Code     2  stm32f1xx_hal_uart.o(i.HAL_UART_TxCpltCallback)
    HAL_UART_TxHalfCpltCallback              0x080020cb   Thumb Code     2  stm32f1xx_hal_uart.o(i.HAL_UART_TxHalfCpltCallback)
    HardFault_Handler                        0x080020cd   Thumb Code     2  stm32f1xx_it.o(i.HardFault_Handler)
    MPU_Init                                 0x080025a7   Thumb Code   114  mpu6050.o(i.MPU_Init)
    MPU_Read_Byte                            0x08002619   Thumb Code    52  mpu6050.o(i.MPU_Read_Byte)
    MPU_Set_Accel_Fsr                        0x08002651   Thumb Code    10  mpu6050.o(i.MPU_Set_Accel_Fsr)
    MPU_Set_Gyro_Fsr                         0x0800265b   Thumb Code    10  mpu6050.o(i.MPU_Set_Gyro_Fsr)
    MPU_Set_LPF                              0x08002665   Thumb Code    48  mpu6050.o(i.MPU_Set_LPF)
    MPU_Set_Rate                             0x08002695   Thumb Code    46  mpu6050.o(i.MPU_Set_Rate)
    MPU_Write_Byte                           0x080026c5   Thumb Code    46  mpu6050.o(i.MPU_Write_Byte)
    MX_DMA_Init                              0x080026f9   Thumb Code    40  dma.o(i.MX_DMA_Init)
    MX_GPIO_Init                             0x08002725   Thumb Code    70  gpio.o(i.MX_GPIO_Init)
    MX_I2C1_Init                             0x08002771   Thumb Code    50  i2c.o(i.MX_I2C1_Init)
    MX_USART1_UART_Init                      0x080027b1   Thumb Code    48  usart.o(i.MX_USART1_UART_Init)
    MemManage_Handler                        0x080027e9   Thumb Code     2  stm32f1xx_it.o(i.MemManage_Handler)
    NMI_Handler                              0x080027eb   Thumb Code     2  stm32f1xx_it.o(i.NMI_Handler)
    PendSV_Handler                           0x080027ed   Thumb Code     2  stm32f1xx_it.o(i.PendSV_Handler)
    SVC_Handler                              0x080027ef   Thumb Code     2  stm32f1xx_it.o(i.SVC_Handler)
    SysTick_Handler                          0x080027f1   Thumb Code     4  stm32f1xx_it.o(i.SysTick_Handler)
    SystemClock_Config                       0x080027f5   Thumb Code    94  main.o(i.SystemClock_Config)
    SystemInit                               0x08002853   Thumb Code     2  system_stm32f1xx.o(i.SystemInit)
    USART1_IRQHandler                        0x08002b59   Thumb Code     6  stm32f1xx_it.o(i.USART1_IRQHandler)
    UsageFault_Handler                       0x08002b65   Thumb Code     2  stm32f1xx_it.o(i.UsageFault_Handler)
    __0printf                                0x08002b69   Thumb Code    22  printfa.o(i.__0printf)
    __1printf                                0x08002b69   Thumb Code     0  printfa.o(i.__0printf)
    __2printf                                0x08002b69   Thumb Code     0  printfa.o(i.__0printf)
    __c89printf                              0x08002b69   Thumb Code     0  printfa.o(i.__0printf)
    printf                                   0x08002b69   Thumb Code     0  printfa.o(i.__0printf)
    __0snprintf                              0x08002b89   Thumb Code    44  printfa.o(i.__0snprintf)
    __1snprintf                              0x08002b89   Thumb Code     0  printfa.o(i.__0snprintf)
    __2snprintf                              0x08002b89   Thumb Code     0  printfa.o(i.__0snprintf)
    __c89snprintf                            0x08002b89   Thumb Code     0  printfa.o(i.__0snprintf)
    snprintf                                 0x08002b89   Thumb Code     0  printfa.o(i.__0snprintf)
    __scatterload_copy                       0x08002bd9   Thumb Code    14  handlers.o(i.__scatterload_copy)
    __scatterload_null                       0x08002be7   Thumb Code     2  handlers.o(i.__scatterload_null)
    __scatterload_zeroinit                   0x08002be9   Thumb Code    14  handlers.o(i.__scatterload_zeroinit)
    dmp_enable_6x_lp_quat                    0x08003541   Thumb Code    58  inv_mpu_dmp_motion_driver.o(i.dmp_enable_6x_lp_quat)
    dmp_enable_feature                       0x0800357d   Thumb Code   464  inv_mpu_dmp_motion_driver.o(i.dmp_enable_feature)
    dmp_enable_gyro_cal                      0x08003755   Thumb Code    34  inv_mpu_dmp_motion_driver.o(i.dmp_enable_gyro_cal)
    dmp_enable_lp_quat                       0x08003791   Thumb Code    58  inv_mpu_dmp_motion_driver.o(i.dmp_enable_lp_quat)
    dmp_load_motion_driver_firmware          0x080037cd   Thumb Code    16  inv_mpu_dmp_motion_driver.o(i.dmp_load_motion_driver_firmware)
    dmp_read_fifo                            0x080037e1   Thumb Code   320  inv_mpu_dmp_motion_driver.o(i.dmp_read_fifo)
    dmp_set_accel_bias                       0x08003925   Thumb Code   210  inv_mpu_dmp_motion_driver.o(i.dmp_set_accel_bias)
    dmp_set_fifo_rate                        0x080039fd   Thumb Code    82  inv_mpu_dmp_motion_driver.o(i.dmp_set_fifo_rate)
    dmp_set_gyro_bias                        0x08003a61   Thumb Code   196  inv_mpu_dmp_motion_driver.o(i.dmp_set_gyro_bias)
    dmp_set_orientation                      0x08003b2d   Thumb Code   246  inv_mpu_dmp_motion_driver.o(i.dmp_set_orientation)
    dmp_set_shake_reject_thresh              0x08003c39   Thumb Code    48  inv_mpu_dmp_motion_driver.o(i.dmp_set_shake_reject_thresh)
    dmp_set_shake_reject_time                0x08003c69   Thumb Code    32  inv_mpu_dmp_motion_driver.o(i.dmp_set_shake_reject_time)
    dmp_set_shake_reject_timeout             0x08003c89   Thumb Code    32  inv_mpu_dmp_motion_driver.o(i.dmp_set_shake_reject_timeout)
    dmp_set_tap_axes                         0x08003ca9   Thumb Code    64  inv_mpu_dmp_motion_driver.o(i.dmp_set_tap_axes)
    dmp_set_tap_count                        0x08003ce9   Thumb Code    34  inv_mpu_dmp_motion_driver.o(i.dmp_set_tap_count)
    dmp_set_tap_thresh                       0x08003d0d   Thumb Code   274  inv_mpu_dmp_motion_driver.o(i.dmp_set_tap_thresh)
    dmp_set_tap_time                         0x08003e35   Thumb Code    32  inv_mpu_dmp_motion_driver.o(i.dmp_set_tap_time)
    dmp_set_tap_time_multi                   0x08003e55   Thumb Code    32  inv_mpu_dmp_motion_driver.o(i.dmp_set_tap_time_multi)
    fputc                                    0x08003e75   Thumb Code    20  usart.o(i.fputc)
    inv_orientation_matrix_to_scalar         0x08004321   Thumb Code    34  inv_mpu.o(i.inv_orientation_matrix_to_scalar)
    inv_row_2_scale                          0x08004343   Thumb Code    72  inv_mpu.o(i.inv_row_2_scale)
    main                                     0x0800438d   Thumb Code    84  main.o(i.main)
    mget_ms                                  0x08004401   Thumb Code     2  inv_mpu.o(i.mget_ms)
    mpu_configure_fifo                       0x08004405   Thumb Code    78  inv_mpu.o(i.mpu_configure_fifo)
    mpu_dmp_get_data                         0x08004459   Thumb Code   120  inv_mpu.o(i.mpu_dmp_get_data)
    mpu_dmp_init                             0x080044d1   Thumb Code   154  inv_mpu.o(i.mpu_dmp_init)
    mpu_get_accel_fsr                        0x08004571   Thumb Code    54  inv_mpu.o(i.mpu_get_accel_fsr)
    mpu_get_accel_sens                       0x080045ad   Thumb Code    62  inv_mpu.o(i.mpu_get_accel_sens)
    mpu_get_gyro_fsr                         0x080045f1   Thumb Code    48  inv_mpu.o(i.mpu_get_gyro_fsr)
    mpu_get_gyro_sens                        0x08004625   Thumb Code    44  inv_mpu.o(i.mpu_get_gyro_sens)
    mpu_get_lpf                              0x08004665   Thumb Code    52  inv_mpu.o(i.mpu_get_lpf)
    mpu_get_sample_rate                      0x0800469d   Thumb Code    22  inv_mpu.o(i.mpu_get_sample_rate)
    mpu_init                                 0x080046b9   Thumb Code   310  inv_mpu.o(i.mpu_init)
    mpu_load_firmware                        0x08004841   Thumb Code   154  inv_mpu.o(i.mpu_load_firmware)
    mpu_lp_accel_mode                        0x080048e1   Thumb Code   178  inv_mpu.o(i.mpu_lp_accel_mode)
    mpu_read_fifo_stream                     0x08004999   Thumb Code   140  inv_mpu.o(i.mpu_read_fifo_stream)
    mpu_read_mem                             0x08004a29   Thumb Code    80  inv_mpu.o(i.mpu_read_mem)
    mpu_reset_fifo                           0x08004a7d   Thumb Code   346  inv_mpu.o(i.mpu_reset_fifo)
    mpu_run_self_test                        0x08004bdd   Thumb Code   234  inv_mpu.o(i.mpu_run_self_test)
    mpu_set_accel_fsr                        0x08004ccd   Thumb Code    98  inv_mpu.o(i.mpu_set_accel_fsr)
    mpu_set_bypass                           0x08004d35   Thumb Code   214  inv_mpu.o(i.mpu_set_bypass)
    mpu_set_dmp_state                        0x08004e11   Thumb Code   114  inv_mpu.o(i.mpu_set_dmp_state)
    mpu_set_gyro_fsr                         0x08004e89   Thumb Code   104  inv_mpu.o(i.mpu_set_gyro_fsr)
    mpu_set_int_latched                      0x08004ef5   Thumb Code    94  inv_mpu.o(i.mpu_set_int_latched)
    mpu_set_lpf                              0x08004f59   Thumb Code   102  inv_mpu.o(i.mpu_set_lpf)
    mpu_set_sample_rate                      0x08004fc5   Thumb Code   124  inv_mpu.o(i.mpu_set_sample_rate)
    mpu_set_sensors                          0x08005045   Thumb Code   178  inv_mpu.o(i.mpu_set_sensors)
    mpu_write_mem                            0x080050fd   Thumb Code    80  inv_mpu.o(i.mpu_write_mem)
    run_self_test                            0x08005151   Thumb Code   128  inv_mpu.o(i.run_self_test)
    selectPort                               0x080051d1   Thumb Code    34  pca9548.o(i.selectPort)
    sentData_Uart                            0x080051f9   Thumb Code   132  main.o(i.sentData_Uart)
    AHBPrescTable                            0x08005326   Data          16  system_stm32f1xx.o(.constdata)
    APBPrescTable                            0x08005336   Data           8  system_stm32f1xx.o(.constdata)
    reg                                      0x0800533e   Data          27  inv_mpu.o(.constdata)
    hw                                       0x0800535a   Data          12  inv_mpu.o(.constdata)
    test                                     0x08005368   Data          40  inv_mpu.o(.constdata)
    Region$$Table$$Base                      0x08005fd8   Number         0  anon$$obj.o(Region$$Table)
    Region$$Table$$Limit                     0x08005ff8   Number         0  anon$$obj.o(Region$$Table)
    uwTickFreq                               0x20000000   Data           1  stm32f1xx_hal.o(.data)
    uwTickPrio                               0x20000004   Data           4  stm32f1xx_hal.o(.data)
    uwTick                                   0x20000008   Data           4  stm32f1xx_hal.o(.data)
    SystemCoreClock                          0x2000000c   Data           4  system_stm32f1xx.o(.data)
    __stdout                                 0x20000048   Data           4  stdout.o(.data)
    txBuf                                    0x2000004c   Data         100  main.o(.bss)
    quaternion                               0x200000b0   Data          16  main.o(.bss)
    hi2c1                                    0x200000c0   Data          84  i2c.o(.bss)
    huart1                                   0x20000114   Data          72  usart.o(.bss)
    hdma_usart1_tx                           0x2000015c   Data          68  usart.o(.bss)
    __initial_sp                             0x200005b0   Data           0  startup_stm32f103xb.o(STACK)



==============================================================================

Memory Map of the image

  Image Entry point : 0x080000ed

  Load Region LR_IROM1 (Base: 0x08000000, Size: 0x00006044, Max: 0x00010000, ABSOLUTE)

    Execution Region ER_IROM1 (Exec base: 0x08000000, Load base: 0x08000000, Size: 0x00005ff8, Max: 0x00010000, ABSOLUTE)

    Exec Addr    Load Addr    Size         Type   Attr      Idx    E Section Name        Object

    0x08000000   0x08000000   0x000000ec   Data   RO            3    RESET               startup_stm32f103xb.o
    0x080000ec   0x080000ec   0x00000000   Code   RO         2993  * .ARM.Collect$$$$00000000  mc_w.l(entry.o)
    0x080000ec   0x080000ec   0x00000004   Code   RO         3293    .ARM.Collect$$$$00000001  mc_w.l(entry2.o)
    0x080000f0   0x080000f0   0x00000004   Code   RO         3296    .ARM.Collect$$$$00000004  mc_w.l(entry5.o)
    0x080000f4   0x080000f4   0x00000000   Code   RO         3298    .ARM.Collect$$$$00000008  mc_w.l(entry7b.o)
    0x080000f4   0x080000f4   0x00000000   Code   RO         3300    .ARM.Collect$$$$0000000A  mc_w.l(entry8b.o)
    0x080000f4   0x080000f4   0x00000008   Code   RO         3301    .ARM.Collect$$$$0000000B  mc_w.l(entry9a.o)
    0x080000fc   0x080000fc   0x00000000   Code   RO         3303    .ARM.Collect$$$$0000000D  mc_w.l(entry10a.o)
    0x080000fc   0x080000fc   0x00000000   Code   RO         3305    .ARM.Collect$$$$0000000F  mc_w.l(entry11a.o)
    0x080000fc   0x080000fc   0x00000004   Code   RO         3294    .ARM.Collect$$$$00002712  mc_w.l(entry2.o)
    0x08000100   0x08000100   0x00000024   Code   RO            4    .text               startup_stm32f103xb.o
    0x08000124   0x08000124   0x00000062   Code   RO         2996    .text               mc_w.l(ldiv.o)
    0x08000186   0x08000186   0x00000020   Code   RO         2998    .text               mc_w.l(llushr.o)
    0x080001a6   0x080001a6   0x00000024   Code   RO         3000    .text               mc_w.l(memseta.o)
    0x080001ca   0x080001ca   0x0000000e   Code   RO         3002    .text               mc_w.l(strlen.o)
    0x080001d8   0x080001d8   0x0000001a   Code   RO         3004    .text               mc_w.l(memcmp.o)
    0x080001f2   0x080001f2   0x000000b0   Code   RO         3267    .text               mf_w.l(fadd.o)
    0x080002a2   0x080002a2   0x00000064   Code   RO         3269    .text               mf_w.l(fmul.o)
    0x08000306   0x08000306   0x0000007c   Code   RO         3271    .text               mf_w.l(fdiv.o)
    0x08000382   0x08000382   0x00000018   Code   RO         3273    .text               mf_w.l(fscalb.o)
    0x0800039a   0x0800039a   0x0000014e   Code   RO         3275    .text               mf_w.l(dadd.o)
    0x080004e8   0x080004e8   0x000000de   Code   RO         3277    .text               mf_w.l(ddiv.o)
    0x080005c6   0x080005c6   0x00000012   Code   RO         3279    .text               mf_w.l(fflti.o)
    0x080005d8   0x080005d8   0x0000000a   Code   RO         3281    .text               mf_w.l(ffltui.o)
    0x080005e2   0x080005e2   0x00000032   Code   RO         3285    .text               mf_w.l(ffixi.o)
    0x08000614   0x08000614   0x00000028   Code   RO         3287    .text               mf_w.l(ffixui.o)
    0x0800063c   0x0800063c   0x00000026   Code   RO         3289    .text               mf_w.l(f2d.o)
    0x08000662   0x08000662   0x0000002c   Code   RO         3308    .text               mc_w.l(uidiv.o)
    0x0800068e   0x0800068e   0x00000062   Code   RO         3310    .text               mc_w.l(uldiv.o)
    0x080006f0   0x080006f0   0x0000001e   Code   RO         3312    .text               mc_w.l(llshl.o)
    0x0800070e   0x0800070e   0x00000024   Code   RO         3314    .text               mc_w.l(llsshr.o)
    0x08000732   0x08000732   0x00000000   Code   RO         3316    .text               mc_w.l(iusefp.o)
    0x08000732   0x08000732   0x0000006e   Code   RO         3317    .text               mf_w.l(fepilogue.o)
    0x080007a0   0x080007a0   0x000000ba   Code   RO         3319    .text               mf_w.l(depilogue.o)
    0x0800085a   0x0800085a   0x000000e4   Code   RO         3321    .text               mf_w.l(dmul.o)
    0x0800093e   0x0800093e   0x00000030   Code   RO         3323    .text               mf_w.l(dfixul.o)
    0x0800096e   0x0800096e   0x00000002   PAD
    0x08000970   0x08000970   0x00000030   Code   RO         3325    .text               mf_w.l(cdrcmple.o)
    0x080009a0   0x080009a0   0x00000024   Code   RO         3327    .text               mc_w.l(init.o)
    0x080009c4   0x080009c4   0x00000002   Code   RO          323    i.BusFault_Handler  stm32f1xx_it.o
    0x080009c6   0x080009c6   0x00000002   PAD
    0x080009c8   0x080009c8   0x0000000c   Code   RO          324    i.DMA1_Channel4_IRQHandler  stm32f1xx_it.o
    0x080009d4   0x080009d4   0x0000002a   Code   RO         1288    i.DMA_SetConfig     stm32f1xx_hal_dma.o
    0x080009fe   0x080009fe   0x00000002   PAD
    0x08000a00   0x08000a00   0x0000002c   Code   RO         2322    i.DMP_Read_Len      mpu6050.o
    0x08000a2c   0x08000a2c   0x0000002c   Code   RO         2323    i.DMP_Write_Len     mpu6050.o
    0x08000a58   0x08000a58   0x00000002   Code   RO          325    i.DebugMon_Handler  stm32f1xx_it.o
    0x08000a5a   0x08000a5a   0x00000004   Code   RO           13    i.Error_Handler     main.o
    0x08000a5e   0x08000a5e   0x00000046   Code   RO         1289    i.HAL_DMA_Abort     stm32f1xx_hal_dma.o
    0x08000aa4   0x08000aa4   0x00000098   Code   RO         1290    i.HAL_DMA_Abort_IT  stm32f1xx_hal_dma.o
    0x08000b3c   0x08000b3c   0x00000154   Code   RO         1294    i.HAL_DMA_IRQHandler  stm32f1xx_hal_dma.o
    0x08000c90   0x08000c90   0x0000005c   Code   RO         1295    i.HAL_DMA_Init      stm32f1xx_hal_dma.o
    0x08000cec   0x08000cec   0x00000070   Code   RO         1299    i.HAL_DMA_Start_IT  stm32f1xx_hal_dma.o
    0x08000d5c   0x08000d5c   0x00000024   Code   RO          915    i.HAL_Delay         stm32f1xx_hal.o
    0x08000d80   0x08000d80   0x000001e0   Code   RO         1225    i.HAL_GPIO_Init     stm32f1xx_hal_gpio.o
    0x08000f60   0x08000f60   0x0000000c   Code   RO          919    i.HAL_GetTick       stm32f1xx_hal.o
    0x08000f6c   0x08000f6c   0x00000188   Code   RO          482    i.HAL_I2C_Init      stm32f1xx_hal_i2c.o
    0x080010f4   0x080010f4   0x0000012c   Code   RO          495    i.HAL_I2C_Master_Transmit  stm32f1xx_hal_i2c.o
    0x08001220   0x08001220   0x00000250   Code   RO          500    i.HAL_I2C_Mem_Read  stm32f1xx_hal_i2c.o
    0x08001470   0x08001470   0x00000130   Code   RO          503    i.HAL_I2C_Mem_Write  stm32f1xx_hal_i2c.o
    0x080015a0   0x080015a0   0x0000005c   Code   RO          228    i.HAL_I2C_MspInit   i2c.o
    0x080015fc   0x080015fc   0x00000010   Code   RO          925    i.HAL_IncTick       stm32f1xx_hal.o
    0x0800160c   0x0800160c   0x00000024   Code   RO          926    i.HAL_Init          stm32f1xx_hal.o
    0x08001630   0x08001630   0x00000040   Code   RO          927    i.HAL_InitTick      stm32f1xx_hal.o
    0x08001670   0x08001670   0x0000003c   Code   RO          411    i.HAL_MspInit       stm32f1xx_hal_msp.o
    0x080016ac   0x080016ac   0x0000001a   Code   RO         1385    i.HAL_NVIC_EnableIRQ  stm32f1xx_hal_cortex.o
    0x080016c6   0x080016c6   0x00000002   PAD
    0x080016c8   0x080016c8   0x00000040   Code   RO         1391    i.HAL_NVIC_SetPriority  stm32f1xx_hal_cortex.o
    0x08001708   0x08001708   0x00000024   Code   RO         1392    i.HAL_NVIC_SetPriorityGrouping  stm32f1xx_hal_cortex.o
    0x0800172c   0x0800172c   0x0000012c   Code   RO         1083    i.HAL_RCC_ClockConfig  stm32f1xx_hal_rcc.o
    0x08001858   0x08001858   0x00000020   Code   RO         1090    i.HAL_RCC_GetPCLK1Freq  stm32f1xx_hal_rcc.o
    0x08001878   0x08001878   0x00000020   Code   RO         1091    i.HAL_RCC_GetPCLK2Freq  stm32f1xx_hal_rcc.o
    0x08001898   0x08001898   0x0000004c   Code   RO         1092    i.HAL_RCC_GetSysClockFreq  stm32f1xx_hal_rcc.o
    0x080018e4   0x080018e4   0x00000320   Code   RO         1095    i.HAL_RCC_OscConfig  stm32f1xx_hal_rcc.o
    0x08001c04   0x08001c04   0x00000028   Code   RO         1396    i.HAL_SYSTICK_Config  stm32f1xx_hal_cortex.o
    0x08001c2c   0x08001c2c   0x00000002   Code   RO         1933    i.HAL_UARTEx_RxEventCallback  stm32f1xx_hal_uart.o
    0x08001c2e   0x08001c2e   0x00000002   Code   RO         1947    i.HAL_UART_ErrorCallback  stm32f1xx_hal_uart.o
    0x08001c30   0x08001c30   0x0000026c   Code   RO         1950    i.HAL_UART_IRQHandler  stm32f1xx_hal_uart.o
    0x08001e9c   0x08001e9c   0x00000064   Code   RO         1951    i.HAL_UART_Init     stm32f1xx_hal_uart.o
    0x08001f00   0x08001f00   0x000000b4   Code   RO          270    i.HAL_UART_MspInit  usart.o
    0x08001fb4   0x08001fb4   0x00000002   Code   RO         1957    i.HAL_UART_RxCpltCallback  stm32f1xx_hal_uart.o
    0x08001fb6   0x08001fb6   0x0000009a   Code   RO         1959    i.HAL_UART_Transmit  stm32f1xx_hal_uart.o
    0x08002050   0x08002050   0x00000078   Code   RO         1960    i.HAL_UART_Transmit_DMA  stm32f1xx_hal_uart.o
    0x080020c8   0x080020c8   0x00000002   Code   RO         1962    i.HAL_UART_TxCpltCallback  stm32f1xx_hal_uart.o
    0x080020ca   0x080020ca   0x00000002   Code   RO         1963    i.HAL_UART_TxHalfCpltCallback  stm32f1xx_hal_uart.o
    0x080020cc   0x080020cc   0x00000002   Code   RO          326    i.HardFault_Handler  stm32f1xx_it.o
    0x080020ce   0x080020ce   0x0000002e   Code   RO          525    i.I2C_IsAcknowledgeFailed  stm32f1xx_hal_i2c.o
    0x080020fc   0x080020fc   0x0000009c   Code   RO          529    i.I2C_MasterRequestWrite  stm32f1xx_hal_i2c.o
    0x08002198   0x08002198   0x000000fc   Code   RO          535    i.I2C_RequestMemoryRead  stm32f1xx_hal_i2c.o
    0x08002294   0x08002294   0x000000a8   Code   RO          536    i.I2C_RequestMemoryWrite  stm32f1xx_hal_i2c.o
    0x0800233c   0x0800233c   0x00000056   Code   RO          540    i.I2C_WaitOnBTFFlagUntilTimeout  stm32f1xx_hal_i2c.o
    0x08002392   0x08002392   0x00000002   PAD
    0x08002394   0x08002394   0x00000090   Code   RO          541    i.I2C_WaitOnFlagUntilTimeout  stm32f1xx_hal_i2c.o
    0x08002424   0x08002424   0x000000bc   Code   RO          542    i.I2C_WaitOnMasterAddressFlagUntilTimeout  stm32f1xx_hal_i2c.o
    0x080024e0   0x080024e0   0x00000070   Code   RO          543    i.I2C_WaitOnRXNEFlagUntilTimeout  stm32f1xx_hal_i2c.o
    0x08002550   0x08002550   0x00000056   Code   RO          544    i.I2C_WaitOnTXEFlagUntilTimeout  stm32f1xx_hal_i2c.o
    0x080025a6   0x080025a6   0x00000072   Code   RO         2327    i.MPU_Init          mpu6050.o
    0x08002618   0x08002618   0x00000038   Code   RO         2328    i.MPU_Read_Byte     mpu6050.o
    0x08002650   0x08002650   0x0000000a   Code   RO         2330    i.MPU_Set_Accel_Fsr  mpu6050.o
    0x0800265a   0x0800265a   0x0000000a   Code   RO         2331    i.MPU_Set_Gyro_Fsr  mpu6050.o
    0x08002664   0x08002664   0x00000030   Code   RO         2332    i.MPU_Set_LPF       mpu6050.o
    0x08002694   0x08002694   0x0000002e   Code   RO         2333    i.MPU_Set_Rate      mpu6050.o
    0x080026c2   0x080026c2   0x00000002   PAD
    0x080026c4   0x080026c4   0x00000034   Code   RO         2334    i.MPU_Write_Byte    mpu6050.o
    0x080026f8   0x080026f8   0x0000002c   Code   RO          203    i.MX_DMA_Init       dma.o
    0x08002724   0x08002724   0x0000004c   Code   RO          179    i.MX_GPIO_Init      gpio.o
    0x08002770   0x08002770   0x00000040   Code   RO          229    i.MX_I2C1_Init      i2c.o
    0x080027b0   0x080027b0   0x00000038   Code   RO          271    i.MX_USART1_UART_Init  usart.o
    0x080027e8   0x080027e8   0x00000002   Code   RO          327    i.MemManage_Handler  stm32f1xx_it.o
    0x080027ea   0x080027ea   0x00000002   Code   RO          328    i.NMI_Handler       stm32f1xx_it.o
    0x080027ec   0x080027ec   0x00000002   Code   RO          329    i.PendSV_Handler    stm32f1xx_it.o
    0x080027ee   0x080027ee   0x00000002   Code   RO          330    i.SVC_Handler       stm32f1xx_it.o
    0x080027f0   0x080027f0   0x00000004   Code   RO          331    i.SysTick_Handler   stm32f1xx_it.o
    0x080027f4   0x080027f4   0x0000005e   Code   RO           14    i.SystemClock_Config  main.o
    0x08002852   0x08002852   0x00000002   Code   RO         2285    i.SystemInit        system_stm32f1xx.o
    0x08002854   0x08002854   0x00000010   Code   RO         1964    i.UART_DMAAbortOnError  stm32f1xx_hal_uart.o
    0x08002864   0x08002864   0x0000004a   Code   RO         1965    i.UART_DMAError     stm32f1xx_hal_uart.o
    0x080028ae   0x080028ae   0x00000042   Code   RO         1970    i.UART_DMATransmitCplt  stm32f1xx_hal_uart.o
    0x080028f0   0x080028f0   0x0000000a   Code   RO         1972    i.UART_DMATxHalfCplt  stm32f1xx_hal_uart.o
    0x080028fa   0x080028fa   0x0000004e   Code   RO         1974    i.UART_EndRxTransfer  stm32f1xx_hal_uart.o
    0x08002948   0x08002948   0x0000001c   Code   RO         1975    i.UART_EndTxTransfer  stm32f1xx_hal_uart.o
    0x08002964   0x08002964   0x000000c2   Code   RO         1976    i.UART_Receive_IT   stm32f1xx_hal_uart.o
    0x08002a26   0x08002a26   0x00000002   PAD
    0x08002a28   0x08002a28   0x000000b8   Code   RO         1977    i.UART_SetConfig    stm32f1xx_hal_uart.o
    0x08002ae0   0x08002ae0   0x00000078   Code   RO         1980    i.UART_WaitOnFlagUntilTimeout  stm32f1xx_hal_uart.o
    0x08002b58   0x08002b58   0x0000000c   Code   RO          332    i.USART1_IRQHandler  stm32f1xx_it.o
    0x08002b64   0x08002b64   0x00000002   Code   RO          333    i.UsageFault_Handler  stm32f1xx_it.o
    0x08002b66   0x08002b66   0x00000002   PAD
    0x08002b68   0x08002b68   0x00000020   Code   RO         3239    i.__0printf         mc_w.l(printfa.o)
    0x08002b88   0x08002b88   0x00000030   Code   RO         3240    i.__0snprintf       mc_w.l(printfa.o)
    0x08002bb8   0x08002bb8   0x00000020   Code   RO         1398    i.__NVIC_SetPriority  stm32f1xx_hal_cortex.o
    0x08002bd8   0x08002bd8   0x0000000e   Code   RO         3331    i.__scatterload_copy  mc_w.l(handlers.o)
    0x08002be6   0x08002be6   0x00000002   Code   RO         3332    i.__scatterload_null  mc_w.l(handlers.o)
    0x08002be8   0x08002be8   0x0000000e   Code   RO         3333    i.__scatterload_zeroinit  mc_w.l(handlers.o)
    0x08002bf6   0x08002bf6   0x00000002   PAD
    0x08002bf8   0x08002bf8   0x00000184   Code   RO         3246    i._fp_digits        mc_w.l(printfa.o)
    0x08002d7c   0x08002d7c   0x000006dc   Code   RO         3247    i._printf_core      mc_w.l(printfa.o)
    0x08003458   0x08003458   0x00000024   Code   RO         3248    i._printf_post_padding  mc_w.l(printfa.o)
    0x0800347c   0x0800347c   0x0000002e   Code   RO         3249    i._printf_pre_padding  mc_w.l(printfa.o)
    0x080034aa   0x080034aa   0x00000016   Code   RO         3250    i._snputc           mc_w.l(printfa.o)
    0x080034c0   0x080034c0   0x00000080   Code   RO         2425    i.accel_self_test   inv_mpu.o
    0x08003540   0x08003540   0x0000003a   Code   RO         2780    i.dmp_enable_6x_lp_quat  inv_mpu_dmp_motion_driver.o
    0x0800357a   0x0800357a   0x00000002   PAD
    0x0800357c   0x0800357c   0x000001d8   Code   RO         2781    i.dmp_enable_feature  inv_mpu_dmp_motion_driver.o
    0x08003754   0x08003754   0x0000003c   Code   RO         2782    i.dmp_enable_gyro_cal  inv_mpu_dmp_motion_driver.o
    0x08003790   0x08003790   0x0000003a   Code   RO         2783    i.dmp_enable_lp_quat  inv_mpu_dmp_motion_driver.o
    0x080037ca   0x080037ca   0x00000002   PAD
    0x080037cc   0x080037cc   0x00000014   Code   RO         2788    i.dmp_load_motion_driver_firmware  inv_mpu_dmp_motion_driver.o
    0x080037e0   0x080037e0   0x00000144   Code   RO         2789    i.dmp_read_fifo     inv_mpu_dmp_motion_driver.o
    0x08003924   0x08003924   0x000000d8   Code   RO         2792    i.dmp_set_accel_bias  inv_mpu_dmp_motion_driver.o
    0x080039fc   0x080039fc   0x00000064   Code   RO         2793    i.dmp_set_fifo_rate  inv_mpu_dmp_motion_driver.o
    0x08003a60   0x08003a60   0x000000cc   Code   RO         2794    i.dmp_set_gyro_bias  inv_mpu_dmp_motion_driver.o
    0x08003b2c   0x08003b2c   0x0000010c   Code   RO         2796    i.dmp_set_orientation  inv_mpu_dmp_motion_driver.o
    0x08003c38   0x08003c38   0x00000030   Code   RO         2799    i.dmp_set_shake_reject_thresh  inv_mpu_dmp_motion_driver.o
    0x08003c68   0x08003c68   0x00000020   Code   RO         2800    i.dmp_set_shake_reject_time  inv_mpu_dmp_motion_driver.o
    0x08003c88   0x08003c88   0x00000020   Code   RO         2801    i.dmp_set_shake_reject_timeout  inv_mpu_dmp_motion_driver.o
    0x08003ca8   0x08003ca8   0x00000040   Code   RO         2802    i.dmp_set_tap_axes  inv_mpu_dmp_motion_driver.o
    0x08003ce8   0x08003ce8   0x00000022   Code   RO         2803    i.dmp_set_tap_count  inv_mpu_dmp_motion_driver.o
    0x08003d0a   0x08003d0a   0x00000002   PAD
    0x08003d0c   0x08003d0c   0x00000128   Code   RO         2804    i.dmp_set_tap_thresh  inv_mpu_dmp_motion_driver.o
    0x08003e34   0x08003e34   0x00000020   Code   RO         2805    i.dmp_set_tap_time  inv_mpu_dmp_motion_driver.o
    0x08003e54   0x08003e54   0x00000020   Code   RO         2806    i.dmp_set_tap_time_multi  inv_mpu_dmp_motion_driver.o
    0x08003e74   0x08003e74   0x00000018   Code   RO          273    i.fputc             usart.o
    0x08003e8c   0x08003e8c   0x000000ac   Code   RO         2426    i.get_accel_prod_shift  inv_mpu.o
    0x08003f38   0x08003f38   0x00000314   Code   RO         2427    i.get_st_biases     inv_mpu.o
    0x0800424c   0x0800424c   0x000000d4   Code   RO         2428    i.gyro_self_test    inv_mpu.o
    0x08004320   0x08004320   0x00000022   Code   RO         2429    i.inv_orientation_matrix_to_scalar  inv_mpu.o
    0x08004342   0x08004342   0x00000048   Code   RO         2430    i.inv_row_2_scale   inv_mpu.o
    0x0800438a   0x0800438a   0x00000002   PAD
    0x0800438c   0x0800438c   0x00000074   Code   RO           15    i.main              main.o
    0x08004400   0x08004400   0x00000002   Code   RO         2431    i.mget_ms           inv_mpu.o
    0x08004402   0x08004402   0x00000002   PAD
    0x08004404   0x08004404   0x00000054   Code   RO         2432    i.mpu_configure_fifo  inv_mpu.o
    0x08004458   0x08004458   0x00000078   Code   RO         2433    i.mpu_dmp_get_data  inv_mpu.o
    0x080044d0   0x080044d0   0x000000a0   Code   RO         2434    i.mpu_dmp_init      inv_mpu.o
    0x08004570   0x08004570   0x0000003c   Code   RO         2435    i.mpu_get_accel_fsr  inv_mpu.o
    0x080045ac   0x080045ac   0x00000044   Code   RO         2437    i.mpu_get_accel_sens  inv_mpu.o
    0x080045f0   0x080045f0   0x00000034   Code   RO         2443    i.mpu_get_gyro_fsr  inv_mpu.o
    0x08004624   0x08004624   0x00000040   Code   RO         2445    i.mpu_get_gyro_sens  inv_mpu.o
    0x08004664   0x08004664   0x00000038   Code   RO         2447    i.mpu_get_lpf       inv_mpu.o
    0x0800469c   0x0800469c   0x0000001c   Code   RO         2449    i.mpu_get_sample_rate  inv_mpu.o
    0x080046b8   0x080046b8   0x00000188   Code   RO         2451    i.mpu_init          inv_mpu.o
    0x08004840   0x08004840   0x000000a0   Code   RO         2452    i.mpu_load_firmware  inv_mpu.o
    0x080048e0   0x080048e0   0x000000b8   Code   RO         2453    i.mpu_lp_accel_mode  inv_mpu.o
    0x08004998   0x08004998   0x00000090   Code   RO         2456    i.mpu_read_fifo_stream  inv_mpu.o
    0x08004a28   0x08004a28   0x00000054   Code   RO         2457    i.mpu_read_mem      inv_mpu.o
    0x08004a7c   0x08004a7c   0x00000160   Code   RO         2460    i.mpu_reset_fifo    inv_mpu.o
    0x08004bdc   0x08004bdc   0x000000f0   Code   RO         2461    i.mpu_run_self_test  inv_mpu.o
    0x08004ccc   0x08004ccc   0x00000068   Code   RO         2463    i.mpu_set_accel_fsr  inv_mpu.o
    0x08004d34   0x08004d34   0x000000dc   Code   RO         2464    i.mpu_set_bypass    inv_mpu.o
    0x08004e10   0x08004e10   0x00000078   Code   RO         2466    i.mpu_set_dmp_state  inv_mpu.o
    0x08004e88   0x08004e88   0x0000006c   Code   RO         2467    i.mpu_set_gyro_fsr  inv_mpu.o
    0x08004ef4   0x08004ef4   0x00000064   Code   RO         2468    i.mpu_set_int_latched  inv_mpu.o
    0x08004f58   0x08004f58   0x0000006c   Code   RO         2470    i.mpu_set_lpf       inv_mpu.o
    0x08004fc4   0x08004fc4   0x00000080   Code   RO         2471    i.mpu_set_sample_rate  inv_mpu.o
    0x08005044   0x08005044   0x000000b8   Code   RO         2472    i.mpu_set_sensors   inv_mpu.o
    0x080050fc   0x080050fc   0x00000054   Code   RO         2473    i.mpu_write_mem     inv_mpu.o
    0x08005150   0x08005150   0x00000080   Code   RO         2474    i.run_self_test     inv_mpu.o
    0x080051d0   0x080051d0   0x00000028   Code   RO         2969    i.selectPort        pca9548.o
    0x080051f8   0x080051f8   0x000000c4   Code   RO           16    i.sentData_Uart     main.o
    0x080052bc   0x080052bc   0x00000058   Code   RO         2475    i.set_int_enable    inv_mpu.o
    0x08005314   0x08005314   0x00000012   Data   RO         1096    .constdata          stm32f1xx_hal_rcc.o
    0x08005326   0x08005326   0x00000010   Data   RO         2286    .constdata          system_stm32f1xx.o
    0x08005336   0x08005336   0x00000008   Data   RO         2287    .constdata          system_stm32f1xx.o
    0x0800533e   0x0800533e   0x0000001b   Data   RO         2477    .constdata          inv_mpu.o
    0x08005359   0x08005359   0x00000001   PAD
    0x0800535a   0x0800535a   0x0000000c   Data   RO         2478    .constdata          inv_mpu.o
    0x08005366   0x08005366   0x00000002   PAD
    0x08005368   0x08005368   0x00000028   Data   RO         2479    .constdata          inv_mpu.o
    0x08005390   0x08005390   0x00000bf6   Data   RO         2808    .constdata          inv_mpu_dmp_motion_driver.o
    0x08005f86   0x08005f86   0x00000002   PAD
    0x08005f88   0x08005f88   0x0000004d   Data   RO         2480    .conststring        inv_mpu.o
    0x08005fd5   0x08005fd5   0x00000003   PAD
    0x08005fd8   0x08005fd8   0x00000020   Data   RO         3329    Region$$Table       anon$$obj.o


    Execution Region RW_IRAM1 (Exec base: 0x20000000, Load base: 0x08005ff8, Size: 0x000005b0, Max: 0x00005000, ABSOLUTE)

    Exec Addr    Load Addr    Size         Type   Attr      Idx    E Section Name        Object

    0x20000000   0x08005ff8   0x0000000c   Data   RW          933    .data               stm32f1xx_hal.o
    0x2000000c   0x08006004   0x00000004   Data   RW         2288    .data               system_stm32f1xx.o
    0x20000010   0x08006008   0x00000035   Data   RW         2481    .data               inv_mpu.o
    0x20000045   0x0800603d   0x00000003   PAD
    0x20000048   0x08006040   0x00000004   Data   RW         3307    .data               mc_w.l(stdout.o)
    0x2000004c        -       0x00000074   Zero   RW           17    .bss                main.o
    0x200000c0        -       0x00000054   Zero   RW          230    .bss                i2c.o
    0x20000114        -       0x0000008c   Zero   RW          274    .bss                usart.o
    0x200001a0        -       0x00000010   Zero   RW         2807    .bss                inv_mpu_dmp_motion_driver.o
    0x200001b0        -       0x00000400   Zero   RW            1    STACK               startup_stm32f103xb.o


==============================================================================

Image component sizes


      Code (inc. data)   RO Data    RW Data    ZI Data      Debug   Object Name

        44          4          0          0          0        786   dma.o
        76          6          0          0          0        883   gpio.o
       156         26          0          0         84       1689   i2c.o
      5028        286        156         53          0      30606   inv_mpu.o
      2350        118       3062          0         16      19910   inv_mpu_dmp_motion_driver.o
       410         96          0          0        116     405882   main.o
       424         22          0          0          0       5674   mpu6050.o
        40          6          0          0          0        521   pca9548.o
        36          8        236          0       1024        816   startup_stm32f103xb.o
       164         28          0         12          0       6017   stm32f1xx_hal.o
       198         14          0          0          0      29035   stm32f1xx_hal_cortex.o
       808         36          0          0          0       5090   stm32f1xx_hal_dma.o
       480         34          0          0          0       2292   stm32f1xx_hal_gpio.o
      2826         72          0          0          0      15156   stm32f1xx_hal_i2c.o
        60          8          0          0          0        898   stm32f1xx_hal_msp.o
      1240         84         18          0          0       5208   stm32f1xx_hal_rcc.o
      1774         24          0          0          0      13946   stm32f1xx_hal_uart.o
        44         12          0          0          0       4921   stm32f1xx_it.o
         2          0         24          4          0       1163   system_stm32f1xx.o
       260         34          0          0        140       2337   usart.o

    ----------------------------------------------------------------------
     16444        918       3536         72       1380     552830   Object Totals
         0          0         32          0          0          0   (incl. Generated)
        24          0          8          3          0          0   (incl. Padding)

    ----------------------------------------------------------------------

      Code (inc. data)   RO Data    RW Data    ZI Data      Debug   Library Member Name

         0          0          0          0          0          0   entry.o
         0          0          0          0          0          0   entry10a.o
         0          0          0          0          0          0   entry11a.o
         8          4          0          0          0          0   entry2.o
         4          0          0          0          0          0   entry5.o
         0          0          0          0          0          0   entry7b.o
         0          0          0          0          0          0   entry8b.o
         8          4          0          0          0          0   entry9a.o
        30          0          0          0          0          0   handlers.o
        36          8          0          0          0         68   init.o
         0          0          0          0          0          0   iusefp.o
        98          0          0          0          0         84   ldiv.o
        30          0          0          0          0         68   llshl.o
        36          0          0          0          0         68   llsshr.o
        32          0          0          0          0         68   llushr.o
        26          0          0          0          0         80   memcmp.o
        36          0          0          0          0        108   memseta.o
      2328         94          0          0          0        604   printfa.o
         0          0          0          4          0          0   stdout.o
        14          0          0          0          0         68   strlen.o
        44          0          0          0          0         80   uidiv.o
        98          0          0          0          0         92   uldiv.o
        48          0          0          0          0         68   cdrcmple.o
       334          0          0          0          0        148   dadd.o
       222          0          0          0          0        100   ddiv.o
       186          0          0          0          0        176   depilogue.o
        48          0          0          0          0         68   dfixul.o
       228          0          0          0          0         96   dmul.o
        38          0          0          0          0         68   f2d.o
       176          0          0          0          0        140   fadd.o
       124          0          0          0          0         88   fdiv.o
       110          0          0          0          0        168   fepilogue.o
        50          0          0          0          0         68   ffixi.o
        40          0          0          0          0         68   ffixui.o
        18          0          0          0          0         68   fflti.o
        10          0          0          0          0         68   ffltui.o
       100          0          0          0          0         76   fmul.o
        24          0          0          0          0         68   fscalb.o

    ----------------------------------------------------------------------
      4588        110          0          4          0       2924   Library Totals
         4          0          0          0          0          0   (incl. Padding)

    ----------------------------------------------------------------------

      Code (inc. data)   RO Data    RW Data    ZI Data      Debug   Library Name

      2828        110          0          4          0       1388   mc_w.l
      1756          0          0          0          0       1536   mf_w.l

    ----------------------------------------------------------------------
      4588        110          0          4          0       2924   Library Totals

    ----------------------------------------------------------------------

==============================================================================


      Code (inc. data)   RO Data    RW Data    ZI Data      Debug   

     21032       1028       3536         76       1380     547274   Grand Totals
     21032       1028       3536         76       1380     547274   ELF Image Totals
     21032       1028       3536         76          0          0   ROM Totals

==============================================================================

    Total RO  Size (Code + RO Data)                24568 (  23.99kB)
    Total RW  Size (RW Data + ZI Data)              1456 (   1.42kB)
    Total ROM Size (Code + RO Data + RW Data)      24644 (  24.07kB)

==============================================================================

